:020000040000FA
:1000000058040020552700007D00000083000000F8
:1000100000000000000000000000000000000000E0
:100020000000000000000000000000008900000047
:1000300000000000000000008F000000950000009C
:100040009B000000A1000000A7000000AD00000020
:10005000B3000000B9000000BF000000C5000000B0
:10006000CB000000D1000000D7000000DD00000040
:10007000E3000000E9000000EF0000001E480068F7
:1000800000471E48006800471D48006800471D489B
:10009000006800471C48006800471C48006800478B
:1000A0001B48006800471B48006800471A48006862
:1000B00000471A4800680047194800680047194877
:1000C0000068004718480068004718480068004763
:1000D000174800680047174800680047164800683E
:1000E0000047164800680047154800680047154853
:1000F00000680047FEE70000140000200400002014
:10010000080000200C000020100000201800002033
:100110001C000020200000202400002028000020D7
:100120002C00002030000020340000203800002087
:100130003C00002040000020440000204800002037
:100140004C000020500000200000000000000000D3
:10015000000000000000000000000000000000009F
:10016000000000000000000000000000000000008F
:10017000000000000000000000000000000000007F
:10018000000000000000000000000000000000006F
:10019000000000000000000000000000000000005F
:1001A000000000000000000000000000000000004F
:1001B000000000000000000000000000000000003F
:1001C000000000000000000000000000000000002F
:1001D000000000000000000000000000000000001F
:1001E000000000000000000000000000000000000F
:1001F00000000000000000000000000000000000FF
:100200000502000000F002F800F03EF80CA030C833
:10021000083824182D18A246671EAB4654465D4682
:10022000AC4201D100F030F87E460F3E0FCCB6460E
:100230000126334200D0FB1AA246AB46334318478F
:100240004834000078340000103A02D378C878C1EE
:10025000FAD8520701D330C830C101D504680C6008
:10026000704700000023002400250026103A01D327
:1002700078C1FBD8520700D330C100D50B6070475E
:100280001FB51FBD10B510BD02F0E6F91146FFF70E
:10029000F7FF00F00EF902F0FEF903B4FFF7F2FFEA
:1002A00003BC02F02DFA000010B5002819DABC4A90
:1002B00003071B0F083B9B089B00D2588307DC0EEB
:1002C000FF23A3409A438B071B0E8407E40EA34031
:1002D0001A43B34B0407240F083CA408A4001A5186
:1002E00018E0B04A03231B02D21883089B00D2589F
:1002F0008307DC0EFF23A3409A438B071B0E840762
:10030000E40EA3401A43A74B032424021B198408BC
:10031000A4001A5110BD10B50121C903A24800F074
:10032000F6F8C01310BD10B5012189039E4800F0F6
:10033000EEF8801310BD9D480078704710B502217B
:10034000994800F0E8F8002805D000F003FA0221EF
:10035000954800F0E4F801210903934800F0DBF828
:10036000002817D001209149087001038E4800F041
:10037000D6F8012109038C4800F0C9F8002809D0FB
:1003800000208A4908708020894908704101864808
:1003900000F0C5F810BD00BF8648806840084000E6
:1003A000401C8449886000BF01208349087083484D
:1003B0000068401C81490860704710B500BF804844
:1003C000806840084000401C7D49886000BF01F003
:1003D000B4F810BD10B500210B20FFF765FF002118
:1003E0000820FFF761FF01210220FFF75DFF0321D5
:1003F0000520FFF759FF01210720FFF755FF10BD2A
:1004000010B502F0FDFA00F096F80F2000F089F820
:1004100000BF6C480068482188436A49086000BFF3
:1004200000F043FA00BF01200005664989680143D6
:10043000644A916000BF00BF6349C8600021624AFE
:10044000D16000BF00BF00BF104680698021884393
:100450001146886100BF00BF0020C86100BF00BF17
:100460000021D01DF930016000BF10BD10B5FF2084
:100470001F305549096B0143534A116300BF53486C
:100480001146496B0143516300BF152109055048CE
:1004900000F03BF80F2000034349496802049143F0
:1004A000414A516000BF15210904104600F02DF8A3
:1004B00010BDFFF7A5FFFFF7D9FF00F0F4F800F03B
:1004C000EFFF00F028FB00F097FC00F0E9FD00F0E2
:1004D000EFFF00221146402001F071F83D4800F086
:1004E00057FD7F20C00500F030FD3B4800F030FD97
:1004F00000F08BFD00BF304800780028FBD00020C2
:100500002D49087000F0FFFDF5E7016070470246D5
:100510001069084070470246106A0840704701623F
:10052000704728498969090909010207120F114317
:10053000244A9161704710B500BF012022498968A3
:1005400008229143C20008231A4011431E4A9160B9
:1005500000BF0020114689680422914382000423D1
:100560001A401143184A916000BF00BFFFF7D9FF3E
:1005700007201449096981430143124A116100BFF0
:1005800003201146096A0143116200BF022011468F
:1005900009684022914381430A4A116000BF10BD9F
:1005A0001CED00E000E100E0404000507E0400202F
:1005B00084040020000001407F0400207804002013
:1005C0004000014000020050000000501E070000E3
:1005D0000040005048E17A3F0000C84210B5FFF7E4
:1005E0009AFE8401FFF79FFE40010443E0B210BD74
:1005F00091480068704791480078704770B502F0E4
:100600006FF905468E4901F007F8002807D002F07F
:1006100067F905468A4900F0FFFF401E00E0002010
:1006200084B222468421874802F0B2F9012085492C
:10063000096805221204914382041143814A116022
:1006400000BF00BF114689681022914302011023A8
:100650001A4011437B4A916000BF0021104600F010
:10066000E8F8784800F0DDF802200121764A926926
:100670008243754B9A61002904D01A46D26902431D
:10068000DA6104E0704AD26982436F4BDA6100BFDD
:1006900070BD10B5044621466A4800F0CAF86948A2
:1006A00000F0BFF810BD70B502F01AF905466749B1
:1006B00000F0B2FF002807D002F012F905466349A6
:1006C00000F0AAFF401E00E0002084B222468221F2
:1006D0005F4802F05DF901200021C2008B00D218B2
:1006E0005B4B9A6000BF00BF194689688908890082
:1006F00001431A46916000BF012110201268554B3A
:100700001A404B1E1B021A43C3001A43504B1A6077
:1007100000BF70BD10B5044621464D4800F089F871
:100720004B4800F07EF810BD70B504460D462146DA
:10073000474800F07EF8464800F073F800BF00BF5D
:1007400043480068C007C00F0028F8D100BF4048E8
:10075000006970BD30B589B00024002168468180F1
:1007600081823CE000BF00BF36480068C007C00F70
:10077000002805D00221344800F04FF80028F2D0BC
:100780000221314800F049F8002828D100BF2D4847
:100790000069610001AA505200BF2D480069610044
:1007A00005AA5052600001A9085C23490860600056
:1007B00001A9085A0005000F204908806100515A1C
:1007C000254A127811430846FFF763FF610001AA2A
:1007D000505AFFF79FFF082C01DA601CC4B20221B7
:1007E000194800F01AF80028BCD0FFF7F7FE611E88
:1007F000490005AA515A184A127811430843054680
:10080000FFF747FF611E490001AA505AFFF782FF18
:1008100000201149087009B030BD02461069084037
:1008200070470168012212049143012211430160C3
:100830007047016270470000880400208604002091
:1008400000127A000040034040400050A0860100A2
:100850000000034007FCFEFF8404002010B59A4A04
:10086000126C30239A430301302423401A43964BE1
:100870001A641A46126C920892008B079B0F1A4357
:10088000914B1A6410BD10B500BF8F48006BC007B4
:10089000C00F002808D0002081008B4A515809B2AF
:1008A0008A48016000F0F5F810BD70B500240025FD
:1008B0000220874949690C22914382000C231A4087
:1008C0001143834A516100BF2B2011468969814A37
:1008D000114002047F4BDB431A4011437C4A916173
:1008E00000BF01F0FDFF044600BF02F029F80646F4
:1008F000774880690001000D411C304600F08CFEF5
:10090000054670BD70B5044600250AE000BF6E487C
:10091000006BC007C00F002803D000F0BAF8681CB5
:1009200085B2A542F2DB70BD10B500F0BBF8052022
:100930000002FFF7E7FF00BF00F0ABF86248006A73
:1009400002218843801C6049086202200121814005
:1009500042099200604BD218116000BF00BF10BD69
:10096000FEB501F093FF00BF5748006A4008400001
:10097000401C5549086200BF00BF0846C06B0321F8
:10098000890508435049C86300BF00210846FFF7A6
:1009900065FF642002F05AF803210846FFF75EFF66
:1009A00000F089F8002110220B460120464CE46B30
:1009B00084430443444DEC632C46E46B0625AC436E
:1009C0005D00062635402C433F4DEC632C46E46B1E
:1009D000424D2C401502414EF64335402C433A4DD2
:1009E000EC632C46E46B1F252D06AC430D061F2639
:1009F000360635402C43344DEC6300BF03202946B6
:100A0000096A0C22914382000C231A4011432A46A2
:100A1000116200BF01201146096A020391430203DB
:100A200003031A4011432A46116200BF00200F2120
:100A30000A460B460C460D46009101910E013618F0
:100A40001702F719009E3603BE191F04F619270571
:100A5000F6192F06F719019E3607BE191A4F7E6246
:100A600000BF00F01FF801F085FE00BF1C480088A1
:100A700040001C490988081A00B21A490880002061
:100A8000085E1949C86000BF00F015F8FFF74CFF79
:100A9000FEBD0D48006B06218843012108430A4929
:100AA000086370470848006A0121C902884340185A
:100AB0000549086270470448006A0121C902884359
:100AC000014908627047000000000E408C040020BD
:100AD00000020050FFFF00F000E100E0FF00FEFF19
:100AE000F6040020FA040020008000508022121A30
:100AF00091B24D4A916200BF70478022121A91B2A2
:100B0000494AD16100BF70478022121A91B2464A09
:100B1000116100BF704770B50424002503204349CC
:100B2000496902079143020703071A4011433F4AEC
:100B3000516100BF00BF3C488068042188433A49A6
:100B4000886000BF00BF0846C06F40084000401CDE
:100B5000C86700BF00BF0846C06F02218843801CE1
:100B60003149C86700BF00BF0846C06F04218843F1
:100B7000001D2D49C86700BF00BF084680681021CE
:100B800088432949886000BF00BF0846806820214B
:100B900088432549886000BF601EC1B27F232A4672
:100BA000012000F00AF80020FFF7AEFF0020FFF759
:100BB000A4FF0020FFF79AFF70BD70B500BF1A4C6C
:100BC000A4680825AC43C500082635402C43164DC3
:100BD000AC6000BF2C462468240A2402CDB22C430A
:100BE000114D2C602C466468E408E40055076D0F35
:100BF0002C430D4D6C602C46E468240C24049DB2FB
:100C00002C43094DEC6000BF2C46646C6408640002
:100C1000641C6C6400BF00BF2C46A46864086400B8
:100C2000641CAC6000BF70BD0000044000020050B6
:100C3000F0B585B000242EE0204601F05EF80546B0
:100C400003225207FB4B01F05BF80022FA4B0191A3
:100C5000009000F0CFFD0391029000F08DFD07465B
:100C6000384601F071F9054602F068FA0022F34BAC
:100C70000191009001F044F80391029000F0DEFF32
:100C800000B26100EE4A505260001146085A6100FD
:100C9000EC4A5052641CFF2CCED905B0F0BDF0B523
:100CA00087B0E948069000246FE0204601F025F85F
:100CB000054603225207DF4B01F022F80022DE4BEB
:100CC0000391029000F096FD0591049000F054FD10
:100CD00007460021384602F047FB18D838460699E7
:100CE00002F0C0FA13D2384601F02EF9054602F0A0
:100CF00025FA0022D54B0391029001F001F80591ED
:100D0000049000F09BFF00B26100D14A5052384677
:100D1000069902F029FB29D801208007069902F0E4
:100D2000CBFA0546394602F01FFB1FD2012080078F
:100D3000069902F0C1FA3946009002F041FB019099
:100D400001F002F9054602F0F9F90122D2075140FB
:100D50000022BE4B0391029000F0D2FF0591049057
:100D600000F06CFF00B26100B94A505201208007C8
:100D7000069902F0A1FA0546394602F073FA03D843
:100D800000206100B24A5052641CFF2C8DD907B07C
:100D9000F0BDF0B585B0002428E0204600F0ADFF9E
:100DA000054603225207A34B00F0AAFF0022A94BDD
:100DB0000191009000F01EFD0391029000F0DCFC18
:100DC0000746384601F0C0F8054602F0B7F90022A0
:100DD000A14B0191009000F093FF0391029000F06D
:100DE0002DFF00B261009D4A5052641C0120800218
:100DF0008442D2D305B0F0BD10B5FFF719FFFFF75D
:100E00004EFFFFF7C6FF0020954908705520954911
:100E10000870AA2094490870002094494969072263
:100E200012029143020207231B021A4011438F4A08
:100E3000516100BF8E493C2004228C4B9B681343B8
:100E40008A4CA36000BF00BF8A4BDA600023894C44
:100E5000E36000BF884A5268120C12040243864BBA
:100E60005A601A46116000BF00BF104600680907AB
:100E70008843401811460860052000F081FA00BF41
:100E8000052000F07DFA00BF7B480068012189073A
:100E9000884340187849086000BF10BD704800784A
:100EA000401C6F4908706F480078401C6D490870FD
:100EB0006D480078401C6C4908707047684800789D
:100EC000401E6749087067480078401E65490870F1
:100ED00065480078401E64490870704710B5604945
:100EE00009784900574A515A403188B2FFF70CFE41
:100EF0005C4909784900534A515A403188B2FFF79A
:100F0000FCFD5949097849004E4A515A403188B28E
:100F1000FFF7ECFD10BD10B55149097849004C4A66
:100F2000515A88B2FFF7F0FD4E4909784900484A06
:100F3000515A88B2FFF7E1FD4B4909784900444A0C
:100F4000515A88B2FFF7D2FD10BD4C490860704776
:100F5000F1B5009800F0F8FF04460022484B00F07D
:100F600049FC064600F008FC00904649009802F053
:100F7000A3F905460121890701F010F8044601F0A4
:100F8000E3F8414908602320000240490860F8BDA9
:100F9000F8B50546002410E06100294A505E01F0D2
:100FA0000FF90746294602F087F9064601F0A6F830
:100FB00000B26100234A5052641CFF2CECD9F8BDEA
:100FC000334908707047002806D10021314A11804A
:100FD000314A11602E4A1170012805D100212D4A95
:100FE000118001212A4A1170032805D12B49294A71
:100FF00011800321264A1170022805D12749254A6C
:1010000011800221224A1170704710B50120FFF7AC
:10101000DAFF10BD10B50320FFF7D5FF10BD10B5E6
:101020000020FFF771FD0020FFF767FD0020FFF7AC
:101030005DFD10BDFB2119400000704000005040D4
:101040000407002004050020920A064000006040CA
:1010500004090020000090400088C340040B0020D9
:101060009204002093040020940400200002005009
:101070003200006800000050000001409804002089
:10108000000059400000E0449C040020A00400201F
:10109000CA040020C8040020A40400208813000013
:1010A00010B5FFF7BCFF0020FFF78DFF10BDB9485A
:1010B0000078704710B5B8480068B849086008461D
:1010C0000168B748006802F087F8044601218907E3
:1010D00000F064FFB3490860B3480078002802D1EB
:1010E0000120B249087010BDAB480068AC490860E7
:1010F00070470020AC490870AD490870AB490870D2
:10110000AC490860704770B5A2480078002800D14B
:1011100070BDA048007801280CD1A7480088401C69
:10112000A549088008460088A449884202DB0220BD
:10113000FFF749FF97480078022807D095480078C4
:10114000012803D09348007803287CD19C4801688B
:101150008920C00502F0B0F806468F480168304685
:1011600002F0AAF8054600F0EFFF9649086008462D
:1011700000888005800D086008460068400092499C
:10118000085A9249088092480068FF21013188423C
:1011900005D88C480068884201D9FFF7AAFF8C481F
:1011A000006803210902884205D886480068884201
:1011B00001D9FFF79EFF834800688549086083498D
:1011C0000020085E002801DB014600E04142FF22CA
:1011D000F532914209DA7F48007800280ED10120CB
:1011E0007C490870FFF780FF08E07A480078002803
:1011F00004D0002077490870FFF75CFF764801684B
:101200006548006801F0E8FF634908607349694870
:10121000006800F0C3FE724908600846016865482E
:10122000006802F0D9F863490860684A0021515EFD
:101230006C4A126851436C4A12886A4B1B685A43C5
:1012400088186A4900E058E000F0F0F96849086041
:101250000968594A128851430846584900F0E6F98E
:10126000634908600846008862490988401A00B24C
:10127000614908805E4800685E4908605F495648D9
:10128000006800F08BFE054655480168284601F0CD
:10129000E9FF13D258480021415E002904DA008892
:1012A000401E00B25449088053480021415E002985
:1012B00004DD0088401C00B24F4908804E480021E0
:1012C000415E002909DD0024045F04E0FFF7E6FD2C
:1012D000FFF704FE641E002CF8D147480021415E50
:1012E00000290ADA0021415E4C4204E0FFF7E6FDE6
:1012F000FFF7F4FD641E002CF8D12648007803287F
:101300000AD12D480088401E2B49088008460088D5
:10131000002801D1FFF757FE00BFF9E61E4800681C
:1013200037490860704710B51E48016835480068A5
:1013300002F052F81F49086001201B49087010BDD7
:1013400010B51548006830490860084601682C4807
:10135000006801F041FF04460121890700F01EFEEC
:101360002849086010480078002808D10120104959
:1013700008700E480078002801D0FFF7D4FF10BD98
:10138000C206D20E01219140420992001F4BD21891
:1013900011607047CA040020A4040020AC0400209F
:1013A000A8040020B8040020C3040020C1040020C9
:1013B000C2040020C4040020C804002088130000D8
:1013C00098040020E0040020040B0020E804002022
:1013D000E4040020C0040020D00400200000C84223
:1013E000EC0400209C040020CC0400201027000006
:1013F000D4040020D8040020DC0400200000A04118
:10140000B0040020BC040020B404002000E100E08F
:1014100010B5FFF748F910BDB0B504462004070E1B
:101420002002C01987B22046FFF774F93004050E78
:101430003002401985B22846B0BD10B50024012401
:101440002003044300BF194C2046FFF7E5FF10BD01
:1014500070B500240124E4032046FFF7DDFF0546B4
:1014600000BF2046FFF7D8FF0546284670BD70B57F
:1014700004460025012C02D109252D0306E0022C8B
:1014800002D11325ED0201E0002070BD2846FFF7D0
:10149000C3FF06462846FFF7BFFF06463046F4E77F
:1014A00010B5FFF7B5FFFFF7C8FF10BDCA17000062
:1014B00010B504204E4949690722120491430204E1
:1014C00007231B041A401143494A516100BF49498F
:1014D000AF2080001022464B9B681343444CA3600E
:1014E00000BF00BF444BDA600023434CE36000BF01
:1014F000424A5268120C12040243404B5A601A4688
:10150000116000BF00BF10460068012149078843F1
:10151000401811460860072000F058F800BF072067
:1015200000F054F800BF354800680121890788435E
:1015300040183249086000BF10BD10B5304800881F
:10154000402802D100202E4908802D48008800281C
:101550000ED1012189022B4800F042F80121C90275
:10156000284800F03DF801210903264800F038F82A
:101570002348008824490978884204D1012189023E
:10158000204800F031F81E48008820490978884238
:1015900004D10121C9021B4800F026F81848008830
:1015A0001B490978884204D101210903154800F03C
:1015B0001BF813480088401C1149088010BD124BCD
:1015C0001870124B1970124B1A707047C206D20E67
:1015D00001219140420992000E4BD21811607047D0
:1015E00082680A438260704782688A4382607047DB
:1015F000000200501400006800000050400001404C
:10160000F004002000400050F2040020F304002009
:10161000F404002000E100E0002203098B422CD3F7
:10162000030A8B4211D300239C464EE003460B4332
:101630003CD4002243088B4231D303098B421CD394
:10164000030A8B4201D394463FE0C3098B4201D386
:10165000CB01C01A524183098B4201D38B01C01ABE
:10166000524143098B4201D34B01C01A5241030935
:101670008B4201D30B01C01A5241C3088B4201D3E4
:10168000CB00C01A524183088B4201D38B00C01A91
:10169000524143088B4201D34B00C01A5241411AB8
:1016A00000D201465241104670475DE0CA0F00D09B
:1016B0004942031000D34042534000229C46030994
:1016C0008B422DD3030A8B4212D3FC22890112BA1A
:1016D000030A8B420CD3890192118B4208D38901F2
:1016E00092118B4204D389013AD0921100E089090A
:1016F000C3098B4201D3CB01C01A524183098B42EB
:1017000001D38B01C01A524143098B4201D34B01D3
:10171000C01A524103098B4201D30B01C01A524136
:10172000C3088B4201D3CB00C01A524183088B42BD
:1017300001D38B00C01A5241D9D243088B4201D346
:101740004B00C01A5241411A00D201466346524131
:101750005B10104601D34042002B00D54942704730
:1017600063465B1000D3404201B50020C046C0462E
:1017700002BD7047704770470246C80FC0078143DB
:101780004B0030B54B405B009B0D20D01923DB068E
:10179000C91801231B05994220DB0324A407042553
:1017A0001346AB400BD3002B04D1EB0613409B0038
:1017B000E34204D401246407002312195941FF2392
:1017C0001B0599420BD2C9000143500F09E0CB021F
:1017D00004D501430803024305D0054830BDFF216D
:1017E000C905084330BD084607210905884330BDB7
:1017F0000000C07FF0B5F94D0C091E092C402E40A9
:101800002F468BB0A7437DD0B543FCD0002E7AD0B5
:10181000002CFCD00D465D40ED0F2543AC1BFF2591
:10182000AD0464190894C502440DC9022143500D4A
:10183000DC0204430120C00701430443D2020191AA
:10184000200C110C00958C46010423468B430A9111
:1018500061460904E24D8A430991010A7D44491910
:101860008039097805464D4301266D18F605751B2C
:101870006943C90C640B891C4C436418B5012C1BCB
:10188000250C2E04B4434C434D43210C691889099F
:101890000591009DE90701D00121C90704912C465B
:1018A00001996708CD072F434C08059DE10B4D4377
:1018B0002D0C29466646754302950D4645432E4636
:1018C000029D7D1BB44100950D465D4301942C0C97
:1018D0002F040D465543AE462D0C3D43029503940F
:1018E0007546049C2D04641B049406D2029C039D3F
:1018F000641C002675410395029401AC70CC009FD6
:101900007D1B01E03EE162E1B441090400950791CD
:1019100001940599A4086143090C0C464443650BE6
:10192000E7040C4666467443A646640B3C430395A5
:1019300002947446049DE4042C1B049406D2029C79
:10194000039D641C002675410395029401AC70CC84
:10195000009F7D1BB44101940C465C430095650FCC
:10196000E7000C465443A646640F3C43039502949B
:101970007446049DE4002C1B049406D2029C039D33
:10198000641C002675410395029401AC70CC009F45
:101990007D1BB441AE09AF06049DC900AD092F43BC
:1019A000049DA406AD060495079D3443691807916C
:1019B000059DE10B4D432D0C294666467543029566
:1019C0000D4645432E46029D7D1BB44100950D46B4
:1019D0005D4301942C0C2F040D465543AE462D0C4F
:1019E0003D43029503947546049C2D04641B0494A6
:1019F00006D2029C039D641C002675410395029447
:101A000001AC70CC009F7D1BB44101948C05069401
:101A1000079C890A611800950791019C0599A40803
:101A20006143090C0D464543680BEF040D466446BF
:101A300065436C0B3C43049FED047D1BAC4602D216
:101A40000025641C6841009E019D371B85410846A6
:101A5000584301950C46460FC5005443600F284378
:101A60006546E4002C1B02D20025401C6E41019DFE
:101A70003F1AB5412846BD09800628438446A0097F
:101A8000BF064E020699A40676180743079D00205C
:101A900068410A99079019430020099B009060460D
:101AA000FF1913434041E20F64003A43A446044641
:101AB000D71A8C41A04203D90120009020463A4613
:101AC000C70F941840416246D20F22436446640017
:101AD0000494009CBE466400D71AA44604460297AC
:101AE0008C417746002F01D1A04204D96046401CAA
:101AF0008446029A2046C40FA64694184041049A90
:101B00000546D20F224364466400D31A8D417146C4
:101B1000002901D1A84202D928461A46641C104364
:101B20000122002800D0164361020020079B89197A
:101B300004465C410223002C02DB49181346644131
:101B4000089DCE0A2D145D194B056705E10A2C0589
:101B50000D1908993E43C9076940002B08D09340EE
:101B600006D30022761C5141002B01D17608760065
:101B70001C4A002D43DB154241D0AA433FD03046DA
:101B80000BB0F0BD06180D464D41174C7642AC41E6
:101B90001AD395181C465C41134A6D42A24113D3D7
:101BA000012252054C00D4420AD15C00D4420BD031
:101BB0004B4002D592021143E2E749004908DFE7B2
:101BC0005940C90FC90718E000200849D8E705485F
:101BD00001420DD10342F7D0F2E700000000FF07F9
:101BE000481C00000000F07F0000E0FF0000F87FCC
:101BF000114859400143C01241400020C0E7012371
:101C0000089A9B069A4205DC032252078918C90FDD
:101C1000C907B5E7052252078918074A1143D212AE
:101C20005140ADE770B515461C4602460B462846A6
:101C30002146FFF7DFFD70BDFFFFFF7F30B5034694
:101C4000CA02400D1043164D164C0A1502D020430F
:101C5000002A06DBAA1A002A12DDD040FF2A0BDC7C
:101C600030BD5205520D01D140004008AA1A07D4D8
:101C7000D0404042FF2A01DD002030BD0028FCDDBD
:101C80004A00002B01D0012000E0002010180122A2
:101C90005205D042F0D8C817C043604030BD0000A4
:101CA0001E040000000000801F22030C02D10F223E
:101CB000000402D0030E03D004E000200146704768
:101CC0000002083A030F01D10001121F830F01D156
:101CD0008000921E002801DB4000521E12055118A0
:101CE0004205C012411810467047C10FC90700D005
:101CF0004042012292071143D6E701218907D3E729
:101D0000F0B58B4C0F09254689B0BD437BD01D092A
:101D10002646AE43FAD00E465E402740F60F3E43BD
:101D2000254071D024012142FBD0FF24AD19A40429
:101D30002D1B039501252D05DB02DB0AC9022B4370
:101D4000C90A29431E010901040F130F050121438C
:101D50001701880B820391432D098C46A90B1E4362
:101D60008A039543B30B9A0396433F09BA0B940336
:101D7000A74302962E467E430497B6464E19D719BE
:101D80000C460196544305977E43371B7646BF1B8E
:101D90003601B646BE0B361900967646BC04371996
:101DA000009C01D3641C00946400002F01D0012624
:101DB0003443029E049F754366467E430496760034
:101DC00034196E0034190094029C019E1C1966435C
:101DD000751BAE46069465464519059C05956C43F2
:101DE000594375460891691A0191049E0146514371
:101DF000A41B0491611A009C0791E10605D06109BA
:101E00000122114302E072E06EE06109089D0027A3
:101E10002C0A2D066918049D7C412A0A2D06691892
:101E2000019D6241AC0DAD026D185441079A910DB0
:101E3000920255196141029A644658435443069BE5
:101E4000059A5A43121A131B9A0E9B015B187A418A
:101E5000010B0005C3185141220A200644195A41BA
:101E60009A4200D2491C01204002814203D315232B
:101E70000226F64302E014230326F6432020C51A67
:101E8000A9401746AF40DA400A4320460399D8409C
:101E90000914731819055118039A3843D207514091
:101EA000AC4009D00122944006D30022401C51418D
:101EB000002C01D1400840001E4A934212D3012257
:101EC00003989206904207DB0520400709181A483C
:101ED0000143C012414004E0032040070818C10F2D
:101EE000C907002009B0F0BD0020F107FAE7051886
:101EF0000C464C4111486D42A04115D394181A4626
:101F00005A410E48644290410ED301204A004005D8
:101F1000824209D35A00824206D35940C90F084A67
:101F2000C90700201143DDE700200649DAE7000079
:101F30000000FF07FE070000FFFFFF7F0000E0FF3B
:101F40000000F07F0000F87F0121C905012341183E
:101F500042001B06D3185B0E0AD0C1100722D2061E
:101F6000891840075242D14201D552008918704762
:101F7000090208D50146002A03D0C10FC907002075
:101F8000704710467047420202D000200249704755
:101F9000072109050143F4E70000F87FF0B5FF25AC
:101FA0002D04C609C209FF2704462E400137CB097C
:101FB0003E4348402A402B400746002A6BD0002B66
:101FC00069D0AA4267D0AB4265D0002800DA324619
:101FD0000125ED0529432C4309022002090AD21AE2
:101FE0004B0C7F24E31A434C000A7C44E35C7D24C1
:101FF0002404121914145B00A218884201D3521C45
:1020000000E0400049420C465C4324115C43DB0184
:102010006415E318040A5C43C502200D0C464443D2
:102020006419250A5D432303EC0C0D466543000348
:102030000019EB184C42A34201D35B18401CD40595
:102040002018002B07D05B00C91804D3401C0029BE
:1020500001D1400840003F2189048A4209D3002A67
:1020600008DC1106090F04D0032149074018C00FEE
:10207000C007F0BD01224100120689187F225206D6
:102080009142F6D205214907C84201D59010F0BD12
:10209000FF20C005F0BD002F00DA32461648AA42E4
:1020A00007D2AB4205D21902090E17D0F80FC007AC
:1020B000F0BDFF2563002D06AB42F9D84900A942C7
:1020C000F6D8AB4201D1A942F2D0A94201D10021F8
:1020D00001E061004908D0050843F0BD1102090E76
:1020E000FBD0FF200243D005F0BD0A460146104652
:1020F00054E700003A1500000000C07F10B501460B
:102100009E240002CA15A307002A02D01843002A01
:1021100004DBA21A002A0CDDD04010BD1206120EFC
:1021200001D140004008A21A03D4D0404042002808
:10213000F3DDFF2248001206904201D9002010BDB5
:10214000C817C043584010BD0102C21504D0012376
:10215000DB071943002A0ADB9E239A1A02D4084699
:10216000D0407047FF2241001206914201D9002061
:102170007047C017C04370471F22030C02D10F22C3
:1021800000041CD0030E01D10002083A030F01D154
:102190000001121F830F01D18000921E002801DB75
:1021A0004000521ED20551180212511819229040B7
:1021B00004D3491C002801D149084900084670474A
:1021C000C10FC90700D04042012292071143D3E753
:1021D00001218907D0E710B500F03AF8006810BD7A
:1021E00010B5044600F034F8046010BD10B5FF23AC
:1021F0001B0644009C421DD84C009C421AD8034642
:10220000124A0B4307D4401A02D3EFF3008010BDEB
:10221000EFF3008010BD081A06D2EFF30080012111
:102220009043C907084302E0EFF30080904380F336
:10223000008810BD0D231B041A4204D01146002053
:1022400000F00AF810BD00F0FBF910BD000000908E
:102250000048704704130020CA0211D54A03520FE8
:10226000002A04D0C803C043012188407047054AB2
:10227000EFF3008108010009104380F300887047E4
:102280000020704700000030F0B50C46871A9C41D2
:102290000D46861A9D4103D2C01BA141D21963414C
:1022A0000D0D1F0DC94EEC1BAE435CD07F057F0D9D
:1022B0000026002F51D02D05AC46A943DD02012395
:1022C000ED0A1B051D4320231B1B24D41746E740A2
:1022D000381871412F46E740CC199D4028183146E7
:1022E00061410C0D27D161449A4013D50023401C55
:1022F000594152000ED14008400001224B005205C6
:10230000D34207D305204007C14201D5B04900E0C0
:10231000B0493046F0BD6B00002A00D001229A1867
:102320001F23203C1B1B01D5002302E0E540281899
:1023300071410C0DD7D0012424050919C407CD071C
:1023400040084908E40F28436144002CD5D00024FC
:10235000401C61419A40D0D1CDE76A05520DD9D1D8
:10236000C90FC907D5E79C4D4E00002801D00124B4
:1023700000E0002434195F00002A01D0012600E0AB
:102380000026BE19954FAC420CD8AE420AD8B442D2
:1023900006D001256D05EC42BCD010461946F0BDB3
:1023A0009942FCD000203946F0BDF0B51FB40C4670
:1023B0000F46811A9F412546861A9D4106D2012566
:1023C000ED076F40401ABC4152187B41210D1E0D94
:1023D0008D1BAC467D4D8D437ED075056D0D7CD03B
:1023E0000D05AE46AC431B031B0B794D52429D417C
:1023F000202366469B1B14D31746F7403818002647
:102400000090744160462F460741E41900989D40B2
:102410002818664116D4714671189A4025D50123B3
:1024200020E093182A466A415200002B00D0521C2B
:102430001E23203E9B1B002B61DD3541EE17281823
:102440006641E8D5001876415B1C9A4000D3401CD9
:102450004B05F3181524E34010D3002B52D07146DE
:102460007118D30FC01802D3491C05B0F0BD012369
:10247000DB079A42F9D140084000F6E701225205F5
:10248000B21801D1002853D00123CC0ADB029943B2
:10249000891E002A08D1020C03D0020C0004103956
:1024A00002E00246002020390023550B05D112021C
:1024B0000823550B01D152010D23550C01D11201F6
:1024C0001B1DD50C01D192009B1C150D01D1520092
:1024D0005B1C2025EE1A01E02CE022E00546F540C9
:1024E00015439840CA1AE10769181305C918002A4C
:1024F000BBDA032040070818C10FC9070FE0714677
:102500006118B2E7F10740080843711071444A00AE
:102510000CD001235B059A42A7D2C90FC90700203E
:10252000A3E74905490D26D1002001E00028F4D198
:1025300000219AE7284D6600002801D0012100E023
:10254000002171185F00002A01D0012600E000265A
:10255000BE19224FA94210D8AE420ED8B14208D0BF
:1025600001256D05E94206D01946A80241401046F2
:102570007BE79C4201D0214677E70020394674E78B
:1025800010B50C465C4005D50124E4076340FFF715
:102590000CFF10BDFFF778FE10BD30B40C465C4058
:1025A00004D50124E407634030BC6DE630BCFCE692
:1025B00070B50124E40761400D465D4002D4FFF789
:1025C00063FE70BD6340FFF7F0FE70BDFF070000C3
:1025D0000000F0FF0000F07F0000E0FF0000F87F47
:1025E00070B505464800440D124B0020002C0AD05F
:1025F000634008D09A4206DA6642B24203DD120511
:102600004019514170BD002C08D0002B09D0C90FD2
:10261000C907002AF6DB084A114370BDC90FC90774
:1026200070BD28460A03104302D00020034970BD44
:10263000284670BDFF0700000000F07F0000F87F13
:1026400010B5024800F02DF810BD00000000C07F5A
:1026500000487047041300207546FFF7F9FFAE46A7
:10266000050069465346C008C000854618B020B52D
:1026700000F072F860BC00274908B6460026C0C5C5
:10268000C0C5C0C5C0C5C0C5C0C5C0C5C0C5403D2A
:1026900049008D4670470446C046C0462046FDF7B7
:1026A000FCFD10B50C461107090F092904D00A29B1
:1026B0000AD008290CD104E011460820FFF7CCFD10
:1026C00006E0510606D501E0510601D50120C007FC
:1026D000214610BDD10607D501010909CC084907DB
:1026E000000E0006044309E0410F20024907000ADA
:1026F0000143200E00061D22D14101430846E7E7B1
:1027000001491820ABBEFEE726000200704700001A
:1027100005B50E48002200F001F805BDABBE01E092
:1027200000207047002A00D01060012070470698F2
:102730000188074A914207D102300690079801218B
:102740008907884307907047FEE7000000010000FA
:10275000ABBE00000348004703480449024A044B4B
:102760007047000005020000681300205804002094
:1027700058000020F8B5384800903848C16B012255
:102780001143C1630025354CE06B35490840E9052C
:10279000C90B0843E0630026206BC007C00F02D0BE
:1027A00000F062F8761C082EF6D300273E462B4830
:1027B000006BC007C00FFAD000F056F8002000F000
:1027C0005DF80446012000F059F82418022000F0BA
:1027D00055F82418032000F051F82418042000F0C4
:1027E0004DF82418052000F049F82418062000F0C0
:1027F00045F82418072000F041F82018C010761C76
:102800003F18B6B2082ED2D3F81000B215490028EE
:10281000088014DC13480022825E009952429142E3
:1028200014DA2902FF390139CA030C49D20BCB6BE8
:102830000B4C23401A43CA630099018006E06D1CCB
:10284000ADB20090E81FFF38FA389CD10348C16B45
:1028500049084900C163F8BDFF07000000000E40B1
:10286000FF00FEFFF60400200348016BC908C90001
:10287000491C01637047000000000E4002498000BF
:10288000085800B27047000000000E4005490120C2
:102890008A68000702438A600349C8600020C86054
:1028A00070470000000200500000005002498A6892
:1028B00082438A60704700000002005002498A6823
:1028C00002438A60704700000002005010B50348C0
:1028D00040694003400F00F047F810BD000200506F
:1028E00010B50C4A10694007400F10D0022809D0DB
:1028F000042809D0084891690907090F491CFEF707
:102900008BFE10BD0548F6E700F00AF8F3E77D20DE
:102910000002F0E700020050006CDC02808D5B00DA
:102920000448006A0449C006800F48430349401820
:102930007047000000020050808D5B0080C3C90119
:1029400010B5074840690007800F04D0022805D061
:10295000FFF7C6FF10BDFFF7E3FF10BD014810BD34
:1029600000020050006CDC02014610B50020012975
:1029700006D0032903D0042905D0FFF7B1FF10BD0D
:102980007D20000210BD014810BD0000006CDC027B
:1029900070B5134B984201D1831402E05208012311
:1029A0005B03104CA5681D43A5600F4CE36000233A
:1029B000E36001231B0419430160426004460B4895
:1029C000844205D1FFF78CFF6168491C490003E090
:1029D000FFF786FF6168491CFEF71EFE70BD000010
:1029E000000003400002005000000050004003407F
:1029F0000249C8600020C860704700000000005015
:102A00000348592101601621016088210160704747
:102A10000001005010B51020FFF7EAFF1020FFF76B
:102A200045FF10BD70B505460C461020FFF746FF68
:102A30001020FFF7DDFF044A5068000C000420431B
:102A40005060156070BD00004000014070B5064642
:102A50000025FFF73BFF7D21C900FEF7DDFD81B2B8
:102A60000920C006FFF7DEFF0548C1688CB2AC4202
:102A700001D2761E01D02546F7E7FFF7CBFF70BDE8
:102A800040000140F0B4040C8BB2264682B25E4393
:102A90000D0C1046370C584336048019002179413B
:102AA00016466E43370C36048019794126466E432C
:102AB0008919F0BC704700004900CA0202431000A7
:102AC00000D004204A0D01D001221043044A490DD0
:102AD000914201D102210843012800D1052070470D
:102AE000FF070000F7B596B014460021A160D16041
:102AF000179909914D00CD496D088D4205DC179954
:102B000061602060002019B0F0BDC949C94E8D42F6
:102B100038DAD32709997F050029C74A1799334620
:102B200017DDFFF73AFDB54206D0C44AC44BFFF7A4
:102B300034FD6160206009E03A46C14BFFF72DFD8E
:102B4000C04AC14BFFF729FD61602060012019B028
:102B5000F0BDFFF715FDB54206D0B84AB84BFFF7F8
:102B60000FFD6160206009E03A46B54BFFF708FDB4
:102B7000B44AB54BFFF704FD616020600020C043FC
:102B800019B0F0BDB1498D42179977DC4900490869
:102B90000746AF4AAF4B0491FFF7B2F80022AE4BA5
:102BA000FFF7EEFCFFF74AF80A90FFF79EF8A24AFB
:102BB000334603910290FFF7A3F83A46049BFFF7D0
:102BC000F7FC06460F469D4A9D4B03990298FFF776
:102BD00097F82A0D01250C9232463B46FFF7E8FC98
:102BE00061602060032D39D04800410D0C98401AD7
:102BF000690169181139814230DA9849280179440C
:102C000008960D9008180497436802680399029883
:102C1000FFF776F802460B4607910690049908984C
:102C2000FFF7BBFC06460F46049B089AFFF7C0FC63
:102C3000079B069AFFF7B1FC0591894904907944F6
:102C40000D984018C368826803990298FFF758F8F6
:102C5000059B049AFFF7A1FC6D1CBDE709980028AD
:102C600009DA01226068D207504060600A9819B002
:102C70004042F0BD02E00A9819B0F0BD09030122FC
:102C8000090B12050E90891817981091400075498C
:102C9000400D40184111C006C00E0D911390202127
:102CA000081A149000200690052507901398002814
:102CB0000D980CD0401982006B48784487581399BE
:102CC0008F40101841681498C1400F4304E0401928
:102CD000810066487844475810993846FFF7D2FE7D
:102CE00006460A9138460E99FFF7CCFE8A190A9BD0
:102CF0008A4201D2012100E00021C9188C46AF00B0
:102D0000694679188B684E68C318834201D2012046
:102D100000E0002096193618002802D0964202D909
:102D200003E0964201D2012000E000206246121822
:102D30004E6068468B60C25128466D1E0028B5DC87
:102D40000121029849074018800F139002980599B5
:102D50008000039E049D0B91FEF7C7FF0746304697
:102D60000891FEF7CAFF1D22D243FFF739FC1090ED
:102D70000F912846FEF7C1FF3D22D243FFF730FCFA
:102D80000E900D910B98FEF7B8FF5D22D243FFF72E
:102D900027FC0B910C900D9B0E9AFFF7F1FB0F9BFC
:102DA000109AFFF7EDFB3A46089BFFF7E9FB002579
:102DB0000E463A462846089BFFF7EFFB0F9B109AFA
:102DC000FFF7EBFB0D9B0E9AFFF7E7FB0B9B0C9AB3
:102DD000FFF7EEFB264A274BFEF792FF07460D91C1
:102DE000254A264B31462846FEF78AFF3A460D9B78
:102DF000FFF7C6FB0F4615220C9092061D4B31467D
:102E00002846FEF77DFF3B460C9AFFF7B9FB179A61
:102E1000002A05DA139A524213920122D207514036
:102E200061602060139819B0F0BD0000FB21E93FFC
:102E30007CD90240FB21F93F000040543163621A03
:102E400061B4D03D7370032E8A19A33BFB21394135
:102E500083C8C96D305FE43F0000E03F9609000081
:102E6000560900000BFCFFFF0A090000F0080000F3
:102E7000182D4454FB21F93D3326A611460B113C75
:102E8000F0B51FB44E00F9207608800584B00F46D7
:102E9000864204DA0498FEF7D1FE002838D0049A5E
:102EA0003B4610461946FEF72BFF044602462C48C7
:102EB0000D460B460621784400F05CF822462B466E
:102EC000FEF71EFF019100903946079B069A049871
:102ED000FEF716FF0746029120462946019B009AFD
:102EE000FEF70EFF3A46029BFFF757FB074600220C
:102EF0000091D24320462946FFF772FB194A9642B9
:102F00000ADA3A46009BFFF748FB0022164B23E003
:102F10000020154909B0F0BD144A964202DD002494
:102F2000134D03E001225205B51A002422462B4618
:102F3000FFF733FB0646019122462B4600200A4943
:102F4000FFF72BFB0D4604463A463046009B01999D
:102F5000FFF723FB22462B46FFF72AFB09B0F0BD03
:102F6000AE0600003333D33F0000F03F0000E93FDE
:102F70000000D23FF8B504464F1EC800083821189B
:102F800015461E46086849683A4606239A4310D0FB
:102F90002A463346FEF7B4FE3A46D200083AA31852
:102FA0001A687F1E5B68FFF7EBFA06223B469343E5
:102FB000EED1022F23D0042F11D0062F2FD12A4675
:102FC0003346FEF79DFEE36AA26AFFF7D9FA2A4666
:102FD0003346FEF795FE636A226AFFF7D1FA2A4666
:102FE0003346FEF78DFEE369A269FFF7C9FA2A4668
:102FF0003346FEF785FE63692269FFF7C1FA2A4668
:103000003346FEF77DFEE368A268FFF7B9FA2A4669
:103010003346FEF775FE63682268FFF7B1FAF8BD24
:10302000F0B51FB4054648000C46F9214008890553
:1030300086B088420BDA28462146FFF73DFD04287A
:1030400001D100F071F8284621460BB0F0BD2A46A8
:10305000234610461946FEF753FE06460F462A46FB
:103060002346FEF74DFE00902548019132463B462F
:1030700005217844FFF77EFF029010980391002805
:1030800029D0204A204B01990098FEF739FE049080
:10309000059168460FC8FEF733FE002201910090AB
:1030A000D24309990898FFF79BFA019B009AFFF712
:1030B00074FA32463B46FEF723FE099B089AFFF757
:1030C0006CFA059B049AFFF768FA2A462346FFF735
:1030D0006FFA0BB0F0BD0B4630463946029AFEF748
:1030E0000FFE084A084BFFF74BFA019B009AFEF7C8
:1030F00007FE2A462346FFF743FA0BB0F0BD000057
:10310000EA050000495555555555C5BF10B5012272
:10311000FFF766FA10BD002210B51346104611469F
:10312000FEF768FB10BD0000034A10B50020110730
:10313000FFF756FA10BD000001FDFFFF00B54A0081
:10314000234B520887B09A4203DC002213460092B8
:1031500029E0204B9A4208D1002808D10120FFF72E
:103160003FF8FFF7D8FF07B000BD9A4203DBFFF737
:10317000CDFF07B000BD02AAFFF7B4FC8107890F9D
:10318000012000290CD0012911D0022915D002A854
:103190000FC8FFF775FE0122D207514007B000BDEE
:1031A000009002A80FC8FFF73BFF07B000BD02A8C0
:1031B0000FC8FFF765FE07B000BD009002A80FC85A
:1031C000FFF72EFF0122D207514007B000BD0000DB
:1031D000FB21E93F0000F07F70B501250400ED07F9
:1031E0004C4020D4441A01D2001B0919C60D4B00D3
:1031F000F2B2FF2A29D01B0E2CD000020C02D31AE7
:103200002C43DC402843051910D2280A02D3401C65
:103210006D0611D0761EF6058019FF2A00DA70BD02
:10322000C00DC00570BD694000F0DCF80120054309
:10323000C541521C761CE8E764089C40C901614006
:103240008900E7D10124A043E4E71B0E440200D02B
:10325000034870BD002AFCD1C00FC00770BD00BF7D
:103260000000C07F01230200DB050A430DD4DA42CF
:1032700003D49A4207D488427047D84214D4D94222
:1032800012D48842704780427047DA4203D59A428E
:10329000F9D5814270475B004200DA4204D24A000D
:1032A000DA4201D28142704710B5024AFEF79EFF12
:1032B00010BD00BF0900160470B5420064414B0008
:1032C0005C41120E39D01B0E38D0FF2A3CD0FF2BA8
:1032D0003AD040024902400A490A060045184E43C6
:1032E000000A090AD2184843ED017F3A0104731A13
:1032F0004019190C4318990F04D001215B084907A4
:103300005B1A521CD80904D3401CF50301D19D0659
:1033100007D0FF2A08D2D50506D0E407204340197C
:1033200070BD0125A843F4E7002A01DCE00770BD69
:103330002402FF202043C00570BD1B0EFF2A03D0CE
:10334000FF2B01D0E00770BDFF2645003606B542D1
:1033500006D84D00B54203D8D218FF2A00D0E7E7BF
:10336000004870BD0000C07F01230A00DB05024356
:103370000DD4DA4203D49A4207D481427047D9422D
:1033800014D4D84212D48142704789427047DA423D
:1033900003D59A42F9D5884270475B004A00DA4269
:1033A00004D24200DA4201D288427047484041408C
:1033B00010B5024A4840FEF719FF10BD0900160477
:1033C00070B50125ED07684004004C4002D5694006
:1033D00000F008F8FFF706FF70B501250400ED07BF
:1033E0004C4022D4441A02D26C40001B0919C60D6D
:1033F0004B00F2B2FF2A4BD01B0E50D000020C0241
:10340000D31A2C43DC40A843051B05D5AD0019D3C6
:103410006D08761E521E37D0F605280A01D2801993
:1034200070BD70416D0603D070BD6940FFF7DAFED4
:103430009C4009026140490001D0401E70BD01243A
:10344000A04370BD6D081DD001202B0C01D12D04AF
:1034500010302B0E01D12D0208302B0F01D12D0180
:10346000001DAB0F01D1AD00801CEB0F01D16D0031
:10347000401C6D00361A121A680AF5054019012A17
:1034800002DB70BD002070BDC036300AC00770BDC1
:103490001B0E440201D1FF2B00D1024870BD002A4F
:1034A000F0D070BD0000C07F80807F7E7D7C7B7A05
:1034B0007978777676757473727171706F6E6E6DE0
:1034C0006C6C6B6A6A696868676666656464636386
:1034D00062616160605F5F5E5E5D5D5C5C5B5B5A0C
:1034E0005A59595858575756565555555454535379
:1034F00052525251515050504F4F4F4E4E4D4D4DD4
:103500004C4C4C4B4B4B4A4A4A494949484848471E
:10351000474747464646454545444444444343435C
:103520004342424242414141818283848586878869
:10353000898B8C8D8E8F919293959697999A9C9D5D
:103540009FA0A2A3A5A7A8AAACAEB0B2B3B5B7B9C5
:10355000BCBEC0C2C5C7C9CCCED1D4D7D9DCDFE28E
:10356000E6E9ECF0F3F7FAFE4C5555555555A53FF5
:103570007751C1166CC156BF9015CB19A001FA3E08
:10358000AD529C804F7E92BEC4B1B4BD9EEE213E32
:10359000D43888BEE9FAA8BD00004054FB21F93FA9
:1035A0003163621A61B4D03D0000601A61B4D03D4D
:1035B0007370032E8A19A33B0000002E8A19A33BC7
:1035C000C14920259A837B390000000000000000DB
:1035D0006E83F9A22915444ED15727FCC0DD34F57E
:1035E000999562DB4190433CAB6351FE61C5BBDE04
:1035F0003A6E24B7E0D24D42EA2E49061C92D10918
:103600001CEB1DFE3EA729B1F53582E88444BB2E94
:1036100026709CE9417E5FB439D69139F4395383E1
:103620008B5F849C3B28F9BDFF97F81F0F9805DE40
:103630008B112FEF1F6D0A5ACF7E366DB709CB273E
:10364000663F464F2DEA5F9EC7BA27757BF1E5EBD3
:10365000F739073DEA92528AB15FFB6B085D8D1F17
:10366000A6F810111111813FD561C119A0012ABF1F
:103670007DFEB157E31DC73EEB9C2B8AE6E55ABEA3
:103680007CD5CF5A3AD9E53DB8360000000000207D
:1036900054000000480200000C37000058040020CD
:1036A000AC00000048020000B8370000040500200C
:1036B000640E000064020000552700002F27000060
:1036C000F5000000F5000000F5000000F500000026
:1036D000F5000000F500000087080000F50000007C
:1036E000F500000097030000F5000000BB03000098
:1036F0003D030000F5000000F5000000F5000000AB
:10370000F5000000F5000000F500000000000000DA
:1037100000000000000000000000000001000000A8
:103720000000000000000000000000000000000099
:103730000000000000000000000000000000000089
:103740000000000064000000000000000000000015
:10375000000000000000000000B07E4600000000F5
:103760000000000000000000000000000000000059
:1037700000000000000000000000000088130000AE
:10378000000000006F12833A0000000000000000FB
:103790000000000000000000000000000000000029
:1037A0000000000000000000000000000000000019
:0837B000000000000000000011
:04000005000027557B
:00000001FF
