:020000040000FA
:1000000058030020BD2A00007D000000830000008E
:1000100000000000000000000000000000000000E0
:100020000000000000000000000000008900000047
:1000300000000000000000008F000000950000009C
:100040009B000000A1000000A7000000AD00000020
:10005000B3000000B9000000BF000000C5000000B0
:10006000CB000000D1000000D7000000DD00000040
:10007000E3000000E9000000EF0000001E480068F7
:1000800000471E48006800471D48006800471D489B
:10009000006800471C48006800471C48006800478B
:1000A0001B48006800471B48006800471A48006862
:1000B00000471A4800680047194800680047194877
:1000C0000068004718480068004718480068004763
:1000D000174800680047174800680047164800683E
:1000E0000047164800680047154800680047154853
:1000F00000680047FEE70000140000200400002014
:10010000080000200C000020100000201800002033
:100110001C000020200000202400002028000020D7
:100120002C00002030000020340000203800002087
:100130003C00002040000020440000204800002037
:100140004C000020500000200000000000000000D3
:10015000000000000000000000000000000000009F
:10016000000000000000000000000000000000008F
:10017000000000000000000000000000000000007F
:10018000000000000000000000000000000000006F
:10019000000000000000000000000000000000005F
:1001A000000000000000000000000000000000004F
:1001B000000000000000000000000000000000003F
:1001C000000000000000000000000000000000002F
:1001D000000000000000000000000000000000001F
:1001E000000000000000000000000000000000000F
:1001F00000000000000000000000000000000000FF
:100200000502000000F002F800F03EF80CA030C833
:10021000083824182D18A246671EAB4654465D4682
:10022000AC4201D100F030F87E460F3E0FCCB6460E
:100230000126334200D0FB1AA246AB46334318478F
:10024000F037000020380000103A02D378C878C197
:10025000FAD8520701D330C830C101D504680C6008
:10026000704700000023002400250026103A01D327
:1002700078C1FBD8520700D330C100D50B6070475E
:100280001FB51FBD10B510BD02F09AFB1146FFF758
:10029000F7FF00F061F902F0B2FB03B4FFF7F2FFE1
:1002A00003BC02F0E1FB000010B5002819DAEF4AA8
:1002B00003071B0F083B9B089B00D2588307DC0EEB
:1002C000FF23A3409A438B071B0E8407E40EA34031
:1002D0001A43E64B0407240F083CA408A4001A5153
:1002E00018E0E34A03231B02D21883089B00D2586C
:1002F0008307DC0EFF23A3409A438B071B0E840762
:10030000E40EA3401A43DA4B032424021B19840889
:10031000A4001A5110BD10B50121C903D54800F041
:100320005BF9C01310BD10B501218903D14800F05D
:1003300053F9801310BDD0480078704710B50221E2
:10034000CC4800F04DF9002805D000F073FA0221E6
:10035000C84800F049F901210903C64800F040F9F6
:10036000002817D00120C44908700103C14800F0DB
:100370003BF901210903BF4800F02EF9002809D0FC
:100380000020BD4908708020BC4908704101B9486F
:1003900000F02AF901214903B64800F021F90028AC
:1003A00016D001214903B34800F016F9B44908807A
:1003B00008460088002803D0012001F043FA02E03B
:1003C000002001F03FFA01214903AA4800F00CF98E
:1003D00010BD00BFAB48806840084000401CA949E0
:1003E000886000BF0120A8490870A8480068401C28
:1003F000A6490860704710B500BFA548806840084E
:100400004000401CA249886000BF01F0ACF910BD5B
:1004100010B500210B20FFF747FF00210820FFF750
:1004200043FF01210220FFF73FFF03210520FFF7D3
:100430003BFF01210720FFF737FF10BD10B502F089
:1004400095FC00F0DDF80F2000F0D0F800BF9148D7
:100450000068482188438F49086000BF00F095FA82
:1004600000BF012000058B4989680143894A9160DA
:1004700000BF00BF8849C8600021874AD16000BF23
:1004800000BF00BF10468069802188431146886103
:1004900000BF00BF0020C86100BF00BF0021D01D09
:1004A000F930016000BF10BD10B5FF201F307A4940
:1004B000096B0143784A116300BF78481146496BC4
:1004C0000143516300BF15210905754800F082F80A
:1004D0000F2000036749496802049143654A51604F
:1004E00000BF7049104600F075F80120400301215B
:1004F000604A926982435F4B9A61002906D01A468E
:10050000D26903041A435B4BDA6105E0594AD269A8
:1005100003049A43574BDA6100BF012040030121D5
:10052000544A92698243534B9A61002904D01A4677
:10053000D2690243DA6104E04E4AD26982434D4BEC
:10054000DA6100BF08200121814042099200484B36
:10055000D218116000BF10BDFFF770FFFFF7A4FFB6
:1005600000F011F901F0B2F800F045FB00F073FC67
:1005700001F0B4F800224021084601F036F94A4B58
:100580004A4A7D21C905C80100F0A5FF00BF3E48C9
:100590000078002804D000203B49087000F047FD97
:1005A0003A4800684249884207D13F4B3F4A7F2181
:1005B000C9057D20C00500F08EFF344800683D4924
:1005C0008842E4D1384B394A7D21C9053A4800F0C8
:1005D00082FFDCE7016070470246106908407047FF
:1005E0000246106A084070470162704729498969CC
:1005F000090909010207120F1143264A9161704748
:1006000010B500BF01202449896808229143C20027
:1006100008231A401143204A916000BF0020114670
:10062000896804229143820004231A4011431A4A24
:10063000916000BF00BFFFF7D9FF07201549096986
:1006400081430143134A116100BF03201146096A27
:100650000143116200BF0220114609684022914304
:1006600081430C4A116000BF10BD00001CED00E08A
:1006700000E100E0404000507E030020880300209D
:100680008003002000000140820300207803002046
:100690004000014000020050000000501E07000012
:1006A0000040005000105500B80B00003333333FBA
:1006B00010270000204E00000000604010B5FFF73A
:1006C0002AFE8401FFF72FFE40010443E0B210BD73
:1006D00091480068704791480078704770B502F003
:1006E000B5FA05468E4901F04BF9002807D002F013
:1006F000ADFA05468A4901F043F9401E00E00020AA
:1007000084B222468421874802F0F8FA0120854904
:10071000096805221204914382041143814A116041
:1007200000BF00BF114689681022914302011023C7
:100730001A4011437B4A916000BF0021104600F02F
:10074000E8F8784800F0DDF802200121764A926945
:100750008243754B9A61002904D01A46D26902433C
:10076000DA6104E0704AD26982436F4BDA6100BFFC
:1007700070BD10B5044621466A4800F0CAF86948C1
:1007800000F0BFF810BD70B502F060FA0546674989
:1007900001F0F6F8002807D002F058FA0546634940
:1007A00001F0EEF8401E00E0002084B222468221D3
:1007B0005F4802F0A3FA01200021C2008B00D2188A
:1007C0005B4B9A6000BF00BF1946896889088900A1
:1007D00001431A46916000BF012110201268554B59
:1007E0001A404B1E1B021A43C3001A43504B1A6097
:1007F00000BF70BD10B5044621464D4800F089F891
:100800004B4800F07EF810BD70B504460D462146F9
:10081000474800F07EF8464800F073F800BF00BF7C
:1008200043480068C007C00F0028F8D100BF404807
:10083000006970BD30B589B0002400216846818010
:1008400081823CE000BF00BF36480068C007C00F8F
:10085000002805D00221344800F04FF80028F2D0DB
:100860000221314800F049F8002828D100BF2D4866
:100870000069610001AA505200BF2D480069610063
:1008800005AA5052600001A9085C23490860600075
:1008900001A9085A0005000F204908806100515A3B
:1008A000254A127811430846FFF763FF610001AA49
:1008B000505AFFF79FFF082C01DA601CC4B20221D6
:1008C000194800F01AF80028BCD0FFF7F7FE611EA7
:1008D000490005AA515A184A12781143084305469F
:1008E000FFF747FF611E490001AA505AFFF782FF38
:1008F00000201149087009B030BD02461069084057
:1009000070470168012212049143012211430160E2
:1009100070470162704700008C0300208A030020AA
:1009200000127A000040034040400050A0860100C1
:100930000000034007FCFEFF8803002010B59A4A20
:10094000126C30239A430301302423401A43964B00
:100950001A641A46126C920892008B079B0F1A4376
:10096000914B1A6410BD10B500BF8F48006BC007D3
:10097000C00F002808D0002081008B4A515809B2CE
:100980008A48016000F0F5F810BD70B5002400251C
:100990000220874949690C22914382000C231A40A6
:1009A0001143834A516100BF2B2011468969814A56
:1009B000114002047F4BDB431A4011437C4A916192
:1009C00000BF02F043F9044600BF02F06FF906468B
:1009D000774880690001000D411C304600F0D0FFCF
:1009E000054670BD70B5044600250AE000BF6E489C
:1009F000006BC007C00F002803D000F0BAF8681CD5
:100A000085B2A542F2DB70BD10B500F0BBF8052041
:100A10000002FFF7E7FF00BF00F0ABF86248006A92
:100A200002218843801C6049086202200121814024
:100A300042099200604BD218116000BF00BF10BD88
:100A4000FEB502F0D9F800BF5748006A40084000E0
:100A5000401C5549086200BF00BF0846C06B032117
:100A6000890508435049C86300BF00210846FFF7C5
:100A700065FF642002F0A0F903210846FFF75EFF3E
:100A800000F089F8002110220B460120464CE46B4F
:100A900084430443444DEC632C46E46B0625AC438D
:100AA0005D00062635402C433F4DEC632C46E46B3D
:100AB000424D2C401502414EF64335402C433A4DF1
:100AC000EC632C46E46B1F252D06AC430D061F2658
:100AD000360635402C43344DEC6300BF03202946D5
:100AE000096A0C22914382000C231A4011432A46C2
:100AF000116200BF01201146096A020391430203FB
:100B000003031A4011432A46116200BF00200F213F
:100B10000A460B460C460D46009101910E0136180F
:100B20001702F719009E3603BE191F04F619270590
:100B3000F6192F06F719019E3607BE191A4F7E6265
:100B400000BF00F01FF801F0CBFF00BF1C48008879
:100B500040001C490988081A00B21A490880002080
:100B6000085E1949C86000BF00F015F8FFF74CFF98
:100B7000FEBD0D48006B06218843012108430A4948
:100B8000086370470848006A0121C9028843401879
:100B90000549086270470448006A0121C902884378
:100BA000014908627047000000000E4090030020D9
:100BB00000020050FFFF00F000E100E0FF00FEFF38
:100BC0000E04002012040020008000508022121A1F
:100BD00091B24D4A916200BF70478022121A91B2C1
:100BE000494AD16100BF70478022121A91B2464A29
:100BF000116100BF704770B50424002503204349EC
:100C0000496902079143020703071A4011433F4A0B
:100C1000516100BF00BF3C488068042188433A49C5
:100C2000886000BF00BF0846C06F40084000401CFD
:100C3000C86700BF00BF0846C06F02218843801C00
:100C40003149C86700BF00BF0846C06F0421884310
:100C5000001D2D49C86700BF00BF084680681021ED
:100C600088432949886000BF00BF0846806820216A
:100C700088432549886000BF601EC1B27F232A4691
:100C8000012000F00AF80020FFF7AEFF0020FFF778
:100C9000A4FF0020FFF79AFF70BD70B500BF1A4C8B
:100CA000A4680825AC43C500082635402C43164DE2
:100CB000AC6000BF2C462468240A2402CDB22C4329
:100CC000114D2C602C466468E408E40055076D0F54
:100CD0002C430D4D6C602C46E468240C24049DB21A
:100CE0002C43094DEC6000BF2C46646C6408640022
:100CF000641C6C6400BF00BF2C46A46864086400D8
:100D0000641CAC6000BF70BD0000044000020050D5
:100D1000F0B585B000242EE0204601F0A2F905468A
:100D200003225207FE4B01F09FF90022FD4B019177
:100D3000009000F013FF0391029000F0D1FE0746EF
:100D4000384601F0B5FA054602F0AEFB0022F64B3C
:100D50000191009001F088F90391029001F022F9CD
:100D600000B26100F14A505260001146085A610019
:100D7000EF4A5052641CFF2CCED905B0F0BDF0B53F
:100D800085B0002428E0204601F06BF905460322D7
:100D90005207E34B01F068F90022E64B0191009005
:100DA00000F0DCFE0391029000F09AFE0746384600
:100DB00001F07EFA054602F077FB0022DE4B01913E
:100DC000009001F051F90391029001F0EBF800B2AC
:100DD0006100DA4A5052641C012080028442D2D35E
:100DE00005B0F0BD002806D10021D54A1180D54AB2
:100DF0001160D54A1170012805D10021D04A118017
:100E00000121D14A1170032805D1D049CC4A118063
:100E10000321CD4A1170022805D1CC49C84A11805E
:100E20000221C94A1170042802D10421C64A117056
:100E3000704710B50020FFF7D7FE0020FFF7CDFE6A
:100E40000020FFF7C3FE10BD10B5FFF7F2FF002032
:100E5000FFF7C8FF10BD10B5FFF75AFFFFF78FFF70
:100E60000020BB4908705520BA490870AA20BA4929
:100E700008700020B9494969072212029143020211
:100E800007231B021A401143B44A516100BFB44901
:100E90003C200422B14B9B681343B04CA36000BFBD
:100EA00000BFB04BDA600023AE4CE36000BFAE4A37
:100EB0005268120C12040243AB4B5A601A4611607E
:100EC00000BF00BF1046006809078843401811465C
:100ED0000860052000F0A6FB00BF052000F0A2FB83
:100EE00000BFA148006801218907884340189E4936
:100EF000086000BFFFF7A8FF10BD95480078401CB0
:100F00009349087093480078401C924908709248B1
:100F10000078401C9049087070478D480078401E4A
:100F20008B4908708B480078401E8A4908708A48AF
:100F30000078401E88490870704710B584490978C8
:100F400049007B4A515A403188B2FFF74DFE814932
:100F500009784900764A515A403188B2FFF73DFE80
:100F60007D4909784900724A515A403188B2FFF7E9
:100F70002DFE10BD7D490860704770B504467C4861
:100F8000046001687B4802F077FB0646012189076F
:100F900001F0B8F9054601F08BFA77490860232083
:100FA00000027649086070BDF8B50546002410E0DF
:100FB00061005E4A505E01F0B7FA0746294602F02A
:100FC0005BFB064601F04EFA00B26100584A5052EF
:100FD000641CFF2CECD9F8BD5B490870704710B554
:100FE0000020674908705649088066480068FFF786
:100FF000DBFF65480068FFF7BDFF64480068FFF746
:10100000BCFF0120FFF7EEFE10BD10B500206049C7
:101010000870604908700420FFF7E4FE10BD10B5A9
:101020000320FFF7DFFE10BD47480078704770B51A
:1010300045480078002800D170BD43480078012859
:1010400012D13F48008854490988401800B23C49F1
:1010500008800020085E3D49884205DB0846384983
:1010600008800220FFF7BEFE3748007802280BD028
:1010700035480078012807D033480078032803D08A
:1010800031480078042849D1384801688920C005D2
:1010900002F0F2FA06462B480168304602F0ECFAFC
:1010A000054601F005FA3D490860084600888005BC
:1010B000800D08600846006840002049085A3849F9
:1010C00008800020085E37490880374801681D48BD
:1010D000006802F037FA1B490860314A0021515E6E
:1010E000254A12685143314A1288234B1B685A43E0
:1010F00088182F4900F04EFC2E4908600968104AF4
:101100000023D35E59430846104900F043FC2949A7
:10111000086008460088284909884FE0B5E00000CB
:10112000FB21194000007040000050401C060020C8
:101130001C040020000090400088C3401C0A0020CE
:10114000B4030020B0030020C20300208813000075
:10115000960300209703002098030020000200500F
:10116000320000680000005000000140A003002091
:101170009C0300200000E044A4030020A8030020FA
:10118000D2030020C8030020C4030020CC030020A9
:10119000C0030020C1030020B6030020F00300209C
:1011A000F4030020D6030020E0030020D403002035
:1011B00010270000E4030020E8030020401A00B2DA
:1011C000FA490880FA480068FA490860FA4900209C
:1011D000085E002801DB014600E04142C82935DDF8
:1011E000F24A0021515E002901DB0A4600E04A4232
:1011F000002A2BDDED4A0020105E002801DB0246AC
:1012000000E04242032A21DAEB480021415E002936
:1012100005DAE6480088401E00B2E4490880E64846
:101220000021415E002905DDE0480088401C00B235
:10123000DE490880E04A0021515E5F2251430846A2
:10124000642100F0A7FB00B2DB490880D7480021E9
:10125000415E002909DD0024045F04E0FFF74DFE34
:10126000FFF76BFE641E002CF8D1D0480021415ED0
:1012700000290ADA0021415E4C4204E0FFF74DFEEE
:10128000FFF75BFE641E002CF8D1CC4800780328E1
:1012900019D1CB480088CB490988401A00B2C84907
:1012A000088008460021415E00290CDC0020C4496A
:1012B0000880C5480078002802D0FFF790FE02E0C1
:1012C0000020FFF78FFDBD48007804287ED1BF487D
:1012D0000078002836D10021BD48006802F024FAC9
:1012E00016D2BB480168BB48006802F02BF9B94927
:1012F0000860B9480168B748006802F015FA1DD8BF
:10130000B5480068B34908600120B049087015E08D
:10131000AF480168AF48006802F014F9AD490860B1
:10132000AD480168AB48006802F07CF906D8AA48CD
:101330000068A84908600120A4490870A548006811
:10134000FFF71BFEA5480068FF210131884203D842
:10135000A3480068884209D8A04800680321090210
:1013600088427DD89E480068884279D99D480168A6
:101370009D48006802F0E6F89B4908600021994802
:10138000006802F0D1F90ED29848016896480068CA
:1013900002F0CAF915D89548006893490860012001
:1013A000934908700DE0914801688F48006802F089
:1013B00039F906D88D4800688B49086001208C49AE
:1013C000087086480068FF21013100E07DE0884216
:1013D00014D883480068884210D98921C9058248F9
:1013E000006802F049F905467D48006801F0A4F85C
:1013F0000646294600F086FF7E4908607748006867
:1014000003210902884214D875480068884210D91F
:101410008921C9057448006802F02EF90546704814
:10142000006801F089F80646294600F06BFF714913
:1014300008606D4801688920C00502F01DF9064664
:101440006C480168304602F017F9054601F030F8A3
:1014500063490860084600888005800D086000E048
:1014600028E00846006840006349085A634908803C
:1014700000228A5E624909684A4362490988604BD2
:101480001B6859435018604900F084FA48490860C5
:1014900009684B4A0023D35E594308465B4900F074
:1014A00079FA43490860084600684249086000200C
:1014B0004149088045480078012806D14C48007809
:1014C000012802D10220FFF78DFC454800684349FE
:1014D000086000BFB0E5F0B589B005460E46174676
:1014E0001C46424805604A4807603B480660494838
:1014F00004800120344908702146444800F04AFA2B
:1015000000B230490880204601F016F807903148B3
:1015100001683148006802F033F90690079900F03D
:10152000F1FE2B4908603048006800F0C1FE00223F
:10153000394B0191009000F097FD059104902046F1
:1015400000F08FFD002201239B070191009000F025
:101550008BFD03910290059B049A00F0FFFA07911E
:10156000069000F0BDFA08901F4801681F48006807
:1015700002F006F90790089900F0C4FE19490860C6
:1015800000211A48006802F023F807D10B480078C0
:10159000002801D0FFF743FD09B0F0BD07480078EF
:1015A00000283BD1FFF71BFDF6E70000EC0300200D
:1015B000E4030020E8030020AC030020C203002065
:1015C000B4030020B6030020D2030020C003002093
:1015D000B80300209C030020CC030020DC03002083
:1015E000F0030020BC030020A0030020C40300205F
:1015F000C1030020B00300201C0A0020F4030020D7
:10160000A4030020D403002010270000881300004A
:10161000C8030020D003002000408F40FFF7F5FCF6
:1016200000BFB9E7C206D20E0121914042099200E3
:10163000014BD2181160704700E100E010B5FFF7D0
:10164000A2F810BDB0B504462004070E2002C01950
:1016500087B22046FFF7CEF83004050E300240195D
:1016600085B22846B0BD10B50024012420030443F0
:1016700000BF194C2046FFF7E5FF10BD70B50024F0
:101680000124E4032046FFF7DDFF054600BF2046A6
:10169000FFF7D8FF0546284670BD70B50446002503
:1016A000012C02D109252D0306E0022C02D11325BD
:1016B000ED0201E0002070BD2846FFF7C3FF06469B
:1016C0002846FFF7BFFF06463046F4E710B5FFF7A0
:1016D000B5FFFFF7C8FF10BDCA17000010B5042002
:1016E0004E494969072212049143020407231B044F
:1016F0001A401143494A516100BF4949AF20800057
:101700001022464B9B681343444CA36000BF00BFAC
:10171000444BDA600023434CE36000BF424A526806
:10172000120C12040243404B5A601A46116000BF6B
:1017300000BF104600680121490788434018114640
:101740000860072000F058F800BF072000F054F8A8
:1017500000BF354800680121890788434018324995
:10176000086000BF10BD10B530480088402802D185
:1017700000202E4908802D48008800280ED1012124
:1017800089022B4800F042F80121C902284800F0E4
:101790003DF801210903264800F038F82348008865
:1017A00024490978884204D101218902204800F0A7
:1017B00031F81E48008820490978884204D1012167
:1017C000C9021B4800F026F8184800881B49097810
:1017D000884204D101210903154800F01BF8134881
:1017E0000088401C1149088010BD124B1870124B24
:1017F0001970124B1A707047C206D20E0121914027
:10180000420992000E4BD2181160704782680A4359
:101810008260704782688A4382607047000200508D
:10182000140000680000005040000140F603002052
:1018300000400050F8030020F9030020FA030020C4
:1018400000E100E010B50446012C05D13D4900201F
:10185000085E3D49088074E03A490020085E3B4933
:1018600008800846008838490988401A00B238497B
:101870000880384909687D22D20051430846072173
:10188000C90100F07DF834490880314A0021515ED9
:10189000314A1288514308467D21C90000F07AF888
:1018A00000B22B4908800020085E002801DB0146B9
:1018B00000E0414209B2294A118011460020085E29
:1018C000FF21AA3188423CDA10460021415EAF294F
:1018D00037DD234800882349884232DB1C48002139
:1018E000415E002908DB17490020085E1E49088078
:1018F00001201E49087007E012490020085E1C49BB
:10190000088001201B49087018480078002818D06A
:1019100018480078002814D0002014490870154990
:101920000870114A115E124A135EC818C10F0918D7
:10193000491009B2104A118011460020085E0F4973
:10194000088010BDD6030020FC030020FE03002009
:10195000000400209C0300200C040020020400204E
:10196000B403002088130000040400200A040020AF
:10197000060400200B04002008040020AC03002013
:10198000002203098B422CD3030A8B4211D300237C
:101990009C464EE003460B433CD4002243088B4256
:1019A00031D303098B421CD3030A8B4201D39446E3
:1019B0003FE0C3098B4201D3CB01C01A52418309D6
:1019C0008B4201D38B01C01A524143098B4201D390
:1019D0004B01C01A524103098B4201D30B01C01ABB
:1019E0005241C3088B4201D3CB00C01A5241830835
:1019F0008B4201D38B00C01A524143088B4201D362
:101A00004B00C01A5241411A00D2014652411046C1
:101A100070475DE0CA0F00D04942031000D3404236
:101A2000534000229C4603098B422DD3030A8B426C
:101A300012D3FC22890112BA030A8B420CD389010A
:101A400092118B4208D3890192118B4204D38901F0
:101A50003AD0921100E08909C3098B4201D3CB012E
:101A6000C01A524183098B4201D38B01C01A5241E3
:101A700043098B4201D34B01C01A524103098B42E7
:101A800001D30B01C01A5241C3088B4201D3CB00D2
:101A9000C01A524183088B4201D38B00C01A5241B5
:101AA000D9D243088B4201D34B00C01A5241411A8C
:101AB00000D20146634652415B10104601D34042BA
:101AC000002B00D54942704763465B1000D340426B
:101AD00001B50020C046C04602BD70477047704740
:101AE0000246C80FC00781434B0030B54B405B0036
:101AF0009B0D20D01923DB06C91801231B05994231
:101B000020DB0324A40704251346AB400BD3002B92
:101B100004D1EB0613409B00E34204D40124640784
:101B2000002312195941FF231B0599420BD2C9000A
:101B30000143500F09E0CB0204D5014308030243DF
:101B400005D0054830BDFF21C905084330BD084612
:101B500007210905884330BD0000C07FF0B5F94D6D
:101B60000C091E092C402E402F468BB0A7437DD078
:101B7000B543FCD0002E7AD0002CFCD00D465D4041
:101B8000ED0F2543AC1BFF25AD0464190894C50275
:101B9000440DC9022143500DDC0204430120C0075B
:101BA00001430443D2020191200C110C00958C4694
:101BB000010423468B430A9161460904E24D8A439E
:101BC0000991010A7D4449198039097805464D4338
:101BD00001266D18F605751B6943C90C640B891C39
:101BE0004C436418B5012C1B250C2E04B4434C4304
:101BF0004D43210C691889090591009DE90701D021
:101C00000121C90704912C4601996708CD072F438C
:101C10004C08059DE10B4D432D0C29466646754346
:101C200002950D4645432E46029D7D1BB44100950D
:101C30000D465D4301942C0C2F040D465543AE46D2
:101C40002D0C3D43029503947546049C2D04641BA2
:101C5000049406D2029C039D641C002675410395E2
:101C6000029401AC70CC009F7D1B01E03EE162E17B
:101C7000B44109040095079101940599A4086143B2
:101C8000090C0C464443650BE7040C466646744356
:101C9000A646640B3C43039502947446049DE404F9
:101CA0002C1B049406D2029C039D641C00267541E3
:101CB0000395029401AC70CC009F7D1BB44101944C
:101CC0000C465C430095650FE7000C465443A6465E
:101CD000640F3C43039502947446049DE4002C1B5E
:101CE000049406D2029C039D641C00267541039552
:101CF000029401AC70CC009F7D1BB441AE09AF06CD
:101D0000049DC900AD092F43049DA406AD060495AA
:101D1000079D344369180791059DE10B4D432D0C38
:101D200029466646754302950D4645432E46029D5B
:101D30007D1BB44100950D465D4301942C0C2F048E
:101D40000D465543AE462D0C3D4302950394754612
:101D5000049C2D04641B049406D2029C039D641C05
:101D6000002675410395029401AC70CC009F7D1B49
:101D7000B44101948C050694079C890A611800956A
:101D80000791019C0599A4086143090C0D46454340
:101D9000680BEF040D46644665436C0B3C43049F9F
:101DA000ED047D1BAC4602D20025641C6841009EF8
:101DB000019D371B85410846584301950C46460F47
:101DC000C5005443600F28436546E4002C1B02D233
:101DD0000025401C6E41019D3F1AB5412846BD09B2
:101DE000800628438446A009BF064E020699A40631
:101DF00076180743079D002068410A990790194308
:101E00000020099B00906046FF1913434041E20FF8
:101E100064003A43A4460446D71A8C41A04203D931
:101E20000120009020463A46C70F94184041624670
:101E3000D20F2243644664000494009CBE466400B2
:101E4000D71AA446044602978C417746002F01D149
:101E5000A04204D96046401C8446029A2046C40F22
:101E6000A64694184041049A0546D20F2243644680
:101E70006400D31A8D417146002901D1A84202D9CC
:101E800028461A46641C10430122002800D016433D
:101E900061020020079B891904465C410223002C43
:101EA00002DB491813466441089DCE0A2D145D19C2
:101EB0004B056705E10A2C050D1908993E43C90732
:101EC0006940002B08D0934006D30022761C514174
:101ED000002B01D1760876001C4A002D43DB154209
:101EE00041D0AA433FD030460BB0F0BD06180D4696
:101EF0004D41174C7642AC411AD395181C465C41B3
:101F0000134A6D42A24113D3012252054C00D44220
:101F10000AD15C00D4420BD04B4002D5920211434F
:101F2000E2E749004908DFE75940C90FC90718E04F
:101F300000200849D8E7054801420DD10342F7D0F7
:101F4000F2E700000000FF07881C00000000F07F9F
:101F50000000E0FF0000F87F114859400143C01223
:101F600041400020C0E70123089A9B069A4205DC05
:101F7000032252078918C90FC907B5E7052252077E
:101F80008918074A1143D2125140ADE770B5154682
:101F90001C4602460B4628462146FFF7DFFD70BD72
:101FA000FFFFFF7F30B50346CA02400D1043164DB8
:101FB000164C0A1502D02043002A06DBAA1A002A72
:101FC00012DDD040FF2A0BDC30BD5205520D01D18D
:101FD00040004008AA1A07D4D0404042FF2A01DD41
:101FE000002030BD0028FCDD4A00002B01D001207C
:101FF00000E00020101801225205D042F0D8C81786
:10200000C043604030BD00001E040000000000809E
:102010001F22030C02D10F22000402D0030E03D0B2
:1020200004E00020014670470002083A030F01D186
:102030000001121F830F01D18000921E002801DBD6
:102040004000521E120551184205C0124118104698
:102050007047C10FC90700D04042012292071143C7
:10206000D6E701218907D3E7F0B58B4C0F09254648
:1020700089B0BD437BD01D092646AE43FAD00E463B
:102080005E402740F60F3E43254071D02401214297
:10209000FBD0FF24AD19A4042D1B039501252D05AC
:1020A000DB02DB0AC9022B43C90A29431E010901CD
:1020B000040F130F050121431701880B820391437D
:1020C0002D098C46A90B1E438A039543B30B9A0333
:1020D00096433F09BA0B9403A74302962E467E43CC
:1020E0000497B6464E19D7190C46019654430597E6
:1020F0007E43371B7646BF1B3601B646BE0B3619EC
:1021000000967646BC043719009C01D3641C0094E9
:102110006400002F01D001263443029E049F7543C2
:1021200066467E430496760034196E003419009496
:10213000029C019E1C196643751BAE4606946546BB
:102140004519059C05956C43594375460891691AD4
:102150000191049E01465143A41B0491611A009C05
:102160000791E10605D061090122114302E072E006
:102170006EE06109089D00272C0A2D066918049D50
:102180007C412A0A2D066918019D6241AC0DAD0201
:102190006D185441079A910D920255196141029AA6
:1021A000644658435443069B059A5A43121A131B1C
:1021B0009A0E9B015B187A41010B0005C31851412F
:1021C000220A200644195A419A4200D2491C012091
:1021D0004002814203D315230226F64302E0142372
:1021E0000326F6432020C51AA9401746AF40DA401F
:1021F0000A4320460399D840091473181905511849
:10220000039A3843D2075140AC4009D00122944090
:1022100006D30022401C5141002C01D1400840004F
:102220001E4A934212D3012203989206904207DB82
:102230000520400709181A480143C012414004E034
:10224000032040070818C10FC907002009B0F0BDDE
:102250000020F107FAE705180C464C4111486D4281
:10226000A04115D394181A465A410E486442904131
:102270000ED301204A004005824209D35A0082420F
:1022800006D35940C90F084AC90700201143DDE7AA
:1022900000200649DAE700000000FF07FE07000003
:1022A000FFFFFF7F0000E0FF0000F07F0000F87FED
:1022B0000121C9050123411842001B06D3185B0EFA
:1022C0000AD0C1100722D206891840075242D142D3
:1022D00001D5520089187047090208D50146002A25
:1022E00003D0C10FC9070020704710467047420253
:1022F00002D0002002497047072109050143F4E795
:102300000000F87FF0B5FF252D04C609C209FF279C
:1023100004462E400137CB093E4348402A402B401B
:102320000746002A6BD0002B69D0AA4267D0AB4287
:1023300065D0002800DA32460125ED0529432C43FB
:1023400009022002090AD21A4B0C7F24E31A434CDB
:10235000000A7C44E35C7D242404121914145B00FD
:10236000A218884201D3521C00E0400049420C46AA
:102370005C4324115C43DB016415E318040A5C43ED
:10238000C502200D0C4644436419250A5D4323030E
:10239000EC0C0D46654300030019EB184C42A342B8
:1023A00001D35B18401CD4052018002B07D05B001C
:1023B000C91804D3401C002901D1400840003F2126
:1023C00089048A4209D3002A08DC1106090F04D0C7
:1023D000032149074018C00FC007F0BD012241008A
:1023E000120689187F2252069142F6D2052149072A
:1023F000C84201D59010F0BDFF20C005F0BD002FF0
:1024000000DA32461648AA4207D2AB4205D2190278
:10241000090E17D0F80FC007F0BDFF2563002D0689
:10242000AB42F9D84900A942F6D8AB4201D1A94242
:10243000F2D0A94201D1002101E061004908D00594
:102440000843F0BD1102090EFBD0FF200243D00566
:10245000F0BD0A460146104654E700007A15000018
:102460000000C07F10B501469E240002CA15A307D4
:10247000002A02D01843002A04DBA21A002A0CDD2D
:10248000D04010BD1206120E01D140004008A21A21
:1024900003D4D04040420028F3DDFF22480012065A
:1024A000904201D9002010BDC817C043584010BD4C
:1024B0000102C21504D00123DB071943002A0ADBFD
:1024C0009E239A1A02D40846D0407047FF2241004A
:1024D0001206914201D900207047C017C0437047CF
:1024E0001F22030C02D10F2200041CD0030E01D1C5
:1024F0000002083A030F01D10001121F830F01D11E
:102500008000921E002801DB4000521ED2055118A7
:10251000021251181922904004D3491C002801D1FD
:102520004908490008467047C10FC90700D040421A
:10253000012292071143D3E701218907D0E710B5A3
:1025400000F03AF8006810BD10B5044600F034F809
:10255000046010BD10B5FF231B0644009C421DD82B
:102560004C009C421AD80346124A0B4307D4401A27
:1025700002D3EFF3008010BDEFF3008010BD081A06
:1025800006D2EFF3008001219043C907084302E01F
:10259000EFF30080904380F3008810BD0D231B04EF
:1025A0001A4204D01146002000F00AF810BD00F0D5
:1025B000FBF910BD00000090004870471C1200207D
:1025C000CA0211D54A03520F002A04D0C803C043DF
:1025D000012188407047054AEFF300810801000996
:1025E000104380F3008870470020704700000030DF
:1025F000F0B50C46871A9C410D46861A9D4103D2C0
:10260000C01BA141D21963410D0D1F0DC94EEC1B1A
:10261000AE435CD07F057F0D0026002F51D02D05E5
:10262000AC46A943DD020123ED0A1B051D4320230F
:102630001B1B24D41746E740381871412F46E7404A
:10264000CC199D402818314661410C0D27D16144B9
:102650009A4013D50023401C594152000ED1400826
:10266000400001224B005205D34207D3052040070A
:10267000C14201D5B04900E0B0493046F0BD6B0021
:10268000002A00D001229A181F23203C1B1B01D5D1
:10269000002302E0E540281871410C0DD7D0012439
:1026A00024050919C407CD0740084908E40F284349
:1026B0006144002CD5D00024401C61419A40D0D107
:1026C000CDE76A05520DD9D1C90FC907D5E79C4D91
:1026D0004E00002801D0012400E0002434195F00DE
:1026E000002A01D0012600E00026BE19954FAC4219
:1026F0000CD8AE420AD8B44206D001256D05EC4292
:10270000BCD010461946F0BD9942FCD00020394695
:10271000F0BDF0B51FB40C460F46811A9F41254607
:10272000861A9D4106D20125ED076F40401ABC4133
:1027300052187B41210D1E0D8D1BAC467D4D8D43E6
:102740007ED075056D0D7CD00D05AE46AC431B03E8
:102750001B0B794D52429D41202366469B1B14D38F
:102760001746F740381800260090744160462F46FF
:102770000741E41900989D402818664116D4714617
:1027800071189A4025D5012320E093182A466A4102
:102790005200002B00D0521C1E23203E9B1B002BFE
:1027A00061DD3541EE1728186641E8D500187641FD
:1027B0005B1C9A4000D3401C4B05F3181524E340E2
:1027C00010D3002B52D071467118D30FC01802D30A
:1027D000491C05B0F0BD0123DB079A42F9D140083E
:1027E0004000F6E701225205B21801D1002853D06B
:1027F0000123CC0ADB029943891E002A08D1020C6E
:1028000003D0020C0004103902E0024600202039F7
:102810000023550B05D112020823550B01D152019B
:102820000D23550C01D112011B1DD50C01D19200B5
:102830009B1C150D01D152005B1C2025EE1A01E0F6
:102840002CE022E00546F54015439840CA1AE107FE
:1028500069181305C918002ABBDA032040070818B5
:10286000C10FC9070FE071466118B2E7F1074008D0
:102870000843711071444A000CD001235B059A4251
:10288000A7D2C90FC9070020A3E74905490D26D1E2
:10289000002001E00028F4D100219AE7284D6600CD
:1028A000002801D0012100E0002171185F00002AFA
:1028B00001D0012600E00026BE19224FA94210D8FF
:1028C000AE420ED8B14208D001256D05E94206D0CE
:1028D0001946A802414010467BE79C4201D02146A0
:1028E00077E70020394674E710B50C465C4005D503
:1028F0000124E4076340FFF70CFF10BDFFF778FEEB
:1029000010BD30B40C465C4004D50124E40763409C
:1029100030BC6DE630BCFCE670B50124E4076140D4
:102920000D465D4002D4FFF763FE70BD6340FFF7C4
:10293000F0FE70BDFF0700000000F0FF0000F07F18
:102940000000E0FF0000F87F70B505464800440D28
:10295000124B0020002C0AD0634008D09A4206DABD
:102960006642B24203DD12054019514170BD002C90
:1029700008D0002B09D0C90FC907002AF6DB084A86
:10298000114370BDC90FC90770BD28460A03104323
:1029900002D00020034970BD284670BDFF0700002B
:1029A0000000F07F0000F87F10B5024800F02DF81D
:1029B00010BD00000000C07F004870471C120020BE
:1029C0007546FFF7F9FFAE46050069465346C00855
:1029D000C000854618B020B500F072F860BC002732
:1029E0004908B6460026C0C5C0C5C0C5C0C5C0C5DB
:1029F000C0C5C0C5C0C5403D49008D4670470446AE
:102A0000C046C0462046FDF748FC10B50C461107ED
:102A1000090F092904D00A290AD008290CD104E099
:102A200011460820FFF7CCFD06E0510606D501E06F
:102A3000510601D50120C007214610BDD10607D59A
:102A400001010909CC084907000E0006044309E00A
:102A5000410F20024907000A0143200E00061D22F3
:102A6000D14101430846E7E701491820ABBEFEE724
:102A7000260002007047000005B50E48002200F055
:102A800001F805BDABBE01E000207047002A00D070
:102A900010600120704706980188074A914207D1CB
:102AA00002300690079801218907884307907047F4
:102AB000FEE7000000010000ABBE00000348004735
:102AC00003480449044A054B704700000502000012
:102AD000801200205803002080130020580000209E
:102AE000F8B5384800903848C16B01221143C163E2
:102AF0000025354CE06B35490840E905C90B084312
:102B0000E0630026206BC007C00F02D000F062F81F
:102B1000761C082EF6D300273E462B48006BC007D4
:102B2000C00FFAD000F056F8002000F05DF804461F
:102B3000012000F059F82418022000F055F824185C
:102B4000032000F051F82418042000F04DF8241858
:102B5000052000F049F82418062000F045F8241854
:102B6000072000F041F82018C010761C3F18B6B2BC
:102B7000082ED2D3F81000B215490028088014DCC2
:102B800013480022825E00995242914214DA2902CF
:102B9000FF390139CA030C49D20BCB6B0B4C2340D4
:102BA0001A43CA630099018006E06D1CADB2009023
:102BB000E81FFF38FA389CD10348C16B4908490027
:102BC000C163F8BDFF07000000000E40FF00FEFFDC
:102BD0000E0400200348016BC908C900491C0163A9
:102BE0007047000000000E4002498000085800B203
:102BF0007047000000000E40054901208A68000768
:102C000002438A600349C8600020C8607047000022
:102C1000000200500000005002498A6882438A6026
:102C2000704700000002005002498A6802438A602F
:102C3000704700000002005010B50348406940038F
:102C4000400F00F047F810BD0002005010B50C4ACC
:102C500010694007400F10D0022809D0042809D07D
:102C6000084891690907090F491CFEF789FE10BD44
:102C70000548F6E700F00AF8F3E77D200002F0E7E8
:102C800000020050006CDC02808D5B000448006A8A
:102C90000449C006800F48430349401870470000AC
:102CA00000020050808D5B0080C3C90110B5074849
:102CB00040690007800F04D0022805D0FFF7C6FF47
:102CC00010BDFFF7E3FF10BD014810BD000200502A
:102CD000006CDC02014610B50020012906D0032952
:102CE00003D0042905D0FFF7B1FF10BD7D200002FD
:102CF00010BD014810BD0000006CDC0270B5134B24
:102D0000984201D1831402E0520801235B03104C66
:102D1000A5681D43A5600F4CE3600023E360012319
:102D20001B0419430160426004460B48844205D1EC
:102D3000FFF78CFF6168491C490003E0FFF786FF3D
:102D40006168491CFEF71CFE70BD000000000340D6
:102D50000002005000000050004003400249C860DB
:102D60000020C8607047000000000050034859214F
:102D70000160162101608821016070470001005048
:102D800010B51020FFF7EAFF1020FFF745FF10BD38
:102D900070B505460C461020FFF746FF1020FFF7E0
:102DA000DDFF044A5068000C0004204350601560A9
:102DB00070BD00004000014070B506460025FFF7D9
:102DC0003BFF7D21C900FEF7DBFD81B20920C00673
:102DD000FFF7DEFF0548C1688CB2AC4201D2761E17
:102DE00001D02546F7E7FFF7CBFF70BD400001405B
:102DF000F0B4040C8BB2264682B25E430D0C104632
:102E0000370C5843360480190021794116466E4329
:102E1000370C36048019794126466E438919F0BC77
:102E2000704700004900CA020243100000D004208D
:102E30004A0D01D001221043044A490D914201D1AB
:102E400002210843012800D105207047FF07000038
:102E5000F7B596B014460021A160D1601799099189
:102E60004D00CD496D088D4205DC179961602060E9
:102E7000002019B0F0BDC949C94E8D4238DAD327B8
:102E800009997F050029C74A1799334617DDFFF7CF
:102E900038FDB54206D0C44AC44BFFF732FD61602D
:102EA000206009E03A46C14BFFF72BFDC04AC14BF9
:102EB000FFF727FD61602060012019B0F0BDFFF72A
:102EC00013FDB54206D0B84AB84BFFF70DFD61605F
:102ED000206009E03A46B54BFFF706FDB44AB54B12
:102EE000FFF702FD616020600020C04319B0F0BD13
:102EF000B1498D42179977DC490049080746AF4A26
:102F0000AF4B0491FFF7B0F80022AE4BFFF7ECFC9B
:102F1000FFF748F80A90FFF79CF8A24A334603915E
:102F20000290FFF7A1F83A46049BFFF7F5FC06462E
:102F30000F469D4A9D4B03990298FFF795F82A0D7D
:102F400001250C9232463B46FFF7E6FC61602060AB
:102F5000032D39D04800410D0C98401A69016918B9
:102F60001139814230DA98492801794408960D9048
:102F7000081804974368026803990298FFF774F8E9
:102F800002460B460791069004990898FFF7B9FC92
:102F900006460F46049B089AFFF7BEFC079B069A5D
:102FA000FFF7AFFC05918949049079440D984018CA
:102FB000C368826803990298FFF756F8059B049A44
:102FC000FFF79FFC6D1CBDE70998002809DA012274
:102FD0006068D207504060600A9819B04042F0BD66
:102FE00002E00A9819B0F0BD09030122090B12058D
:102FF0000E9089181798109140007549400D40189F
:103000004111C006C00E0D9113902021081A149092
:103010000020069005250790139800280D980CD0E5
:10302000401982006B487844875813998F401018D4
:1030300041681498C1400F4304E04019810066487C
:103040007844475810993846FFF7D2FE06460A9151
:1030500038460E99FFF7CCFE8A190A9B8A4201D2A4
:10306000012100E00021C9188C46AF00694679189B
:103070008B684E68C318834201D2012000E0002013
:1030800096193618002802D0964202D903E09642DB
:1030900001D2012000E00020624612184E6068460E
:1030A0008B60C25128466D1E0028B5DC01210298B4
:1030B00049074018800F1390029805998000039EDD
:1030C000049D0B91FEF7C5FF074630460891FEF7B9
:1030D000C8FF1D22D243FFF737FC10900F912846FE
:1030E000FEF7BFFF3D22D243FFF72EFC0E900D915D
:1030F0000B98FEF7B6FF5D22D243FFF725FC0B913C
:103100000C900D9B0E9AFFF7EFFB0F9B109AFFF7A9
:10311000EBFB3A46089BFFF7E7FB00250E463A46D5
:103120002846089BFFF7EDFB0F9B109AFFF7E9FB82
:103130000D9B0E9AFFF7E5FB0B9B0C9AFFF7ECFB40
:10314000264A274BFEF790FF07460D91254A264B4E
:1031500031462846FEF788FF3A460D9BFFF7C4FB31
:103160000F4615220C9092061D4B31462846FEF75D
:103170007BFF3B460C9AFFF7B7FB179A002A05DA4C
:10318000139A524213920122D2075140616020608B
:10319000139819B0F0BD0000FB21E93F7CD9024033
:1031A000FB21F93F000040543163621A61B4D03D05
:1031B0007370032E8A19A33BFB21394183C8C96D63
:1031C000305FE43F0000E03FD209000092090000B8
:1031D0000BFCFFFF460900002C090000182D445489
:1031E000FB21F93D3326A611460B113CF0B51FB467
:1031F0004E00F9207608800584B00F46864204DA36
:103200000498FEF7CFFE002838D0049A3B461046BB
:103210001946FEF729FF044602462C480D460B4688
:103220000621784400F05CF822462B46FEF71CFF8E
:10323000019100903946079B069A0498FEF714FF07
:103240000746029120462946019B009AFEF70CFF93
:103250003A46029BFFF755FB074600220091D243F6
:1032600020462946FFF770FB194A96420ADA3A4689
:10327000009BFFF746FB0022164B23E00020154978
:1032800009B0F0BD144A964202DD0024134D03E05C
:1032900001225205B51A002422462B46FFF731FBC6
:1032A0000646019122462B4600200A49FFF729FBDA
:1032B0000D4604463A463046009B0199FFF721FB34
:1032C00022462B46FFF728FB09B0F0BDEA060000B6
:1032D0003333D33F0000F03F0000E93F0000D23F0E
:1032E000F8B504464F1EC8000838211815461E467A
:1032F000086849683A4606239A4310D02A4633465E
:10330000FEF7B2FE3A46D200083AA3181A687F1EAA
:103310005B68FFF7E9FA06223B469343EED1022FA2
:1033200023D0042F11D0062F2FD12A463346FEF783
:103330009BFEE36AA26AFFF7D7FA2A463346FEF7F6
:1033400093FE636A226AFFF7CFFA2A463346FEF7F6
:103350008BFEE369A269FFF7C7FA2A463346FEF7F8
:1033600083FE63692269FFF7BFFA2A463346FEF7F8
:103370007BFEE368A268FFF7B7FA2A463346FEF7FA
:1033800073FE63682268FFF7AFFAF8BDF0B51FB4AB
:10339000054648000C46F9214008890586B0884258
:1033A0000BDA28462146FFF73DFD042801D100F045
:1033B00071F8284621460BB0F0BD2A462346104638
:1033C0001946FEF751FE06460F462A462346FEF7EB
:1033D0004BFE00902548019132463B46052178443A
:1033E000FFF77EFF029010980391002829D0204A11
:1033F000204B01990098FEF737FE0490059168462E
:103400000FC8FEF731FE002201910090D2430999C6
:103410000898FFF799FA019B009AFFF772FA324673
:103420003B46FEF721FE099B089AFFF76AFA059BC7
:10343000049AFFF766FA2A462346FFF76DFA0BB0A7
:10344000F0BD0B4630463946029AFEF70DFE084A9B
:10345000084BFFF749FA019B009AFEF705FE2A4642
:103460002346FFF741FA0BB0F0BD0000260600002E
:10347000495555555555C5BF10B50122FFF764FA9A
:1034800010BD002210B5134610461146FEF766FB2C
:1034900010BD0000034A10B500201107FFF754FAD1
:1034A00010BD000001FDFFFF00B54A00234B52088C
:1034B00087B09A4203DC00221346009229E0204B99
:1034C0009A4208D1002808D10120FFF73DF8FFF704
:1034D000D8FF07B000BD9A4203DBFFF7CDFF07B06E
:1034E00000BD02AAFFF7B4FC8107890F0120002963
:1034F0000CD0012911D0022915D002A80FC8FFF75E
:1035000075FE0122D207514007B000BD009002A80D
:103510000FC8FFF73BFF07B000BD02A80FC8FFF7B9
:1035200065FE07B000BD009002A80FC8FFF72EFF90
:103530000122D207514007B000BD0000FB21E93F46
:103540000000F07F70B501250400ED074C4020D449
:10355000441A01D2001B0919C60D4B00F2B2FF2A12
:1035600029D01B0E2CD000020C02D31A2C43DC40B5
:103570002843051910D2280A02D3401C6D0611D029
:10358000761EF6058019FF2A00DA70BDC00DC00551
:1035900070BD694000F0FAF801200543C541521C96
:1035A000761CE8E764089C40C90161408900E7D1C6
:1035B0000124A043E4E71B0E440200D0034870BD81
:1035C000002AFCD1C00FC00770BD00BF0000C07F43
:1035D00001230200DB050A430DD4DA4203D49A42E8
:1035E00007D488427047D84214D4D94212D48842B2
:1035F000704780427047DA4203D59A42F9D581423A
:1036000070475B004200DA4204D24A00DA4201D23B
:103610008142704710B5024AFEF79CFF10BD00BF03
:103620000900120401230200DB050A430DD4DA422B
:1036300003D49A4207D488427047D84214D4D9425E
:1036400012D48842704780427047DA4203D59A42CA
:10365000F9D5814270475B004200DA4204D24A0049
:10366000DA4201D28142704710B5024AFEF772FF7A
:1036700010BD00BF0900160470B5420064414B0044
:103680005C41120E39D01B0E38D0FF2A3CD0FF2BE4
:103690003AD040024902400A490A060045184E4302
:1036A000000A090AD2184843ED017F3A0104731A4F
:1036B0004019190C4318990F04D001215B084907E0
:1036C0005B1A521CD80904D3401CF50301D19D0696
:1036D00007D0FF2A08D2D50506D0E40720434019B9
:1036E00070BD0125A843F4E7002A01DCE00770BDA6
:1036F0002402FF202043C00570BD1B0EFF2A03D00B
:10370000FF2B01D0E00770BDFF2645003606B5420D
:1037100006D84D00B54203D8D218FF2A00D0E7E7FB
:10372000004870BD0000C07F01230A00DB05024392
:103730000DD4DA4203D49A4207D481427047D94269
:1037400014D4D84212D48142704789427047DA4279
:1037500003D59A42F9D5884270475B004A00DA42A5
:1037600004D24200DA4201D28842704748404140C8
:1037700010B5024A4840FEF7EDFE10BD09001604E0
:1037800070B501250400ED074C4022D4441A02D242
:103790006C40001B0919C60D4B00F2B2FF2A4BD03A
:1037A0001B0E50D000020C02D31A2C43DC40A8435D
:1037B000051B05D5AD0019D36D08761E521E37D0F6
:1037C000F605280A01D2801970BD70416D0603D03C
:1037D00070BD6940FFF7BCFE9C4009026140490092
:1037E00001D0401E70BD0124A04370BD6D081DD0E6
:1037F00001202B0C01D12D0410302B0E01D12D02F4
:1038000008302B0F01D12D01001DAB0F01D1AD00F0
:10381000801CEB0F01D16D00401C6D00361A121A8E
:10382000680AF5054019012A02DB70BD002070BD51
:10383000C036300AC00770BD1B0E440201D1FF2BF9
:1038400000D1024870BD002AF0D070BD0000C07FDA
:1038500080807F7E7D7C7B7A7978777676757473CD
:10386000727171706F6E6E6D6C6C6B6A6A6968688C
:10387000676666656464636362616160605F5F5E22
:103880005E5D5D5C5C5B5B5A5A5959585857575698
:1038900056555555545453535252525151505050FD
:1038A0004F4F4F4E4E4D4D4D4C4C4C4B4B4B4A4A4F
:1038B0004A49494948484847474747464646454593
:1038C00045444444444343434342424242414141CC
:1038D0008182838485868788898B8C8D8E8F919257
:1038E00093959697999A9C9D9FA0A2A3A5A7A8AAF5
:1038F000ACAEB0B2B3B5B7B9BCBEC0C2C5C7C9CC17
:10390000CED1D4D7D9DCDFE2E6E9ECF0F3F7FAFE6A
:103910004C5555555555A53F7751C1166CC156BFED
:103920009015CB19A001FA3EAD529C804F7E92BEFD
:10393000C4B1B4BD9EEE213ED43888BEE9FAA8BD1C
:1039400000004054FB21F93F3163621A61B4D03D5D
:103950000000601A61B4D03D7370032E8A19A33B36
:103960000000002E8A19A33BC14920259A837B3988
:1039700000000000000000006E83F9A22915444EEB
:10398000D15727FCC0DD34F5999562DB4190433C6B
:10399000AB6351FE61C5BBDE3A6E24B7E0D24D4247
:1039A000EA2E49061C92D1091CEB1DFE3EA729B147
:1039B000F53582E88444BB2E26709CE9417E5FB4D5
:1039C00039D69139F43953838B5F849C3B28F9BDF8
:1039D000FF97F81F0F9805DE8B112FEF1F6D0A5A06
:1039E000CF7E366DB709CB27663F464F2DEA5F9EE7
:1039F000C7BA27757BF1E5EBF739073DEA92528AA2
:103A0000B15FFB6B085D8D1FA6F810111111813F8E
:103A1000D561C119A0012ABF7DFEB157E31DC73E84
:103A2000EB9C2B8AE6E55ABE7CD5CF5A3AD9E53DC8
:103A3000603A00000000002054000000480200002E
:103A4000B43A000058030020C400000048020000FF
:103A5000783B00001C040020640F0000640200009A
:103A6000BD2A0000972A0000F5000000F5000000C4
:103A7000F5000000F5000000F5000000F500000072
:103A800067090000F5000000F5000000D303000006
:103A9000F5000000F70300003D030000F500000002
:103AA000F5000000F5000000F5000000F500000042
:103AB000F500000000000000000000000000000011
:103AC00000000000010000000000000000000000F5
:103AD00000000000000000000000000000000000E6
:103AE00000000000000000000000000000000000D6
:103AF0006400000000000000000000000000000062
:103B000000000000000000000000000000B07E4641
:103B100000000000000000000000000000000000A5
:103B20000000000000000000000000000000000095
:103B30000000000000000000000000006F12833A47
:103B40000000000000000000000000000000000075
:103B50000000000000000000000000000000000065
:103B60000000000000000000000000000000000055
:083B700000000000000000004D
:0400000500002ABD10
:00000001FF
