:020000040000FA
:1000000058030020692700007D00000083000000E5
:1000100000000000000000000000000000000000E0
:100020000000000000000000000000008900000047
:1000300000000000000000008F000000950000009C
:100040009B000000A1000000A7000000AD00000020
:10005000B3000000B9000000BF000000C5000000B0
:10006000CB000000D1000000D7000000DD00000040
:10007000E3000000E9000000EF0000001E480068F7
:1000800000471E48006800471D48006800471D489B
:10009000006800471C48006800471C48006800478B
:1000A0001B48006800471B48006800471A48006862
:1000B00000471A4800680047194800680047194877
:1000C0000068004718480068004718480068004763
:1000D000174800680047174800680047164800683E
:1000E0000047164800680047154800680047154853
:1000F00000680047FEE70000140000200400002014
:10010000080000200C000020100000201800002033
:100110001C000020200000202400002028000020D7
:100120002C00002030000020340000203800002087
:100130003C00002040000020440000204800002037
:100140004C000020500000200000000000000000D3
:10015000000000000000000000000000000000009F
:10016000000000000000000000000000000000008F
:10017000000000000000000000000000000000007F
:10018000000000000000000000000000000000006F
:10019000000000000000000000000000000000005F
:1001A000000000000000000000000000000000004F
:1001B000000000000000000000000000000000003F
:1001C000000000000000000000000000000000002F
:1001D000000000000000000000000000000000001F
:1001E000000000000000000000000000000000000F
:1001F00000000000000000000000000000000000FF
:100200000502000000F002F800F040F80CA030C831
:10021000083824182D18A246671EAB4654465D4682
:10022000AC4201D100F032F87E460F3E0FCCB6460C
:100230000126334200D0FB1AA246AB46334318478F
:100240005034000080340000103A02D378C878C1DE
:10025000FAD8520701D330C830C101D504680C6008
:10026000704700000023002400250026103A01D327
:1002700078C1FBD8520700D330C100D50B6070475E
:100280001FB5C046C0461FBD10B510BD02F0EEF947
:100290001146FFF7F5FF00F00EF902F006FA03B47D
:1002A000FFF7F2FF03BC02F035FA000010B500289A
:1002B00019DABC4A03071B0F083B9B089B00D25866
:1002C0008307DC0EFF23A3409A438B071B0E840792
:1002D000E40EA3401A43B34B0407240F083CA408C0
:1002E000A4001A5118E0B04A03231B02D218830855
:1002F0009B00D2588307DC0EFF23A3409A438B0751
:100300001B0E8407E40EA3401A43A74B03242402C8
:100310001B198408A4001A5110BD10B50121C9038E
:10032000A24800F0F6F8C01310BD10B501218903F2
:100330009E4800F0EEF8801310BD9D48007870478D
:1003400010B50221994800F0E8F8002805D000F027
:1003500003FA0221954800F0E4F8012109039348CB
:1003600000F0DBF8002817D0012091490870010344
:100370008E4800F0D6F8012109038C4800F0C9F836
:10038000002809D000208A49087080208949087017
:100390004101864800F0C5F810BD00BF864880685E
:1003A00040084000401C8449886000BF0120834908
:1003B000087083480068401C81490860704710B588
:1003C00000BF8048806840084000401C7D4988602C
:1003D00000BF01F0B2F810BD10B500210B20FFF7EF
:1003E00065FF00210820FFF761FF01210220FFF7D0
:1003F0005DFF03210520FFF759FF01210720FFF7CB
:1004000055FF10BD10B502F007FB00F096F80F2065
:1004100000F089F800BF6C480068482188436A49A9
:10042000086000BF00F043FA00BF012000056649E4
:1004300089680143644A916000BF00BF6349C86096
:100440000021624AD16000BF00BF00BF1046806932
:10045000802188431146886100BF00BF0020C86129
:1004600000BF00BF0021D01DF930016000BF10BDEA
:1004700010B5FF201F305549096B0143534A1163E2
:1004800000BF53481146496B0143516300BF15211A
:100490000905504800F03BF80F2000034349496824
:1004A00002049143414A516000BF152109041046DE
:1004B00000F02DF810BDFFF7A5FFFFF7D9FF00F002
:1004C000F4F800F0EFFF00F028FB00F097FC00F0DC
:1004D000E9FD00F0EDFF00221146402001F06FF829
:1004E0003D4800F057FD7F20C00500F030FD3B483F
:1004F00000F030FD00F08BFD00BF30480078002890
:10050000FBD000202D49087000F0FFFDF5E70160E9
:10051000704702461069084070470246106A08405A
:100520007047016270472849896909090901020772
:10053000120F1143244A9161704710B500BF01208A
:100540002249896808229143C20008231A401143B6
:100550001E4A916000BF0020114689680422914321
:10056000820004231A401143184A916000BF00BF63
:10057000FFF7D9FF07201449096981430143124A53
:10058000116100BF03201146096A0143116200BFD7
:100590000220114609684022914381430A4A1160B2
:1005A00000BF10BD1CED00E000E100E04040005045
:1005B0007E03002084030020000001407F03002010
:1005C000780300204000014000020050000000506D
:1005D0001E0700000040005048E17A3F0000C8427A
:1005E00010B5FFF79AFE8401FFF79FFE4001044318
:1005F000E0B210BD9148006870479148007870479C
:1006000070B502F079F905468E4901F005F8002829
:1006100007D002F071F905468A4900F0FDFF401E3F
:1006200000E0002084B222468421874802F0BCF911
:10063000012085490968052212049143820411436F
:10064000814A116000BF00BF1146896810229143A2
:10065000020110231A4011437B4A916000BF002120
:10066000104600F0E8F8784800F0DDF8022001219B
:10067000764A92698243754B9A61002904D01A46E2
:10068000D2690243DA6104E0704AD26982436F4B57
:10069000DA6100BF70BD10B5044621466A4800F01B
:1006A000CAF8694800F0BFF810BD70B502F024F92F
:1006B0000546674900F0B0FF002807D002F01CF99A
:1006C0000546634900F0A8FF401E00E0002084B208
:1006D000224682215F4802F067F901200021C20012
:1006E0008B00D2185B4B9A6000BF00BF1946896827
:1006F0008908890001431A46916000BF012110203A
:100700001268554B1A404B1E1B021A43C3001A4372
:10071000504B1A6000BF70BD10B5044621464D48CD
:1007200000F089F84B4800F07EF810BD70B5044623
:100730000D462146474800F07EF8464800F073F821
:1007400000BF00BF43480068C007C00F0028F8D1B1
:1007500000BF4048006970BD30B589B00024002159
:100760006846818081823CE000BF00BF3648006857
:10077000C007C00F002805D00221344800F04FF810
:100780000028F2D00221314800F049F8002828D191
:1007900000BF2D480069610001AA505200BF2D48DA
:1007A0000069610005AA5052600001A9085C234954
:1007B0000860600001A9085A0005000F2049088060
:1007C0006100515A254A127811430846FFF763FF2A
:1007D000610001AA505AFFF79FFF082C01DA601C44
:1007E000C4B20221194800F01AF80028BCD0FFF763
:1007F000F7FE611E490005AA515A184A12781143A2
:1008000008430546FFF747FF611E490001AA505AF9
:10081000FFF782FF00201149087009B030BD024681
:1008200010690840704701680122120491430122B7
:100830001143016070470162704700008803002087
:100840008603002000127A00004003404040005020
:10085000A08601000000034007FCFEFF8403002087
:1008600010B59A4A126C30239A4303013024234076
:100870001A43964B1A641A46126C920892008B0720
:100880009B0F1A43914B1A6410BD10B500BF8F48DF
:10089000006BC007C00F002808D0002081008B4AE1
:1008A000515809B28A48016000F0F5F810BD70B5E2
:1008B000002400250220874949690C2291438200C7
:1008C0000C231A401143834A516100BF2B2011466B
:1008D0008969814A114002047F4BDB431A4011436E
:1008E0007C4A916100BF02F007F8044600BF02F0A5
:1008F00033F80646774880690001000D411C3046F8
:1009000000F08AFE054670BD70B5044600250AE079
:1009100000BF6E48006BC007C00F002803D000F076
:10092000BAF8681C85B2A542F2DB70BD10B500F0C4
:10093000BBF805200002FFF7E7FF00BF00F0ABF8AF
:100940006248006A02218843801C604908620220D4
:100950000121814042099200604BD218116000BF12
:1009600000BF10BDFEB501F09DFF00BF5748006AF3
:1009700040084000401C5549086200BF00BF0846BF
:10098000C06B0321890508435049C86300BF00219B
:100990000846FFF765FF642002F064F8032108466B
:1009A000FFF75EFF00F089F8002110220B460120BE
:1009B000464CE46B84430443444DEC632C46E46BA7
:1009C0000625AC435D00062635402C433F4DEC63C5
:1009D0002C46E46B424D2C401502414EF643354007
:1009E0002C433A4DEC632C46E46B1F252D06AC439B
:1009F0000D061F26360635402C43344DEC6300BFF0
:100A000003202946096A0C22914382000C231A40D4
:100A100011432A46116200BF01201146096A0203F0
:100A20009143020303031A4011432A46116200BF97
:100A300000200F210A460B460C460D4600910191FD
:100A40000E0136181702F719009E3603BE191F044F
:100A5000F6192705F6192F06F719019E3607BE1954
:100A60001A4F7E6200BF00F01FF801F08FFE00BF3A
:100A70001C48008840001C490988081A00B21A491D
:100A800008800020085E1949C86000BF00F015F812
:100A9000FFF74CFFFEBD0D48006B06218843012186
:100AA00008430A49086370470848006A0121C902DF
:100AB000884340180549086270470448006A0121CC
:100AC000C9028843014908627047000000000E40D7
:100AD0008C03002000020050FFFF00F000E100E066
:100AE000FF00FEFFF6030020FA0300200080005004
:100AF0008022121A91B24D4A916200BF7047802243
:100B0000121A91B2494AD16100BF70478022121A6D
:100B100091B2464A116100BF704770B504240025A8
:100B200003204349496902079143020703071A401A
:100B300011433F4A516100BF00BF3C488068042117
:100B400088433A49886000BF00BF0846C06F40082C
:100B50004000401CC86700BF00BF0846C06F0221AC
:100B60008843801C3149C86700BF00BF0846C06F7A
:100B700004218843001D2D49C86700BF00BF0846F7
:100B80008068102188432949886000BF00BF08465B
:100B90008068202188432549886000BF601EC1B25B
:100BA0007F232A46012000F00AF80020FFF7AEFF5D
:100BB0000020FFF7A4FF0020FFF79AFF70BD70B57B
:100BC00000BF1A4CA4680825AC43C5000826354070
:100BD0002C43164DAC6000BF2C462468240A240226
:100BE000CDB22C43114D2C602C466468E408E4001F
:100BF00055076D0F2C430D4D6C602C46E468240C9A
:100C000024049DB22C43094DEC6000BF2C46646C5B
:100C100064086400641C6C6400BF00BF2C46A468B8
:100C200064086400641CAC6000BF70BD0000044038
:100C300000020050F0B585B000242EE0204601F0FF
:100C40005CF8054603225207FB4B01F059F80022DD
:100C5000FA4B0191009000F0CDFD0391029000F05D
:100C60008BFD0746384601F07FF9054602F066FA2B
:100C70000022F34B0191009001F042F803910290A1
:100C800000F0DCFF00B26100EE4A505260001146F5
:100C9000085A6100EC4A5052641CFF2CCED905B0B2
:100CA000F0BDF0B587B0E948069000246FE020461B
:100CB00001F023F8054603225207DF4B01F020F82C
:100CC0000022DE4B0391029000F094FD0591049008
:100CD00000F052FD07460021384602F049FB18D8C3
:100CE0003846069902F0C2FA13D2384601F03CF9B0
:100CF000054602F023FA0022D54B0391029000F042
:100D0000FFFF0591049000F099FF00B26100D14A05
:100D100050523846069902F02BFB29D80120800753
:100D2000069902F0CDFA0546394602F021FB1FD2A2
:100D300001208007069902F0C3FA3946009002F0BC
:100D400043FB019001F010F9054602F0F7F901228A
:100D5000D20751400022BE4B0391029000F0D0FF19
:100D60000591049000F06AFF00B26100B94A505248
:100D700001208007069902F0A3FA0546394602F0E1
:100D800075FA03D800206100B24A5052641CFF2C4F
:100D90008DD907B0F0BDF0B585B0002428E020461D
:100DA00000F0ABFF054603225207A34B00F0A8FF5B
:100DB0000022A94B0191009000F01CFD03910290CC
:100DC00000F0DAFC0746384601F0CEF8054602F09E
:100DD000B5F90022A14B0191009000F091FF039121
:100DE000029000F02BFF00B261009D4A5052641C3B
:100DF000012080028442D2D305B0F0BD10B5FFF7C8
:100E000019FFFFF74EFFFFF7C6FF00209549087056
:100E1000552095490870AA209449087000209449EB
:100E20004969072212029143020207231B021A405A
:100E300011438F4A516100BF8E493C2004228C4BE4
:100E40009B6813438A4CA36000BF00BF8A4BDA60E3
:100E50000023894CE36000BF884A5268120C1204D8
:100E60000243864B5A601A46116000BF00BF10460D
:100E7000006809078843401811460860052000F003
:100E800081FA00BF052000F07DFA00BF7B480068B2
:100E900001218907884340187849086000BF10BDC8
:100EA00070480078401C6F4908706F480078401CFB
:100EB0006D4908706D480078401C6C490870704797
:100EC00068480078401E6749087067480078401EEF
:100ED0006549087065480078401E6449087070478D
:100EE00010B5604909784900574A515A403188B2D3
:100EF000FFF70CFE5C4909784900534A515A4031CA
:100F000088B2FFF7FCFD5949097849004E4A515A09
:100F1000403188B2FFF7ECFD10BD10B5514909789A
:100F200049004C4A515A88B2FFF7F0FD4E49097802
:100F30004900484A515A88B2FFF7E1FD4B49097808
:100F40004900444A515A88B2FFF7D2FD10BD4C49BE
:100F500008607047F1B5009801F006F804460022D9
:100F6000484B00F047FC064600F006FC009046495E
:100F7000009802F0A5F905460121890701F01EF845
:100F8000044601F0F1F8414908602320000240497D
:100F90000860F8BDF8B50546002410E06100294A54
:100FA000505E01F01DF90746294602F089F9064610
:100FB00001F0B4F800B26100234A5052641CFF2CC7
:100FC000ECD9F8BD334908707047002806D10021DC
:100FD000314A1180314A11602E4A1170012805D121
:100FE00000212D4A118001212A4A1170032805D1C0
:100FF0002B49294A11800321264A1170022805D164
:101000002749254A11800221224A1170704710B5E4
:101010000120FFF7DAFF10BD10B50320FFF7D5FF61
:1010200010BD10B50020FFF771FD0020FFF767FD30
:101030000020FFF75DFD10BDFB211940000070404E
:10104000000050400406002004040020920A0640DC
:101050000000604004080020000090400088C34069
:10106000040A002092030020930300209403002030
:1010700000020050320000680000005000000140F3
:1010800098030020000059400000E0449C03002029
:10109000A0030020CA030020C8030020A4030020EE
:1010A0008813000010B5FFF7BCFF0020FFF78DFF8D
:1010B00010BDB9480078704710B5B8480068B84905
:1010C000086008460168B748006802F089F80446DD
:1010D0000121890700F072FFB3490860B348007826
:1010E000002802D10120B249087010BDAB48006849
:1010F000AC49086070470020AC490870AD490870E1
:10110000AB490870AC490860704770B5A2480078D8
:10111000002800D170BDA048007801280CD1A74854
:101120000088401CA549088008460088A4498842D8
:1011300002DB0220FFF749FF97480078022807D01A
:1011400095480078012803D09348007803287CD183
:101150009C4801688920C00502F0B2F806468F4815
:101160000168304602F0ACF8054600F0FDFF9649F4
:101170000860084600888005800D08600846006801
:1011800040009249085A9249088092480068FF211D
:101190000131884205D88C480068884201D9FFF7A0
:1011A000AAFF8C48006803210902884205D88648B6
:1011B0000068884201D9FFF79EFF8348006885498F
:1011C000086083490020085E002801DB014600E03A
:1011D0004142FF22F532914209DA7F480078002827
:1011E0000ED101207C490870FFF780FF08E07A48A3
:1011F0000078002804D0002077490870FFF75CFFD2
:10120000764801686548006801F0EAFF63490860B4
:1012100073496948006800F0D1FE724908600846C9
:1012200001686548006802F0DBF863490860684AB5
:101230000021515E6C4A126851436C4A12886A4B15
:101240001B685A4388186A4900E058E000F0EEF93C
:10125000684908600968594A128851430846584944
:1012600000F0E4F96349086008460088624909888B
:10127000401A00B2614908805E4800685E49086013
:101280005F495648006800F099FE054655480168D8
:10129000284601F0EBFF13D258480021415E002997
:1012A00004DA0088401E00B25449088053480021E7
:1012B000415E002904DD0088401C00B24F490880CF
:1012C0004E480021415E002909DD0024045F04E04E
:1012D000FFF7E6FDFFF704FE641E002CF8D1474837
:1012E0000021415E00290ADA0021415E4C4204E0FF
:1012F000FFF7E6FDFFF7F4FD641E002CF8D1264849
:10130000007803280AD12D480088401E2B49088008
:1013100008460088002801D1FFF757FE00BFF9E614
:101320001E48006837490860704710B51E480168BC
:101330003548006802F054F81F49086001201B4935
:10134000087010BD10B5154800683049086008469F
:1013500001682C48006801F043FF04460121890719
:1013600000F02CFE2849086010480078002808D1B9
:101370000120104908700E480078002801D0FFF7BE
:10138000D4FF10BDC206D20E012191404209920045
:101390001F4BD21811607047CA030020A40300201D
:1013A000AC030020A8030020B8030020C3030020E2
:1013B000C1030020C2030020C4030020C803002092
:1013C0008813000098030020E0030020040A002096
:1013D000E8030020E4030020C0030020D003002025
:1013E0000000C842EC0300209C030020CC03002036
:1013F00010270000D4030020D8030020DC030020C5
:101400000000A041B0030020BC030020B403002072
:1014100000E100E010B5FFF748F910BDB0B5044693
:101420002004070E2002C01987B22046FFF774F986
:101430003004050E3002401985B22846B0BD0024A4
:1014400001242003044300BF184C00BF2046FFF7CF
:10145000E5FFFBE770B500240124E4032046FFF715
:10146000DDFF054600BF2046FFF7D8FF05462846AA
:1014700070BD70B504460025012C02D109252D034D
:1014800006E0022C02D11325ED0201E0002070BD20
:101490002846FFF7C3FF06462846FFF7BFFF06466C
:1014A0003046F4E7FFF7B6FFFFF7C9FFCA170000A1
:1014B00010B504204E4949690722120491430204E1
:1014C00007231B041A401143494A516100BF49498F
:1014D000AF2080001022464B9B681343444CA3600E
:1014E00000BF00BF444BDA600023434CE36000BF01
:1014F000424A5268120C12040243404B5A601A4688
:10150000116000BF00BF10460068012149078843F1
:10151000401811460860072000F058F800BF072067
:1015200000F054F800BF354800680121890788435E
:1015300040183249086000BF10BD10B5304800881F
:10154000402802D100202E4908802D48008800281C
:101550000ED1012189022B4800F042F80121C90275
:10156000284800F03DF801210903264800F038F82A
:101570002348008824490978884204D1012189023E
:10158000204800F031F81E48008820490978884238
:1015900004D10121C9021B4800F026F81848008830
:1015A0001B490978884204D101210903154800F03C
:1015B0001BF813480088401C1149088010BD124BCD
:1015C0001870124B1970124B1A707047C206D20E67
:1015D00001219140420992000E4BD21811607047D0
:1015E00082680A438260704782688A4382607047DB
:1015F000000200501400006800000050400001404C
:10160000F003002000400050F2030020F30300200C
:10161000F403002000E100E0002203098B422CD3F8
:10162000030A8B4211D300239C464EE003460B4332
:101630003CD4002243088B4231D303098B421CD394
:10164000030A8B4201D394463FE0C3098B4201D386
:10165000CB01C01A524183098B4201D38B01C01ABE
:10166000524143098B4201D34B01C01A5241030935
:101670008B4201D30B01C01A5241C3088B4201D3E4
:10168000CB00C01A524183088B4201D38B00C01A91
:10169000524143088B4201D34B00C01A5241411AB8
:1016A00000D201465241104670475DE0CA0F00D09B
:1016B0004942031000D34042534000229C46030994
:1016C0008B422DD3030A8B4212D3FC22890112BA1A
:1016D000030A8B420CD3890192118B4208D38901F2
:1016E00092118B4204D389013AD0921100E089090A
:1016F000C3098B4201D3CB01C01A524183098B42EB
:1017000001D38B01C01A524143098B4201D34B01D3
:10171000C01A524103098B4201D30B01C01A524136
:10172000C3088B4201D3CB00C01A524183088B42BD
:1017300001D38B00C01A5241D9D243088B4201D346
:101740004B00C01A5241411A00D201466346524131
:101750005B10104601D34042002B00D54942704730
:1017600063465B1000D3404201B50020C046C0462E
:1017700002BD7047704770470246C80FC0078143DB
:101780004B0030B54B405B009B0D20D01923DB068E
:10179000C91801231B05994220DB0324A407042553
:1017A0001346AB400BD3002B04D1EB0613409B0038
:1017B000E34204D401246407002312195941FF2392
:1017C0001B0599420BD2C9000143500F09E0CB021F
:1017D00004D501430803024305D0054830BDFF216D
:1017E000C905084330BD084607210905884330BDB7
:1017F0000000C07FF0B51FB4F84F0E091D09BC46AC
:101800003E403D400C46B7435C408CB0002F7DD03D
:101810006746AF43FBD0002D79D0002EFCD0E20FFD
:101820003243521BFF24A40412190892420DCD0228
:10183000C7020E981543420DD9021143C20260033C
:1018400005430143080C0195150CAC4605040B46F5
:10185000AB430A9565462D04AA430995E04D040A59
:101860007D446419803C257806466E430124761930
:10187000E405A61B7543ED0C490BAD1C69434919E2
:10188000A401611A0E0CB6463604B143694376468C
:101890006E43090C711889090591F90700D0A10060
:1018A000049101997F08CC0727434C08059DE10B63
:1018B0004D432D0C29466646754302950D4645431A
:1018C0002E46029D7D1BB44100950D465D4301945B
:1018D0002C0C2F040D465543AE462D0C3D4302956E
:1018E00003947546049C2D04641B049406D2029C48
:1018F000039D641C002675410395029401AC70CCD5
:10190000009F7D1BB4410904009501E03AE15EE1CE
:10191000079101940599A4086143090C0C464443BE
:10192000650BE70464464C43A646640B3C430395B1
:1019300002947446049DE4042C1B049406D2029C79
:10194000039D641C002675410395029401AC70CC84
:10195000009F7D1BB44101940C465C430095650FCC
:10196000E7000C465443A646640F3C43039502949B
:101970007446049DE4002C1B049406D2029C039D33
:10198000641C002675410395029401AC70CC009F45
:101990007D1BB441AE09AF06049DC900AD092F43BC
:1019A000049DA406AD060495079D3443691807916C
:1019B000059DE10B4D432D0C294666467543029566
:1019C0000D4645432E46029D7D1BB44100950D46B4
:1019D0005D4301942C0C2F040D465543AE462D0C4F
:1019E0003D43029503947546049C2D04641B0494A6
:1019F00006D2029C039D641C002675410395029447
:101A000001AC70CC009F7D1BB44101948C05069401
:101A1000079C890A611800950791019C0599A40803
:101A20006143090C0D464543680BEF040D466446BF
:101A300065436C0B3C43049FED047D1BAC4602D216
:101A40000025641C6841009E019D371B85410846A6
:101A5000584301950C46460FC5005443600F284378
:101A60006546E4002C1B02D20025401C6E41019DFE
:101A70003F1AB5412846BD09800628438446A0097F
:101A8000BF064E020699A40676180743079D00205C
:101A900068410A99079019430020099B009060460D
:101AA000FF1913434041E20F64003A43A446044641
:101AB000D71A8C41A04203D90120009020463A4613
:101AC000C70F941840416246D20F22436446640017
:101AD0000494009CBE466400D71AA44604460297AC
:101AE0008C417746002F01D1A04204D96046401CAA
:101AF0008446029A2046C40FA64694184041049A90
:101B00000546D20F224364466400D31A8D417146C4
:101B1000002901D1A84202D928461A46641C104364
:101B20000122002800D0164361020020079B0446D2
:101B300089195C410223002C02DB491813466441D9
:101B4000089DCE0A2D145D194B056705E10A2C0589
:101B50000D1908993E43C9076940002B08D09340EE
:101B600006D30022761C5141002B01D17608760065
:101B70001C4A002D43DB154241D0AA433FD03046DA
:101B800011B0F0BD0E4607184E41174D7A42B541CF
:101B90001AD30E9A1D4696185D41134A7642AA4101
:101BA00012D3012252054D00D5420AD15C00D44225
:101BB0000AD04B4002D592021143E1E7490049089F
:101BC000DEE7E10FC90718E000200849D8E705481B
:101BD00001420DD10342F7D0F3E700000000FF07F8
:101BE0004C1C00000000F07F0000E0FF0000F87FC8
:101BF000114821460143C01241400020C0E70123A3
:101C0000089A9B069A4205DC032252078918C90FDD
:101C1000C907B5E7052252078918074A1143D212AE
:101C20005140ADE75940504010B54B4042405940FB
:101C30005040FFF7DFFD10BDFFFFFF7F30B50346CB
:101C4000CA02400D1043164D164C0A1502D020430F
:101C5000002A06DBAA1A002A12DDD040FF2A0BDC7C
:101C600030BD5205520D01D140004008AA1A07D4D8
:101C7000D0404042FF2A01DD002030BD0028FCDDBD
:101C80004A00002B01D0012000E0002010180122A2
:101C90005205D042F0D8C817C043604030BD0000A4
:101CA0001E040000000000801F22030C02D10F223E
:101CB000000402D0030E03D004E000200146704768
:101CC0000002083A030F01D10001121F830F01D156
:101CD0008000921E002801DB4000521E12055118A0
:101CE0004205C012411810467047C10FC90700D005
:101CF0004042012292071143D6E701218907D3E729
:101D0000F0B5934C0D092646AC46AE430D465D40FA
:101D100087B0002E7ED01E092746B743FAD067460B
:101D20002740ED0F3D43264075D024012142FBD0D2
:101D30007419FF25AD04641B0494CC02D90201235D
:101D40001B05C90A1943E40A1C430F01110F2401A2
:101D5000030F1C43050116010F43A20B2D0990032D
:101D60008443A90B88038543BB0B9803874336093B
:101D7000BC46B00B8703BE430F46474303972F462D
:101D800077430296BE46029F4E19C71906967E43B8
:101D90000597039FF71B7646BE1B77463F010097CA
:101DA0000196039FB60BF619B646019E009FB60436
:101DB000BF1902D37646761CB64676467600002FCB
:101DC00001D001273E4367467D43AE46029F25462C
:101DD0007D4300956D00AE1975466D00AF196546DF
:101DE0005D19069E03956E437546751BAE46151923
:101DF000059E02956E43009D5943761B75466D1AEC
:101E000050438646301A05900195F80606D07D09A4
:101E1000012001E07DE079E0054300E07D090E0A44
:101E2000090600204D19464100967646310A3706CC
:101E3000009E7F1971418E4601998D0D8E0271466B
:101E4000F6194D41AE46059DA90DAF027546BE1966
:101E500069415A4363465C43039D029B6B439B1A53
:101E60001D1BAB0EAD016D184341110B120552192C
:101E70005941230A2406A5195341934200D2491C13
:101E800001225202914203D315220226F64302E0B8
:101E900014220326F6432024A41AA1401F46A7407B
:101EA000BC461F46D7400F432946D14062461143E6
:101EB000049A1214B2181305049EFB18F607734017
:101EC000A54009D00124A54006D30024491C634144
:101ED000002D01D1490849001E4CA24203D20846F8
:101EE000194607B0F0BD012204999206914207DB22
:101EF00005214907184A59181143D2125140F0E7F9
:101F0000032149075918C90FC907EAE70020E90763
:101F1000E7E706180C464C4110487642A04114D31E
:101F200094181A465A410D48644290410DD301203D
:101F300049004005814208D35900814205D3E90F89
:101F4000074AC90700201143CBE700200549C8E72D
:101F50000000FF07FE070000FFFFFF7F0000E0FF1B
:101F60000000F07F0000F87F0121C905012341181E
:101F700042001B06D3185B0E0AD0C1100722D206FE
:101F8000891840075242D14201D552008918704742
:101F9000090208D50146002A03D0C10FC907002055
:101FA000704710467047420202D000200249704735
:101FB000072109050143F4E70000F87F70B5FF240D
:101FC0002404C609FF25264001352E43C209CB094A
:101FD0000546224023404D40002A6BD0002B69D09B
:101FE000A24267D0A34265D0002D00DA3246012418
:101FF000E4052143204309020002090AD21A000A1B
:102000004B0C7F24E31A434C7C44E35C7D24240482
:10201000121914145B00A218884201D3521C00E06C
:10202000400049420C465C4324115C43DB016415CB
:10203000E318040A5C43C502200D0C4644436419AE
:10204000250A5D432303EC0C0D466543000300198C
:10205000EB184C42A34201D35B18401CD405201856
:10206000002B07D05B00C91804D3401C002901D104
:10207000400840003F2189048A4209D3002A08DC35
:102080001106090F04D0032149074018C00FC007EB
:1020900070BD01224100120689187F22520691422A
:1020A000F6D205214907C84201D5901070BDFF2026
:1020B000C00570BD002D00DA3246174EA24207D28D
:1020C000A34205D21802000E17D0E80FC00770BD5A
:1020D000FF2443002406A34216D84900A14213D886
:1020E000A34201D1A1420FD0A14201D1002101E0C0
:1020F00041004908D005084370BD1002000E03D00E
:10210000FF200243D00570BD304670BD48404140BD
:10211000484053E7241500000000C07F10B5024678
:102120009E240002D115A307002902D018430029DC
:1021300004DB611A00290CDDC84010BD0906090E38
:1021400001D140004008611A03D4C8404042002831
:10215000F3DDFF2150000906884201D9002010BD9F
:10216000D017C043584010BD01460002CA1504D024
:102170000123DB071843002A09DB9E239A1A01D4A6
:10218000D0407047FF2248001206904201D900203B
:102190007047C817C04370471F22030C02D10F229B
:1021A00000041CD0030E01D10002083A030F01D134
:1021B0000001121F830F01D18000921E002801DB55
:1021C0004000521ED2055118021251181922904097
:1021D00004D3491C002801D149084900084670472A
:1021E000C10FC90700D04042012292071143D3E733
:1021F00001218907D0E710B500F068F8006810BD2C
:1022000010B5044600F062F8046010BD70B50646D3
:102210004800440D114B0020002C0AD0634008D028
:102220009A4206DA6542AA4203DD1205801951413D
:1022300070BDCD0FED07002C05D0002B05D0002A76
:1022400001DB07490D43294670BD30460A031043A0
:1022500002D00020034970BD304670BDFF0700006A
:102260000000F07F0000F87F10B5FF231B0644003C
:102270009C421DD84C009C421AD80346124A0B437C
:1022800007D4401A02D3EFF3008010BDEFF30080B3
:1022900010BD081A06D2EFF3008001219043C90750
:1022A000084302E0EFF30080904380F3008810BD04
:1022B0000D231B041A4204D01146002000F00AF836
:1022C00010BD00F0C7F910BD000000900048704735
:1022D00004120020CA0211D54A03520F002A04D06A
:1022E000C803C043012188407047054AEFF30081CD
:1022F00008010009104380F30088704700207047F0
:1023000000000030F0B50C46871A9C410D46861A35
:102310009D4103D2C01BA141D21963410D0D1F0D78
:10232000C74EEC1BAE435CD07F057F0D0026002F0F
:1023300051D02D05AC46A943DD020123ED0A1B0552
:102340001D4320231B1B24D41746E7403818714136
:102350002F46E740CC199D402818314661410C0DAD
:1023600027D161449A4013D50023401C59415200A3
:102370000ED14008400001224B005205D34207D342
:1023800005204007C14201D5AE4900E0AE493046C4
:10239000F0BD6B00002A00D001229A181F23203CB8
:1023A0001B1B01D5002302E0E540281871410C0DEC
:1023B000D7D0012424050919C407CD0740084908CE
:1023C000E40F28436144002CD5D00024401C614117
:1023D0009A40D0D1CDE76A05520DD9D1C90FC907AE
:1023E000D5E79A4D4E00002801D0012400E00024DA
:1023F00034195F00002A01D0012600E00026BE1932
:10240000934FAC420CD8AE420AD8B44206D0012554
:102410006D05EC42BCD010461946F0BD9942FCD087
:1024200000203946F0BDF0B51FB40C460F46811AA6
:102430009F412546861A9D4106D20125ED076F4032
:10244000401ABC4152187B41210D1E0D8D1BAC461C
:102450007B4D8D437ED075056D0D7CD00D05AE4650
:10246000AC431B031B0B774D52429D412023664614
:102470009B1B14D31746F740381800260090744170
:1024800060462F460741E41900989D402818664190
:1024900016D4714671189A4025D5012320E093186F
:1024A0002A466A415200002B00D0521C1E23203EB7
:1024B0009B1B002B61DD3541EE1728186641E8D5DE
:1024C000001876415B1C9A4000D3401C4B05F31862
:1024D0001524E34010D3002B52D071467118D30F4E
:1024E000C01802D3491C05B0F0BD0123DB079A4296
:1024F000F9D140084000F6E701225205B21801D197
:10250000002853D00123CC0ADB029943891E002AFC
:1025100008D1020C03D0020C0004103902E002467C
:10252000002020390023550B05D112020823550B3A
:1025300001D152010D23550C01D112011B1DD50CE7
:1025400001D192009B1C150D01D152005B1C20256E
:10255000EE1A01E02CE022E00546F54015439840D4
:10256000CA1AE10769181305C918002ABBDA032043
:1025700040070818C10FC9070FE071466118B2E79C
:10258000F10740080843711071444A000CD0012340
:102590005B059A42A7D2C90FC9070020A3E74905E6
:1025A000490D26D1002001E00028F4D100219AE74E
:1025B000264D6600002801D0012100E0002171189D
:1025C0005F00002A01D0012600E00026BE19204F3E
:1025D000A94210D8AE420ED8B14208D001256D05EF
:1025E000E94206D01946A802414010467BE79C42CA
:1025F00001D0214677E70020394674E730B40C4615
:102600005C4004D50124E407634030BC0BE730BCD8
:1026100078E630B40C465C4004D50124E4076340FE
:1026200030BC6FE630BCFEE630B40124E407614004
:102630000D465D4001D430BC64E6634030BCF2E638
:10264000FF0700000000F0FF0000F07F0000E0FF47
:102650000000F87F10B5024800F02DF810BD000012
:102660000000C07F00487047041200207546FFF745
:10267000F9FFAE46050069465346C008C0008546CE
:1026800018B020B500F072F860BC00274908B646C3
:102690000026C0C5C0C5C0C5C0C5C0C5C0C5C0C571
:1026A000C0C5403D49008D4670470446C046C046FF
:1026B0002046FDF7F4FD10B50C461107090F092956
:1026C00004D00A290AD008290CD104E011460820B8
:1026D000FFF700FE06E0510606D501E0510601D5E0
:1026E0000120C007214610BDD10607D50101090907
:1026F000CC084907000E0006044309E0410F200200
:102700004907000A0143200E00061D22D141014362
:102710000846E7E701491820ABBEFEE726000200A5
:102720007047000005B50E48002200F001F805BD15
:10273000ABBE01E000207047002A00D010600120ED
:10274000704706980188074A914207D102300690E7
:10275000079801218907884307907047FEE700002A
:1027600000010000ABBE00000348004703480449D5
:10277000044A054B70470000050200006812002063
:10278000580300206813002058000020F8B538488E
:1027900000903848C16B01221143C1630025354CBC
:1027A000E06B35490840E905C90B0843E0630026A2
:1027B000206BC007C00F02D000F062F8761C082E14
:1027C000F6D300273E462B48006BC007C00FFAD057
:1027D00000F056F8002000F05DF80446012000F0FB
:1027E00059F82418022000F055F82418032000F0AE
:1027F00051F82418042000F04DF82418052000F0AA
:1028000049F82418062000F045F82418072000F0A5
:1028100041F82018C010761C3F18B6B2082ED2D34B
:10282000F81000B215490028088014DC1348002273
:10283000825E00995242914214DA2902FF3901392D
:10284000CA030C49D20BCB6B0B4C23401A43CA630F
:102850000099018006E06D1CADB20090E81FFF38C2
:10286000FA389CD10348C16B49084900C163F8BDDF
:10287000FF07000000000E40FF00FEFFF6030020EF
:102880000348016BC908C900491C01637047000077
:1028900000000E4002498000085800B27047000056
:1028A00000000E40054901208A68000702438A6043
:1028B0000349C8600020C860704700000002005053
:1028C0000000005002498A6882438A607047000015
:1028D0000002005002498A6802438A607047000083
:1028E0000002005010B5034840694003400F00F05B
:1028F00047F810BD0002005010B50C4A106940079F
:10290000400F10D0022809D0042809D00848916946
:102910000907090F491CFEF77FFE10BD0548F6E7C1
:1029200000F00AF8F3E77D200002F0E70002005013
:10293000006CDC02808D5B000448006A0449C0061C
:10294000800F4843034940187047000000020050C0
:10295000808D5B0080C3C90110B50748406900073E
:10296000800F04D0022805D0FFF7C6FF10BDFFF787
:10297000E3FF10BD014810BD00020050006CDC02F6
:10298000014610B50020012906D0032903D00429EF
:1029900005D0FFF7B1FF10BD7D20000210BD01483A
:1029A00010BD0000006CDC0270B5134B984201D1E1
:1029B000831402E0520801235B03104CA5681D43F9
:1029C000A5600F4CE3600023E36001231B0419435F
:1029D0000160426004460B48844205D1FFF78CFF3A
:1029E0006168491C490003E0FFF786FF6168491CE4
:1029F000FEF712FE70BD0000000003400002005010
:102A000000000050004003400249C8600020C86038
:102A10007047000000000050034859210160162152
:102A200001608821016070470001005010B510203E
:102A3000FFF7EAFF1020FFF745FF10BD70B5054610
:102A40000C461020FFF746FF1020FFF7DDFF044A79
:102A50005068000C000420435060156070BD0000F9
:102A60004000014070B506460025FFF73BFF7D2181
:102A7000C900FEF7D1FD81B20920C006FFF7DEFFD5
:102A80000548C1688CB2AC4201D2761E01D0254601
:102A9000F7E7FFF7CBFF70BD40000140F0B4040C36
:102AA0008BB2264682B25E430D0C1046370C58435B
:102AB000360480190021794116466E43370C3604DE
:102AC0008019794126466E438919F0BC7047000091
:102AD0004900CA020243100000D004204A0D01D070
:102AE00001221043044A490D914201D102210843B9
:102AF000012800D105207047FF070000F7B596B008
:102B0000189B00219960D960179908914C00CF4912
:102B100064088C4206DC189A1799516010600020F6
:102B200019B0F0BDCA490027CA4DFF438C423BDAB9
:102B3000D326089976050029C74A17992B4619DD2F
:102B4000FFF767FDAC4207D0C44AC54BFFF761FDF4
:102B5000189A516010600AE03246C14BFFF759FDE8
:102B6000C04AC14BFFF755FD189A51601060012013
:102B700019B0F0BDFFF742FDAC4207D0B74AB84BE1
:102B8000FFF73CFD189A516010600AE03246B44BE2
:102B9000FFF734FDB34AB44BFFF730FD189A51608C
:102BA0001060384619B0F0BDB0498C4217997CDCF2
:102BB000490049080746AE4AAE4B0391FFF7A0F81B
:102BC0000022AD4BFFF71AFDFFF738F80990FFF729
:102BD0008CF80646A04A2B460791FFF791F83A4633
:102BE000039BFFF721FD05460F469C4A9C4B304650
:102BF0000799FFF785F8220D01240B922A463B46E0
:102C0000FFF712FD189A032C5160106039D0189804
:102C100040684000410D0B98401A6101611811395C
:102C200081422EDA95492001794402950C900818CA
:102C300003974368026830460799FFF761F80191EE
:102C40000090039B029AFFF7EFFC05460F46039B9B
:102C5000029AFFF7E9FC019B009AFFF7DAFC019169
:102C60008749009079440C984018C36882683046C0
:102C70000799FFF745F8019B009AFFF7CAFC641C0F
:102C8000BCE7089800280DDA1899012208684968FD
:102C9000D2075140189A51601060099819B040420B
:102CA000F0BD02E0099819B0F0BD09030122090B3B
:102CB00012050D9089181798109140007149400D28
:102CC00040184111C006C00E20221290101A139015
:102CD00000200690079088006B497944451806202B
:102CE00007AC143515902F681298696887401398BF
:102CF000C1400F4338461099FFF7D0FE06461191A8
:102D000038460D99FFF7CAFE23688A191B189C469E
:102D1000834201D2012600E0002620468038C36F9E
:102D20009719DB198A4201D2012700E00027119987
:102D30007918002E02D0934202D903E0934201D2C7
:102D4000012200E00022891862462260C367816781
:102D50001598241F401E2D1F15900028C3D1012156
:102D6000029849074018800F119002980599800039
:102D7000039D049C0B91FEF7B8FF06460F462846BC
:102D8000FEF7BBFF1D22D243FFF740FA0A900E91D7
:102D90002046FEF7B2FF3D22D243FFF737FA1290EA
:102DA00009910B98FEF7A9FF5D22D243FFF72EFA97
:102DB0000D910890099B129AFFF720FC0E9B0A9A2E
:102DC000FFF71CFC32463B46FFF718FC00240D467B
:102DD00032463B462046FFF71CFC0E9B0A9AFFF743
:102DE00018FC099B129AFFF714FC0D9B089AFFF739
:102DF0001BFC264A264BFEF783FF06460F46254A54
:102E0000254B29462046FEF77BFF32463B46FFF71F
:102E1000F5FB06460F46152292061D4B2946204615
:102E2000FEF76EFF3B463246FFF7E8FB179A002A93
:102E300005DA119A524211920122D2075140189A92
:102E400051601060119819B0F0BD0000FB21E93FFE
:102E50007CD90240FB21F93F000040543163621AE3
:102E600061B4D03D7370032E8A19A33BFB21394115
:102E700083C8C96D305FE43F0000E03F7409000083
:102E8000380900000BFCFFFFF2080000182D445425
:102E9000FB21F93D3326A611460B113CF0B51FB4BA
:102EA0004E00F9207608800584B00F46864204DA89
:102EB0000498FEF7C3FE002838D0049A3B4610461B
:102EC0001946FEF71DFF044602462C480D460B46E8
:102ED0000621784400F05CF822462B46FEF710FFEE
:102EE000019100903946079B069A0498FEF708FF67
:102EF0000746029120462946019B009AFEF700FFF3
:102F00003A46029BFFF785FB074600220091D24319
:102F100020462946FFF77AF9194A96420ADA3A46D4
:102F2000009BFFF776FB0022164B23E0002015499B
:102F300009B0F0BD144A964202DD0024134D03E0AF
:102F400001225205B51A002422462B46FFF761FBE9
:102F50000646019122462B4600200A49FFF759FBFD
:102F60000D4604463A463046009B0199FFF751FB57
:102F700022462B46FFF758FB09B0F0BD9A06000029
:102F80003333D33F0000F03F0000E93F0000D23F61
:102F9000F8B504464F1EC8000838211815461E46CD
:102FA000086849683A4606239A4310D02A463346B1
:102FB000FEF7A6FE3A46D200083AA3181A687F1E0A
:102FC0005B68FFF71BFB06223B469343EED1022FC3
:102FD00023D0042F11D0062F2FD12A463346FEF7D7
:102FE0008FFEE36AA26AFFF709FB2A463346FEF723
:102FF00087FE636A226AFFF701FB2A463346FEF723
:103000007FFEE369A269FFF7F9FA2A463346FEF725
:1030100077FE63692269FFF7F1FA2A463346FEF725
:103020006FFEE368A268FFF7E9FA2A463346FEF727
:1030300067FE63682268FFF7E1FAF8BDF0B51FB4D8
:10304000054648000C46F9214008890586B08842AB
:103050000BDA28462146FFF73BFD042801D100F09A
:1030600063F8284621460BB0F0BD2A462346104699
:103070001946FEF745FE06460F462A462346FEF74A
:103080003FFE00902548019132463B460521784499
:10309000FFF77EFF029010980391002829D0204A64
:1030A000204B01990098FEF72BFE0490059168468D
:1030B0000FC8FEF725FE002201910090D243099926
:1030C0000898FFF7A3F8019B009AFFF7A2FA32468F
:1030D0003B46FEF715FE099B089AFFF79AFA059BF7
:1030E000049AFFF796FA2A462346FFF79DFA0BB09B
:1030F000F0BD0B4630463946029AFEF701FE084AFB
:10310000084BFFF77BFA019B009AFEF7F9FD2A4670
:103110002346FFF773FA0BB0F0BD0000D6050000A0
:10312000495555555555C5BF034A10B500201107DF
:10313000FFF76CF810BD000001FDFFFF00B54A006D
:10314000254B520887B09A4203DC002213460092B6
:103150002EE0224B9A420CD100280CD10120FFF71F
:103160004FF80022134610461146FEF743FB07B006
:1031700000BD9A4204DB0122FFF748F807B000BD0A
:1031800002AAFFF7BBFC8107890F012000290CD0A0
:10319000012911D0022915D002A80FC8FFF77EFE21
:1031A0000122D207514007B000BD009002A80FC80D
:1031B000FFF744FF07B000BD02A80FC8FFF76EFE7F
:1031C00007B000BD009002A80FC8FFF737FF01222B
:1031D000D207514007B000BDFB21E93F0000F07F5E
:1031E00070B501250400ED074C4020D4441A01D2EB
:1031F000001B0919C60D4B00F2B2FF2A29D01B0E85
:103200002CD000020C02D31A2C43DC4028430519B1
:1032100010D2280A02D3401C6D0611D0761EF60586
:103220008019FF2A00DA70BDC00DC00570BD69406D
:1032300000F0DCF801200543C541521C761CE8E78C
:1032400064089C40C90161408900E7D10124A04382
:10325000E4E71B0E440200D0034870BD002AFCD1F5
:10326000C00FC00770BD00BF0000C07F0123020077
:10327000DB050A430DD4DA4203D49A4207D48842CC
:103280007047D84214D4D94212D488427047804241
:103290007047DA4203D59A42F9D5814270475B0004
:1032A0004200DA4204D24A00DA4201D28142704737
:1032B00010B5024AFEF7D8FF10BD00BF0900160482
:1032C00070B5420064414B005C41120E39D01B0EB8
:1032D00038D0FF2A3CD0FF2B3AD040024902400AA6
:1032E000490A060045184E43000A090AD218484305
:1032F000ED017F3A0104731A4019190C4318990F14
:1033000004D001215B0849075B1A521CD80904D379
:10331000401CF50301D19D0607D0FF2A08D2D50530
:1033200006D0E4072043401970BD0125A843F4E707
:10333000002A01DCE00770BD2402FF202043C00505
:1033400070BD1B0EFF2A03D0FF2B01D0E00770BD1C
:10335000FF2645003606B54206D84D00B54203D8D3
:10336000D218FF2A00D0E7E7004870BD0000C07FF8
:1033700001230A00DB0502430DD4DA4203D49A424A
:1033800007D481427047D94214D4D84212D4814222
:10339000704789427047DA4203D59A42F9D588428C
:1033A00070475B004A00DA4204D24200DA4201D29E
:1033B000884270474840414010B5024A4840FEF7F5
:1033C00053FF10BD0900160470B50125ED076840D4
:1033D00004004C4002D5694000F008F8FFF706FFF2
:1033E00070B501250400ED074C4022D4441A02D2E6
:1033F0006C40001B0919C60D4B00F2B2FF2A4BD0DE
:103400001B0E50D000020C02D31A2C43DC40A84300
:10341000051B05D5AD0019D36D08761E521E37D099
:10342000F605280A01D2801970BD70416D0603D0DF
:1034300070BD6940FFF7DAFE9C4009026140490017
:1034400001D0401E70BD0124A04370BD6D081DD089
:1034500001202B0C01D12D0410302B0E01D12D0297
:1034600008302B0F01D12D01001DAB0F01D1AD0094
:10347000801CEB0F01D16D00401C6D00361A121A32
:10348000680AF5054019012A02DB70BD002070BDF5
:10349000C036300AC00770BD1B0E440201D1FF2B9D
:1034A00000D1024870BD002AF0D070BD0000C07F7E
:1034B00080807F7E7D7C7B7A797877767675747371
:1034C000727171706F6E6E6D6C6C6B6A6A69686830
:1034D000676666656464636362616160605F5F5EC6
:1034E0005E5D5D5C5C5B5B5A5A595958585757563C
:1034F00056555555545453535252525151505050A1
:103500004F4F4F4E4E4D4D4D4C4C4C4B4B4B4A4AF2
:103510004A49494948484847474747464646454536
:10352000454444444443434343424242424141416F
:103530008182838485868788898B8C8D8E8F9192FA
:1035400093959697999A9C9D9FA0A2A3A5A7A8AA98
:10355000ACAEB0B2B3B5B7B9BCBEC0C2C5C7C9CCBA
:10356000CED1D4D7D9DCDFE2E6E9ECF0F3F7FAFE0E
:103570004C5555555555A53F7751C1166CC156BF91
:103580009015CB19A001FA3EAD529C804F7E92BEA1
:10359000C4B1B4BD9EEE213ED43888BEE9FAA8BDC0
:1035A00000004054FB21F93F3163621A61B4D03D01
:1035B0000000601A61B4D03D7370032E8A19A33BDA
:1035C0000000002E8A19A33BC14920259A837B392C
:1035D00000000000000000006E83F9A22915444E8F
:1035E000D15727FCC0DD34F5999562DB4190433C0F
:1035F000AB6351FE61C5BBDE3A6E24B7E0D24D42EB
:10360000EA2E49061C92D1091CEB1DFE3EA729B1EA
:10361000F53582E88444BB2E26709CE9417E5FB478
:1036200039D69139F43953838B5F849C3B28F9BD9B
:10363000FF97F81F0F9805DE8B112FEF1F6D0A5AA9
:10364000CF7E366DB709CB27663F464F2DEA5F9E8A
:10365000C7BA27757BF1E5EBF739073DEA92528A45
:10366000B15FFB6B085D8D1FA6F810111111813F32
:10367000D561C119A0012ABF7DFEB157E31DC73E28
:10368000EB9C2B8AE6E55ABE7CD5CF5A3AD9E53D6C
:10369000C036000000000020540000004802000076
:1036A0001437000058030020AC000000480200005E
:1036B000C037000004040020640F00006402000012
:1036C0006927000043270000F5000000F500000016
:1036D000F5000000F5000000F5000000F500000016
:1036E0008B080000F5000000F50000009B030000BF
:1036F000F5000000BF03000041030000F5000000DA
:10370000F5000000F5000000F5000000F5000000E5
:10371000F5000000000000000000000000000000B4
:103720000000000001000000000000000000000098
:103730000000000000000000000000000000000089
:103740000000000000000000000000006400000015
:103750000000000000000000000000000000000069
:1037600000B07E46000000000000000000000000E5
:103770000000000000000000000000000000000049
:103780000000000088130000000000006F12833A60
:103790000000000000000000000000000000000029
:1037A0000000000000000000000000000000000019
:1037B0000000000000000000000000000000000009
:040000050000276967
:00000001FF
