:020000040000FA
:1000000058030020452900007D0000008300000007
:1000100000000000000000000000000000000000E0
:100020000000000000000000000000008900000047
:1000300000000000000000008F000000950000009C
:100040009B000000A1000000A7000000AD00000020
:10005000B3000000B9000000BF000000C5000000B0
:10006000CB000000D1000000D7000000DD00000040
:10007000E3000000E9000000EF0000001E480068F7
:1000800000471E48006800471D48006800471D489B
:10009000006800471C48006800471C48006800478B
:1000A0001B48006800471B48006800471A48006862
:1000B00000471A4800680047194800680047194877
:1000C0000068004718480068004718480068004763
:1000D000174800680047174800680047164800683E
:1000E0000047164800680047154800680047154853
:1000F00000680047FEE70000140000200400002014
:10010000080000200C000020100000201800002033
:100110001C000020200000202400002028000020D7
:100120002C00002030000020340000203800002087
:100130003C00002040000020440000204800002037
:100140004C000020500000200000000000000000D3
:10015000000000000000000000000000000000009F
:10016000000000000000000000000000000000008F
:10017000000000000000000000000000000000007F
:10018000000000000000000000000000000000006F
:10019000000000000000000000000000000000005F
:1001A000000000000000000000000000000000004F
:1001B000000000000000000000000000000000003F
:1001C000000000000000000000000000000000002F
:1001D000000000000000000000000000000000001F
:1001E000000000000000000000000000000000000F
:1001F00000000000000000000000000000000000FF
:100200000502000000F002F800F040F80CA030C831
:10021000083824182D18A246671EAB4654465D4682
:10022000AC4201D100F032F87E460F3E0FCCB6460C
:100230000126334200D0FB1AA246AB46334318478F
:100240004836000078360000103A02D378C878C1EA
:10025000FAD8520701D330C830C101D504680C6008
:10026000704700000023002400250026103A01D327
:1002700078C1FBD8520700D330C100D50B6070475E
:100280001FB5C046C0461FBD10B510BD02F0DCFA58
:100290001146FFF7F5FF00F046F902F0F4FA03B457
:1002A000FFF7F2FF03BC02F023FB000010B50028AB
:1002B00019DAEC4A03071B0F083B9B089B00D25836
:1002C0008307DC0EFF23A3409A438B071B0E840792
:1002D000E40EA3401A43E34B0407240F083CA40890
:1002E000A4001A5118E0E04A03231B02D218830825
:1002F0009B00D2588307DC0EFF23A3409A438B0751
:100300001B0E8407E40EA3401A43D74B0324240298
:100310001B198408A4001A5110BD10B5FF2101312A
:10032000D24800F055F90012002801D1012010BD7B
:100330000020FCE710B58021CC4800F049F9C0113D
:10034000002801D1012010BD0020FCE7C84800783A
:10035000704710B50221C74800F03EF9002805D0CB
:1003600000F0CBFA0221C34800F03AF90121090359
:10037000C04800F031F9002817D00120BC490870AE
:100380000103BC4800F02CF901210903B94800F031
:100390001FF9002809D00020B54908708020B6490F
:1003A00008704101B34800F01BF910BD00BFB3480D
:1003B000806840084000401CB049886000BF0120B0
:1003C000AF490870AF480068401CAE4908607047EC
:1003D00010B500BFAC48806840084000401CAA49E6
:1003E000886000BF01F097F910BD10B500210B2007
:1003F000FFF75CFF00210820FFF758FF01210220D2
:10040000FFF754FF03210520FFF750FF01210720CC
:10041000FFF74CFF10BD10B502F0ECFB00F0ECF85C
:100420000F2000F0DFF800BF98480068482188439B
:100430009649086000BF00F00CFB00BF01200005DA
:10044000924989680143914A916000BF00BF904979
:10045000C86000218E4AD16000BF00BF00BF1046B7
:100460008069802188431146886100BF00BF002059
:10047000C86100BF00BF0021D01DF930016000BF7E
:1004800010BD10B51D208249096B0143804A1163DC
:1004900000BF80481146496B0143516300BF7E494C
:1004A000724800F093F8032000037249496802047F
:1004B0009143704A516000BF15210904104600F0B5
:1004C00085F801208003694989680143674A916082
:1004D00000BF80100121674A92698243654B9A618F
:1004E000002906D01A46D26903041A43614BDA6127
:1004F00005E0604AD26903049A435E4BDA6100BFAB
:10050000012000035B49C96901435A4AD16100BF18
:1005100008200121814042099200534BD2181160FA
:1005200000BF10BD704700BFFFF775FFFFF7A9FFC1
:1005300000BF00F036F900F089F901F09AF800F0F8
:10054000BFFB00F02FFD00F081FE01F09FF80022BC
:100550001146402001F021F93F20000600F0EEFD99
:100560007F20C00500F0C7FD4C4800F0C7FD00F03B
:1005700022FE00BFFFF7D1FE002819D0FFF7DAFEF8
:10058000002815D000F0D3F83D4800780028F1D0BD
:1005900000203B49087000F093F8044600F0ABFDE2
:1005A00000F0AAF8044600F0A9FD00F082FEE1E7A1
:1005B00000221146402001F0F0F8002000F09BFDE1
:1005C000002000F09BFD00F074FED3E7016070474F
:1005D00002461069084070470246106A084070479A
:1005E0000162704729498969090909010207120F47
:1005F0001143264A9161704710B500BF012024497C
:10060000896808229143C20008231A401143204AF6
:10061000916000BF00201146896804229143820046
:1006200004231A4011431A4A916000BF00BFFFF72C
:10063000D9FF07201549096981430143134A116114
:1006400000BF03201146096A0143116200BF022066
:10065000114609684022914381430C4A116000BF52
:1006600010BD00001CED00E000E100E00040005083
:100670007E03002040400050840300200000014021
:100680007F0300207803002040000140000200505A
:10069000000000501E0700000000541066668241F2
:1006A00010B5FFF73AFE8401FFF744FE4001044312
:1006B000E0B210BDC14800687047C148007870477B
:1006C00000B5BF480088801E030002F0EEFA0C0B54
:1006D0000D130F111313131309130713002000BD7B
:1006E000B848FCE7B848FAE7B848F8E7B848F6E78A
:1006F000B848F4E70020F2E700B5B1480088801E52
:10070000030002F0D2FA0C0B0D120F10121212128B
:1007100009120712002000BDAF48FCE7AF48FAE716
:10072000AF48F8E700BFAF48F5E70020F3E710B5A2
:10073000A3480088801E030002F0B7FA0C13192B9F
:100740001F252B2B2B2B0D2B072B40221146104640
:1007500001F023F823E040220021084601F01DF8B3
:100760001DE000224021104601F017F817E000229A
:100770004021202001F011F811E00022202140202A
:1007800001F00BF80BE006221146402001F005F8BD
:1007900005E000221146402000F0FFFF00BF00BF2F
:1007A00010BD70B502F096F905468F4901F022F8A8
:1007B000002807D002F08EF905468B4901F01AF89F
:1007C000401E00E0002084B222468421874802F0C7
:1007D000D9F9012085490968052212049143820450
:1007E0001143824A116000BF00BF11468968102280
:1007F0009143020110231A4011437C4A916000BFCB
:100800000021104600F0D7F8784800F0CCF802201C
:100810000121774A92698243754B9A61002904D07D
:100820001A46D2690243DA6104E0714AD26982430E
:100830006F4BDA6100BF70BD10B5044621466B48AE
:1008400000F0B9F8694800F0AEF810BD70B502F0DC
:1008500041F90546674900F0CDFF002807D002F0B6
:1008600039F90546634900F0C5FF401E00E000204D
:1008700084B222468221604802F084F901200021DE
:10088000C2008B00D2185C4B9A6000BF0220194650
:1008900089688908890001431A46916000BF0121D7
:1008A00010201268554B1A404B1E1B021A43C300FE
:1008B0001A43514B1A6000BF70BD10B50446214663
:1008C0004D4800F078F84C4800F06DF810BD70B558
:1008D00004460D462146484800F06DF8464800F0B1
:1008E00062F800BF00BF44480068C007C00F00287E
:1008F000F8D100BF4048006970BD30B589B0002410
:10090000002168468180818230E000BF00BF374807
:100910000068C007C00F002805D00221344800F04D
:100920003EF80028F2D00221314800F038F80028C3
:100930001CD100BF2D480069610001AA505200BFC0
:100940002D480069610005AA5052600001A9085CA9
:100950001B4908806100515A294A12781143084600
:10096000FFF76AFF082C01DA601CC4B2022120489C
:1009700000F015F80028C8D0FFF792FE611E49006C
:1009800005AA515A1E4A1278114308430546FFF73B
:1009900053FF00201A49087009B030BD7047024665
:1009A0001069084070470168012212049143012236
:1009B0001143016070470162704700008803002006
:1009C00086030020AE47813F0AD7E33FC3F50840C6
:1009D0006666664000009040142E8842EC512E421C
:1009E0000000DA41D7A3824100127A0000400340A0
:1009F00040400050A08601000000034007FCFEFFBD
:100A00008403002010B59A4A126C30239A430301E4
:100A1000302423401A43964B1A641A46126C9208EB
:100A200092008B079B0F1A43914B1A6410BD10B5AF
:100A300000BF8F48006BC007C00F002808D00020FF
:100A400081008B4A515809B28A48016000F0F5F8DC
:100A500010BD70B5002400250220874949690C2289
:100A6000914382000C231A401143834A516100BF15
:100A70002B2011468969814A114002047F4BDB43D8
:100A80001A4011437C4A916100BF02F023F80446EA
:100A900000BF02F04FF80646774880690001000D5C
:100AA000411C304600F0A6FE054670BD70B50446F8
:100AB00000250AE000BF6E48006BC007C00F002889
:100AC00003D000F0BAF8681C85B2A542F2DB70BD15
:100AD00010B500F0BBF805200002FFF7E7FF00BFEC
:100AE00000F0ABF86248006A02218843801C60492C
:100AF000086202200121814042099200604BD21815
:100B0000116000BF00BF10BDFEB501F0B9FF00BF0E
:100B10005748006A40084000401C5549086200BF21
:100B200000BF0846C06B0321890508435049C863CC
:100B300000BF00210846FFF765FF642002F080F83F
:100B400003210846FFF75EFF00F089F8002110221C
:100B50000B460120464CE46B84430443444DEC6354
:100B60002C46E46B0625AC435D00062635402C433D
:100B70003F4DEC632C46E46B424D2C401502414E38
:100B8000F64335402C433A4DEC632C46E46B1F256D
:100B90002D06AC430D061F26360635402C43344D3A
:100BA000EC6300BF03202946096A0C2291438200AE
:100BB0000C231A4011432A46116200BF012011463E
:100BC000096A02039143020303031A4011432A46B0
:100BD000116200BF00200F210A460B460C460D464D
:100BE000009101910E0136181702F719009E360385
:100BF000BE191F04F6192705F6192F06F719019ECD
:100C00003607BE191A4F7E6200BF00F01FF801F0D0
:100C1000ABFE00BF1C48008840001C490988081A28
:100C200000B21A4908800020085E1949C86000BF58
:100C300000F015F8FFF74CFFFEBD0D48006B0621D4
:100C40008843012108430A49086370470848006A3D
:100C50000121C902884340180549086270470448C9
:100C6000006A0121C90288430149086270470000F7
:100C700000000E408C03002000020050FFFF00F037
:100C800000E100E0FF00FEFFF6030020FA03002071
:100C90000080005070478022121A91B24D4A916232
:100CA00000BF70478022121A91B24A4AD16100BF38
:100CB00070478022121A91B2464A116100BF7047F4
:100CC00070B5042400250320434949690207914374
:100CD000020703071A4011433F4A516100BF00BF9A
:100CE0003C488068042188433A49886000BF00BFBF
:100CF0000846C06F40084000401CC86700BF00BFE6
:100D00000846C06F02218843801C3249C86700BF73
:100D100000BF0846C06F04218843001D2D49C867E5
:100D200000BF00BF084680681021884329498860B9
:100D300000BF00BF0846806820218843254988609D
:100D400000BF601EC1B27F232A46012000F00AF8CE
:100D50000020FFF7AEFF0020FFF7A4FF0020FFF701
:100D60009AFF70BD70B500BF1A4CA4680825AC434B
:100D7000C500082635402C43164DAC6000BF2C46FC
:100D80002468240A2402CDB22C43124D2C602C4638
:100D90006468E408E40055076D0F2C430D4D6C604A
:100DA0002C46E468240C24049DB22C43094DEC60CD
:100DB00000BF2C46646C64086400641C6C6400BF53
:100DC00000BF2C46A46864086400641CAC6000BFCB
:100DD00070BD00000000044000020050F0B585B076
:100DE00000242EE0204601F076F805460322520743
:100DF000FB4B01F073F80022FA4B0191009000F0D8
:100E0000E7FD0391029000F0A5FD0746384601F08A
:100E100099F9054602F08EFA0022F34B01910090F9
:100E200001F05CF80391029000F0F6FF00B261005F
:100E3000EE4A505260001146085A6100EC4A505286
:100E4000641CFF2CCED905B0F0BDF0B587B0E948E1
:100E5000069000246FE0204601F03DF8054603228D
:100E60005207DF4B01F03AF80022DE4B039102906B
:100E700000F0AEFD0591049000F06CFD07460021E6
:100E8000384602F071FB18D83846069902F0EAFAA3
:100E900013D2384601F056F9054602F04BFA00220B
:100EA000D54B0391029001F019F80591049000F0E0
:100EB000B3FF00B26100D14A50523846069902F0A1
:100EC00053FB29D801208007069902F0F5FA054660
:100ED000394602F049FB1FD201208007069902F033
:100EE000EBFA3946009002F06BFB019001F02AF911
:100EF000054602F01FFA0122D20751400022BE4BE4
:100F00000391029000F0EAFF0591049000F084FF45
:100F100000B26100B94A505201208007069902F0E0
:100F2000CBFA0546394602F09DFA03D8002061004D
:100F3000B24A5052641CFF2C8DD907B0F0BDF0B5F9
:100F400085B0002428E0204600F0C5FF05460322B6
:100F50005207A34B00F0C2FF0022A94B0191009061
:100F600000F036FD0391029000F0F4FC074638468D
:100F700001F0E8F8054602F0DDF90022A14B0191ED
:100F8000009000F0ABFF0391029000F045FF00B22B
:100F900061009D4A5052641C012080028442D2D3D9
:100FA00005B0F0BD10B5FFF719FFFFF74EFFFFF7D3
:100FB000C6FF002095490870552095490870AA2061
:100FC000944908700020944949690722120291430C
:100FD000020207231B021A4011438F4A516100BFCE
:100FE0008E493C2004228C4B9B6813438A4CA3609F
:100FF00000BF00BF8A4BDA600023894CE36000BF6A
:10100000884A5268120C12040243864B5A601A46F0
:10101000116000BF00BF10460068090788434018F0
:1010200011460860052000F081FA00BF052000F09D
:101030007DFA00BF7B48006801218907884340187A
:101040007849086000BF10BD70480078401C6F49A7
:1010500008706F480078401C6D4908706D48007832
:10106000401C6C490870704768480078401E67490A
:10107000087067480078401E654908706548007828
:10108000401E64490870704710B5604909784900EE
:10109000574A515A403188B2FFF70BFE5C49097834
:1010A0004900534A515A403188B2FFF7FBFD594974
:1010B000097849004E4A515A403188B2FFF7EBFD9A
:1010C00010BD10B55149097849004C4A515A88B2AF
:1010D000FFF7EFFD4E4909784900484A515A88B256
:1010E000FFF7E0FD4B4909784900444A515A88B25C
:1010F000FFF7D1FD10BD4C4908607047F1B500986D
:1011000001F020F804460022484B00F061FC06463E
:1011100000F020FC00904649009802F0CDF9054609
:101120000121890701F038F8044601F00BF9414923
:1011300008602320000240490860F8BDF8B5054664
:10114000002410E06100294A505E01F037F907469B
:10115000294602F0B1F9064601F0CEF800B261006E
:10116000234A5052641CFF2CECD9F8BD3349087057
:101170007047002806D10021314A1180314A1160A0
:101180002E4A1170012805D100212D4A118001211C
:101190002A4A1170032805D12B49294A11800321BD
:1011A000264A1170022805D12749254A11800221BB
:1011B000224A1170704710B50120FFF7DAFF10BD09
:1011C00010B50320FFF7D5FF10BD10B50020FFF7C5
:1011D00070FD0020FFF766FD0020FFF75CFD10BDED
:1011E000FB21194000007040000050400406002020
:1011F00004040020920A0640000060400408002019
:10120000000090400088C340040A002092030020A0
:101210009303002094030020000200503200006875
:1012200000000050000001409803002000005940D9
:101230000000E0449C030020A0030020CA0300201B
:10124000C8030020A40300208813000010B5FFF796
:10125000BCFF0020FFF78DFF10BDB9480078704734
:1012600010B5B8480068B849086008460168B74832
:10127000006802F0B1F804460121890700F08CFFF4
:10128000B3490860B3480078002802D10120B24970
:10129000087010BDAB480068AC490860704700207A
:1012A000AC490870AD490870AB490870AC4908609A
:1012B000704770B5A2480078002800D170BDA048E2
:1012C000007801280CD1A7480088401CA549088057
:1012D00008460088A449884202DB0220FFF749FF44
:1012E00097480078022807D095480078012803D055
:1012F0009348007803287CD19C4801688920C00568
:1013000002F0DAF806468F480168304602F0D4F859
:10131000054601F017F896490860084600888005E0
:10132000800D08600846006840009249085A9249BA
:10133000088092480068FF210131884205D88C4816
:101340000068884201D9FFF7AAFF8C480068032192
:101350000902884205D886480068884201D9FFF70B
:101360009EFF834800688549086083490020085E25
:10137000002801DB014600E04142FF22F5329142A4
:1013800009DA7F48007800280ED101207C490870D6
:10139000FFF780FF08E07A480078002804D000209A
:1013A00077490870FFF75CFF764801686548006878
:1013B00002F012F86349086073496948006800F058
:1013C000EBFE72490860084601686548006802F053
:1013D00003F963490860684A0021515E6C4A12684B
:1013E00051436C4A12886A4B1B685A4388186A49F1
:1013F00000E058E000F008FA684908600968594AB6
:10140000128851430846584900F0FEF963490860C4
:101410000846008862490988401A00B2614908807C
:101420005E4800685E4908605F495648006800F001
:10143000B3FE054655480168284602F013F813D25A
:1014400058480021415E002904DA0088401E00B29D
:101450005449088053480021415E002904DD00887A
:10146000401C00B24F4908804E480021415E0029CF
:1014700009DD0024045F04E0FFF7E6FDFFF704FE4A
:10148000641E002CF8D147480021415E00290ADA89
:101490000021415E4C4204E0FFF7E6FDFFF7F4FD5A
:1014A000641E002CF8D12648007803280AD12D4864
:1014B0000088401E2B49088008460088002801D17A
:1014C000FFF757FE00BFF9E61E480068374908607D
:1014D000704710B51E4801683548006802F07CF876
:1014E0001F49086001201B49087010BD10B5154840
:1014F000006830490860084601682C48006801F01F
:101500006BFF04460121890700F046FE2849086068
:1015100010480078002808D10120104908700E48B2
:101520000078002801D0FFF7D4FF10BDC206D20E0C
:1015300001219140420992001F4BD218116070475F
:10154000CA030020A4030020AC030020A80300204D
:10155000B8030020C3030020C1030020C203002001
:10156000C4030020C8030020881300009803002053
:10157000E0030020040A0020E8030020E403002028
:10158000C0030020D00300200000C842EC0300206C
:101590009C030020CC03002010270000D40300206F
:1015A000D8030020DC0300200000A041B00300208D
:1015B000BC030020B403002000E100E010B5FFF7F9
:1015C00045F910BDB0B504462004070E2002C0192D
:1015D00087B22046FFF771F93004050E300240193A
:1015E00085B22846B0BD70B5002500240A2401202C
:1015F0000003044300BF224C0924240300BF0CE075
:1016000000BF00BF1F480068C007C00F0028F8D106
:101610001B4C2046FFF7D6FF6D1C1B488542EFDBB5
:1016200070BD70B500240124E4032046FFF7CAFF13
:10163000054600BF2046FFF7C5FF0546284670BD9A
:1016400070B504460025012C02D109252D0306E0C2
:10165000022C02D11325ED0201E0002070BD2846C6
:10166000FFF7B0FF06462846FFF7ACFF06463046B8
:10167000F4E710B5FFF7A2FFFFF7B5FF10BD0000BC
:10168000CA170000000003401027000010B5042016
:101690004E494969072212049143020407231B049F
:1016A0001A401143494A516100BF4949AF208000A7
:1016B0001022464B9B681343444CA36000BF00BFFD
:1016C000444BDA600023434CE36000BF424A526857
:1016D000120C12040243404B5A601A46116000BFBC
:1016E00000BF104600680121490788434018114691
:1016F0000860072000F058F800BF072000F054F8F9
:1017000000BF3548006801218907884340183249E5
:10171000086000BF10BD10B530480088402802DBCB
:1017200000202E4908802D48008800280ED1012174
:1017300049022B4800F046F801218902284800F0B0
:1017400041F80121C902264800F03CF823480088EE
:1017500024490978884204DB01214902204800F02D
:101760002DF81E48008820490978884204DB0121B1
:1017700089021B4800F022F8184800881B490978A4
:10178000884204DB0121C902154800F017F813480C
:101790000088401C1149088010BD124B1870124B74
:1017A0001970124B1A707047C206D20E0121914077
:1017B000420992000E4BD2181160704782680A43AA
:1017C0008260704782688A438260704700020050DE
:1017D000140000680000005040000140F0030020A9
:1017E00000400050F2030020F3030020F403002027
:1017F00000E100E0002203098B422CD3030A8B4254
:1018000011D300239C464EE003460B433CD40022F8
:1018100043088B4231D303098B421CD3030A8B420A
:1018200001D394463FE0C3098B4201D3CB01C01AD8
:10183000524183098B4201D38B01C01A52414309A3
:101840008B4201D34B01C01A524103098B4201D391
:101850000B01C01A5241C3088B4201D3CB00C01AFE
:10186000524183088B4201D38B00C01A5241430876
:101870008B4201D34B00C01A5241411A00D201469B
:101880005241104670475DE0CA0F00D04942031034
:1018900000D34042534000229C4603098B422DD383
:1018A000030A8B4212D3FC22890112BA030A8B422B
:1018B0000CD3890192118B4208D3890192118B427A
:1018C00004D389013AD0921100E08909C3098B42FF
:1018D00001D3CB01C01A524183098B4201D38B0142
:1018E000C01A524143098B4201D34B01C01A5241E5
:1018F00003098B4201D30B01C01A5241C3088B422A
:1019000001D3CB00C01A524183088B4201D38B0014
:10191000C01A5241D9D243088B4201D34B00C01A9E
:101920005241411A00D20146634652415B101046B3
:1019300001D34042002B00D54942704763465B10FB
:1019400000D3404201B50020C046C04602BD7047EA
:10195000704770470246C80FC00781434B0030B53F
:101960004B405B009B0D20D01923DB06C9180123D7
:101970001B05994220DB0324A40704251346AB4032
:101980000BD3002B04D1EB0613409B00E34204D49D
:1019900001246407002312195941FF231B059942B2
:1019A0000BD2C9000143500F09E0CB0204D501431B
:1019B0000803024305D0054830BDFF21C90508438F
:1019C00030BD084607210905884330BD0000C07FAF
:1019D000F0B51FB4F84F0E091D09BC463E403D400E
:1019E0000C46B7435C408CB0002F7DD06746AF43B8
:1019F000FBD0002D79D0002EFCD0E20F3243521BD9
:101A0000FF24A40412190892420DCD02C7020E98B9
:101A10001543420DD9021143C2026003054301433D
:101A2000080C0195150CAC4605040B46AB430A9512
:101A300065462D04AA430995E04D040A7D446419C6
:101A4000803C257806466E4301247619E405A61BE2
:101A50007543ED0C490BAD1C69434919A401611A8A
:101A60000E0CB6463604B143694376466E43090C04
:101A7000711889090591F90700D0A1000491019915
:101A80007F08CC0727434C08059DE10B4D432D0CE7
:101A900029466646754302950D4645432E46029DEE
:101AA0007D1BB44100950D465D4301942C0C2F0421
:101AB0000D465543AE462D0C3D43029503947546A5
:101AC000049C2D04641B049406D2029C039D641C98
:101AD000002675410395029401AC70CC009F7D1BDC
:101AE000B4410904009501E03AE15EE107910194F7
:101AF0000599A4086143090C0C464443650BE704AF
:101B000064464C43A646640B3C43039502947446DA
:101B1000049DE4042C1B049406D2029C039D641CC7
:101B2000002675410395029401AC70CC009F7D1B8B
:101B3000B44101940C465C430095650FE7000C46E8
:101B40005443A646640F3C43039502947446049D97
:101B5000E4002C1B049406D2029C039D641C002606
:101B600075410395029401AC70CC009F7D1BB4417C
:101B7000AE09AF06049DC900AD092F43049DA4061C
:101B8000AD060495079D344369180791059DE10B47
:101B90004D432D0C29466646754302950D46454337
:101BA0002E46029D7D1BB44100950D465D43019478
:101BB0002C0C2F040D465543AE462D0C3D4302958B
:101BC00003947546049C2D04641B049406D2029C65
:101BD000039D641C002675410395029401AC70CCF2
:101BE000009F7D1BB44101948C050694079C890AD3
:101BF000611800950791019C0599A4086143090C9F
:101C00000D464543680BEF040D46644665436C0B77
:101C10003C43049FED047D1BAC4602D20025641CAE
:101C20006841009E019D371B854108465843019538
:101C30000C46460FC5005443600F28436546E40038
:101C40002C1B02D20025401C6E41019D3F1AB5415C
:101C50002846BD09800628438446A009BF064E02D7
:101C60000699A40676180743079D002068410A9943
:101C7000079019430020099B00906046FF19134309
:101C80004041E20F64003A43A4460446D71A8C410F
:101C9000A04203D90120009020463A46C70F94186D
:101CA00040416246D20F2243644664000494009C83
:101CB000BE466400D71AA446044602978C41774674
:101CC000002F01D1A04204D96046401C8446029AEC
:101CD0002046C40FA64694184041049A0546D20FE8
:101CE000224364466400D31A8D417146002901D114
:101CF000A84202D928461A46641C10430122002833
:101D000000D0164361020020079B044689195C41FC
:101D10000223002C02DB491813466441089DCE0AB9
:101D20002D145D194B056705E10A2C050D1908995D
:101D30003E43C9076940002B08D0934006D30022D8
:101D4000761C5141002B01D1760876001C4A002DEB
:101D500043DB154241D0AA433FD0304611B0F0BD1D
:101D60000E4607184E41174D7A42B5411AD30E9AC6
:101D70001D4696185D41134A7642AA4112D30122AC
:101D800052054D00D5420AD15C00D4420AD04B40E6
:101D900002D592021143E1E749004908DEE7E10F6D
:101DA000C90718E000200849D8E7054801420DD1CD
:101DB0000342F7D0F3E700000000FF07681C0000B3
:101DC0000000F07F0000E0FF0000F87F114821468E
:101DD0000143C01241400020C0E70123089A9B063E
:101DE0009A4205DC032252078918C90FC907B5E7D3
:101DF000052252078918074A1143D2125140ADE714
:101E00005940504010B54B40424059405040FFF7B8
:101E1000DFFD10BDFFFFFF7F30B50346CA02400D56
:101E20001043164D164C0A1502D02043002A06DB3B
:101E3000AA1A002A12DDD040FF2A0BDC30BD520561
:101E4000520D01D140004008AA1A07D4D0404042A8
:101E5000FF2A01DD002030BD0028FCDD4A00002BF8
:101E600001D0012000E00020101801225205D042CC
:101E7000F0D8C817C043604030BD00001E04000009
:101E8000000000801F22030C02D10F22000402D0A8
:101E9000030E03D004E00020014670470002083A18
:101EA000030F01D10001121F830F01D18000921E88
:101EB000002801DB4000521E120551184205C012D5
:101EC000411810467047C10FC90700D04042012297
:101ED00092071143D6E701218907D3E7F0B5934C68
:101EE0000D092646AC46AE430D465D4087B0002E38
:101EF0007ED01E092746B743FAD067462740ED0F2C
:101F00003D43264075D024012142FBD07419FF25A2
:101F1000AD04641B0494CC02D90201231B05C90A39
:101F20001943E40A1C430F01110F2401030F1C4342
:101F3000050116010F43A20B2D0990038443A90B41
:101F400088038543BB0B980387433609BC46B00B17
:101F50008703BE430F46474303972F4677430296B6
:101F6000BE46029F4E19C71906967E430597039FEA
:101F7000F71B7646BE1B77463F0100970196039FED
:101F8000B60BF619B646019E009FB604BF1902D3E0
:101F90007646761CB64676467600002F01D001279D
:101FA0003E4367467D43AE46029F25467D430095EE
:101FB0006D00AE1975466D00AF1965465D19069E38
:101FC00003956E437546751BAE461519059E029521
:101FD0006E43009D5943761B75466D1A50438646E5
:101FE000301A05900195F80606D07D09012001E020
:101FF0007DE079E0054300E07D090E0A0906002036
:102000004D19464100967646310A3706009E7F19E3
:1020100071418E4601998D0D8E027146F6194D4122
:10202000AE46059DA90DAF027546BE1969415A43DA
:1020300063465C43039D029B6B439B1A1D1BAB0EC7
:10204000AD016D184341110B120552195941230A74
:102050002406A5195341934200D2491C0122520281
:10206000914203D315220226F64302E014220326EE
:10207000F6432024A41AA1401F46A740BC461F4691
:10208000D7400F432946D14062461143049A1214A7
:10209000B2181305049EFB18F6077340A54009D03B
:1020A0000124A54006D30024491C6341002D01D121
:1020B000490849001E4CA24203D20846194607B0FF
:1020C000F0BD012204999206914207DB05214907E0
:1020D000184A59181143D2125140F0E70321490719
:1020E0005918C90FC907EAE70020E907E7E706180A
:1020F0000C464C4110487642A04114D394181A461D
:102100005A410D48644290410DD3012049004005D9
:10211000814208D35900814205D3E90F074AC90714
:1021200000201143CBE700200549C8E70000FF0766
:10213000FE070000FFFFFF7F0000E0FF0000F07FD0
:102140000000F87F0121C9050123411842001B0648
:10215000D3185B0E0AD0C1100722D2068918400797
:102160005242D14201D5520089187047090208D560
:102170000146002A03D0C10FC9070020704710464E
:102180007047420202D0002002497047072109052A
:102190000143F4E70000F87F70B5FF242404C6096A
:1021A000FF25264001352E43C209CB0905462240B2
:1021B00023404D40002A6BD0002B69D0A24267D04B
:1021C000A34265D0002D00DA32460124E405214304
:1021D000204309020002090AD21A000A4B0C7F248C
:1021E000E31A434C7C44E35C7D2424041219141448
:1021F0005B00A218884201D3521C00E04000494213
:102200000C465C4324115C43DB016415E318040AAB
:102210005C43C502200D0C4644436419250A5D4306
:102220002303EC0C0D46654300030019EB184C42E8
:10223000A34201D35B18401CD4052018002B07D003
:102240005B00C91804D3401C002901D1400840009C
:102250003F2189048A4209D3002A08DC1106090FAC
:1022600004D0032149074018C00FC00770BD0122E8
:102270004100120689187F2252069142F6D20521AA
:102280004907C84201D5901070BDFF20C00570BD40
:10229000002D00DA3246174EA24207D2A34205D2E1
:1022A0001802000E17D0E80FC00770BDFF244300CE
:1022B0002406A34216D84900A14213D8A34201D153
:1022C000A1420FD0A14201D1002101E04100490803
:1022D000D005084370BD1002000E03D0FF2002435A
:1022E000D00570BD304670BD48404140484053E77E
:1022F000401500000000C07F10B502469E24000279
:10230000D115A307002902D01843002904DB611A64
:1023100000290CDDC84010BD0906090E01D140009E
:102320004008611A03D4C84040420028F3DDFF2171
:1023300050000906884201D9002010BDD017C043C3
:10234000584010BD01460002CA1504D00123DB0726
:102350001843002A09DB9E239A1A01D4D040704703
:10236000FF2248001206904201D900207047C8178A
:10237000C04370471F22030C02D10F2200041CD05F
:10238000030E01D10002083A030F01D10001121F10
:10239000830F01D18000921E002801DB4000521EF5
:1023A000D2055118021251181922904004D3491C29
:1023B000002801D14908490008467047C10FC907E4
:1023C00000D04042012292071143D3E7012189073F
:1023D000D0E710B500F068F8006810BD10B50446ED
:1023E00000F062F8046010BD70B506464800440D68
:1023F000114B0020002C0AD0634008D09A4206DA24
:102400006542AA4203DD12058019514170BDCD0F0E
:10241000ED07002C05D0002B05D0002A01DB074971
:102420000D43294670BD30460A03104302D00020F8
:10243000034970BD304670BDFF0700000000F07F0B
:102440000000F87F10B5FF231B0644009C421DD8F6
:102450004C009C421AD80346124A0B4307D4401A38
:1024600002D3EFF3008010BDEFF3008010BD081A17
:1024700006D2EFF3008001219043C907084302E030
:10248000EFF30080904380F3008810BD0D231B0400
:102490001A4204D01146002000F00AF810BD00F0E6
:1024A000C7F910BD000000900048704704120020DA
:1024B000CA0211D54A03520F002A04D0C803C043F0
:1024C000012188407047054AEFF3008108010009A7
:1024D000104380F3008870470020704700000030F0
:1024E000F0B50C46871A9C410D46861A9D4103D2D1
:1024F000C01BA141D21963410D0D1F0DC74EEC1B2E
:10250000AE435CD07F057F0D0026002F51D02D05F6
:10251000AC46A943DD020123ED0A1B051D43202320
:102520001B1B24D41746E740381871412F46E7405B
:10253000CC199D402818314661410C0D27D16144CA
:102540009A4013D50023401C594152000ED1400837
:10255000400001224B005205D34207D3052040071B
:10256000C14201D5AE4900E0AE493046F0BD6B0036
:10257000002A00D001229A181F23203C1B1B01D5E2
:10258000002302E0E540281871410C0DD7D001244A
:1025900024050919C407CD0740084908E40F28435A
:1025A0006144002CD5D00024401C61419A40D0D118
:1025B000CDE76A05520DD9D1C90FC907D5E79A4DA4
:1025C0004E00002801D0012400E0002434195F00EF
:1025D000002A01D0012600E00026BE19934FAC422C
:1025E0000CD8AE420AD8B44206D001256D05EC42A3
:1025F000BCD010461946F0BD9942FCD000203946A7
:10260000F0BDF0B51FB40C460F46811A9F41254618
:10261000861A9D4106D20125ED076F40401ABC4144
:1026200052187B41210D1E0D8D1BAC467B4D8D43F9
:102630007ED075056D0D7CD00D05AE46AC431B03F9
:102640001B0B774D52429D41202366469B1B14D3A2
:102650001746F740381800260090744160462F4610
:102660000741E41900989D402818664116D4714628
:1026700071189A4025D5012320E093182A466A4113
:102680005200002B00D0521C1E23203E9B1B002B0F
:1026900061DD3541EE1728186641E8D5001876410E
:1026A0005B1C9A4000D3401C4B05F3181524E340F3
:1026B00010D3002B52D071467118D30FC01802D31B
:1026C000491C05B0F0BD0123DB079A42F9D140084F
:1026D0004000F6E701225205B21801D1002853D07C
:1026E0000123CC0ADB029943891E002A08D1020C7F
:1026F00003D0020C0004103902E002460020203909
:102700000023550B05D112020823550B01D15201AC
:102710000D23550C01D112011B1DD50C01D19200C6
:102720009B1C150D01D152005B1C2025EE1A01E007
:102730002CE022E00546F54015439840CA1AE1070F
:1027400069181305C918002ABBDA032040070818C6
:10275000C10FC9070FE071466118B2E7F1074008E1
:102760000843711071444A000CD001235B059A4262
:10277000A7D2C90FC9070020A3E74905490D26D1F3
:10278000002001E00028F4D100219AE7264D6600E0
:10279000002801D0012100E0002171185F00002A0B
:1027A00001D0012600E00026BE19204FA94210D812
:1027B000AE420ED8B14208D001256D05E94206D0DF
:1027C0001946A802414010467BE79C4201D02146B1
:1027D00077E70020394674E730B40C465C4004D5F6
:1027E0000124E407634030BC0BE730BC78E630B42A
:1027F0000C465C4004D50124E407634030BC6FE61E
:1028000030BCFEE630B40124E40761400D465D4073
:1028100001D430BC64E6634030BCF2E6FF07000040
:102820000000F0FF0000F07F0000E0FF0000F87FF4
:1028300010B5024800F02DF810BD00000000C07F68
:1028400000487047041200207546FFF7F9FFAE46B6
:10285000050069465346C008C000854618B020B53B
:1028600000F072F860BC00274908B6460026C0C5D3
:10287000C0C5C0C5C0C5C0C5C0C5C0C5C0C5403D38
:1028800049008D4670470446C046C0462046FDF7C5
:1028900006FD10B50C461107090F092904D00A29B5
:1028A0000AD008290CD104E011460820FFF700FEE9
:1028B00006E0510606D501E0510601D50120C0070A
:1028C000214610BDD10607D501010909CC084907E9
:1028D000000E0006044309E0410F20024907000AE8
:1028E0000143200E00061D22D14101430846E7E7BF
:1028F00001491820ABBEFEE7260002007047000029
:1029000005B50E48002200F001F805BDABBE01E0A0
:1029100000207047002A00D0106001207047069800
:102920000188074A914207D1023006900798012199
:102930008907884307907047FEE700000001000008
:10294000ABBE00000348004703480449044A054B56
:1029500070470000050200006812002058030020A4
:102960006813002058000020F8B538480090384817
:10297000C16B01221143C1630025354CE06B354921
:102980000840E905C90B0843E0630026206BC00737
:10299000C00F02D000F062F8761C082EF6D3002794
:1029A0003E462B48006BC007C00FFAD000F056F827
:1029B000002000F05DF80446012000F059F82418CA
:1029C000022000F055F82418032000F051F82418D4
:1029D000042000F04DF82418052000F049F82418D0
:1029E000062000F045F82418072000F041F82018D0
:1029F000C010761C3F18B6B2082ED2D3F81000B221
:102A000015490028088014DC13480022825E0099D2
:102A10005242914214DA2902FF390139CA030C49A2
:102A2000D20BCB6B0B4C23401A43CA630099018035
:102A300006E06D1CADB20090E81FFF38FA389CD15B
:102A40000348C16B49084900C163F8BDFF07000096
:102A500000000E40FF00FEFFF60300200348016B5C
:102A6000C908C900491C01637047000000000E40FE
:102A700002498000085800B27047000000000E4074
:102A8000054901208A68000702438A600349C8603B
:102A90000020C86070470000000200500000005095
:102AA00002498A6882438A60704700000002005031
:102AB00002498A6802438A607047000000020050A1
:102AC00010B5034840694003400F00F047F810BDBF
:102AD0000002005010B50C4A10694007400F10D09A
:102AE000022809D0042809D0084891690907090F6C
:102AF000491CFEF77FFE10BD0548F6E700F00AF816
:102B0000F3E77D200002F0E700020050006CDC02D9
:102B1000808D5B000448006A0449C006800F48436A
:102B2000034940187047000000020050808D5B0090
:102B300080C3C90110B5074840690007800F04D061
:102B4000022805D0FFF7C6FF10BDFFF7E3FF10BD59
:102B5000014810BD00020050006CDC02014610B5B7
:102B60000020012906D0032903D0042905D0FFF74E
:102B7000B1FF10BD7D20000210BD014810BD000056
:102B8000006CDC0270B5134B984201D1831402E053
:102B9000520801235B03104CA5681D43A5600F4C30
:102BA000E3600023E36001231B04194301604260DA
:102BB00004460B48844205D1FFF78CFF6168491C2D
:102BC000490003E0FFF786FF6168491CFEF712FE2B
:102BD00070BD0000000003400002005000000050E3
:102BE000004003400249C8600020C86070470000F0
:102BF000000000500348592101601621016088211E
:102C0000016070470001005010B51020FFF7EAFF87
:102C10001020FFF745FF10BD70B505460C4610208B
:102C2000FFF746FF1020FFF7DDFF044A5068000C55
:102C3000000420435060156070BD0000400001405A
:102C400070B506460025FFF73BFF7D21C900FEF762
:102C5000D1FD81B20920C006FFF7DEFF0548C1683B
:102C60008CB2AC4201D2761E01D02546F7E7FFF7C1
:102C7000CBFF70BD40000140F0B4040C8BB226467F
:102C800082B25E430D0C1046370C5843360480194F
:102C90000021794116466E43370C3604801979417C
:102CA00026466E438919F0BC704730B47446641EE2
:102CB0002578641CAB4204D3635D5B00E31830BC31
:102CC00018471D46F8E700004900CA0202431000F9
:102CD00000D004204A0D01D001221043044A490DBE
:102CE000914201D102210843012800D105207047FB
:102CF000FF070000F7B596B0189B00219960D960D6
:102D0000179908914C00CF4964088C4206DC189A48
:102D1000179951601060002019B0F0BDCA49002712
:102D2000CA4DFF438C423BDAD32608997605002929
:102D3000C74A17992B4619DDFFF759FDAC4207D05A
:102D4000C44AC54BFFF753FD189A516010600AE062
:102D50003246C14BFFF74BFDC04AC14BFFF747FD61
:102D6000189A51601060012019B0F0BDFFF734FDD2
:102D7000AC4207D0B74AB84BFFF72EFD189A516006
:102D800010600AE03246B44BFFF726FDB34AB44B5D
:102D9000FFF722FD189A51601060384619B0F0BD57
:102DA000B0498C4217997CDC490049080746AE4A75
:102DB000AE4B0391FFF792F80022AD4BFFF70CFDED
:102DC000FFF72AF80990FFF77EF80646A04A2B463F
:102DD0000791FFF783F83A46039BFFF713FD05467B
:102DE0000F469C4A9C4B30460799FFF777F8220D17
:102DF00001240B922A463B46FFF704FD189A032C48
:102E00005160106039D0189840684000410D0B980F
:102E1000401A61016118113981422EDA9549200169
:102E2000794402950C90081803974368026830466D
:102E30000799FFF753F801910090039B029AFFF75F
:102E4000E1FC05460F46039B029AFFF7DBFC019B62
:102E5000009AFFF7CCFC01918749009079440C98C7
:102E60004018C368826830460799FFF737F8019B1E
:102E7000009AFFF7BCFC641CBCE7089800280DDA38
:102E80001899012208684968D2075140189A516080
:102E90001060099819B04042F0BD02E0099819B0DD
:102EA000F0BD09030122090B12050D90891817982E
:102EB000109140007149400D40184111C006C00EEC
:102EC00020221290101A139000200690079088007C
:102ED0006B4979444518062007AC143515902F68C6
:102EE0001298696887401398C1400F43384610997B
:102EF000FFF7C2FE0646119138460D99FFF7BCFE5A
:102F000023688A191B189C46834201D2012600E0DF
:102F1000002620468038C36F9719DB198A4201D2F8
:102F2000012700E0002711997918002E02D0934262
:102F300002D903E0934201D2012200E00022891865
:102F400062462260C36781671598241F401E2D1FAB
:102F500015900028C3D10121029849074018800F1D
:102F60001190029805998000039D049C0B91FEF737
:102F7000AAFF06460F462846FEF7ADFF1D22D243A4
:102F8000FFF732FA0A900E912046FEF7A4FF3D2289
:102F9000D243FFF729FA129009910B98FEF79BFF95
:102FA0005D22D243FFF720FA0D910890099B129AF7
:102FB000FFF712FC0E9B0A9AFFF70EFC32463B46C7
:102FC000FFF70AFC00240D4632463B462046FFF739
:102FD0000EFC0E9B0A9AFFF70AFC099B129AFFF758
:102FE00006FC0D9B089AFFF70DFC264A264BFEF7C0
:102FF00075FF06460F46254A254B29462046FEF713
:103000006DFF32463B46FFF7E7FB06460F461522AB
:1030100092061D4B29462046FEF760FF3B4632468E
:10302000FFF7DAFB179A002A05DA119A5242119239
:103030000122D2075140189A51601060119819B0BE
:10304000F0BD0000FB21E93F7CD90240FB21F93FA4
:10305000000040543163621A61B4D03D7370032E96
:103060008A19A33BFB21394183C8C96D305FE43F16
:103070000000E03F74090000380900000BFCFFFF6E
:10308000F2080000182D4454FB21F93D3326A61107
:10309000460B113CF0B51FB44E00F92076088005B0
:1030A00084B00F46864204DA0498FEF7B5FE002885
:1030B00038D0049A3B4610461946FEF70FFF0446E7
:1030C00002462C480D460B460621784400F05CF879
:1030D00022462B46FEF702FF019100903946079BDE
:1030E000069A0498FEF7FAFE074602912046294602
:1030F000019B009AFEF7F2FE3A46029BFFF777FB30
:10310000074600220091D24320462946FFF76CF97A
:10311000194A96420ADA3A46009BFFF768FB0022FA
:10312000164B23E00020154909B0F0BD144A964221
:1031300002DD0024134D03E001225205B51A0024DC
:1031400022462B46FFF753FB0646019122462B46AB
:1031500000200A49FFF74BFB0D4604463A4630462D
:10316000009B0199FFF743FB22462B46FFF74AFBE2
:1031700009B0F0BD9A0600003333D33F0000F03FA2
:103180000000E93F0000D23FF8B504464F1EC800DA
:103190000838211815461E46086849683A4606232D
:1031A0009A4310D02A463346FEF798FE3A46D2009C
:1031B000083AA3181A687F1E5B68FFF70DFB06220A
:1031C0003B469343EED1022F23D0042F11D0062F7C
:1031D0002FD12A463346FEF781FEE36AA26AFFF743
:1031E000FBFA2A463346FEF779FE636A226AFFF746
:1031F000F3FA2A463346FEF771FEE369A269FFF748
:10320000EBFA2A463346FEF769FE63692269FFF747
:10321000E3FA2A463346FEF761FEE368A268FFF749
:10322000DBFA2A463346FEF759FE63682268FFF749
:10323000D3FAF8BDF0B51FB4054648000C46F92195
:103240004008890586B088420BDA28462146FFF7F8
:103250003BFD042801D100F063F8284621460BB05D
:10326000F0BD2A46234610461946FEF737FE0646AD
:103270000F462A462346FEF731FE0090254801916D
:1032800032463B4605217844FFF77EFF02901098B6
:103290000391002829D0204A204B01990098FEF77D
:1032A0001DFE0490059168460FC8FEF717FE002228
:1032B00001910090D24309990898FFF795F8019B76
:1032C000009AFFF794FA32463B46FEF707FE099B49
:1032D000089AFFF78CFA059B049AFFF788FA2A46AA
:1032E0002346FFF78FFA0BB0F0BD0B463046394648
:1032F000029AFEF7F3FD084A084BFFF76DFA019BAF
:10330000009AFEF7EBFD2A462346FFF765FA0BB05D
:10331000F0BD0000D6050000495555555555C5BFAF
:10332000034A10B500201107FFF75EF810BD00003A
:1033300001FDFFFF00B54A00254B520887B09A42B5
:1033400003DC0022134600922EE0224B9A420CD15D
:1033500000280CD10120FFF741F800221346104647
:103360001146FEF735FB07B000BD9A4204DB01228F
:10337000FFF73AF807B000BD02AAFFF7BBFC8107D0
:10338000890F012000290CD0012911D0022915D064
:1033900002A80FC8FFF77EFE0122D207514007B0F6
:1033A00000BD009002A80FC8FFF744FF07B000BDA2
:1033B00002A80FC8FFF76EFE07B000BD009002A87C
:1033C0000FC8FFF737FF0122D207514007B000BDF9
:1033D000FB21E93F0000F07F70B501250400ED07F7
:1033E0004C4020D4441A01D2001B0919C60D4B00D1
:1033F000F2B2FF2A29D01B0E2CD000020C02D31AE5
:103400002C43DC402843051910D2280A02D3401C63
:103410006D0611D0761EF6058019FF2A00DA70BD00
:10342000C00DC00570BD694000F0DCF80120054307
:10343000C541521C761CE8E764089C40C901614004
:103440008900E7D10124A043E4E71B0E440200D029
:10345000034870BD002AFCD1C00FC00770BD00BF7B
:103460000000C07F01230200DB050A430DD4DA42CD
:1034700003D49A4207D488427047D84214D4D94220
:1034800012D48842704780427047DA4203D59A428C
:10349000F9D5814270475B004200DA4204D24A000B
:1034A000DA4201D28142704710B5024AFEF7CAFFE4
:1034B00010BD00BF0900160470B5420064414B0006
:1034C0005C41120E39D01B0E38D0FF2A3CD0FF2BA6
:1034D0003AD040024902400A490A060045184E43C4
:1034E000000A090AD2184843ED017F3A0104731A11
:1034F0004019190C4318990F04D001215B084907A2
:103500005B1A521CD80904D3401CF50301D19D0657
:1035100007D0FF2A08D2D50506D0E407204340197A
:1035200070BD0125A843F4E7002A01DCE00770BD67
:103530002402FF202043C00570BD1B0EFF2A03D0CC
:10354000FF2B01D0E00770BDFF2645003606B542CF
:1035500006D84D00B54203D8D218FF2A00D0E7E7BD
:10356000004870BD0000C07F01230A00DB05024354
:103570000DD4DA4203D49A4207D481427047D9422B
:1035800014D4D84212D48142704789427047DA423B
:1035900003D59A42F9D5884270475B004A00DA4267
:1035A00004D24200DA4201D288427047484041408A
:1035B00010B5024A4840FEF745FF10BD0900160449
:1035C00070B50125ED07684004004C4002D5694004
:1035D00000F008F8FFF706FF70B501250400ED07BD
:1035E0004C4022D4441A02D26C40001B0919C60D6B
:1035F0004B00F2B2FF2A4BD01B0E50D000020C023F
:10360000D31A2C43DC40A843051B05D5AD0019D3C4
:103610006D08761E521E37D0F605280A01D2801991
:1036200070BD70416D0603D070BD6940FFF7DAFED2
:103630009C4009026140490001D0401E70BD012438
:10364000A04370BD6D081DD001202B0C01D12D04AD
:1036500010302B0E01D12D0208302B0F01D12D017E
:10366000001DAB0F01D1AD00801CEB0F01D16D002F
:10367000401C6D00361A121A680AF5054019012A15
:1036800002DB70BD002070BDC036300AC00770BDBF
:103690001B0E440201D1FF2B00D1024870BD002A4D
:1036A000F0D070BD0000C07F80807F7E7D7C7B7A03
:1036B0007978777676757473727171706F6E6E6DDE
:1036C0006C6C6B6A6A696868676666656464636384
:1036D00062616160605F5F5E5E5D5D5C5C5B5B5A0A
:1036E0005A59595858575756565555555454535377
:1036F00052525251515050504F4F4F4E4E4D4D4DD2
:103700004C4C4C4B4B4B4A4A4A494949484848471C
:10371000474747464646454545444444444343435A
:103720004342424242414141818283848586878867
:10373000898B8C8D8E8F919293959697999A9C9D5B
:103740009FA0A2A3A5A7A8AAACAEB0B2B3B5B7B9C3
:10375000BCBEC0C2C5C7C9CCCED1D4D7D9DCDFE28C
:10376000E6E9ECF0F3F7FAFE4C5555555555A53FF3
:103770007751C1166CC156BF9015CB19A001FA3E06
:10378000AD529C804F7E92BEC4B1B4BD9EEE213E30
:10379000D43888BEE9FAA8BD00004054FB21F93FA7
:1037A0003163621A61B4D03D0000601A61B4D03D4B
:1037B0007370032E8A19A33B0000002E8A19A33BC5
:1037C000C14920259A837B390000000000000000D9
:1037D0006E83F9A22915444ED15727FCC0DD34F57C
:1037E000999562DB4190433CAB6351FE61C5BBDE02
:1037F0003A6E24B7E0D24D42EA2E49061C92D10916
:103800001CEB1DFE3EA729B1F53582E88444BB2E92
:1038100026709CE9417E5FB439D69139F4395383DF
:103820008B5F849C3B28F9BDFF97F81F0F9805DE3E
:103830008B112FEF1F6D0A5ACF7E366DB709CB273C
:10384000663F464F2DEA5F9EC7BA27757BF1E5EBD1
:10385000F739073DEA92528AB15FFB6B085D8D1F15
:10386000A6F810111111813FD561C119A0012ABF1D
:103870007DFEB157E31DC73EEB9C2B8AE6E55ABEA1
:103880007CD5CF5A3AD9E53DB83800000000002079
:1038900054000000480200000C39000058030020CA
:1038A000AC00000048020000B83900000404002009
:1038B000640F000064020000452900001F29000079
:1038C000F5000000F5000000F5000000F500000024
:1038D000F5000000F50000002F0A0000F5000000D0
:1038E000F5000000AD030000F5000000D10300006A
:1038F00053030000F5000000F5000000F500000093
:10390000F5000000F5000000F500000000000000D8
:1039100000000000000000000000000001000000A6
:103920000000000000000000000000000000000097
:103930000000000000000000000000000000000087
:103940000000000064000000000000000000000013
:10395000000000000000000000B07E4600000000F3
:103960000000000000000000000000000000000057
:1039700000000000000000000000000088130000AC
:10398000000000006F12833A0000000000000000F9
:103990000000000000000000000000000000000027
:1039A0000000000000000000000000000000000017
:0839B00000000000000000000F
:040000050000294589
:00000001FF
