:020000040000FA
:1000000058030020AD2B00007D000000830000009D
:1000100000000000000000000000000000000000E0
:100020000000000000000000000000008900000047
:1000300000000000000000008F000000950000009C
:100040009B000000A1000000A7000000AD00000020
:10005000B3000000B9000000BF000000C5000000B0
:10006000CB000000D1000000D7000000DD00000040
:10007000E3000000E9000000EF0000001E480068F7
:1000800000471E48006800471D48006800471D489B
:10009000006800471C48006800471C48006800478B
:1000A0001B48006800471B48006800471A48006862
:1000B00000471A4800680047194800680047194877
:1000C0000068004718480068004718480068004763
:1000D000174800680047174800680047164800683E
:1000E0000047164800680047154800680047154853
:1000F00000680047FEE70000140000200400002014
:10010000080000200C000020100000201800002033
:100110001C000020200000202400002028000020D7
:100120002C00002030000020340000203800002087
:100130003C00002040000020440000204800002037
:100140004C000020500000200000000000000000D3
:10015000000000000000000000000000000000009F
:10016000000000000000000000000000000000008F
:10017000000000000000000000000000000000007F
:10018000000000000000000000000000000000006F
:10019000000000000000000000000000000000005F
:1001A000000000000000000000000000000000004F
:1001B000000000000000000000000000000000003F
:1001C000000000000000000000000000000000002F
:1001D000000000000000000000000000000000001F
:1001E000000000000000000000000000000000000F
:1001F00000000000000000000000000000000000FF
:100200000502000000F002F800F048F80CA030C829
:10021000083824182D18A246671EAB4654465D4682
:10022000AC4201D100F03AF87E460F3E0FCCB64604
:100230000126334200D0FB1AA246AB46334318478F
:100240002039000050390000103A02D378C878C134
:10025000FAD8520701D330C830C101D504680C6008
:10026000704700000023002400250026103A01D327
:1002700078C1FBD8520700D330C100D50B6070475E
:1002800010B5782902D101F039FB10BD002010BD56
:100290001FB5C046C0461FBD10B510BD02F02AFCF8
:1002A0001146FFF7F5FF00F047F902F042FC03B4F6
:1002B000FFF7F2FF03BC02F071FC000010B500284C
:1002C00019DAF84A03071B0F083B9B089B00D2581A
:1002D0008307DC0EFF23A3409A438B071B0E840782
:1002E000E40EA3401A43EF4B0407240F083CA40874
:1002F000A4001A5118E0EC4A03231B02D218830809
:100300009B00D2588307DC0EFF23A3409A438B0740
:100310001B0E8407E40EA3401A43E34B032424027C
:100320001B198408A4001A5110BD10B5FF2101311A
:10033000DE4800F06EF90012002801D1012010BD46
:100340000020FCE710B58021D84800F062F9C01108
:10035000002801D1012010BD0020FCE7D44800781E
:10036000704710B50221D34800F057F9002805D096
:1003700000F0EAFA0221CF4800F053F90121090305
:10038000CC4800F04AF9002817D00120C84908706D
:100390000103C84800F045F901210903C54800F0F0
:1003A00038F9002809D00020C14908708020C249CE
:1003B00008704101BF4800F034F910BD00BFBF48CC
:1003C000806840084000401CBC49886000BF012094
:1003D000BB490870BB480068401CBA4908607047B8
:1003E00010B500BFB848806840084000401CB649BE
:1003F000886000BF01F0CFF910BD10B500210B20BF
:10040000FFF75CFF00210820FFF758FF01210220C1
:10041000FFF754FF03210520FFF750FF01210720BC
:10042000FFF74CFF10BD10B502F018FD00F005F904
:100430000F2000F0F8F800BFA44800684821884366
:10044000A249086000BF00F044FB00BF0120000586
:100450009E49896801439D4A916000BF00BF9C4945
:10046000C86000219A4AD16000BF00BF00BF10469B
:100470008069802188431146886100BF00BF002049
:10048000C86100BF00BF0021D01DF930016000BF6E
:1004900010BD10B51D208E49096B01438C4A1163B4
:1004A00000BF8C481146496B0143516300BF8A4924
:1004B0007E4800F0A8F8032000037E494968020442
:1004C00091437C4A516000BF8449104600F09BF87C
:1004D00001218903754800F098F82021754800F043
:1004E00094F8012000030121724A92698243714B02
:1004F0009A61002906D01A46D26903041A436D4B4B
:10050000DA6105E06B4AD26903049A43694BDA6108
:1005100000BF012000036749C9690143654AD161F1
:1005200000BF082001218140420992005E4BD21891
:10053000116000BF10BD7047002400BFFFF773FFBC
:10054000FFF7A7FF00BF00F053F900F0A6F901F094
:10055000D0F800F0F5FB00F065FD00F0B7FE01F00B
:10056000D5F800221146402001F057F93F2000063F
:1005700000F024FE7F20C00500F0FDFD584800F08B
:10058000FDFD00F058FE00BFFFF7CFFE00282CD085
:10059000FFF7D8FE002828D000F0F0F8484800788F
:1005A0000028F1D000F0B0F8A0420ED000F0ACF876
:1005B000044600F0A9F8074601F0B8FF064649498D
:1005C00001F09AFE054600F0F9FD00203C49087054
:1005D00000F09DF8054600F0CEFD00F0B4F80546A9
:1005E00000F0CCFD00F0A5FECEE700221146402031
:1005F00001F013F9002000F0BEFD002000F0BEFD68
:1006000000F097FEC0E70160704782680A4382608D
:10061000704702461069084070470246106A084059
:100620007047016270472949896909090901020770
:10063000120F1143254A9161704710B500BF012088
:100640002349896808229143C20008231A401143B4
:100650001F4A916000BF002011468968042291431F
:10066000820004231A401143194A916000BF00BF61
:10067000FFF7D9FF07201549096981430143134A50
:10068000116100BF03201146096A0143116200BFD6
:100690000220114609684022914381430B4A1160B0
:1006A00000BF10BD1CED00E000E100E00040005084
:1006B0007E030020404000508403002000000140E1
:1006C0007F0300207803002040000140000200501A
:1006D000000000501E070000000054100004150028
:1006E000666682410000C84210B5FFF71EFE840115
:1006F000FFF728FE40010443E0B210BDC94800687E
:100700007047C94800787047C8480078704700B5FE
:10071000C5480078801E030002F017FC0C0B0D1377
:100720000F111313131309130713002000BDC04842
:10073000FCE7C048FAE7C048F8E7C048F6E7C04819
:10074000F4E70020F2E700B5B7480078801E030008
:1007500002F0FBFB0C0B0D120F10121212120912F9
:100760000712002000BDB748FCE7B748FAE7B748D2
:10077000F8E700BFB648F5E70020F3E710B5AA4850
:100780000078801E030002F0E0FB0C13192B1F25DC
:100790002B2B2B2B0D2B072B40221146104601F043
:1007A0003CF823E040220021084601F036F81DE025
:1007B00000224021104601F030F817E000224021CD
:1007C000202001F02AF811E000222021402001F031
:1007D00024F80BE006221146402001F01EF805E047
:1007E00000221146402001F018F800BF00BF10BDE4
:1007F00070B502F0A3FA0546964901F0ABF800285F
:1008000007D002F09BFA0546924901F0A3F8401E7A
:1008100000E0002084B2224684218F4802F0E6FAEC
:1008200001208D4909680522120491438204114375
:10083000894A116000BF00BF1146896810229143A8
:10084000020110231A401143834A916000BF002126
:10085000104600F0E4F8804800F0D9F802200121A9
:100860007E4A926982437D4B9A61002904D01A46E0
:10087000D2690243DA6104E0784AD2698243774B55
:10088000DA6100BF70BD10B504462146724800F021
:10089000C6F8714800F0BBF810BD70B502F04EFA12
:1008A00005466F4901F056F8002807D002F046FAD5
:1008B00005466B4901F04EF8401E00E0002084B26E
:1008C00022468221674802F091FA01200021C200ED
:1008D0008B00D218634B9A6000BF022019468968CA
:1008E0008908890001431A46916000BF0121102048
:1008F00012685D4B1A404B1E1B021A43C3001A4379
:10090000584B1A6000BF70BD10B5044621465548CB
:1009100000F085F8534800F07AF810BD70B5044631
:100920000D4621464F4800F07AF84E4800F06FF827
:1009300000BF00BF4B480068C007C00F0028F8D1B7
:1009400000BF4848006970BD30B589B0002400215F
:100950006846818081823DE000BF00BF3E4800685C
:10096000C007C00F002805D002213C4800F04BF81A
:100970000028F2D00221394800F045F8002829D19A
:1009800000BF35480069610001AA505200BF3548D8
:100990000069610005AA5052600001AA115A33A0F3
:1009A00000F068FF600001A9085C1F490870600042
:1009B00001A9085A00121D490870610005AA515A80
:1009C0002F4A127811430846FFF75DFF082C01DA21
:1009D000601CC4B20221214800F015F80028BBD0E9
:1009E000FFF782FE611E490005AA515A244A127877
:1009F000114308430546FFF746FF002020490870D1
:100A000009B030BD70470246106908407047016860
:100A100001221204914301221143016070470162D7
:100A20007047000088030020850300208603002013
:100A3000AE47813F0AD7E33FC3F50840666666408C
:100A400000009040142E8842EC512E420000DA4102
:100A5000D7A3824100127A0000400340404000507A
:100A6000A08601000000034007FCFEFF7370696D63
:100A70006573736167652069732025780A0000003B
:100A80008403002010B59A4A126C30239A43030164
:100A9000302423401A43964B1A641A46126C92086B
:100AA00092008B079B0F1A43914B1A6410BD10B52F
:100AB00000BF8F48006BC007C00F002808D000207F
:100AC00081008B4A515809B28A48016000F0F5F85C
:100AD00010BD70B5002400250220874949690C2209
:100AE000914382000C231A401143834A516100BF95
:100AF0002B2011468969814A114002047F4BDB4358
:100B00001A4011437C4A916100BF02F017F9044674
:100B100000BF02F043F90646774880690001000DE6
:100B2000411C304600F016FF054670BD70B5044606
:100B300000250AE000BF6E48006BC007C00F002808
:100B400003D000F0BAF8681C85B2A542F2DB70BD94
:100B500010B500F0BBF805200002FFF7E7FF00BF6B
:100B600000F0ABF86248006A02218843801C6049AB
:100B7000086202200121814042099200604BD21894
:100B8000116000BF00BF10BDFEB502F0ADF800BFA0
:100B90005748006A40084000401C5549086200BFA1
:100BA00000BF0846C06B0321890508435049C8634C
:100BB00000BF00210846FFF765FF642002F074F9CA
:100BC00003210846FFF75EFF00F089F8002110229C
:100BD0000B460120464CE46B84430443444DEC63D4
:100BE0002C46E46B0625AC435D00062635402C43BD
:100BF0003F4DEC632C46E46B424D2C401502414EB8
:100C0000F64335402C433A4DEC632C46E46B1F25EC
:100C10002D06AC430D061F26360635402C43344DB9
:100C2000EC6300BF03202946096A0C22914382002D
:100C30000C231A4011432A46116200BF01201146BD
:100C4000096A02039143020303031A4011432A462F
:100C5000116200BF00200F210A460B460C460D46CC
:100C6000009101910E0136181702F719009E360304
:100C7000BE191F04F6192705F6192F06F719019E4C
:100C80003607BE191A4F7E6200BF00F01FF801F050
:100C90009FFF00BF1C48008840001C490988081AB3
:100CA00000B21A4908800020085E1949C86000BFD8
:100CB00000F015F8FFF74CFFFEBD0D48006B062154
:100CC0008843012108430A49086370470848006ABD
:100CD0000121C90288434018054908627047044849
:100CE000006A0121C9028843014908627047000077
:100CF00000000E408C03002000020050FFFF00F0B7
:100D000000E100E0FF00FEFFF6030020FA030020F0
:100D10000080005070478022121A91B24D4A9162B1
:100D200000BF70478022121A91B24A4AD16100BFB7
:100D300070478022121A91B2464A116100BF704773
:100D400070B50424002503204349496902079143F3
:100D5000020703071A4011433F4A516100BF00BF19
:100D60003C488068042188433A49886000BF00BF3E
:100D70000846C06F40084000401CC86700BF00BF65
:100D80000846C06F02218843801C3249C86700BFF3
:100D900000BF0846C06F04218843001D2D49C86765
:100DA00000BF00BF08468068102188432949886039
:100DB00000BF00BF0846806820218843254988601D
:100DC00000BF601EC1B27F232A46012000F00AF84E
:100DD0000020FFF7AEFF0020FFF7A4FF0020FFF781
:100DE0009AFF70BD70B500BF1A4CA4680825AC43CB
:100DF000C500082635402C43164DAC6000BF2C467C
:100E00002468240A2402CDB22C43124D2C602C46B7
:100E10006468E408E40055076D0F2C430D4D6C60C9
:100E20002C46E468240C24049DB22C43094DEC604C
:100E300000BF2C46646C64086400641C6C6400BFD2
:100E400000BF2C46A46864086400641CAC6000BF4A
:100E500070BD00000000044000020050F0B585B0F5
:100E600000242EE0204601F0E6F805460322520752
:100E7000FB4B01F0E3F80022FA4B0191009000F0E7
:100E800057FE0391029000F015FE0746384601F028
:100E900009FA054602F0A4FB0022F34B01910090F1
:100EA00001F0CCF80391029001F066F800B2610005
:100EB000EE4A505260001146085A6100EC4A505206
:100EC000641CFF2CCED905B0F0BDF0B587B0E94861
:100ED000069000246FE0204601F0ADF8054603229D
:100EE0005207DF4B01F0AAF80022DE4B039102907B
:100EF00000F01EFE0591049000F0DCFD0746002185
:100F0000384602F087FC18D83846069902F000FCF3
:100F100013D2384601F0C6F9054602F061FB002203
:100F2000D54B0391029001F089F80591049001F0EE
:100F300023F800B26100D14A50523846069902F0B7
:100F400069FC29D801208007069902F00BFC0546B0
:100F5000394602F05FFC1FD201208007069902F09B
:100F600001FC3946009002F081FC019001F09AF9F1
:100F7000054602F035FB0122D20751400022BE4B4C
:100F80000391029001F05AF80591049000F0F4FFEB
:100F900000B26100B94A505201208007069902F060
:100FA000E1FB0546394602F0B3FB03D8002061009F
:100FB000B24A5052641CFF2C8DD907B0F0BDF0B579
:100FC00085B0002428E0204601F035F805460322CC
:100FD0005207A34B01F032F80022A94B0191009077
:100FE00000F0A6FD0391029000F064FD074638462C
:100FF00001F058F9054602F0F3FA0022A14B0191E5
:10100000009001F01BF80391029000F0B5FF00B2D0
:1010100061009D4A5052641C012080028442D2D358
:1010200005B0F0BD10B5FFF719FFFFF74EFFFFF752
:10103000C6FF002095490870552095490870AA20E0
:10104000944908700020944949690722120291438B
:10105000020207231B021A4011438F4A516100BF4D
:101060008E493C2004228C4B9B6813438A4CA3601E
:1010700000BF00BF8A4BDA600023894CE36000BFE9
:10108000884A5268120C12040243864B5A601A4670
:10109000116000BF00BF1046006809078843401870
:1010A00011460860052000F081FA00BF052000F01D
:1010B0007DFA00BF7B4800680121890788434018FA
:1010C0007849086000BF10BD70480078401C6F4927
:1010D00008706F480078401C6D4908706D480078B2
:1010E000401C6C490870704768480078401E67498A
:1010F000087067480078401E6549087065480078A8
:10110000401E64490870704710B56049097849006D
:10111000574A515A403188B2FFF70BFE5C490978B3
:101120004900534A515A403188B2FFF7FBFD5949F3
:10113000097849004E4A515A403188B2FFF7EBFD19
:1011400010BD10B55149097849004C4A515A88B22E
:10115000FFF7EFFD4E4909784900484A515A88B2D5
:10116000FFF7E0FD4B4909784900444A515A88B2DB
:10117000FFF7D1FD10BD4C4908607047F1B50098EC
:1011800001F090F804460022484B00F0D1FC0646DE
:1011900000F090FC00904649009802F0E3FA054602
:1011A0000121890701F0A8F8044601F07BF94149C3
:1011B00008602320000240490860F8BDF8B50546E4
:1011C000002410E06100294A505E01F0A7F90746AB
:1011D000294602F0C7FA064601F03EF900B2610066
:1011E000234A5052641CFF2CECD9F8BD33490870D7
:1011F0007047002806D10021314A1180314A116020
:101200002E4A1170012805D100212D4A118001219B
:101210002A4A1170032805D12B49294A118003213C
:10122000264A1170022805D12749254A118002213A
:10123000224A1170704710B50120FFF7DAFF10BD88
:1012400010B50320FFF7D5FF10BD10B50020FFF744
:1012500070FD0020FFF766FD0020FFF75CFD10BD6C
:10126000FB21194000007040000050400C06002097
:101270000C040020920A0640000060400C08002088
:10128000000090400088C3400C0A00209203002018
:1012900093030020940300200002005032000068F5
:1012A0000000005000000140980300200000594059
:1012B0000000E0449C030020A0030020CA0300209B
:1012C000C8030020A40300208813000010B5FFF716
:1012D000BCFF0020FFF78DFF10BDB94800787047B4
:1012E00010B5B8480068B849086008460168B748B2
:1012F000006802F0C7F904460121890700F0FCFFED
:10130000B3490860B3480078002802D10120B249EF
:10131000087010BDAB480068AC49086070470020F9
:10132000AC490870AD490870AB490870AC49086019
:10133000704770B5A2480078002800D170BDA04861
:10134000007801280CD1A7480088401CA5490880D6
:1013500008460088A449884202DB0220FFF749FFC3
:1013600097480078022807D095480078012803D0D4
:101370009348007803287CD19C4801688920C005E7
:1013800002F0F0F906468F480168304602F0EAF9AB
:10139000054601F087F896490860084600888005F0
:1013A000800D08600846006840009249085A92493A
:1013B000088092480068FF210131884205D88C4896
:1013C0000068884201D9FFF7AAFF8C480068032112
:1013D0000902884205D886480068884201D9FFF78B
:1013E0009EFF834800688549086083490020085EA5
:1013F000002801DB014600E04142FF22F532914224
:1014000009DA7F48007800280ED101207C49087055
:10141000FFF780FF08E07A480078002804D0002019
:1014200077490870FFF75CFF7648016865480068F7
:1014300002F028F96349086073496948006800F0C0
:101440005BFF72490860084601686548006802F061
:1014500019FA63490860684A0021515E6C4A1268B3
:1014600051436C4A12886A4B1B685A4388186A4970
:1014700000E058E000F078FA684908600968594AC5
:10148000128851430846584900F06EFA63490860D3
:101490000846008862490988401A00B261490880FC
:1014A0005E4800685E4908605F495648006800F081
:1014B00023FF054655480168284602F029F913D252
:1014C00058480021415E002904DA0088401E00B21D
:1014D0005449088053480021415E002904DD0088FA
:1014E000401C00B24F4908804E480021415E00294F
:1014F00009DD0024045F04E0FFF7E6FDFFF704FECA
:10150000641E002CF8D147480021415E00290ADA08
:101510000021415E4C4204E0FFF7E6FDFFF7F4FDD9
:10152000641E002CF8D12648007803280AD12D48E3
:101530000088401E2B49088008460088002801D1F9
:10154000FFF757FE00BFF9E61E48006837490860FC
:10155000704710B51E4801683548006802F092F9DE
:101560001F49086001201B49087010BD10B51548BF
:10157000006830490860084601682C48006802F09D
:1015800081F804460121890700F0B6FE2849086069
:1015900010480078002808D10120104908700E4832
:1015A0000078002801D0FFF7D4FF10BDC206D20E8C
:1015B00001219140420992001F4BD21811607047DF
:1015C000CA030020A4030020AC030020A8030020CD
:1015D000B8030020C3030020C1030020C203002081
:1015E000C4030020C80300208813000098030020D3
:1015F000E00300200C0A0020E8030020E4030020A0
:10160000C0030020D00300200000C842EC030020EB
:101610009C030020CC03002010270000D4030020EE
:10162000D8030020DC0300200000A041B00300200C
:10163000BC030020B403002000E100E010B5FFF778
:101640002CF910BDB0B504462004070E2002C019C5
:1016500087B22046FFF758F93004050E30024019D2
:1016600085B22846B0BD70B5002500240A240120AB
:101670000003044300BF224C0924240300BF0CE0F4
:1016800000BF00BF1F480068C007C00F0028F8D186
:101690001B4C2046FFF7D6FF6D1C1B488542EFDB35
:1016A00070BD70B500240124E4032046FFF7CAFF93
:1016B000054600BF2046FFF7C5FF0546284670BD1A
:1016C00070B504460025012C02D109252D0306E042
:1016D000022C02D11325ED0201E0002070BD284646
:1016E000FFF7B0FF06462846FFF7ACFF0646304638
:1016F000F4E710B5FFF7A2FFFFF7B5FF10BD00003C
:10170000CA170000000003401027000010B5042095
:101710004E494969072212049143020407231B041E
:101720001A401143494A516100BF4949AF20800026
:101730001022464B9B681343444CA36000BF00BF7C
:10174000444BDA600023434CE36000BF424A5268D6
:10175000120C12040243404B5A601A46116000BF3B
:1017600000BF104600680121490788434018114610
:101770000860072000F058F800BF072000F054F878
:1017800000BF354800680121890788434018324965
:10179000086000BF10BD10B530480088402802DB4B
:1017A00000202E4908802D48008800280ED10121F4
:1017B00049022B4800F046F801218902284800F030
:1017C00041F80121C902264800F03CF8234800886E
:1017D00024490978884204DB01214902204800F0AD
:1017E0002DF81E48008820490978884204DB012131
:1017F00089021B4800F022F8184800881B49097824
:10180000884204DB0121C902154800F017F813488B
:101810000088401C1149088010BD124B1870124BF3
:101820001970124B1A707047C206D20E01219140F6
:10183000420992000E4BD2181160704782680A4329
:101840008260704782688A4382607047000200505D
:10185000140000680000005040000140F003002028
:1018600000400050F2030020F3030020F4030020A6
:1018700000E100E00FB4054910B503AA029800F09A
:10188000BBFE10BC08BC04B01847000008040020D0
:10189000F8B50E460446002020622046E1688847DD
:1018A000002829D0252802D06268A16820E0E168DC
:1018B00020460027884705001ED0284641381928B1
:1018C00002D80127FF0220353246204627602946EC
:1018D000FEF7D6FC002808D0012804D0F61DF60833
:1018E000F6000836D9E7361DD7E762682846A168B2
:1018F0009047206A401CCFE7206AF8BD70B50446C7
:101900000D4621461068C046C0462188090502D50B
:101910000F4A7A4402E00E4A7A440E3223460021EE
:10192000243305E006070009360F965D5E54491C16
:101930000028F7D120780023000705D5702D03D0AB
:10194000002901D002231132204600F0FDFD70BDB8
:101950003E200000002203098B422CD3030A8B4255
:1019600011D300239C464EE003460B433CD4002297
:1019700043088B4231D303098B421CD3030A8B42A9
:1019800001D394463FE0C3098B4201D3CB01C01A77
:10199000524183098B4201D38B01C01A5241430942
:1019A0008B4201D34B01C01A524103098B4201D330
:1019B0000B01C01A5241C3088B4201D3CB00C01A9D
:1019C000524183088B4201D38B00C01A5241430815
:1019D0008B4201D34B00C01A5241411A00D201463A
:1019E0005241104670475DE0CA0F00D049420310D3
:1019F00000D34042534000229C4603098B422DD322
:101A0000030A8B4212D3FC22890112BA030A8B42C9
:101A10000CD3890192118B4208D3890192118B4218
:101A200004D389013AD0921100E08909C3098B429D
:101A300001D3CB01C01A524183098B4201D38B01E0
:101A4000C01A524143098B4201D34B01C01A524183
:101A500003098B4201D30B01C01A5241C3088B42C8
:101A600001D3CB00C01A524183088B4201D38B00B3
:101A7000C01A5241D9D243088B4201D34B00C01A3D
:101A80005241411A00D20146634652415B10104652
:101A900001D34042002B00D54942704763465B109A
:101AA00000D3404201B50020C046C04602BD704789
:101AB000704770470246C80FC00781434B0030B5DE
:101AC0004B405B009B0D20D01923DB06C918012376
:101AD0001B05994220DB0324A40704251346AB40D1
:101AE0000BD3002B04D1EB0613409B00E34204D43C
:101AF00001246407002312195941FF231B05994251
:101B00000BD2C9000143500F09E0CB0204D50143B9
:101B10000803024305D0054830BDFF21C90508432D
:101B200030BD084607210905884330BD0000C07F4D
:101B3000F0B51FB4F84F0E091D09BC463E403D40AC
:101B40000C46B7435C408CB0002F7DD06746AF4356
:101B5000FBD0002D79D0002EFCD0E20F3243521B77
:101B6000FF24A40412190892420DCD02C7020E9858
:101B70001543420DD9021143C202600305430143DC
:101B8000080C0195150CAC4605040B46AB430A95B1
:101B900065462D04AA430995E04D040A7D44641965
:101BA000803C257806466E4301247619E405A61B81
:101BB0007543ED0C490BAD1C69434919A401611A29
:101BC0000E0CB6463604B143694376466E43090CA3
:101BD000711889090591F90700D0A10004910199B4
:101BE0007F08CC0727434C08059DE10B4D432D0C86
:101BF00029466646754302950D4645432E46029D8D
:101C00007D1BB44100950D465D4301942C0C2F04BF
:101C10000D465543AE462D0C3D4302950394754643
:101C2000049C2D04641B049406D2029C039D641C36
:101C3000002675410395029401AC70CC009F7D1B7A
:101C4000B4410904009501E03AE15EE10791019495
:101C50000599A4086143090C0C464443650BE7044D
:101C600064464C43A646640B3C4303950294744679
:101C7000049DE4042C1B049406D2029C039D641C66
:101C8000002675410395029401AC70CC009F7D1B2A
:101C9000B44101940C465C430095650FE7000C4687
:101CA0005443A646640F3C43039502947446049D36
:101CB000E4002C1B049406D2029C039D641C0026A5
:101CC00075410395029401AC70CC009F7D1BB4411B
:101CD000AE09AF06049DC900AD092F43049DA406BB
:101CE000AD060495079D344369180791059DE10BE6
:101CF0004D432D0C29466646754302950D464543D6
:101D00002E46029D7D1BB44100950D465D43019416
:101D10002C0C2F040D465543AE462D0C3D43029529
:101D200003947546049C2D04641B049406D2029C03
:101D3000039D641C002675410395029401AC70CC90
:101D4000009F7D1BB44101948C050694079C890A71
:101D5000611800950791019C0599A4086143090C3D
:101D60000D464543680BEF040D46644665436C0B16
:101D70003C43049FED047D1BAC4602D20025641C4D
:101D80006841009E019D371B8541084658430195D7
:101D90000C46460FC5005443600F28436546E400D7
:101DA0002C1B02D20025401C6E41019D3F1AB541FB
:101DB0002846BD09800628438446A009BF064E0276
:101DC0000699A40676180743079D002068410A99E2
:101DD000079019430020099B00906046FF191343A8
:101DE0004041E20F64003A43A4460446D71A8C41AE
:101DF000A04203D90120009020463A46C70F94180C
:101E000040416246D20F2243644664000494009C21
:101E1000BE466400D71AA446044602978C41774612
:101E2000002F01D1A04204D96046401C8446029A8A
:101E30002046C40FA64694184041049A0546D20F86
:101E4000224364466400D31A8D417146002901D1B2
:101E5000A84202D928461A46641C104301220028D1
:101E600000D0164361020020079B044689195C419B
:101E70000223002C02DB491813466441089DCE0A58
:101E80002D145D194B056705E10A2C050D190899FC
:101E90003E43C9076940002B08D0934006D3002277
:101EA000761C5141002B01D1760876001C4A002D8A
:101EB00043DB154241D0AA433FD0304611B0F0BDBC
:101EC0000E4607184E41174D7A42B5411AD30E9A65
:101ED0001D4696185D41134A7642AA4112D301224B
:101EE00052054D00D5420AD15C00D4420AD04B4085
:101EF00002D592021143E1E749004908DEE7E10F0C
:101F0000C90718E000200849D8E7054801420DD16B
:101F10000342F7D0F3E700000000FF07DC1D0000DC
:101F20000000F07F0000E0FF0000F87F114821462C
:101F30000143C01241400020C0E70123089A9B06DC
:101F40009A4205DC032252078918C90FC907B5E771
:101F5000052252078918074A1143D2125140ADE7B2
:101F60005940504010B54B40424059405040FFF757
:101F7000DFFD10BDFFFFFF7F30B50346CA02400DF5
:101F80001043164D164C0A1502D02043002A06DBDA
:101F9000AA1A002A12DDD040FF2A0BDC30BD520500
:101FA000520D01D140004008AA1A07D4D040404247
:101FB000FF2A01DD002030BD0028FCDD4A00002B97
:101FC00001D0012000E00020101801225205D0426B
:101FD000F0D8C817C043604030BD00001E040000A8
:101FE000000000801F22030C02D10F22000402D047
:101FF000030E03D004E00020014670470002083AB7
:10200000030F01D10001121F830F01D18000921E26
:10201000002801DB4000521E120551184205C01273
:10202000411810467047C10FC90700D04042012235
:1020300092071143D6E701218907D3E7F0B5934C06
:102040000D092646AC46AE430D465D4087B0002ED6
:102050007ED01E092746B743FAD067462740ED0FCA
:102060003D43264075D024012142FBD07419FF2541
:10207000AD04641B0494CC02D90201231B05C90AD8
:102080001943E40A1C430F01110F2401030F1C43E1
:10209000050116010F43A20B2D0990038443A90BE0
:1020A00088038543BB0B980387433609BC46B00BB6
:1020B0008703BE430F46474303972F467743029655
:1020C000BE46029F4E19C71906967E430597039F89
:1020D000F71B7646BE1B77463F0100970196039F8C
:1020E000B60BF619B646019E009FB604BF1902D37F
:1020F0007646761CB64676467600002F01D001273C
:102100003E4367467D43AE46029F25467D4300958C
:102110006D00AE1975466D00AF1965465D19069ED6
:1021200003956E437546751BAE461519059E0295BF
:102130006E43009D5943761B75466D1A5043864683
:10214000301A05900195F80606D07D09012001E0BE
:102150007DE079E0054300E07D090E0A09060020D4
:102160004D19464100967646310A3706009E7F1982
:1021700071418E4601998D0D8E027146F6194D41C1
:10218000AE46059DA90DAF027546BE1969415A4379
:1021900063465C43039D029B6B439B1A1D1BAB0E66
:1021A000AD016D184341110B120552195941230A13
:1021B0002406A5195341934200D2491C0122520220
:1021C000914203D315220226F64302E0142203268D
:1021D000F6432024A41AA1401F46A740BC461F4630
:1021E000D7400F432946D14062461143049A121446
:1021F000B2181305049EFB18F6077340A54009D0DA
:102200000124A54006D30024491C6341002D01D1BF
:10221000490849001E4CA24203D20846194607B09D
:10222000F0BD012204999206914207DB052149077E
:10223000184A59181143D2125140F0E703214907B7
:102240005918C90FC907EAE70020E907E7E70618A8
:102250000C464C4110487642A04114D394181A46BB
:102260005A410D48644290410DD301204900400578
:10227000814208D35900814205D3E90F074AC907B3
:1022800000201143CBE700200549C8E70000FF0705
:10229000FE070000FFFFFF7F0000E0FF0000F07F6F
:1022A0000000F87F0121C9050123411842001B06E7
:1022B000D3185B0E0AD0C1100722D2068918400736
:1022C0005242D14201D5520089187047090208D5FF
:1022D0000146002A03D0C10FC907002070471046ED
:1022E0007047420202D000200249704707210905C9
:1022F0000143F4E70000F87F70B5FF242404C60909
:10230000FF25264001352E43C209CB090546224050
:1023100023404D40002A6BD0002B69D0A24267D0E9
:10232000A34265D0002D00DA32460124E4052143A2
:10233000204309020002090AD21A000A4B0C7F242A
:10234000E31A434C7C44E35C7D24240412191414E6
:102350005B00A218884201D3521C00E040004942B1
:102360000C465C4324115C43DB016415E318040A4A
:102370005C43C502200D0C4644436419250A5D43A5
:102380002303EC0C0D46654300030019EB184C4287
:10239000A34201D35B18401CD4052018002B07D0A2
:1023A0005B00C91804D3401C002901D1400840003B
:1023B0003F2189048A4209D3002A08DC1106090F4B
:1023C00004D0032149074018C00FC00770BD012287
:1023D0004100120689187F2252069142F6D2052149
:1023E0004907C84201D5901070BDFF20C00570BDDF
:1023F000002D00DA3246174EA24207D2A34205D280
:102400001802000E17D0E80FC00770BDFF2443006C
:102410002406A34216D84900A14213D8A34201D1F1
:10242000A1420FD0A14201D1002101E041004908A1
:10243000D005084370BD1002000E03D0FF200243F8
:10244000D00570BD304670BD48404140484053E71C
:10245000B41600000000C07F10B502469E240002A2
:10246000D115A307002902D01843002904DB611A03
:1024700000290CDDC84010BD0906090E01D140003D
:102480004008611A03D4C84040420028F3DDFF2110
:1024900050000906884201D9002010BDD017C04362
:1024A000584010BD01460002CA1504D00123DB07C5
:1024B0001843002A09DB9E239A1A01D4D0407047A2
:1024C000FF2248001206904201D900207047C81729
:1024D000C04370471F22030C02D10F2200041CD0FE
:1024E000030E01D10002083A030F01D10001121FAF
:1024F000830F01D18000921E002801DB4000521E94
:10250000D2055118021251181922904004D3491CC7
:10251000002801D14908490008467047C10FC90782
:1025200000D04042012292071143D3E701218907DD
:10253000D0E710B500F0F6F8006810BD10B50446FD
:1025400000F0F0F8046010BDFFB504460D4681B000
:10255000243000902168880604D51022E069914358
:10256000216000E00120A84201DD471B00E00027B8
:102570000498A1697A191018081AA0612078C00679
:1025800002D42046C046C046002608E00398626890
:10259000A168805D9047206A401C761C20620498E8
:1025A0008642F3DB2078C0060AD52046C046C046E6
:1025B00006E06268A16830209047206A401C2062D3
:1025C00038467F1E0028F4DC07E000986268A168A6
:1025D000405D9047206A401C206228466D1E0028FE
:1025E000F3DC2046C046C0462078000602D5022013
:1025F00005B0F0BD0120FBE7084B70B50D467B44EC
:1026000000F099F8044628460020C043002802D074
:102610000020C04370BD204670BD0000D30F0000F5
:1026200070B506464800440D114B0020002C0AD01E
:10263000634008D09A4206DA6542AA4203DD1205D9
:102640008019514170BDCD0FED07002C05D0002B36
:1026500005D0002A01DB07490D43294670BD3046ED
:102660000A03104302D00020034970BD304670BDFC
:10267000FF0700000000F07F0000F87F10B5FF2387
:102680001B0644009C421DD84C009C421AD80346AD
:10269000124A0B4307D4401A02D3EFF3008010BD57
:1026A000EFF3008010BD081A06D2EFF3008001217D
:1026B0009043C907084302E0EFF30080904380F3A2
:1026C000008810BD0D231B041A4204D011460020BF
:1026D00000F044F810BD00F001FA10BD00000090B9
:1026E00005B50E48002200F001F805BDABBE01E0C3
:1026F00000207047002A00D0106001207047069823
:102700000188074A914207D10230069007980121BB
:102710008907884307907047FEE70000000100002A
:10272000ABBE0000004870471C12002001694A1C23
:1027300002610878704700B58FB0029100210591C1
:102740000549019379440391114604906846FFF7C7
:102750009FF80FB000BD0000E5FFFFFFCA0211D5D2
:102760004A03520F002A04D0C803C0430121884005
:102770007047054AEFF3008108010009104380F318
:10278000008870470020704700000030F0B50C460C
:10279000871A9C410D46861A9D4103D2C01BA14158
:1027A000D21963410D0D1F0DC74EEC1BAE435CD01B
:1027B0007F057F0D0026002F51D02D05AC46A94383
:1027C000DD020123ED0A1B051D4320231B1B24D41E
:1027D0001746E740381871412F46E740CC199D4015
:1027E0002818314661410C0D27D161449A4013D518
:1027F0000023401C594152000ED1400840000122E4
:102800004B005205D34207D305204007C14201D5F2
:10281000AE4900E0AE493046F0BD6B00002A00D062
:1028200001229A181F23203C1B1B01D5002302E024
:10283000E540281871410C0DD7D001242405091951
:10284000C407CD0740084908E40F28436144002C21
:10285000D5D00024401C61419A40D0D1CDE76A0513
:10286000520DD9D1C90FC907D5E79A4D4E0000289E
:1028700001D0012400E0002434195F00002A01D0B7
:10288000012600E00026BE19934FAC420CD8AE42A0
:102890000AD8B44206D001256D05EC42BCD01046E2
:1028A0001946F0BD9942FCD000203946F0BDF0B584
:1028B0001FB40C460F46811A9F412546861A9D413A
:1028C00006D20125ED076F40401ABC4152187B41EA
:1028D000210D1E0D8D1BAC467B4D8D437ED07505A5
:1028E0006D0D7CD00D05AE46AC431B031B0B774D25
:1028F00052429D41202366469B1B14D31746F74046
:10290000381800260090744160462F460741E419AC
:1029100000989D402818664116D4714671189A4057
:1029200025D5012320E093182A466A415200002B46
:1029300000D0521C1E23203E9B1B002B61DD354125
:10294000EE1728186641E8D5001876415B1C9A40BE
:1029500000D3401C4B05F3181524E34010D3002B83
:1029600052D071467118D30FC01802D3491C05B05C
:10297000F0BD0123DB079A42F9D140084000F6E799
:1029800001225205B21801D1002853D00123CC0AEC
:10299000DB029943891E002A08D1020C03D0020CE5
:1029A0000004103902E00246002020390023550BB4
:1029B00005D112020823550B01D152010D23550CEC
:1029C00001D112011B1DD50C01D192009B1C150DCC
:1029D00001D152005B1C2025EE1A01E02CE022E020
:1029E0000546F54015439840CA1AE10769181305D2
:1029F000C918002ABBDA032040070818C10FC9070D
:102A00000FE071466118B2E7F10740080843711002
:102A100071444A000CD001235B059A42A7D2C90F2A
:102A2000C9070020A3E74905490D26D1002001E090
:102A30000028F4D100219AE7264D6600002801D035
:102A4000012100E0002171185F00002A01D0012659
:102A500000E00026BE19204FA94210D8AE420ED881
:102A6000B14208D001256D05E94206D01946A802F9
:102A7000414010467BE79C4201D0214677E7002089
:102A8000394674E730B40C465C4004D50124E407B1
:102A9000634030BC0BE730BC78E630B40C465C4099
:102AA00004D50124E407634030BC6FE630BCFEE689
:102AB00030B40124E40761400D465D4001D430BCD0
:102AC00064E6634030BCF2E6FF0700000000F0FF60
:102AD0000000F07F0000E0FF0000F87F10B5024822
:102AE00000F02DF810BD00000000C07F00487047C6
:102AF0001C1200207546FFF7F9FFAE460500694637
:102B00005346C008C000854618B020B500F050F804
:102B100060BC00274908B6460026C0C5C0C5C0C570
:102B2000C0C5C0C5C0C5C0C5C0C5403D49008D4673
:102B300070470446C046C0462046FDF7B8FB10B5B6
:102B40000C461107090F092904D00A290AD00829BF
:102B50000CD104E011460820FFF700FE06E0510604
:102B600006D501E0510601D50120C007214610BD60
:102B7000D10607D501010909CC084907000E000656
:102B8000044309E0410F20024907000A0143200ED7
:102B900000061D22D14101430846E7E701491820FC
:102BA000ABBEFEE726000200704700000348004766
:102BB00003480449044A054B704700000502000021
:102BC00080120020580300208013002058000020AD
:102BD000F8B5384800903848C16B01221143C163F1
:102BE0000025354CE06B35490840E905C90B084321
:102BF000E0630026206BC007C00F02D000F062F82F
:102C0000761C082EF6D300273E462B48006BC007E3
:102C1000C00FFAD000F056F8002000F05DF804462E
:102C2000012000F059F82418022000F055F824186B
:102C3000032000F051F82418042000F04DF8241867
:102C4000052000F049F82418062000F045F8241863
:102C5000072000F041F82018C010761C3F18B6B2CB
:102C6000082ED2D3F81000B215490028088014DCD1
:102C700013480022825E00995242914214DA2902DE
:102C8000FF390139CA030C49D20BCB6B0B4C2340E3
:102C90001A43CA630099018006E06D1CADB2009032
:102CA000E81FFF38FA389CD10348C16B4908490036
:102CB000C163F8BDFF07000000000E40FF00FEFFEB
:102CC000F60300200348016BC908C900491C0163D1
:102CD0007047000000000E4002498000085800B212
:102CE0007047000000000E40054901208A68000777
:102CF00002438A600349C8600020C8607047000032
:102D0000000200500000005002498A6882438A6035
:102D1000704700000002005002498A6802438A603E
:102D2000704700000002005010B50348406940039E
:102D3000400F00F047F810BD0002005010B50C4ADB
:102D400010694007400F10D0022809D0042809D08C
:102D5000084891690907090F491CFEF7FBFD10BDE2
:102D60000548F6E700F00AF8F3E77D200002F0E7F7
:102D700000020050006CDC02808D5B000448006A99
:102D80000449C006800F48430349401870470000BB
:102D900000020050808D5B0080C3C90110B5074858
:102DA00040690007800F04D0022805D0FFF7C6FF56
:102DB00010BDFFF7E3FF10BD014810BD0002005039
:102DC000006CDC02014610B50020012906D0032961
:102DD00003D0042905D0FFF7B1FF10BD7D2000020C
:102DE00010BD014810BD0000006CDC0270B5134B33
:102DF000984201D1831402E0520801235B03104C76
:102E0000A5681D43A5600F4CE3600023E360012328
:102E10001B0419430160426004460B48844205D1FB
:102E2000FFF78CFF6168491C490003E0FFF786FF4C
:102E30006168491CFEF78EFD70BD00000000034074
:102E40000002005000000050004003400249C860EA
:102E50000020C8607047000000000050034859215E
:102E60000160162101608821016070470001005057
:102E700010B51020FFF7EAFF1020FFF745FF10BD47
:102E800070B505460C461020FFF746FF1020FFF7EF
:102E9000DDFF044A5068000C0004204350601560B8
:102EA00070BD00004000014070B506460025FFF7E8
:102EB0003BFF7D21C900FEF74DFD81B20920C00610
:102EC000FFF7DEFF0548C1688CB2AC4201D2761E26
:102ED00001D02546F7E7FFF7CBFF70BD400001406A
:102EE00010B50C490A4B0A7800249854521CD2B2EF
:102EF0000A709C54521C102A03D20A2801D00028C0
:102F000005D10C70002202490420FFF7EFFB10BD31
:102F10000C12002004040020F0B4040C8BB22646EE
:102F200082B25E430D0C1046370C584336048019AC
:102F30000021794116466E43370C360480197941D9
:102F400026466E438919F0BC704730B47446641E3F
:102F50002578641CAB4204D3635D5B00E31830BC8E
:102F600018471D46F8E700004900CA020243100056
:102F700000D004204A0D01D001221043044A490D1B
:102F8000914201D102210843012800D10520704758
:102F9000FF070000F7B596B0189B00219960D96033
:102FA000179908914C00CF4964088C4206DC189AA6
:102FB000179951601060002019B0F0BDCA49002770
:102FC000CA4DFF438C423BDAD32608997605002987
:102FD000C74A17992B4619DDFFF75FFDAC4207D0B2
:102FE000C44AC54BFFF759FD189A516010600AE0BA
:102FF0003246C14BFFF751FDC04AC14BFFF74DFDB3
:10300000189A51601060012019B0F0BDFFF73AFD29
:10301000AC4207D0B74AB84BFFF734FD189A51605D
:1030200010600AE03246B44BFFF72CFDB34AB44BB4
:10303000FFF728FD189A51601060384619B0F0BDAE
:10304000B0498C4217997CDC490049080746AE4AD2
:10305000AE4B0391FEF7F2FF0022AD4BFFF712FDDE
:10306000FEF78AFF0990FEF7DEFF0646A04A2B46D0
:103070000791FEF7E3FF3A46039BFFF719FD05466C
:103080000F469C4A9C4B30460799FEF7D7FF220D0E
:1030900001240B922A463B46FFF70AFD189A032C9F
:1030A0005160106039D0189840684000410D0B986D
:1030B000401A61016118113981422EDA95492001C7
:1030C000794402950C9008180397436802683046CB
:1030D0000799FEF7B3FF01910090039B029AFFF757
:1030E000E7FC05460F46039B029AFFF7E1FC019BB4
:1030F000009AFFF7D2FC01918749009079440C981F
:103100004018C368826830460799FEF797FF019B15
:10311000009AFFF7C2FC641CBCE7089800280DDA8F
:103120001899012208684968D2075140189A5160DD
:103130001060099819B04042F0BD02E0099819B03A
:10314000F0BD09030122090B12050D90891817988B
:10315000109140007149400D40184111C006C00E49
:1031600020221290101A13900020069007908800D9
:103170006B4979444518062007AC143515902F6823
:103180001298696887401398C1400F4338461099D8
:10319000FFF7C2FE0646119138460D99FFF7BCFEB7
:1031A00023688A191B189C46834201D2012600E03D
:1031B000002620468038C36F9719DB198A4201D256
:1031C000012700E0002711997918002E02D09342C0
:1031D00002D903E0934201D2012200E000228918C3
:1031E00062462260C36781671598241F401E2D1F09
:1031F00015900028C3D10121029849074018800F7B
:103200001190029805998000039D049C0B91FEF794
:103210000AFF06460F462846FEF70DFF1D22D24341
:10322000FFF7FEF90A900E912046FEF704FF3D22BB
:10323000D243FFF7F5F9129009910B98FEF7FBFEC8
:103240005D22D243FFF7ECF90D910890099B129A89
:10325000FFF718FC0E9B0A9AFFF714FC32463B4618
:10326000FFF710FC00240D4632463B462046FFF790
:1032700014FC0E9B0A9AFFF710FC099B129AFFF7A9
:103280000CFC0D9B089AFFF713FC264A264BFEF711
:10329000D5FE06460F46254A254B29462046FEF711
:1032A000CDFE32463B46FFF7EDFB06460F461522A4
:1032B00092061D4B29462046FEF7C0FE3B4632468D
:1032C000FFF7E0FB179A002A05DA119A5242119291
:1032D0000122D2075140189A51601060119819B01C
:1032E000F0BD0000FB21E93F7CD90240FB21F93F02
:1032F000000040543163621A61B4D03D7370032EF4
:103300008A19A33BFB21394183C8C96D305FE43F73
:103310000000E03FAC090000700900000BFCFFFF5B
:103320002A090000182D4454FB21F93D3326A6112B
:10333000460B113CF0B51FB44E00F920760880050D
:1033400084B00F46864204DA0498FEF715FE002882
:1033500038D0049A3B4610461946FEF76FFE0446E5
:1033600002462C480D460B460621784400F05CF8D6
:1033700022462B46FEF762FE019100903946079BDC
:10338000069A0498FEF75AFE0746029120462946FF
:10339000019B009AFEF752FE3A46029BFFF77DFB27
:1033A000074600220091D24320462946FFF738F90C
:1033B000194A96420ADA3A46009BFFF76EFB002252
:1033C000164B23E00020154909B0F0BD144A96427F
:1033D00002DD0024134D03E001225205B51A00243A
:1033E00022462B46FFF759FB0646019122462B4603
:1033F00000200A49FFF751FB0D4604463A46304685
:10340000009B0199FFF749FB22462B46FFF750FB33
:1034100009B0F0BDD20600003333D33F0000F03FC7
:103420000000E93F0000D23FF8B504464F1EC80037
:103430000838211815461E46086849683A4606238A
:103440009A4310D02A463346FEF7F8FD3A46D2009A
:10345000083AA3181A687F1E5B68FFF713FB062261
:103460003B469343EED1022F23D0042F11D0062FD9
:103470002FD12A463346FEF7E1FDE36AA26AFFF741
:1034800001FB2A463346FEF7D9FD636A226AFFF73D
:10349000F9FA2A463346FEF7D1FDE369A269FFF740
:1034A000F1FA2A463346FEF7C9FD63692269FFF740
:1034B000E9FA2A463346FEF7C1FDE368A268FFF742
:1034C000E1FA2A463346FEF7B9FD63682268FFF742
:1034D000D9FAF8BDF0B51FB4054648000C46F921ED
:1034E0004008890586B088420BDA28462146FFF756
:1034F0003BFD042801D100F063F8284621460BB0BB
:10350000F0BD2A46234610461946FEF797FD0646AB
:103510000F462A462346FEF791FD0090254801916B
:1035200032463B4605217844FFF77EFF0290109813
:103530000391002829D0204A204B01990098FEF7DA
:103540007DFD0490059168460FC8FEF777FD0022C7
:1035500001910090D24309990898FFF761F8019B07
:10356000009AFFF79AFA32463B46FEF767FD099B41
:10357000089AFFF792FA059B049AFFF78EFA2A46FB
:103580002346FFF795FA0BB0F0BD0B46304639469F
:10359000029AFEF753FD084A084BFFF773FA019BA6
:1035A000009AFEF74BFD2A462346FFF76BFA0BB055
:1035B000F0BD00000E060000495555555555C5BFD4
:1035C000034A10B500201107FFF72AF810BD0000CC
:1035D00001FDFFFF10B5FFF783FC002010BD0000C8
:1035E00000B54A00254B520887B09A4203DC0022FE
:1035F000134600922EE0224B9A420CD100280CD1A7
:103600000120FEF79BFF0022134610461146FEF7ED
:103610008FFA07B000BD9A4204DB0122FFF700F8E1
:1036200007B000BD02AAFFF7B5FC8107890F012092
:1036300000290CD0012911D0022915D002A80FC8E9
:10364000FFF778FE0122D207514007B000BD00907D
:1036500002A80FC8FFF73EFF07B000BD02A80FC8C1
:10366000FFF768FE07B000BD009002A80FC8FFF783
:1036700031FF0122D207514007B000BDFB21E93FD5
:103680000000F07F70B501250400ED074C4020D408
:10369000441A01D2001B0919C60D4B00F2B2FF2AD1
:1036A00029D01B0E2CD000020C02D31A2C43DC4074
:1036B0002843051910D2280A02D3401C6D0611D0E8
:1036C000761EF6058019FF2A00DA70BDC00DC00510
:1036D00070BD694000F0DCF801200543C541521C73
:1036E000761CE8E764089C40C90161408900E7D185
:1036F0000124A043E4E71B0E440200D0034870BD40
:10370000002AFCD1C00FC00770BD00BF0000C07F01
:1037100001230200DB050A430DD4DA4203D49A42A6
:1037200007D488427047D84214D4D94212D4884270
:10373000704780427047DA4203D59A42F9D58142F8
:1037400070475B004200DA4204D24A00DA4201D2FA
:103750008142704710B5024AFEF790FF10BD00BFCE
:103760000900160470B5420064414B005C41120E22
:1037700039D01B0E38D0FF2A3CD0FF2B3AD0400264
:103780004902400A490A060045184E43000A090A40
:10379000D2184843ED017F3A0104731A4019190CFD
:1037A0004318990F04D001215B0849075B1A521C8A
:1037B000D80904D3401CF50301D19D0607D0FF2A88
:1037C00008D2D50506D0E4072043401970BD012575
:1037D000A843F4E7002A01DCE00770BD2402FF20C3
:1037E0002043C00570BD1B0EFF2A03D0FF2B01D064
:1037F000E00770BDFF2645003606B54206D84D00ED
:10380000B54203D8D218FF2A00D0E7E7004870BDC0
:103810000000C07F01230A00DB0502430DD4DA4219
:1038200003D49A4207D481427047D94214D4D84273
:1038300012D48142704789427047DA4203D59A42D6
:10384000F9D5884270475B004A00DA4204D2420050
:10385000DA4201D2884270474840414010B5024ADE
:103860004840FEF70BFF10BD0900160470B5012596
:10387000ED07684004004C4002D5694000F008F8AC
:10388000FFF706FF70B501250400ED074C4022D478
:10389000441A02D26C40001B0919C60D4B00F2B24B
:1038A000FF2A4BD01B0E50D000020C02D31A2C431F
:1038B000DC40A843051B05D5AD0019D36D08761E65
:1038C000521E37D0F605280A01D2801970BD70410A
:1038D0006D0603D070BD6940FFF7DAFE9C40090217
:1038E0006140490001D0401E70BD0124A04370BD5D
:1038F0006D081DD001202B0C01D12D0410302B0E92
:1039000001D12D0208302B0F01D12D01001DAB0F6D
:1039100001D1AD00801CEB0F01D16D00401C6D008A
:10392000361A121A680AF5054019012A02DB70BD21
:10393000002070BDC036300AC00770BD1B0E4402A7
:1039400001D1FF2B00D1024870BD002AF0D070BD1C
:103950000000C07F30313233343536373839414298
:1039600043444546403058003031323334353637E1
:1039700038396162636465664030780080807F7E9C
:103980007D7C7B7A797877767675747372717170D5
:103990006F6E6E6D6C6C6B6A6A6968686766666587
:1039A0006464636362616160605F5F5E5E5D5D5C15
:1039B0005C5B5B5A5A595958585757565655555586
:1039C0005454535352525251515050504F4F4F4EE6
:1039D0004E4D4D4D4C4C4C4B4B4B4A4A4A49494934
:1039E0004848484747474746464645454544444476
:1039F00044434343434242424241414181828384A2
:103A000085868788898B8C8D8E8F919293959697DA
:103A1000999A9C9D9FA0A2A3A5A7A8AAACAEB0B25C
:103A2000B3B5B7B9BCBEC0C2C5C7C9CCCED1D4D757
:103A3000D9DCDFE2E6E9ECF0F3F7FAFE0000000083
:103A40004C5555555555A53F7751C1166CC156BFBC
:103A50009015CB19A001FA3EAD529C804F7E92BECC
:103A6000C4B1B4BD9EEE213ED43888BEE9FAA8BDEB
:103A700000004054FB21F93F3163621A61B4D03D2C
:103A80000000601A61B4D03D7370032E8A19A33B05
:103A90000000002E8A19A33BC14920259A837B3957
:103AA00000000000000000006E83F9A22915444EBA
:103AB000D15727FCC0DD34F5999562DB4190433C3A
:103AC000AB6351FE61C5BBDE3A6E24B7E0D24D4216
:103AD000EA2E49061C92D1091CEB1DFE3EA729B116
:103AE000F53582E88444BB2E26709CE9417E5FB4A4
:103AF00039D69139F43953838B5F849C3B28F9BDC7
:103B0000FF97F81F0F9805DE8B112FEF1F6D0A5AD4
:103B1000CF7E366DB709CB27663F464F2DEA5F9EB5
:103B2000C7BA27757BF1E5EBF739073DEA92528A70
:103B3000B15FFB6B085D8D1FA6F810111111813F5D
:103B4000D561C119A0012ABF7DFEB157E31DC73E53
:103B5000EB9C2B8AE6E55ABE7CD5CF5A3AD9E53D97
:103B6000903B0000000000205400000048020000CC
:103B7000E43B000058030020B400000048020000AD
:103B8000983C00000C040020740F00006402000048
:103B9000AD2B0000FF260000F5000000F50000003E
:103BA000F5000000F5000000F5000000F500000041
:103BB000AF0A0000F5000000F5000000BD030000A2
:103BC000F5000000E103000063030000F5000000C1
:103BD000F5000000F5000000F5000000F500000011
:103BE000F5000000000000000000000000000000E0
:103BF00000000000010000000000000000000000C4
:103C000000000000000000000000000000000000B4
:103C10000000000000000000000000006400000040
:103C20000000000000000000000000000000000094
:103C300000B07E4600000000000000000000000010
:103C40000000000000000000000000000000000074
:103C50000000000088130000000000006F12833A8B
:103C60000000000000000000000000000000000054
:103C70000000000000000000000000000000000044
:103C80000000000000000000000000000000000034
:083C900000000000000000002C
:0400000500002BAD1F
:00000001FF
