:020000040000FA
:1000000058030020C52D00007D0000008300000083
:1000100000000000000000000000000000000000E0
:100020000000000000000000000000008900000047
:1000300000000000000000008F000000950000009C
:100040009B000000A1000000A7000000AD00000020
:10005000B3000000B9000000BF000000C5000000B0
:10006000CB000000D1000000D7000000DD00000040
:10007000E3000000E9000000EF0000001E480068F7
:1000800000471E48006800471D48006800471D489B
:10009000006800471C48006800471C48006800478B
:1000A0001B48006800471B48006800471A48006862
:1000B00000471A4800680047194800680047194877
:1000C0000068004718480068004718480068004763
:1000D000174800680047174800680047164800683E
:1000E0000047164800680047154800680047154853
:1000F00000680047FEE70000140000200400002014
:10010000080000200C000020100000201800002033
:100110001C000020200000202400002028000020D7
:100120002C00002030000020340000203800002087
:100130003C00002040000020440000204800002037
:100140004C000020500000200000000000000000D3
:10015000000000000000000000000000000000009F
:10016000000000000000000000000000000000008F
:10017000000000000000000000000000000000007F
:10018000000000000000000000000000000000006F
:10019000000000000000000000000000000000005F
:1001A000000000000000000000000000000000004F
:1001B000000000000000000000000000000000003F
:1001C000000000000000000000000000000000002F
:1001D000000000000000000000000000000000001F
:1001E000000000000000000000000000000000000F
:1001F00000000000000000000000000000000000FF
:100200000502000000F002F800F03EF80CA030C833
:10021000083824182D18A246671EAB4654465D4682
:10022000AC4201D100F030F87E460F3E0FCCB6460E
:100230000126334200D0FB1AA246AB46334318478F
:10024000183B0000483B0000103A02D378C878C140
:10025000FAD8520701D330C830C101D504680C6008
:10026000704700000023002400250026103A01D327
:1002700078C1FBD8520700D330C100D50B6070475E
:100280001FB51FBD10B510BD02F01EFD1146FFF7D2
:10029000F7FF00F074F902F036FD03B4FFF7F2FF48
:1002A00003BC02F065FD000010B5002819DAE74A2A
:1002B00003071B0F083B9B089B00D2588307DC0EEB
:1002C000FF23A3409A438B071B0E8407E40EA34031
:1002D0001A43DE4B0407240F083CA408A4001A515B
:1002E00018E0DB4A03231B02D21883089B00D25874
:1002F0008307DC0EFF23A3409A438B071B0E840762
:10030000E40EA3401A43D24B032424021B19840891
:10031000A4001A5110BD10B583698B438361002A74
:1003200004D0C3690C042343C36103E0C3690C0414
:10033000A343C36110BD10B50121C903C54800F036
:100340003CF9C01310BD10B501218903C14800F06C
:1003500034F9801310BDC0480078704710B50221F1
:10036000BC4800F02EF9002805D000F01BFB02214C
:10037000B84800F02AF901210903B64800F021F934
:1003800000281BD00120B44908700103B14800F0D7
:100390001CF901210903AF4800F00FF900280DD026
:1003A0000020AD4908700120C002AC49088000F06F
:1003B000F9F901210903A74800F007F94021A548F0
:1003C00000F0FFF8002806D04020A5490880402111
:1003D000A04800F0FAF8012149039E4800F0F1F826
:1003E000002816D0012149039A4800F0E6F89D49FB
:1003F000088008460088002803D0012001F0A6FBF1
:1004000002E0002001F0A2FB01214903914800F025
:10041000DCF810BD00BF9448806840084000401CD4
:100420009149886000BF0120904908709048006899
:10043000401C8F490860704710B500BF8D48806828
:1004400040084000401C8B49886000BF01F00FFB52
:1004500010BD10B500210B20FFF726FF002108205A
:10046000FFF722FF01210220FFF71EFF03210520D5
:10047000FFF71AFF01210720FFF716FF10BD10B587
:1004800002F0F8FD00F0ADF80F2000F0A0F800BF7A
:1004900079480068482188437749086000BF00F028
:1004A00028FB00BF01200005734989680143724A97
:1004B000916000BF00BF7149C86000216F4AD160E0
:1004C00000BF00BF00BF10468069802188431146ED
:1004D000886100BF00BF0020C86100BF00BF0021CD
:1004E000D01DF930016000BF10BD10B51F20634959
:1004F000096B0143614A116300BF61481146496BB2
:100500000143516300BF5F495F4800F054F8032086
:10051000000350494968020491434E4A516000BFAC
:100520005A49104600F047F801208003564989686F
:100530000143554A916000BF2020464989688143A4
:10054000444A916000BF0122C1014248FFF7E3FE27
:10055000012000033F49C96901433E4AD16100BF00
:10056000012240213B48FFF7D6FE082001218140AF
:1005700042099200364BD218116000BF10BD00BF77
:1005800000BF00BFFFF77BFFFFF7AFFF00F05AF996
:1005900001F01AFA00F0DDFB00F00BFD01F022FA89
:1005A00000221146402001F0A4FA01F0D0F900F039
:1005B0008FFD00BFFEE701607047024610690840EA
:1005C00070470246106A08407047016270472A4926
:1005D0008969090909010207120F1143264A91612D
:1005E000704710B500BF0120244989680822914353
:1005F000C20008231A401143204A916000BF002026
:100600001146896804229143820004231A40114351
:100610001A4A916000BF00BFFFF7D9FF07201649B3
:10062000096981430143144A116100BF0320114647
:10063000096A0143116200BF022011460968402285
:10064000914381430C4A116000BF10BD1CED00E0D6
:1006500000E100E0404000507D03002084030020C2
:10066000860300207E03002000000140800300205C
:1006700078030020400001400002005000000050BC
:100680001E07000000005410004000500004150038
:1006900000B5F1480078030002F047FD0E0D0E1181
:1006A0001518191C1A16120C0B1E081EFD208005A9
:1006B00000BD00BF00BF00BFFD208005F8E700BF00
:1006C000FF208005F4E700BFE448F1E700BF00BF6A
:1006D000E348EDE7E348EBE7FD208005E8E700B5F8
:1006E000DD480078030002F020FD0E0C0D0F1215FE
:1006F00017181613100B0A1A081A002000BD00BFA5
:1007000000BF00BFD848F9E700BFD848F6E700BFF0
:10071000D748F3E700BF00BF00BFD648EEE7002090
:10072000ECE710B5CC480078030002F0FEFC0E1098
:1007300011171E25262D271F180F0E3308334022B0
:100740001146104601F0D5F92AE000BF00BF00BFF6
:1007500040220021084601F0CCF921E000BF002230
:100760004021104601F0C5F91AE000BF00224021E7
:10077000202001F0BEF913E000BF00BF00222021BD
:10078000402001F0B6F90BE006221146402001F0AE
:10079000B0F905E000221146402001F0AAF900BF9F
:1007A00000BF10BD00B5AC480078030002F0BDFCEE
:1007B0000E0E0F13181D1E231F19140D0C270827CA
:1007C0000B20A54908701EE000BF00BF00BF02203B
:1007D000A149087017E000BF03209F49087012E08C
:1007E00000BF04209C4908700DE000BF00BF062038
:1007F0009949087007E00D209749087003E00D2023
:100800009549087000BF00BF00BD10B59A48007838
:1008100002F016F80446994901F0F8FE10BD10B533
:10082000FFF789FD4401FFF78EFD00010443E0B2AC
:1008300010BD934800687047874800787047864924
:100840000870704770B502F085FB05468D4901F0D0
:100850001BFA002807D002F07DFB0546894901F00C
:1008600013FA401E00E0002084B22246842186480C
:1008700002F0C8FB01208449096805221204914353
:1008800082041143804A116000BF00BF114689688D
:1008900010229143020110231A4011437A4A9160B9
:1008A00000BF0021104600F0D4F8774800F0C9F8E6
:1008B00002200121754A92698243744B9A61002992
:1008C00004D01A46D2690243DA6104E06F4AD26961
:1008D00082436E4BDA6100BF0E205F49087070BD25
:1008E00010B504462146684800F0B3F8664800F0A9
:1008F000A8F810BD70B502F02DFB0546644901F063
:10090000C3F9002807D002F025FB0546604901F035
:10091000BBF9401E00E0002084B2224682215D48DF
:1009200002F070FB01200021C2008B00D218594B4D
:100930009A6000BF0220194689688908890001432E
:100940001A46916000BF012110201268524B1A40D4
:100950004B1E1B021A43C3001A434E4B1A6000BFC2
:1009600070BD10B5044621464A4800F072F8494867
:1009700000F067F810BD70B504460D4621464548A5
:1009800000F067F8434800F05CF800BF00BF414842
:100990000068C007C00F0028F8D100BF3D480069BB
:1009A000288070BD10B588B0002400216846018001
:1009B00001822CE000BF00BF33480068C007C00FB1
:1009C000002805D00221314800F037F80028F2D085
:1009D00002212E4800F031F8002818D100BF2A4823
:1009E000006961006A46505200BF2A4800696100F0
:1009F00004AA505260006946085C174908706000FC
:100A00006946085A002802D10E20134908700221B5
:100A10001E4800F012F80028CCD020480088FFF7CC
:100A20005FFF61006A46505AFFF79BFF00201B4999
:100A300008801B49087008B010BD024610690840C4
:100A400070470168012212049143012211430160A1
:100A50007047016270470000870300209A99D93FD0
:100A60000000204000005040E9482E3F1214DF3EB5
:100A7000D5E78A3E5452273E880300200000C84232
:100A80008C03002000127A000040034040400050D8
:100A9000A08601000000034007FCFEFF8403002045
:100AA0008603002010B59A4A126C30239A43030142
:100AB000302423401A43964B1A641A46126C92084B
:100AC00092008B079B0F1A43914B1A6410BD10B50F
:100AD00000BF8F48006BC007C00F002808D000205F
:100AE00081008B4A515809B28A48016000F0F5F83C
:100AF00010BD70B5002400250220874949690C22E9
:100B0000914382000C231A401143834A516100BF74
:100B10002B2011468969814A114002047F4BDB4337
:100B20001A4011437C4A916100BF02F013FA044657
:100B300000BF02F03FFA0646774880690001000DC9
:100B4000411C304601F0A0F8054670BD70B5044662
:100B500000250AE000BF6E48006BC007C00F0028E8
:100B600003D000F0BAF8681C85B2A542F2DB70BD74
:100B700010B500F0BBF805200002FFF7E7FF00BF4B
:100B800000F0ABF86248006A02218843801C60498B
:100B9000086202200121814042099200604BD21874
:100BA000116000BF00BF10BDFEB502F0A9F900BF83
:100BB0005748006A40084000401C5549086200BF81
:100BC00000BF0846C06B0321890508435049C8632C
:100BD00000BF00210846FFF765FF642002F070FAAD
:100BE00003210846FFF75EFF00F089F8002110227C
:100BF0000B460120464CE46B84430443444DEC63B4
:100C00002C46E46B0625AC435D00062635402C439C
:100C10003F4DEC632C46E46B424D2C401502414E97
:100C2000F64335402C433A4DEC632C46E46B1F25CC
:100C30002D06AC430D061F26360635402C43344D99
:100C4000EC6300BF03202946096A0C22914382000D
:100C50000C231A4011432A46116200BF012011469D
:100C6000096A02039143020303031A4011432A460F
:100C7000116200BF00200F210A460B460C460D46AC
:100C8000009101910E0136181702F719009E3603E4
:100C9000BE191F04F6192705F6192F06F719019E2C
:100CA0003607BE191A4F7E6200BF00F01FF802F02F
:100CB0009BF800BF1C48008840001C490988081A9E
:100CC00000B21A4908800020085E1949C86000BFB8
:100CD00000F015F8FFF74CFFFEBD0D48006B062134
:100CE0008843012108430A49086370470848006A9D
:100CF0000121C90288434018054908627047044829
:100D0000006A0121C9028843014908627047000056
:100D100000000E409003002000020050FFFF00F092
:100D200000E100E0FF00FEFF1E040020220400207E
:100D30000080005000BF4B49886200BF704700BF71
:100D40004849C86100BF704700BF4649086100BFFD
:100D5000704770B5022404250320434949690207FE
:100D60009143020703071A4011433F4A516100BFF4
:100D700000BF3C488068042188433A49886000BF2E
:100D800000BF0846C06F40084000401CC86700BF55
:100D900000BF0846C06F02218843801C3149C867E4
:100DA00000BF00BF0846C06F04218843001D2D49C5
:100DB000C86700BF00BF08468068102188432949E2
:100DC000886000BF00BF084680682021884325490D
:100DD000886000BF601EC1B27F232A4600F00AF877
:100DE0000020FFF7B1FF0020FFF7A9FF0020FFF769
:100DF000A1FF70BD70B500BF1A4CA4680825AC43B4
:100E0000C500082635402C43164DAC6000BF2C466B
:100E10002468240A2402CDB22C43124D2C602C46A7
:100E20006468E408E40055076D0F2C430D4D6C60B9
:100E30002C46E468240C24049DB22C43094DEC603C
:100E400000BF2C46646C64086400641C6C6400BFC2
:100E500000BF2C46A46864086400641CAC6000BF3A
:100E600070BD00000000044000020050F0B585B0E5
:100E700000242EE0204601F078FA054603225207AE
:100E8000FE4B01F075FA0022FD4B0191009000F03D
:100E9000E9FF0391029000F0A7FF0746384601F0F2
:100EA0008BFB054602F092FC0022F64B019100906C
:100EB00001F05EFA0391029001F0F8F900B26100CE
:100EC000F14A505260001146085A6100EF4A5052F0
:100ED000641CFF2CCED905B0F0BDF0B585B0002460
:100EE00028E0204601F041FA054603225207E34B71
:100EF00001F03EFA0022E64B0191009000F0B2FFB3
:100F00000391029000F070FF0746384601F054FB51
:100F1000054602F05BFC0022DE4B0191009001F0DF
:100F200027FA0391029001F0C1F900B26100DA4A98
:100F30005052641C012080028442D2D305B0F0BD1F
:100F4000002806D10021D54A1180D54A1160D54A22
:100F50001170012805D10021D04A11800121D14A08
:100F60001170032805D1D049CC4A11800321CD4A04
:100F70001170022805D1CC49C84A11800221C94A02
:100F80001170042802D10421C64A1170704710B5AF
:100F90000020FFF7D9FE0020FFF7D1FE0020FFF769
:100FA000C9FE10BD10B5FFF7F2FF0020FFF7C8FF24
:100FB00010BD10B5FFF75AFFFFF78FFF0020BB49A8
:100FC00008705520BA490870AA20BA490870002054
:100FD000B9494969072212029143020207231B0201
:100FE0001A401143B44A516100BFB4493C20042265
:100FF000B14B9B681343B04CA36000BF00BFB04B24
:10100000DA600023AE4CE36000BFAE4A5268120CB7
:1010100012040243AB4B5A601A46116000BF00BF76
:1010200010460068090788434018114608600520EB
:1010300000F02BFC00BF052000F027FC00BFA148FA
:10104000006801218907884340189E49086000BF55
:10105000FFF7A8FF10BD95480078401C9349087021
:1010600093480078401C9249087092480078401CD0
:101070009049087070478D480078401E8B49087071
:101080008B480078401E8A4908708A480078401EC4
:1010900088490870704710B58449097849007B4A2F
:1010A000515A403188B2FFF74FFE81490978490013
:1010B000764A515A403188B2FFF741FE7D4909789E
:1010C0004900724A515A403188B2FFF733FE10BDD1
:1010D00010B58020FFF738FE8020FFF730FE00209B
:1010E000FFF728FE10BD78490860704770B50446C8
:1010F000764804600168764802F050FC06460121FB
:10110000890701F083FA054601F056FB7149086032
:10111000232000027049086070BDF8B50546002420
:1011200010E06100584A505E01F082FB07462946F4
:1011300002F034FC064601F019FB00B26100534A8C
:101140005052641CFF2CECD9F8BD5649087070470A
:1011500010B5002061490870504908806048006857
:10116000FFF7DBFF5F480068FFF7BDFF5E480068E0
:10117000FFF7BCFF0120FFF7E3FE10BD10B5002113
:101180005A48006802F062FC09D8002158480068FB
:1011900002F05CFC03D80020564908702EE00021C4
:1011A0005248006802F052FC09D8002150480068FB
:1011B00002F0CAFB03D801204E4908701EE000214E
:1011C0004A48006802F0C0FB09D80021484800687E
:1011D00002F03CFC03D80020464908700EE00021D4
:1011E0004248006802F0B0FB08D80021404800687F
:1011F00002F0AAFB02D801203E49087001203E49B6
:1012000008703E4908700420FFF79AFE10BD10B523
:101210000320FFF795FE10BD224800787047F0B517
:1012200089B005460E4617461C46FFF7F5FF042811
:101230000CD13348056033480660334807603348B3
:10124000048001203249087009B0F0BD25480560CE
:1012500023480760244806602E48048001201F4967
:1012600008702146104800F019FD00B22A49088094
:10127000204601F0E5FA079014484FE0FB211940A1
:1012800000007040000050402C0600202C0400207C
:10129000000090400088C3402C0A0020B4030020C6
:1012A000B0030020C3030020881300009603002031
:1012B00097030020980300200002005032000068CD
:1012C0000000005000000140A00300209C0300200B
:1012D0000000E044A4030020A8030020D203002063
:1012E000C8030020C4030020CC030020BC0300205E
:1012F000B8030020C2030020C0030020C103002067
:10130000D4030020D8030020DC030020E0030020E9
:10131000E2030020D0030020B60300200168FE484D
:10132000006802F0BFFB0690079901F06FF9FB49D6
:101330000860FB48006801F03FF90022F94B019179
:10134000009001F015F805910490204601F00DF889
:10135000002201239B070191009001F009F80391FD
:101360000290059B049A00F07DFD0791069000F025
:101370003BFD0890EA480168EB48006802F092FBE8
:101380000790089901F042F9E84908600021E64811
:10139000006802F0AFFA06D1E5480078002801D0D5
:1013A000FFF735FF50E7E2480078002802D1FFF749
:1013B000CFFE49E7FFF7E2FE00BF45E770B5DC4826
:1013C0000078002800D170BDD9480078012812D1DA
:1013D000D8480088D8490988401800B2D549088003
:1013E0000020085ED549884205DB0846D1490880BF
:1013F0000220FFF7A5FDCE48007802280BD0CC488C
:101400000078012807D0CA480078032803D0C848CC
:10141000007804287ED1C24801688920C00502F006
:10142000BDFA0646C6480168304602F0B7FA0546DE
:1014300001F0C2F9C3490860084600888005800DA4
:101440000860084600684000BF49085ABF49088044
:101450000020085EBE490880BE480168B8480068A0
:1014600002F002FAB6490860B84A0021515EBA4A51
:1014700012685143B94A1288B74B1B685A438818FF
:10148000B74900F00BFCB74908600968A94A002376
:10149000D35E59430846A94900F000FCB1490860F1
:1014A00008460088B0490988401A00B2AF49088050
:1014B000AC480068AC490860AD490020085E0028CF
:1014C00001DB014600E04142C82937DDA74A00217F
:1014D000515E002901DB0A4600E04A42002A2DDD68
:1014E000A24A0020105E002801DB024600E04242D2
:1014F000032A23DA9E480021415E002905DA9B4831
:101500000088401E00B29949088099480021415E38
:10151000002900E031E005DD94480088401C00B25D
:1015200092490880924A0021515E5F225143084649
:10153000642100F0B3FB00B28D4908808B48002184
:10154000415E002909DD0024045F04E0FFF783FD0C
:10155000FFF7A1FD641E002CF8D184480021415EF4
:1015600000290ADA0021415E4C4204E0FFF783FDC6
:10157000FFF791FD641E002CF8D16D480078032818
:1015800019D16C4800886C490988401A00B2694931
:10159000088008460021415E00290CDC00206549D6
:1015A000088074480078002802D0FFF7D1FD02E0DF
:1015B0000020FFF7C5FC5E48007804287ED16E4805
:1015C000007801283ED16D48007801283AD10021E9
:1015D0005248006802F03AFA18D250480168684848
:1015E000006802F041F9664908604B4801686448A8
:1015F000006802F02BFA21D847480068604908606B
:1016000000205D4908705D49087017E04348016893
:101610005B48006802F028F9594908603E480168B3
:101620005748006802F090F908D83B4800685449D0
:101630000860002050490870504908705048006800
:10164000FFF754FD4F480078012863D14B480078DC
:101650000028FAD14C480068FF210131884203D8A4
:1016600038480068884209D84748006803210902C1
:1016700088424FD83348006888424BD92B480168CC
:101680002748006802F0F0F8254908600021274843
:10169000006802F0DBF912D2234801682048006894
:1016A00002F0D4F91CD8204800681D4908600020C9
:1016B0003449087001203149087011E0DFE01A4810
:1016C00001681748006802F03FF909D81648006819
:1016D0001349086000202B49087001202749087031
:1016E00029480068FF210131884251D81548006817
:1016F00088424DD98921C9050948006802F04EF990
:1017000005461048006801F09BF80646294600F09F
:101710007DFF3BE097E00000CC030020B8030020F1
:10172000A003002000408F40C4030020BC03002021
:10173000C3030020B4030020B60300208813000078
:10174000B0030020000400202C0A00200404002024
:10175000E6030020F0030020A4030020E40300209F
:1017600010270000F4030020F8030020FC030020F1
:10177000AC030020D2030020C0030020C2030020DD
:101780009C030020C1030020EC03002044490860B2
:101790004448006803210902884214D8424800687E
:1017A000884210D98921C9054048006802F0F6F83E
:1017B00005463D48006801F043F80646294600F01A
:1017C00025FF37490860394801688920C00502F0C3
:1017D000E5F8064632480168304602F0DFF8054673
:1017E00000F0EAFF30490860084600888005800D57
:1017F00008600846006840002D49085A2D490880B5
:101800000A460021515E2C4A126851432B4A128825
:10181000294B1B685A438818294900F03FFA294987
:1018200008600968284A0023D35E594308462749BF
:1018300000F034FA2349086008460068244908602B
:1018400000202449088024480078002817D1234824
:101850000078002813D10220FFF772FB204800789F
:1018600000280CD000201E4908701E4803881E481E
:1018700002681E4801681E480068FFF7D0FC0A484D
:1018800000680849086000BF9DE5C206D20E01212C
:10189000914042099200174BD21811607047000026
:1018A000B0030020EC03002000040020A00300206F
:1018B0002C0A002004040020A4030020E4030020DC
:1018C00010270000F4030020B40300208813000058
:1018D000F8030020AC030020C0030020C103002057
:1018E000E2030020E0030020DC030020D8030020F6
:1018F000D403002000E100E010B5FEF7FBFF10BDAF
:1019000038B5044669462046FFF735F86846008832
:1019100038BD70B500240224042004430820044389
:101920002020044300BFC001044300BF002509E09C
:1019300000BF2B4800F04EF80028FAD12046FFF7F0
:10194000DFFF6D1C7D20C0008542F1DB70BD70B5EE
:1019500000240224042004430820044330200443CC
:1019600000BF01200003044300BF002509E000BFC1
:101970001B4800F02FF80028FAD12046FFF7C0FFDF
:101980006D1C7D20C0008542F1DB70BD70B5044642
:101990000025E006050C0120C003054300BF1048E8
:1019A00000F018F80028FAD12846FFF7A9FF0646EC
:1019B00000BF0B4800F00EF80028FAD12846FFF7C8
:1019C0009FFF0646304670BD10B5FFF795FFFFF745
:1019D000A0FF10BD01460868C007C00F7047000097
:1019E0000000034010B504204E4949690722120443
:1019F0009143020407231B041A401143494A5161D1
:101A000000BF4949AF2080001022464B9B6813431A
:101A1000444CA36000BF00BF444BDA600023434C3A
:101A2000E36000BF424A5268120C12040243404B6A
:101A30005A601A46116000BF00BF104600680121BD
:101A400049078843401811460860072000F058F8FD
:101A500000BF072000F054F800BF3548006801219E
:101A60008907884340183249086000BF10BD10B58F
:101A700030480088402802DB00202E4908802D488D
:101A8000008800280ED1012149022B4800F046F8B9
:101A900001218902284800F041F80121C9022648A5
:101AA00000F03CF82348008824490978884204DB88
:101AB00001214902204800F02DF81E4800882049E5
:101AC0000978884204DB012189021B4800F022F8D2
:101AD000184800881B490978884204DB0121C902A3
:101AE000154800F017F813480088401C1149088079
:101AF00010BD124B1870124B1970124B1A707047B0
:101B0000C206D20E01219140420992000E4BD2181A
:101B10001160704782680A438260704782688A4316
:101B200082607047000200501400006800000050FE
:101B3000400001400604002000400050080400203E
:101B4000090400200A04002000E100E010B504466A
:101B5000012C05D13D490020085E3D49088074E014
:101B60003A490020085E3B49088008460088384909
:101B70000988401A00B238490880384909687D222E
:101B8000D200514308460721C90100F07DF83449CD
:101B90000880314A0021515E314A1288514308467B
:101BA0007D21C90000F07AF800B22B49088000209E
:101BB000085E002801DB014600E0414209B2294AE3
:101BC000118011460020085EFF21AA3188423CDACC
:101BD00010460021415EAF2937DD234800882349A4
:101BE000884232DB1C480021415E002908DB17498E
:101BF0000020085E1E49088001201E49087007E089
:101C000012490020085E1C49088001201B49087009
:101C100018480078002818D018480078002814D0F8
:101C200000201449087015490870114A115E124AC3
:101C3000135EC818C10F0918491009B2104A118063
:101C400011460020085E0F49088010BDE603002001
:101C50000C0400200E040020100400209C0300202F
:101C60001C04002012040020B4030020881300008C
:101C7000140400201A040020160400201B04002075
:101C800018040020AC030020002203098B422CD34F
:101C9000030A8B4211D300239C464EE003460B43BC
:101CA0003CD4002243088B4231D303098B421CD31E
:101CB000030A8B4201D394463FE0C3098B4201D310
:101CC000CB01C01A524183098B4201D38B01C01A48
:101CD000524143098B4201D34B01C01A52410309BF
:101CE0008B4201D30B01C01A5241C3088B4201D36E
:101CF000CB00C01A524183088B4201D38B00C01A1B
:101D0000524143088B4201D34B00C01A5241411A41
:101D100000D201465241104670475DE0CA0F00D024
:101D20004942031000D34042534000229C4603091D
:101D30008B422DD3030A8B4212D3FC22890112BAA3
:101D4000030A8B420CD3890192118B4208D389017B
:101D500092118B4204D389013AD0921100E0890993
:101D6000C3098B4201D3CB01C01A524183098B4274
:101D700001D38B01C01A524143098B4201D34B015D
:101D8000C01A524103098B4201D30B01C01A5241C0
:101D9000C3088B4201D3CB00C01A524183088B4247
:101DA00001D38B00C01A5241D9D243088B4201D3D0
:101DB0004B00C01A5241411A00D2014663465241BB
:101DC0005B10104601D34042002B00D549427047BA
:101DD00063465B1000D3404201B50020C046C046B8
:101DE00002BD7047704770470246C80FC007814365
:101DF0004B0030B54B405B009B0D20D01923DB0618
:101E0000C91801231B05994220DB0324A4070425DC
:101E10001346AB400BD3002B04D1EB0613409B00C1
:101E2000E34204D401246407002312195941FF231B
:101E30001B0599420BD2C9000143500F09E0CB02A8
:101E400004D501430803024305D0054830BDFF21F6
:101E5000C905084330BD084607210905884330BD40
:101E60000000C07FF0B5F94D0C091E092C402E4032
:101E70002F468BB0A7437DD0B543FCD0002E7AD03F
:101E8000002CFCD00D465D40ED0F2543AC1BFF251B
:101E9000AD0464190894C502440DC9022143500DD4
:101EA000DC0204430120C00701430443D202019134
:101EB000200C110C00958C46010423468B430A919B
:101EC00061460904E24D8A430991010A7D4449199A
:101ED0008039097805464D4301266D18F605751BB6
:101EE0006943C90C640B891C4C436418B5012C1B55
:101EF000250C2E04B4434C434D43210C6918890929
:101F00000591009DE90701D00121C90704912C46E4
:101F100001996708CD072F434C08059DE10B4D4300
:101F20002D0C29466646754302950D4645432E46BF
:101F3000029D7D1BB44100950D465D4301942C0C20
:101F40002F040D465543AE462D0C3D430295039498
:101F50007546049C2D04641B049406D2029C039DC8
:101F6000641C002675410395029401AC70CC009F5F
:101F70007D1B01E03EE162E1B44109040095079157
:101F800001940599A4086143090C0C464443650B70
:101F9000E7040C4666467443A646640B3C4303952F
:101FA00002947446049DE4042C1B049406D2029C03
:101FB000039D641C002675410395029401AC70CC0E
:101FC000009F7D1BB44101940C465C430095650F56
:101FD000E7000C465443A646640F3C430395029425
:101FE0007446049DE4002C1B049406D2029C039DBD
:101FF000641C002675410395029401AC70CC009FCF
:102000007D1BB441AE09AF06049DC900AD092F4345
:10201000049DA406AD060495079D344369180791F5
:10202000059DE10B4D432D0C2946664675430295EF
:102030000D4645432E46029D7D1BB44100950D463D
:102040005D4301942C0C2F040D465543AE462D0CD8
:102050003D43029503947546049C2D04641B04942F
:1020600006D2029C039D641C0026754103950294D0
:1020700001AC70CC009F7D1BB44101948C0506948B
:10208000079C890A611800950791019C0599A4088D
:102090006143090C0D464543680BEF040D46644649
:1020A00065436C0B3C43049FED047D1BAC4602D2A0
:1020B0000025641C6841009E019D371B8541084630
:1020C000584301950C46460FC5005443600F284302
:1020D0006546E4002C1B02D20025401C6E41019D88
:1020E0003F1AB5412846BD09800628438446A00909
:1020F000BF064E020699A40676180743079D0020E6
:1021000068410A99079019430020099B0090604696
:10211000FF1913434041E20F64003A43A4460446CA
:10212000D71A8C41A04203D90120009020463A469C
:10213000C70F941840416246D20F224364466400A0
:102140000494009CBE466400D71AA4460446029735
:102150008C417746002F01D1A04204D96046401C33
:102160008446029A2046C40FA64694184041049A19
:102170000546D20F224364466400D31A8D4171464E
:10218000002901D1A84202D928461A46641C1043EE
:102190000122002800D0164361020020079B891904
:1021A00004465C410223002C02DB491813466441BB
:1021B000089DCE0A2D145D194B056705E10A2C0513
:1021C0000D1908993E43C9076940002B08D0934078
:1021D00006D30022761C5141002B01D176087600EF
:1021E0001C4A002D43DB154241D0AA433FD0304664
:1021F0000BB0F0BD06180D464D41174C7642AC4170
:102200001AD395181C465C41134A6D42A24113D360
:10221000012252054C00D4420AD15C00D4420BD0BA
:102220004B4002D592021143E2E749004908DFE73B
:102230005940C90FC90718E000200849D8E70548E8
:1022400001420DD10342F7D0F2E700000000FF0782
:10225000A41C00000000F07F0000E0FF0000F87FF9
:10226000114859400143C01241400020C0E70123FA
:10227000089A9B069A4205DC032252078918C90F67
:10228000C907B5E7052252078918074A1143D21238
:102290005140ADE770B515461C4602460B46284630
:1022A0002146FFF7DFFD70BDFFFFFF7F30B503461E
:1022B000CA02400D1043164D164C0A1502D0204399
:1022C000002A06DBAA1A002A12DDD040FF2A0BDC06
:1022D00030BD5205520D01D140004008AA1A07D462
:1022E000D0404042FF2A01DD002030BD0028FCDD47
:1022F0004A00002B01D0012000E00020101801222C
:102300005205D042F0D8C817C043604030BD00002D
:102310001E040000000000801F22030C02D10F22C7
:10232000000402D0030E03D004E0002001467047F1
:102330000002083A030F01D10001121F830F01D1DF
:102340008000921E002801DB4000521E1205511829
:102350004205C012411810467047C10FC90700D08E
:102360004042012292071143D6E701218907D3E7B2
:10237000F0B58B4C0F09254689B0BD437BD01D09B4
:102380002646AE43FAD00E465E402740F60F3E4347
:10239000254071D024012142FBD0FF24AD19A404B3
:1023A0002D1B039501252D05DB02DB0AC9022B43FA
:1023B000C90A29431E010901040F130F0501214316
:1023C0001701880B820391432D098C46A90B1E43EC
:1023D0008A039543B30B9A0396433F09BA0B9403C0
:1023E000A74302962E467E430497B6464E19D71948
:1023F0000C460196544305977E43371B7646BF1B18
:102400003601B646BE0B361900967646BC0437191F
:10241000009C01D3641C00946400002F01D00126AD
:102420003443029E049F754366467E4304967600BD
:1024300034196E0034190094029C019E1C196643E5
:10244000751BAE46069465464519059C05956C437B
:10245000594375460891691A0191049E01465143FA
:10246000A41B0491611A009C0791E10605D0610943
:102470000122114302E072E06EE06109089D00272D
:102480002C0A2D066918049D7C412A0A2D0669181C
:10249000019D6241AC0DAD026D185441079A910D3A
:1024A000920255196141029A644658435443069B6F
:1024B000059A5A43121A131B9A0E9B015B187A4114
:1024C000010B0005C3185141220A200644195A4144
:1024D0009A4200D2491C01204002814203D31523B5
:1024E0000226F64302E014230326F6432020C51AF1
:1024F000A9401746AF40DA400A4320460399D84026
:102500000914731819055118039A3843D20751401A
:10251000AC4009D00122944006D30022401C514116
:10252000002C01D1400840001E4A934212D30122E0
:1025300003989206904207DB0520400709181A48C5
:102540000143C012414004E0032040070818C10FB6
:10255000C907002009B0F0BD0020F107FAE705180F
:102560000C464C4111486D42A04115D394181A46AF
:102570005A410E48644290410ED301204A00400562
:10258000824209D35A00824206D35940C90F084AF1
:10259000C90700201143DDE700200649DAE7000003
:1025A0000000FF07FE070000FFFFFF7F0000E0FFC5
:1025B0000000F07F0000F87F0121C90501234118C8
:1025C00042001B06D3185B0E0AD0C1100722D206A8
:1025D000891840075242D14201D5520089187047EC
:1025E000090208D50146002A03D0C10FC9070020FF
:1025F000704710467047420202D0002002497047DF
:10260000072109050143F4E70000F87FF0B5FF2535
:102610002D04C609C209FF2704462E400137CB0905
:102620003E4348402A402B400746002A6BD0002BEF
:1026300069D0AA4267D0AB4265D0002800DA3246A2
:102640000125ED0529432C4309022002090AD21A6B
:102650004B0C7F24E31A434C000A7C44E35C7D244A
:102660002404121914145B00A218884201D3521CCE
:1026700000E0400049420C465C4324115C43DB010E
:102680006415E318040A5C43C502200D0C4644435C
:102690006419250A5D432303EC0C0D4665430003D2
:1026A0000019EB184C42A34201D35B18401CD4051F
:1026B0002018002B07D05B00C91804D3401C002948
:1026C00001D1400840003F2189048A4209D3002AF1
:1026D00008DC1106090F04D0032149074018C00F78
:1026E000C007F0BD01224100120689187F22520660
:1026F0009142F6D205214907C84201D59010F0BD9C
:10270000FF20C005F0BD002F00DA32461648AA426D
:1027100007D2AB4205D21902090E17D0F80FC00735
:10272000F0BDFF2563002D06AB42F9D84900A94250
:10273000F6D8AB4201D1A942F2D0A94201D1002181
:1027400001E061004908D0050843F0BD1102090EFF
:10275000FBD0FF200243D005F0BD0A4601461046DB
:1027600054E70000961500000000C07F10B5014638
:102770009E240002CA15A307002A02D01843002A8B
:1027800004DBA21A002A0CDDD04010BD1206120E86
:1027900001D140004008A21A03D4D0404042002892
:1027A000F3DDFF2248001206904201D9002010BD3F
:1027B000C817C043584010BD0102C21504D0012300
:1027C000DB071943002A0ADB9E239A1A02D4084623
:1027D000D0407047FF2241001206914201D90020EB
:1027E0007047C017C04370471F22030C02D10F224D
:1027F00000041CD0030E01D10002083A030F01D1DE
:102800000001121F830F01D18000921E002801DBFE
:102810004000521ED2055118021251181922904040
:1028200004D3491C002801D14908490008467047D3
:10283000C10FC90700D04042012292071143D3E7DC
:1028400001218907D0E710B500F03AF8006810BD03
:1028500010B5044600F034F8046010BD10B5FF2335
:102860001B0644009C421DD84C009C421AD80346CB
:10287000124A0B4307D4401A02D3EFF3008010BD75
:10288000EFF3008010BD081A06D2EFF3008001219B
:102890009043C907084302E0EFF30080904380F3C0
:1028A000008810BD0D231B041A4204D011460020DD
:1028B00000F00AF810BD00F0FBF910BD0000009018
:1028C000004870472C120020CA0211D54A03520F4B
:1028D000002A04D0C803C043012188407047054A3C
:1028E000EFF3008108010009104380F3008870476E
:1028F0000020704700000030F0B50C46871A9C415C
:102900000D46861A9D4103D2C01BA141D2196341D5
:102910000D0D1F0DC94EEC1BAE435CD07F057F0D26
:102920000026002F51D02D05AC46A943DD0201231E
:10293000ED0A1B051D4320231B1B24D41746E7402B
:10294000381871412F46E740CC199D402818314670
:1029500061410C0D27D161449A4013D50023401CDE
:10296000594152000ED14008400001224B0052054F
:10297000D34207D305204007C14201D5B04900E04A
:10298000B0493046F0BD6B00002A00D001229A18F1
:102990001F23203C1B1B01D5002302E0E540281823
:1029A00071410C0DD7D0012424050919C407CD07A6
:1029B00040084908E40F28436144002CD5D0002486
:1029C000401C61419A40D0D1CDE76A05520DD9D162
:1029D000C90FC907D5E79C4D4E00002801D001243E
:1029E00000E0002434195F00002A01D0012600E035
:1029F0000026BE19954FAC420CD8AE420AD8B4425C
:102A000006D001256D05EC42BCD010461946F0BD3C
:102A10009942FCD000203946F0BDF0B51FB40C46F9
:102A20000F46811A9F412546861A9D4106D20125EF
:102A3000ED076F40401ABC4152187B41210D1E0D1D
:102A40008D1BAC467D4D8D437ED075056D0D7CD0C4
:102A50000D05AE46AC431B031B0B794D52429D4105
:102A6000202366469B1B14D31746F74038180026D0
:102A70000090744160462F460741E41900989D403C
:102A80002818664116D4714671189A4025D501233D
:102A900020E093182A466A415200002B00D0521CB5
:102AA0001E23203E9B1B002B61DD3541EE172818AD
:102AB0006641E8D5001876415B1C9A4000D3401C63
:102AC0004B05F3181524E34010D3002B52D0714668
:102AD0007118D30FC01802D3491C05B0F0BD0123F3
:102AE000DB079A42F9D140084000F6E7012252057F
:102AF000B21801D1002853D00123CC0ADB0299433C
:102B0000891E002A08D1020C03D0020C00041039DF
:102B100002E00246002020390023550B05D11202A5
:102B20000823550B01D152010D23550C01D112017F
:102B30001B1DD50C01D192009B1C150D01D152001B
:102B40005B1C2025EE1A01E02CE022E00546F54052
:102B500015439840CA1AE10769181305C918002AD5
:102B6000BBDA032040070818C10FC9070FE0714600
:102B70006118B2E7F10740080843711071444A0038
:102B80000CD001235B059A42A7D2C90FC9070020C8
:102B9000A3E74905490D26D1002001E00028F4D122
:102BA00000219AE7284D6600002801D0012100E0AD
:102BB000002171185F00002A01D0012600E00026E4
:102BC000BE19224FA94210D8AE420ED8B14208D049
:102BD00001256D05E94206D01946A802414010467C
:102BE0007BE79C4201D0214677E70020394674E715
:102BF00010B50C465C4005D50124E4076340FFF79F
:102C00000CFF10BDFFF778FE10BD30B40C465C40E1
:102C100004D50124E407634030BC6DE630BCFCE61B
:102C200070B50124E40761400D465D4002D4FFF712
:102C300063FE70BD6340FFF7F0FE70BDFF0700004C
:102C40000000F0FF0000F07F0000E0FF0000F87FD0
:102C500070B505464800440D124B0020002C0AD0E8
:102C6000634008D09A4206DA6642B24203DD12059A
:102C70004019514170BD002C08D0002B09D0C90F5C
:102C8000C907002AF6DB084A114370BDC90FC907FE
:102C900070BD28460A03104302D00020034970BDCE
:102CA000284670BDFF0700000000F07F0000F87F9D
:102CB00010B5024800F02DF810BD00000000C07FE4
:102CC000004870472C1200207546FFF7F9FFAE460A
:102CD000050069465346C008C000854618B020B5B7
:102CE00000F072F860BC00274908B6460026C0C54F
:102CF000C0C5C0C5C0C5C0C5C0C5C0C5C0C5403DB4
:102D000049008D4670470446C046C0462046FDF740
:102D1000C4FA10B50C461107090F092904D00A2975
:102D20000AD008290CD104E011460820FFF7CCFD99
:102D300006E0510606D501E0510601D50120C00785
:102D4000214610BDD10607D501010909CC08490764
:102D5000000E0006044309E0410F20024907000A63
:102D60000143200E00061D22D14101430846E7E73A
:102D700001491820ABBEFEE72600020070470000A4
:102D800005B50E48002200F001F805BDABBE01E01C
:102D900000207047002A00D010600120704706987C
:102DA0000188074A914207D1023006900798012115
:102DB0008907884307907047FEE700000001000084
:102DC000ABBE00000348004703480449044A054BD2
:102DD00070470000050200009012002058030020F8
:102DE0009013002058000020F8B53848009038486B
:102DF000C16B01221143C1630025354CE06B35499D
:102E00000840E905C90B0843E0630026206BC007B2
:102E1000C00F02D000F062F8761C082EF6D300270F
:102E20003E462B48006BC007C00FFAD000F056F8A2
:102E3000002000F05DF80446012000F059F8241845
:102E4000022000F055F82418032000F051F824184F
:102E5000042000F04DF82418052000F049F824184B
:102E6000062000F045F82418072000F041F820184B
:102E7000C010761C3F18B6B2082ED2D3F81000B29C
:102E800015490028088014DC13480022825E00994E
:102E90005242914214DA2902FF390139CA030C491E
:102EA000D20BCB6B0B4C23401A43CA6300990180B1
:102EB00006E06D1CADB20090E81FFF38FA389CD1D7
:102EC0000348C16B49084900C163F8BDFF07000012
:102ED00000000E40FF00FEFF1E0400200348016BAF
:102EE000C908C900491C01637047000000000E407A
:102EF00002498000085800B27047000000000E40F0
:102F0000054901208A68000702438A600349C860B6
:102F10000020C86070470000000200500000005010
:102F200002498A6882438A607047000000020050AC
:102F300002498A6802438A6070470000000200501C
:102F400010B5034840694003400F00F047F810BD3A
:102F50000002005010B50C4A10694007400F10D015
:102F6000022809D0042809D0084891690907090FE7
:102F7000491CFEF789FE10BD0548F6E700F00AF887
:102F8000F3E77D200002F0E700020050006CDC0255
:102F9000808D5B000448006A0449C006800F4843E6
:102FA000034940187047000000020050808D5B000C
:102FB00080C3C90110B5074840690007800F04D0DD
:102FC000022805D0FFF7C6FF10BDFFF7E3FF10BDD5
:102FD000014810BD00020050006CDC02014610B533
:102FE0000020012906D0032903D0042905D0FFF7CA
:102FF000B1FF10BD7D20000210BD014810BD0000D2
:10300000006CDC0270B5134B984201D1831402E0CE
:10301000520801235B03104CA5681D43A5600F4CAB
:10302000E3600023E36001231B0419430160426055
:1030300004460B48844205D1FFF78CFF6168491CA8
:10304000490003E0FFF786FF6168491CFEF71CFE9C
:1030500070BD00000000034000020050000000505E
:10306000004003400249C8600020C860704700006B
:103070000000005003485921016016210160882199
:10308000016070470001005010B51020FFF7EAFF03
:103090001020FFF745FF10BD70B505460C46102007
:1030A000FFF746FF1020FFF7DDFF044A5068000CD1
:1030B000000420435060156070BD000040000140D6
:1030C00070B506460025FFF73BFF7D21C900FEF7DE
:1030D000DBFD81B20920C006FFF7DEFF0548C168AD
:1030E0008CB2AC4201D2761E01D02546F7E7FFF73D
:1030F000CBFF70BD40000140F0B4040C8BB22646FB
:1031000082B25E430D0C1046370C584336048019CA
:103110000021794116466E43370C360480197941F7
:1031200026466E438919F0BC704730B47446641E5D
:103130002578641CAB4204D3635D5B00E31830BCAC
:1031400018471D46F8E700004900CA020243100074
:1031500000D004204A0D01D001221043044A490D39
:10316000914201D102210843012800D10520704776
:10317000FF070000F7B596B014460021A160D160AA
:10318000179909914D00CD496D088D4205DC1799BD
:1031900061602060002019B0F0BDC949C94E8D4260
:1031A00038DAD32709997F050029C74A179933468A
:1031B00017DDFFF72AFDB54206D0C44AC44BFFF71E
:1031C00024FD6160206009E03A46C14BFFF71DFD18
:1031D000C04AC14BFFF719FD61602060012019B0A2
:1031E000F0BDFFF705FDB54206D0B84AB84BFFF772
:1031F000FFFC6160206009E03A46B54BFFF7F8FC40
:10320000B44AB54BFFF7F4FC616020600020C04376
:1032100019B0F0BDB1498D42179977DC49004908D2
:103220000746AF4AAF4B0491FFF7A2F80022AE4B1E
:10323000FFF7DEFCFFF73AF80A90FFF78EF8A24A94
:10324000334603910290FFF793F83A46049BFFF749
:10325000E7FC06460F469D4A9D4B03990298FFF7EF
:1032600087F82A0D01250C9232463B46FFF7D8FC21
:1032700061602060032D39D04800410D0C98401A40
:10328000690169181139814230DA98492801794475
:1032900008960D90081804974368026803990298ED
:1032A000FFF766F802460B460791069004990898C6
:1032B000FFF7ABFC06460F46049B089AFFF7B0FCED
:1032C000079B069AFFF7A1FC059189490490794470
:1032D0000D984018C368826803990298FFF748F870
:1032E000059B049AFFF791FC6D1CBDE70998002827
:1032F00009DA01226068D207504060600A9819B06C
:103300004042F0BD02E00A9819B0F0BD0903012265
:10331000090B12050E9089181798109140007549F5
:10332000400D40184111C006C00E0D911390202190
:10333000081A14900020069005250790139800287D
:103340000D980CD0401982006B4878448758139927
:103350008F40101841681498C1400F4304E0401991
:10336000810066487844475810993846FFF7C4FEF4
:1033700006460A9138460E99FFF7BEFE8A190A9B47
:103380008A4201D2012100E00021C9188C46AF0019
:10339000694679188B684E68C318834201D20120B0
:1033A00000E0002096193618002802D0964202D973
:1033B00003E0964201D2012000E00020624612188C
:1033C0004E6068468B60C25128466D1E0028B5DCF1
:1033D0000121029849074018800F1390029805991F
:1033E0008000039E049D0B91FEF7B7FF0746304611
:1033F0000891FEF7BAFF1D22D243FFF729FC109077
:103400000F912846FEF7B1FF3D22D243FFF720FC83
:103410000E900D910B98FEF7A8FF5D22D243FFF7A7
:1034200017FC0B910C900D9B0E9AFFF7E1FB0F9B85
:10343000109AFFF7DDFB3A46089BFFF7D9FB002502
:103440000E463A462846089BFFF7DFFB0F9B109A73
:10345000FFF7DBFB0D9B0E9AFFF7D7FB0B9B0C9A3C
:10346000FFF7DEFB264A274BFEF782FF07460D914A
:10347000254A264B31462846FEF77AFF3A460D9BF1
:10348000FFF7B6FB0F4615220C9092061D4B3146F6
:103490002846FEF76DFF3B460C9AFFF7A9FB179AEB
:1034A000002A05DA139A524213920122D2075140A0
:1034B00061602060139819B0F0BD0000FB21E93F66
:1034C0007CD90240FB21F93F000040543163621A6D
:1034D00061B4D03D7370032E8A19A33BFB2139419F
:1034E00083C8C96D305FE43F0000E03FD6090000AB
:1034F000960900000BFCFFFF4A090000300900009C
:10350000182D4454FB21F93D3326A611460B113CDE
:10351000F0B51FB44E00F9207608800584B00F4640
:10352000864204DA0498FEF7C1FE002838D0049AD7
:103530003B4610461946FEF71BFF044602462C4840
:103540000D460B460621784400F05CF822462B46D7
:10355000FEF70EFF019100903946079B069A0498EA
:10356000FEF706FF0746029120462946019B009A76
:10357000FEF7FEFE3A46029BFFF747FB0746002296
:103580000091D24320462946FFF762FB194A964232
:103590000ADA3A46009BFFF738FB0022164B23E07D
:1035A0000020154909B0F0BD144A964202DD0024FE
:1035B000134D03E001225205B51A002422462B4682
:1035C000FFF723FB0646019122462B4600200A49BD
:1035D000FFF71BFB0D4604463A463046009B019917
:1035E000FFF713FB22462B46FFF71AFB09B0F0BD8D
:1035F000EE0600003333D33F0000F03F0000E93F08
:103600000000D23FF8B504464F1EC8000838211804
:1036100015461E46086849683A4606239A4310D064
:103620002A463346FEF7A4FE3A46D200083AA318CB
:103630001A687F1E5B68FFF7DBFA06223B4693435E
:10364000EED1022F23D0042F11D0062F2FD12A46DE
:103650003346FEF78DFEE36AA26AFFF7C9FA2A46EF
:103660003346FEF785FE636A226AFFF7C1FA2A46EF
:103670003346FEF77DFEE369A269FFF7B9FA2A46F1
:103680003346FEF775FE63692269FFF7B1FA2A46F1
:103690003346FEF76DFEE368A268FFF7A9FA2A46F3
:1036A0003346FEF765FE63682268FFF7A1FAF8BDAE
:1036B000F0B51FB4054648000C46F92140088905BD
:1036C00086B088420BDA28462146FFF73DFD0428E4
:1036D00001D100F071F8284621460BB0F0BD2A4612
:1036E000234610461946FEF743FE06460F462A4675
:1036F0002346FEF73DFE00902548019132463B46A9
:1037000005217844FFF77EFF02901098039100286E
:1037100029D0204A204B01990098FEF729FE0490F9
:10372000059168460FC8FEF723FE00220191009024
:10373000D24309990898FFF78BFA019B009AFFF78B
:1037400064FA32463B46FEF713FE099B089AFFF7E0
:103750005CFA059B049AFFF758FA2A462346FFF7BE
:103760005FFA0BB0F0BD0B4630463946029AFEF7C1
:10377000FFFD084A084BFFF73BFA019B009AFEF752
:10378000F7FD2A462346FFF733FA0BB0F0BD0000E1
:103790002A060000495555555555C5BF10B501229B
:1037A000FFF756FA10BD002210B513461046114619
:1037B000FEF758FB10BD0000034A10B500201107AA
:1037C000FFF746FA10BD000001FDFFFF00B54A00FB
:1037D000234B520887B09A4203DC00221346009222
:1037E00029E0204B9A4208D1002808D10120FFF798
:1037F0002FF8FFF7D8FF07B000BD9A4203DBFFF7B1
:10380000CDFF07B000BD02AAFFF7B4FC8107890F06
:10381000012000290CD0012911D0022915D002A8BD
:103820000FC8FFF775FE0122D207514007B000BD57
:10383000009002A80FC8FFF73BFF07B000BD02A829
:103840000FC8FFF765FE07B000BD009002A80FC8C3
:10385000FFF72EFF0122D207514007B000BD000044
:10386000FB21E93F0000F07F70B501250400ED0762
:103870004C4020D4441A01D2001B0919C60D4B003C
:10388000F2B2FF2A29D01B0E2CD000020C02D31A50
:103890002C43DC402843051910D2280A02D3401CCF
:1038A0006D0611D0761EF6058019FF2A00DA70BD6C
:1038B000C00DC00570BD694000F0FAF80120054355
:1038C000C541521C761CE8E764089C40C901614070
:1038D0008900E7D10124A043E4E71B0E440200D095
:1038E000034870BD002AFCD1C00FC00770BD00BFE7
:1038F0000000C07F01230200DB050A430DD4DA4239
:1039000003D49A4207D488427047D84214D4D9428B
:1039100012D48842704780427047DA4203D59A42F7
:10392000F9D5814270475B004200DA4204D24A0076
:10393000DA4201D28142704710B5024AFEF78EFF8B
:1039400010BD00BF0900120401230200DB050A4379
:103950000DD4DA4203D49A4207D488427047D84241
:1039600014D4D94212D48842704780427047DA4258
:1039700003D59A42F9D5814270475B004200DA4292
:1039800004D24A00DA4201D28142704710B5024A9D
:10399000FEF764FF10BD00BF0900160470B54200B9
:1039A00064414B005C41120E39D01B0E38D0FF2A07
:1039B0003CD0FF2B3AD040024902400A490A060097
:1039C00045184E43000A090AD2184843ED017F3AD0
:1039D0000104731A4019190C4318990F04D00121DE
:1039E0005B0849075B1A521CD80904D3401CF50335
:1039F00001D19D0607D0FF2A08D2D50506D0E407DD
:103A00002043401970BD0125A843F4E7002A01DCDA
:103A1000E00770BD2402FF202043C00570BD1B0ECF
:103A2000FF2A03D0FF2B01D0E00770BDFF26450021
:103A30003606B54206D84D00B54203D8D218FF2A43
:103A400000D0E7E7004870BD0000C07F01230A00F6
:103A5000DB0502430DD4DA4203D49A4207D48142F3
:103A60007047D94214D4D84212D481427047894257
:103A70007047DA4203D59A42F9D5884270475B0015
:103A80004A00DA4204D24200DA4201D28842704748
:103A90004840414010B5024A4840FEF7DFFE10BDE5
:103AA0000900160470B501250400ED074C4022D42E
:103AB000441A02D26C40001B0919C60D4B00F2B229
:103AC000FF2A4BD01B0E50D000020C02D31A2C43FD
:103AD000DC40A843051B05D5AD0019D36D08761E43
:103AE000521E37D0F605280A01D2801970BD7041E8
:103AF0006D0603D070BD6940FFF7BCFE9C40090213
:103B00006140490001D0401E70BD0124A04370BD3A
:103B10006D081DD001202B0C01D12D0410302B0E6F
:103B200001D12D0208302B0F01D12D01001DAB0F4B
:103B300001D1AD00801CEB0F01D16D00401C6D0068
:103B4000361A121A680AF5054019012A02DB70BDFF
:103B5000002070BDC036300AC00770BD1B0E440285
:103B600001D1FF2B00D1024870BD002AF0D070BDFA
:103B70000000C07F80807F7E7D7C7B7A797877763D
:103B800076757473727171706F6E6E6D6C6C6B6A3A
:103B90006A696868676666656464636362616160D8
:103BA000605F5F5E5E5D5D5C5C5B5B5A5A59595855
:103BB00058575756565555555454535352525251BF
:103BC000515050504F4F4F4E4E4D4D4D4C4C4C4B15
:103BD0004B4B4A4A4A49494948484847474747465C
:103BE0004646454545444444444343434342424298
:103BF000424141418182838485868788898B8C8D6F
:103C00008E8F919293959697999A9C9D9FA0A2A32F
:103C1000A5A7A8AAACAEB0B2B3B5B7B9BCBEC0C276
:103C2000C5C7C9CCCED1D4D7D9DCDFE2E6E9ECF008
:103C3000F3F7FAFE000000004C5555555555A53FC9
:103C40007751C1166CC156BF9015CB19A001FA3E31
:103C5000AD529C804F7E92BEC4B1B4BD9EEE213E5B
:103C6000D43888BEE9FAA8BD00004054FB21F93FD2
:103C70003163621A61B4D03D0000601A61B4D03D76
:103C80007370032E8A19A33B0000002E8A19A33BF0
:103C9000C14920259A837B39000000000000000004
:103CA0006E83F9A22915444ED15727FCC0DD34F5A7
:103CB000999562DB4190433CAB6351FE61C5BBDE2D
:103CC0003A6E24B7E0D24D42EA2E49061C92D10941
:103CD0001CEB1DFE3EA729B1F53582E88444BB2EBE
:103CE00026709CE9417E5FB439D69139F43953830B
:103CF0008B5F849C3B28F9BDFF97F81F0F9805DE6A
:103D00008B112FEF1F6D0A5ACF7E366DB709CB2767
:103D1000663F464F2DEA5F9EC7BA27757BF1E5EBFC
:103D2000F739073DEA92528AB15FFB6B085D8D1F40
:103D3000A6F810111111813FD561C119A0012ABF48
:103D40007DFEB157E31DC73EEB9C2B8AE6E55ABECC
:103D50007CD5CF5A3AD9E53D883D000000000020CF
:103D60005400000048020000DC3D00005803002021
:103D7000D400000048020000B03E00002C040020E7
:103D8000640F000064020000C52D00009F2D00009C
:103D9000F5000000F5000000F5000000F50000004F
:103DA000F5000000F5000000CF0A0000F50000005B
:103DB000F500000015040000F500000039040000C3
:103DC0005D030000F5000000F5000000F5000000B4
:103DD000F5000000F5000000F50000000000000004
:103DE00000000000000000000000000001000000D2
:103DF00000000000000000000000000000000000C3
:103E000000000000000000000000000000000000B2
:103E1000000000000000000064000000000000003E
:103E20000000000000000000000000000000000092
:103E30000000000000B07E4600000000000000000E
:103E40000000000000000000000000000000000072
:103E50000000000000000000000000000000000062
:103E60000000000000000000000000000000000052
:103E7000000000006F12833A000000000000000004
:103E80000000000000000000000000000000000032
:103E90000000000000000000000000000000000022
:103EA0000000000000000000000000000000000012
:0400000500002DC505
:00000001FF
