:020000040000FA
:1000000058030020252900007D0000008300000027
:1000100000000000000000000000000000000000E0
:100020000000000000000000000000008900000047
:1000300000000000000000008F000000950000009C
:100040009B000000A1000000A7000000AD00000020
:10005000B3000000B9000000BF000000C5000000B0
:10006000CB000000D1000000D7000000DD00000040
:10007000E3000000E9000000EF0000001E480068F7
:1000800000471E48006800471D48006800471D489B
:10009000006800471C48006800471C48006800478B
:1000A0001B48006800471B48006800471A48006862
:1000B00000471A4800680047194800680047194877
:1000C0000068004718480068004718480068004763
:1000D000174800680047174800680047164800683E
:1000E0000047164800680047154800680047154853
:1000F00000680047FEE70000140000200400002014
:10010000080000200C000020100000201800002033
:100110001C000020200000202400002028000020D7
:100120002C00002030000020340000203800002087
:100130003C00002040000020440000204800002037
:100140004C000020500000200000000000000000D3
:10015000000000000000000000000000000000009F
:10016000000000000000000000000000000000008F
:10017000000000000000000000000000000000007F
:10018000000000000000000000000000000000006F
:10019000000000000000000000000000000000005F
:1001A000000000000000000000000000000000004F
:1001B000000000000000000000000000000000003F
:1001C000000000000000000000000000000000002F
:1001D000000000000000000000000000000000001F
:1001E000000000000000000000000000000000000F
:1001F00000000000000000000000000000000000FF
:100200000502000000F002F800F040F80CA030C831
:10021000083824182D18A246671EAB4654465D4682
:10022000AC4201D100F032F87E460F3E0FCCB6460C
:100230000126334200D0FB1AA246AB46334318478F
:10024000B8350000E8350000103A02D378C878C10C
:10025000FAD8520701D330C830C101D504680C6008
:10026000704700000023002400250026103A01D327
:1002700078C1FBD8520700D330C100D50B6070475E
:100280001FB5C046C0461FBD10B510BD02F0CCFA68
:100290001146FFF7F5FF00F05FF902F0E4FA03B44E
:1002A000FFF7F2FF03BC02F013FB000010B50028BB
:1002B00019DAF34A03071B0F083B9B089B00D2582F
:1002C0008307DC0EFF23A3409A438B071B0E840792
:1002D000E40EA3401A43EA4B0407240F083CA40889
:1002E000A4001A5118E0E74A03231B02D21883081E
:1002F0009B00D2588307DC0EFF23A3409A438B0751
:100300001B0E8407E40EA3401A43DE4B0324240291
:100310001B198408A4001A5110BD10B50121C9038E
:10032000D94800F063F9C01310BD10B5012189034D
:10033000D54800F05BF9801310BDD44800787047B1
:1003400010B50221D04800F055F9002805D000F082
:10035000F2FA0221CC4800F051F901210903CA4800
:1003600000F048F9002817D00120C849087001039F
:10037000C54800F043F901210903C34800F036F9EC
:10038000002809D00020C14908708020C0490870A9
:100390004101BD4800F032F901214903BA4800F09B
:1003A00029F9002816D001214903B74800F01EF9A9
:1003B000B849088008460088002803D0012001F0D1
:1003C0006BF902E0002001F067F901214903AE4812
:1003D00000F014F910BD00BFAF488068400840002D
:1003E000401CAD49886000BF0120AC490870AC4892
:1003F0000068401CAA490860704710B500BFA948B2
:10040000806840084000401CA649886000BF01F099
:10041000D4F810BD10B500210B20FFF747FF0021D5
:100420000820FFF743FF01210220FFF73FFF0321D0
:100430000520FFF73BFF01210720FFF737FF10BD25
:1004400010B502F0C7FB00F0E5F80F2000F0D8F877
:1004500000BF95480068482188439349086000BF61
:1004600000F029FB00BF012000058F498968014386
:100470008D4A916000BF00BF8C49C86000218B4A43
:10048000D16000BF00BF00BF104680698021884353
:100490001146886100BF00BF0020C86100BF00BFD7
:1004A0000021D01DF930016000BF10BD10B51D2026
:1004B0007E49096B01437D4A116300BF7C481146A8
:1004C000496B0143516300BF7A497B4800F08CF8C7
:1004D000032000036C494968020491436A4A516051
:1004E00000BF7649104600F07FF801208003724972
:1004F00089680143704A916000BF20206249896881
:100500008143614A916000BFC00101219269824329
:100510005D4B9A61002906D01A46D26903041A433A
:10052000594BDA6105E0584AD26903049A43564BA5
:10053000DA6100BF012000035349C9690143524AEF
:10054000D16100BF082001218140420992004D4B3A
:10055000D218116000BF10BD00BFFFF771FFFFF799
:10056000A5FF00F03CF900F08FF900F0D6FF00F095
:10057000D8FB00F001FD00F0DBFF00221146402017
:1005800001F05DF84E4B4F4A00217D20C00500F080
:1005900028FF00BF41480078002824D000203F49B0
:1005A000087000F0C8F800F08FF80646214602F007
:1005B00049FF06D100F0A4F80646294602F042FFA2
:1005C0000FD000F081F8044600F09AF8054600F0DC
:1005D000ECF80646FF23F53332462946204600F064
:1005E00000FF00F0B4FDD5E70160704702461069D6
:1005F000084070470246106A084070470162704721
:1006000029498969090909010207120F1143264A7C
:100610009161704710B500BF012024498968082204
:100620009143C20008231A401143204A916000BF41
:1006300000201146896804229143820004231A4055
:1006400011431A4A916000BF00BFFFF7D9FF07208E
:100650001549096981430143134A116100BF032011
:100660001146096A0143116200BF02201146096860
:100670004022914381430C4A116000BF10BD00002D
:100680001CED00E000E100E0404000507E0300204F
:100690008803002080030020000001408203002026
:1006A000780300204000014000020050000000508C
:1006B0001E07000000005410004000500004150008
:1006C000DC050000CDCC4C3F00B5D3480078801E3F
:1006D000030002F0DAFA0C0B0D130F1113131313AE
:1006E00009130713002000BDCC48FCE7CC48FAE70B
:1006F000CC48F8E7CC48F6E7CC48F4E70020F2E72E
:1007000000B5C5480078801E030002F0BEFA0C0B4D
:100710000D120F101212121209120712002000BD42
:10072000C348FCE7C348FAE7C348F8E700BFC3483B
:10073000F5E70020F3E710B5B7480078801E030006
:1007400002F0A3FA0C13192B1F252B2B2B2B0D2B8F
:10075000072B40221146104600F071FF23E0402293
:100760000021084600F06BFF1DE0002240211046EA
:1007700000F065FF17E000224021202000F05FFF1D
:1007800011E000222021402000F059FF0BE006225A
:100790001146402000F053FF05E0002211464020A2
:1007A00000F04DFF00BF00BF10BD10B5A448007899
:1007B00001F0FCFD0446A34901F0DEFC10BD10B5BC
:1007C000FFF7ABFD8401FFF7B0FD40010443E0B249
:1007D00010BD9D48006870478F480078704770B51D
:1007E00002F068F90546994900F0F4FF002807D0A7
:1007F00002F060F90546954900F0ECFF401E00E06C
:10080000002084B222468421914802F0ABF90120F5
:100810008F490968052212049143820411438C4ACE
:10082000116000BF00BF1146896810229143020188
:1008300010231A401143864A916000BF00211046E0
:1008400000F0E7F8824800F0DCF802200121814A3C
:10085000926982437F4B9A61002904D01A46D2697B
:100860000243DA6104E07B4AD2698243794BDA6160
:1008700000BF70BD10B504462146754800F0C9F8A8
:10088000734800F0BEF810BD70B502F013F90546CC
:10089000714900F09FFF002807D002F00BF90546D0
:1008A0006D4900F097FF401E00E0002084B2224610
:1008B00082216A4802F056F901200021C2008B0013
:1008C000D218664B9A6000BF0220194689688908D1
:1008D000890001431A46916000BF0121102012686F
:1008E0005F4B1A404B1E1B021A43C3001A435B4B5B
:1008F0001A6000BF70BD10B504462146574800F08D
:1009000088F8564800F07DF810BD70B504460D46D5
:100910002146524800F07DF8504800F072F800BFC0
:1009200000BF4E480068C007C00F0028F8D100BFC4
:100930004A48006970BD30B589B00024002168467E
:10094000818081823BE000BF00BF41480068C00752
:10095000C00F002805D002213E4800F04EF80028C4
:10096000F2D002213B4800F048F8002827D100BF10
:1009700037480069610001AA505200BF374800693A
:10098000610005AA5052600001A9085C2249087064
:10099000600001A9085A0012294908706100515AE3
:1009A000304A127811430846FFF764FF610001AA3C
:1009B000505AFFF7A0FF082C01DA601CC4B20221D4
:1009C000244800F01AF80028BDD0FFF7F8FE611E99
:1009D000490005AA515A234A127811430843054693
:1009E000FFF748FF611E490001AA505AFFF783FF35
:1009F00000201C49087009B030BD0246106908404B
:100A000070470168012212049143012211430160E1
:100A1000704701627047000089030020713D4A3F22
:100A2000295CAF3FB81EE53F7B143E401F855B400D
:100A3000F6280842EC51AE4185EB594152B80241CB
:100A40008A0300200000C8428C03002000127A00B4
:100A50000040034040400050A086010000000340D9
:100A600007FCFEFF8803002010B59A4A126C302361
:100A70009A430301302423401A43964B1A641A46C2
:100A8000126C920892008B079B0F1A43914B1A64C9
:100A900010BD10B500BF8F48006BC007C00F002805
:100AA00008D0002081008B4A515809B28A48016061
:100AB00000F0F5F810BD70B500240025022087492C
:100AC00049690C22914382000C231A401143834A46
:100AD000516100BF2B2011468969814A11400204EF
:100AE0007F4BDB431A4011437C4A916100BF01F008
:100AF000E1FF044600BF02F00DF806467748806922
:100B00000001000D411C304600F064FE054670BD3A
:100B100070B5044600250AE000BF6E48006BC007B0
:100B2000C00F002803D000F0BAF8681C85B2A542B7
:100B3000F2DB70BD10B500F0BBF805200002FFF736
:100B4000E7FF00BF00F0ABF86248006A022188436B
:100B5000801C604908620220012181404209920004
:100B6000604BD218116000BF00BF10BDFEB501F090
:100B700077FF00BF5748006A40084000401C5549B5
:100B8000086200BF00BF0846C06B03218905084307
:100B90005049C86300BF00210846FFF765FF642085
:100BA00002F03EF803210846FFF75EFF00F089F8E7
:100BB000002110220B460120464CE46B8443044381
:100BC000444DEC632C46E46B0625AC435D000626E1
:100BD00035402C433F4DEC632C46E46B424D2C409A
:100BE0001502414EF64335402C433A4DEC632C46FA
:100BF000E46B1F252D06AC430D061F263606354037
:100C00002C43344DEC6300BF03202946096A0C22B3
:100C1000914382000C231A4011432A46116200BFFF
:100C200001201146096A02039143020303031A409B
:100C300011432A46116200BF00200F210A460B46CD
:100C40000C460D46009101910E0136181702F71956
:100C5000009E3603BE191F04F6192705F6192F0644
:100C6000F719019E3607BE191A4F7E6200BF00F0C9
:100C70001FF801F069FE00BF1C48008840001C49B5
:100C80000988081A00B21A4908800020085E19492C
:100C9000C86000BF00F015F8FFF74CFFFEBD0D481F
:100CA000006B06218843012108430A490863704705
:100CB0000848006A0121C9028843401805490862B2
:100CC00070470448006A0121C9028843014908624B
:100CD0007047000000000E4090030020000200500A
:100CE000FFFF00F000E100E0FF00FEFFFA0300203C
:100CF000FE030020008000508022121A91B24D4A5B
:100D0000916200BF70478022121A91B2494AD161A4
:100D100000BF70478022121A91B2464A116100BF8B
:100D2000704770B504240025032043494969020730
:100D30009143020703071A4011433F4A516100BF24
:100D400000BF3C488068042188433A49886000BF5E
:100D500000BF0846C06F40084000401CC86700BF85
:100D600000BF0846C06F02218843801C3149C86714
:100D700000BF00BF0846C06F04218843001D2D49F5
:100D8000C86700BF00BF0846806810218843294912
:100D9000886000BF00BF084680682021884325493D
:100DA000886000BF601EC1B27F232A46012000F088
:100DB0000AF80020FFF7AEFF0020FFF7A4FF002095
:100DC000FFF79AFF70BD70B500BF1A4CA4680825E4
:100DD000AC43C500082635402C43164DAC6000BF1F
:100DE0002C462468240A2402CDB22C43114D2C60D9
:100DF0002C466468E408E40055076D0F2C430D4D44
:100E00006C602C46E468240C24049DB22C43094DEC
:100E1000EC6000BF2C46646C64086400641C6C6465
:100E200000BF00BF2C46A46864086400641CAC606A
:100E300000BF70BD0000044000020050F0B585B056
:100E400000242EE0204601F036F805460322520722
:100E5000FE4B01F033F80022FD4B0191009000F0B1
:100E6000A7FD0391029000F065FD0746384601F0AA
:100E700059F9054602F04EFA0022F64B0191009016
:100E800001F01CF80391029000F0B6FF00B261007F
:100E9000F14A505260001146085A6100EF4A505220
:100EA000641CFF2CCED905B0F0BDF0B585B0002490
:100EB00028E0204600F0FFFF054603225207E34BDF
:100EC00000F0FCFF0022E64B0191009000F070FD65
:100ED0000391029000F02EFD0746384601F022F9FA
:100EE000054602F017FA0022DE4B0191009000F057
:100EF000E5FF0391029000F07FFF00B26100DA4A43
:100F00005052641C012080028442D2D305B0F0BD4F
:100F1000002806D10021D54A1180D54A1160D54A52
:100F20001170012805D10021D04A11800121D14A38
:100F30001170032805D1D049CC4A11800321CD4A34
:100F40001170022805D1CC49C84A11800221C94A32
:100F50001170704710B50020FFF7DCFE0020FFF78E
:100F6000D2FE0020FFF7C8FE10BD10B5FFF7F2FF5C
:100F70000020FFF7CDFF10BD10B5FFF75FFFFFF7B3
:100F800094FF0020BD4908705520BD490870AA2073
:100F9000BC4908700020BC494969072212029143EC
:100FA000020207231B021A401143B74A516100BFD6
:100FB000B6493C200422B44B9B681343B24CA36057
:100FC00000BF00BFB24BDA600023B14CE36000BF4A
:100FD000B04A5268120C12040243AE4B5A601A46D1
:100FE000116000BF00BF1046006809078843401821
:100FF00011460860052000F015FA00BF052000F03A
:1010000011FA00BFA34800680121890788434018EE
:10101000A049086000BFFFF7A8FF10BD97480078FF
:10102000401C9649087096480078401C9449087006
:1010300094480078401C9349087070478F480078A6
:10104000401E8E4908708E480078401E8C490870FA
:101050008C480078401E8B490870704710B587494E
:10106000097849007D4A515A403188B2FFF752FE53
:10107000834909784900794A515A403188B2FFF7CB
:1010800042FE804909784900744A515A403188B279
:10109000FFF732FE10BD804908607047F1B5009837
:1010A00001F040F8044600227C4B00F081FC06462B
:1010B00000F040FC00907A49009802F0EDF90546F6
:1010C0000121890701F058F8044601F02BF9754910
:1010D00008602320000274490860F8BDF8B5054691
:1010E000002410E061005C4A505E01F057F90746A9
:1010F000294602F0D1F9064601F0EEF800B261008F
:10110000564A5052641CFF2CECD9F8BD594908705E
:10111000704710B50020654908705449088064483C
:101120000068FFF7DBFF63480068FFF7B4FF624821
:101130000068FFF7B3FF0120FFF7EAFE10BD10B50E
:101140000320FFF7E5FE10BD4A480078704770B5F0
:1011500048480078002800D170BD46480078012832
:1011600012D14248008855490988401800B23F49C9
:1011700008800020085E4049884205DB08463B495C
:1011800008800220FFF7C4FE3A480078022807D002
:1011900038480078012803D036480078032853D116
:1011A0003D4801688920C00502F076F906463048BE
:1011B0000168304602F070F9054601F0B3F8404985
:1011C0000860084600888005800D086008460068B1
:1011D00040002549085A3B4908800020085E3A49EA
:1011E00008803A4801682248006802F0E5F8204982
:1011F0000860344A0021515E2A4A12685143344A39
:101200001288284B1B685A438818324900F0ECFAC0
:10121000314908600968154A0023D35E59430846DE
:10122000154900F0E1FA2C490860084600882B496E
:101230000988401A00B22A490880274800682749CF
:101240000860284900204FE0ABE00000FB21194076
:1012500000007040000050400806002008040020F4
:10126000000090400088C340080A0020B00300201E
:10127000AC030020B4030020881300009603002074
:1012800097030020980300200002005032000068FD
:1012900000000050000001409C0300200000594065
:1012A0000000E044A0030020A4030020C6030020A7
:1012B000BC030020B8030020C0030020B2030020BC
:1012C000DC030020E0030020CA030020CC03002040
:1012D000C803002010270000D0030020D403002002
:1012E000D8030020A8030020085E002801DB014687
:1012F00000E04142C82935DD4F4A0021515E0029F6
:1013000001DB0A4600E04A42002A2BDD4A4A00205F
:10131000105E002801DB024600E04242032A21DA87
:1013200046480021415E002905DA43480088401EF6
:1013300000B24149088041480021415E002905DD95
:101340003D480088401C00B23B4908803B4A0021D0
:10135000515E5F2251430846642100F045FA00B215
:101360003649088034480021415E002909DD002407
:10137000045F04E0FFF752FEFFF770FE641E002CCE
:10138000F8D12D480021415E00290ADA0021415E92
:101390004C4204E0FFF752FEFFF760FE641E002C93
:1013A000F8D127480078032819D126480088264913
:1013B0000988401A00B22349088008460021415E8E
:1013C00000290CDC00201F490880204800780028F4
:1013D00002D0FFF79EFE02E00020FFF799FD00BF5C
:1013E000BAE6F8B505460E4617461C46184805608D
:1013F00018480760184806601848048001201349FF
:1014000008702146164800F0EFF900B20E49088036
:101410000B480078002802D1FFF77BFE01E0FFF7C0
:101420008EFEF8BDC206D20E012191404209920003
:101430000C4BD21811607047D8030020A80300207D
:10144000B4030020B0030020B2030020C603002034
:10145000B8030020BC030020C0030020C403002008
:101460008813000000E100E010B5FFF70DFA10BD91
:10147000B0B504462004070E2002C01987B22046EA
:10148000FFF739FA3004050E3002401985B22846BC
:10149000B0BD70B50025002401242003044300BF23
:1014A000214C00BF0CE000BF00BF20480068C0070F
:1014B000C00F0028F8D11C4C2046FFF7D9FF6D1C47
:1014C0007D20C0008542EEDB70BD70B50024012494
:1014D000E4032046FFF7CCFF054600BF2046FFF798
:1014E000C7FF0546284670BD70B504460025012C8F
:1014F00002D109252D0306E0022C02D11325ED02AD
:1015000001E0002070BD2846FFF7B2FF06462846DE
:10151000FFF7AEFF06463046F4E710B5FFF7A4FF2D
:10152000FFF7B7FF10BD0000CA170000000003401E
:1015300010B504204E494969072212049143020460
:1015400007231B041A401143494A516100BF49490E
:10155000AF2080001022464B9B681343444CA3608D
:1015600000BF00BF444BDA600023434CE36000BF80
:10157000424A5268120C12040243404B5A601A4607
:10158000116000BF00BF1046006801214907884371
:10159000401811460860072000F058F800BF0720E7
:1015A00000F054F800BF35480068012189078843DE
:1015B00040183249086000BF10BD10B5304800889F
:1015C000402802DB00202E4908802D480088002892
:1015D0000ED1012149022B4800F046F80121890271
:1015E000284800F041F80121C902264800F03CF8E3
:1015F0002348008824490978884204DB01214902F4
:10160000204800F02DF81E480088204909788842BB
:1016100004DB012189021B4800F022F818480088E9
:101620001B490978884204DB0121C902154800F0F2
:1016300017F813480088401C1149088010BD124B50
:101640001870124B1970124B1A707047C206D20EE6
:1016500001219140420992000E4BD218116070474F
:1016600082680A438260704782688A43826070475A
:1016700000020050140000680000005040000140CB
:10168000E203002000400050E4030020E5030020B6
:10169000E603002000E100E010B50446012C05D16E
:1016A0003D490020085E3D49088074E03A49002029
:1016B000085E3B4908800846008838490988401A76
:1016C00000B238490880384909687D22D200514368
:1016D00008460721C90100F07DF834490880314AE5
:1016E0000021515E314A1288514308467D21C900CC
:1016F00000F07AF800B22B4908800020085E00282C
:1017000001DB014600E0414209B2294A118011463D
:101710000020085EFF21AA3188423CDA10460021F1
:10172000415EAF2937DD234800882349884232DBF8
:101730001C480021415E002908DB17490020085E93
:101740001E49088001201E49087007E01249002048
:10175000085E1C49088001201B4908701848007861
:10176000002818D018480078002814D00020144908
:10177000087015490870114A115E124A135EC818A4
:10178000C10F0918491009B2104A118011460020F2
:10179000085E0F49088010BDCA030020E80300203E
:1017A000EA030020EC030020A0030020F80300203F
:1017B000EE030020B003002088130000F003002097
:1017C000F6030020F2030020F7030020F4030020BA
:1017D000A8030020002203098B422CD3030A8B426A
:1017E00011D300239C464EE003460B433CD4002219
:1017F00043088B4231D303098B421CD3030A8B422B
:1018000001D394463FE0C3098B4201D3CB01C01AF8
:10181000524183098B4201D38B01C01A52414309C3
:101820008B4201D34B01C01A524103098B4201D3B1
:101830000B01C01A5241C3088B4201D3CB00C01A1E
:10184000524183088B4201D38B00C01A5241430896
:101850008B4201D34B00C01A5241411A00D20146BB
:101860005241104670475DE0CA0F00D04942031054
:1018700000D34042534000229C4603098B422DD3A3
:10188000030A8B4212D3FC22890112BA030A8B424B
:101890000CD3890192118B4208D3890192118B429A
:1018A00004D389013AD0921100E08909C3098B421F
:1018B00001D3CB01C01A524183098B4201D38B0162
:1018C000C01A524143098B4201D34B01C01A524105
:1018D00003098B4201D30B01C01A5241C3088B424A
:1018E00001D3CB00C01A524183088B4201D38B0035
:1018F000C01A5241D9D243088B4201D34B00C01ABF
:101900005241411A00D20146634652415B101046D3
:1019100001D34042002B00D54942704763465B101B
:1019200000D3404201B50020C046C04602BD70470A
:10193000704770470246C80FC00781434B0030B55F
:101940004B405B009B0D20D01923DB06C9180123F7
:101950001B05994220DB0324A40704251346AB4052
:101960000BD3002B04D1EB0613409B00E34204D4BD
:1019700001246407002312195941FF231B059942D2
:101980000BD2C9000143500F09E0CB0204D501433B
:101990000803024305D0054830BDFF21C9050843AF
:1019A00030BD084607210905884330BD0000C07FCF
:1019B000F0B51FB4F84F0E091D09BC463E403D402E
:1019C0000C46B7435C408CB0002F7DD06746AF43D8
:1019D000FBD0002D79D0002EFCD0E20F3243521BF9
:1019E000FF24A40412190892420DCD02C7020E98DA
:1019F0001543420DD9021143C2026003054301435E
:101A0000080C0195150CAC4605040B46AB430A9532
:101A100065462D04AA430995E04D040A7D446419E6
:101A2000803C257806466E4301247619E405A61B02
:101A30007543ED0C490BAD1C69434919A401611AAA
:101A40000E0CB6463604B143694376466E43090C24
:101A5000711889090591F90700D0A1000491019935
:101A60007F08CC0727434C08059DE10B4D432D0C07
:101A700029466646754302950D4645432E46029D0E
:101A80007D1BB44100950D465D4301942C0C2F0441
:101A90000D465543AE462D0C3D43029503947546C5
:101AA000049C2D04641B049406D2029C039D641CB8
:101AB000002675410395029401AC70CC009F7D1BFC
:101AC000B4410904009501E03AE15EE10791019417
:101AD0000599A4086143090C0C464443650BE704CF
:101AE00064464C43A646640B3C43039502947446FB
:101AF000049DE4042C1B049406D2029C039D641CE8
:101B0000002675410395029401AC70CC009F7D1BAB
:101B1000B44101940C465C430095650FE7000C4608
:101B20005443A646640F3C43039502947446049DB7
:101B3000E4002C1B049406D2029C039D641C002626
:101B400075410395029401AC70CC009F7D1BB4419C
:101B5000AE09AF06049DC900AD092F43049DA4063C
:101B6000AD060495079D344369180791059DE10B67
:101B70004D432D0C29466646754302950D46454357
:101B80002E46029D7D1BB44100950D465D43019498
:101B90002C0C2F040D465543AE462D0C3D430295AB
:101BA00003947546049C2D04641B049406D2029C85
:101BB000039D641C002675410395029401AC70CC12
:101BC000009F7D1BB44101948C050694079C890AF3
:101BD000611800950791019C0599A4086143090CBF
:101BE0000D464543680BEF040D46644665436C0B98
:101BF0003C43049FED047D1BAC4602D20025641CCF
:101C00006841009E019D371B854108465843019558
:101C10000C46460FC5005443600F28436546E40058
:101C20002C1B02D20025401C6E41019D3F1AB5417C
:101C30002846BD09800628438446A009BF064E02F7
:101C40000699A40676180743079D002068410A9963
:101C5000079019430020099B00906046FF19134329
:101C60004041E20F64003A43A4460446D71A8C412F
:101C7000A04203D90120009020463A46C70F94188D
:101C800040416246D20F2243644664000494009CA3
:101C9000BE466400D71AA446044602978C41774694
:101CA000002F01D1A04204D96046401C8446029A0C
:101CB0002046C40FA64694184041049A0546D20F08
:101CC000224364466400D31A8D417146002901D134
:101CD000A84202D928461A46641C10430122002853
:101CE00000D0164361020020079B044689195C411D
:101CF0000223002C02DB491813466441089DCE0ADA
:101D00002D145D194B056705E10A2C050D1908997D
:101D10003E43C9076940002B08D0934006D30022F8
:101D2000761C5141002B01D1760876001C4A002D0B
:101D300043DB154241D0AA433FD0304611B0F0BD3D
:101D40000E4607184E41174D7A42B5411AD30E9AE6
:101D50001D4696185D41134A7642AA4112D30122CC
:101D600052054D00D5420AD15C00D4420AD04B4006
:101D700002D592021143E1E749004908DEE7E10F8D
:101D8000C90718E000200849D8E7054801420DD1ED
:101D90000342F7D0F3E700000000FF07F81B000044
:101DA0000000F07F0000E0FF0000F87F11482146AE
:101DB0000143C01241400020C0E70123089A9B065E
:101DC0009A4205DC032252078918C90FC907B5E7F3
:101DD000052252078918074A1143D2125140ADE734
:101DE0005940504010B54B40424059405040FFF7D9
:101DF000DFFD10BDFFFFFF7F30B50346CA02400D77
:101E00001043164D164C0A1502D02043002A06DB5B
:101E1000AA1A002A12DDD040FF2A0BDC30BD520581
:101E2000520D01D140004008AA1A07D4D0404042C8
:101E3000FF2A01DD002030BD0028FCDD4A00002B18
:101E400001D0012000E00020101801225205D042EC
:101E5000F0D8C817C043604030BD00001E04000029
:101E6000000000801F22030C02D10F22000402D0C8
:101E7000030E03D004E00020014670470002083A38
:101E8000030F01D10001121F830F01D18000921EA8
:101E9000002801DB4000521E120551184205C012F5
:101EA000411810467047C10FC90700D040420122B7
:101EB00092071143D6E701218907D3E7F0B5934C88
:101EC0000D092646AC46AE430D465D4087B0002E58
:101ED0007ED01E092746B743FAD067462740ED0F4C
:101EE0003D43264075D024012142FBD07419FF25C3
:101EF000AD04641B0494CC02D90201231B05C90A5A
:101F00001943E40A1C430F01110F2401030F1C4362
:101F1000050116010F43A20B2D0990038443A90B61
:101F200088038543BB0B980387433609BC46B00B37
:101F30008703BE430F46474303972F4677430296D6
:101F4000BE46029F4E19C71906967E430597039F0A
:101F5000F71B7646BE1B77463F0100970196039F0D
:101F6000B60BF619B646019E009FB604BF1902D300
:101F70007646761CB64676467600002F01D00127BD
:101F80003E4367467D43AE46029F25467D4300950E
:101F90006D00AE1975466D00AF1965465D19069E58
:101FA00003956E437546751BAE461519059E029541
:101FB0006E43009D5943761B75466D1A5043864605
:101FC000301A05900195F80606D07D09012001E040
:101FD0007DE079E0054300E07D090E0A0906002056
:101FE0004D19464100967646310A3706009E7F1904
:101FF00071418E4601998D0D8E027146F6194D4143
:10200000AE46059DA90DAF027546BE1969415A43FA
:1020100063465C43039D029B6B439B1A1D1BAB0EE7
:10202000AD016D184341110B120552195941230A94
:102030002406A5195341934200D2491C01225202A1
:10204000914203D315220226F64302E0142203260E
:10205000F6432024A41AA1401F46A740BC461F46B1
:10206000D7400F432946D14062461143049A1214C7
:10207000B2181305049EFB18F6077340A54009D05B
:102080000124A54006D30024491C6341002D01D141
:10209000490849001E4CA24203D20846194607B01F
:1020A000F0BD012204999206914207DB0521490700
:1020B000184A59181143D2125140F0E70321490739
:1020C0005918C90FC907EAE70020E907E7E706182A
:1020D0000C464C4110487642A04114D394181A463D
:1020E0005A410D48644290410DD3012049004005FA
:1020F000814208D35900814205D3E90F074AC90735
:1021000000201143CBE700200549C8E70000FF0786
:10211000FE070000FFFFFF7F0000E0FF0000F07FF0
:102120000000F87F0121C9050123411842001B0668
:10213000D3185B0E0AD0C1100722D20689184007B7
:102140005242D14201D5520089187047090208D580
:102150000146002A03D0C10FC9070020704710466E
:102160007047420202D0002002497047072109054A
:102170000143F4E70000F87F70B5FF242404C6098A
:10218000FF25264001352E43C209CB0905462240D2
:1021900023404D40002A6BD0002B69D0A24267D06B
:1021A000A34265D0002D00DA32460124E405214324
:1021B000204309020002090AD21A000A4B0C7F24AC
:1021C000E31A434C7C44E35C7D2424041219141468
:1021D0005B00A218884201D3521C00E04000494233
:1021E0000C465C4324115C43DB016415E318040ACC
:1021F0005C43C502200D0C4644436419250A5D4327
:102200002303EC0C0D46654300030019EB184C4208
:10221000A34201D35B18401CD4052018002B07D023
:102220005B00C91804D3401C002901D140084000BC
:102230003F2189048A4209D3002A08DC1106090FCC
:1022400004D0032149074018C00FC00770BD012208
:102250004100120689187F2252069142F6D20521CA
:102260004907C84201D5901070BDFF20C00570BD60
:10227000002D00DA3246174EA24207D2A34205D201
:102280001802000E17D0E80FC00770BDFF244300EE
:102290002406A34216D84900A14213D8A34201D173
:1022A000A1420FD0A14201D1002101E04100490823
:1022B000D005084370BD1002000E03D0FF2002437A
:1022C000D00570BD304670BD48404140484053E79E
:1022D000D01400000000C07F10B502469E2400020A
:1022E000D115A307002902D01843002904DB611A85
:1022F00000290CDDC84010BD0906090E01D14000BF
:102300004008611A03D4C84040420028F3DDFF2191
:1023100050000906884201D9002010BDD017C043E3
:10232000584010BD01460002CA1504D00123DB0746
:102330001843002A09DB9E239A1A01D4D040704723
:10234000FF2248001206904201D900207047C817AA
:10235000C04370471F22030C02D10F2200041CD07F
:10236000030E01D10002083A030F01D10001121F30
:10237000830F01D18000921E002801DB4000521E15
:10238000D2055118021251181922904004D3491C49
:10239000002801D14908490008467047C10FC90704
:1023A00000D04042012292071143D3E7012189075F
:1023B000D0E710B500F068F8006810BD10B504460D
:1023C00000F062F8046010BD70B506464800440D88
:1023D000114B0020002C0AD0634008D09A4206DA44
:1023E0006542AA4203DD12058019514170BDCD0F2F
:1023F000ED07002C05D0002B05D0002A01DB074992
:102400000D43294670BD30460A03104302D0002018
:10241000034970BD304670BDFF0700000000F07F2B
:102420000000F87F10B5FF231B0644009C421DD816
:102430004C009C421AD80346124A0B4307D4401A58
:1024400002D3EFF3008010BDEFF3008010BD081A37
:1024500006D2EFF3008001219043C907084302E050
:10246000EFF30080904380F3008810BD0D231B0420
:102470001A4204D01146002000F00AF810BD00F006
:10248000C7F910BD000000900048704708120020F6
:10249000CA0211D54A03520F002A04D0C803C04310
:1024A000012188407047054AEFF3008108010009C7
:1024B000104380F300887047002070470000003010
:1024C000F0B50C46871A9C410D46861A9D4103D2F1
:1024D000C01BA141D21963410D0D1F0DC74EEC1B4E
:1024E000AE435CD07F057F0D0026002F51D02D0517
:1024F000AC46A943DD020123ED0A1B051D43202341
:102500001B1B24D41746E740381871412F46E7407B
:10251000CC199D402818314661410C0D27D16144EA
:102520009A4013D50023401C594152000ED1400857
:10253000400001224B005205D34207D3052040073B
:10254000C14201D5AE4900E0AE493046F0BD6B0056
:10255000002A00D001229A181F23203C1B1B01D502
:10256000002302E0E540281871410C0DD7D001246A
:1025700024050919C407CD0740084908E40F28437A
:102580006144002CD5D00024401C61419A40D0D138
:10259000CDE76A05520DD9D1C90FC907D5E79A4DC4
:1025A0004E00002801D0012400E0002434195F000F
:1025B000002A01D0012600E00026BE19934FAC424C
:1025C0000CD8AE420AD8B44206D001256D05EC42C3
:1025D000BCD010461946F0BD9942FCD000203946C7
:1025E000F0BDF0B51FB40C460F46811A9F41254639
:1025F000861A9D4106D20125ED076F40401ABC4165
:1026000052187B41210D1E0D8D1BAC467B4D8D4319
:102610007ED075056D0D7CD00D05AE46AC431B0319
:102620001B0B774D52429D41202366469B1B14D3C2
:102630001746F740381800260090744160462F4630
:102640000741E41900989D402818664116D4714648
:1026500071189A4025D5012320E093182A466A4133
:102660005200002B00D0521C1E23203E9B1B002B2F
:1026700061DD3541EE1728186641E8D5001876412E
:102680005B1C9A4000D3401C4B05F3181524E34013
:1026900010D3002B52D071467118D30FC01802D33B
:1026A000491C05B0F0BD0123DB079A42F9D140086F
:1026B0004000F6E701225205B21801D1002853D09C
:1026C0000123CC0ADB029943891E002A08D1020C9F
:1026D00003D0020C0004103902E002460020203929
:1026E0000023550B05D112020823550B01D15201CD
:1026F0000D23550C01D112011B1DD50C01D19200E7
:102700009B1C150D01D152005B1C2025EE1A01E027
:102710002CE022E00546F54015439840CA1AE1072F
:1027200069181305C918002ABBDA032040070818E6
:10273000C10FC9070FE071466118B2E7F107400801
:102740000843711071444A000CD001235B059A4282
:10275000A7D2C90FC9070020A3E74905490D26D113
:10276000002001E00028F4D100219AE7264D660000
:10277000002801D0012100E0002171185F00002A2B
:1027800001D0012600E00026BE19204FA94210D832
:10279000AE420ED8B14208D001256D05E94206D0FF
:1027A0001946A802414010467BE79C4201D02146D1
:1027B00077E70020394674E730B40C465C4004D516
:1027C0000124E407634030BC0BE730BC78E630B44A
:1027D0000C465C4004D50124E407634030BC6FE63E
:1027E00030BCFEE630B40124E40761400D465D4094
:1027F00001D430BC64E6634030BCF2E6FF07000061
:102800000000F0FF0000F07F0000E0FF0000F87F14
:1028100010B5024800F02DF810BD00000000C07F88
:1028200000487047081200207546FFF7F9FFAE46D2
:10283000050069465346C008C000854618B020B55B
:1028400000F072F860BC00274908B6460026C0C5F3
:10285000C0C5C0C5C0C5C0C5C0C5C0C5C0C5403D58
:1028600049008D4670470446C046C0462046FDF7E5
:1028700016FD10B50C461107090F092904D00A29C5
:102880000AD008290CD104E011460820FFF700FE09
:1028900006E0510606D501E0510601D50120C0072A
:1028A000214610BDD10607D501010909CC08490709
:1028B000000E0006044309E0410F20024907000A08
:1028C0000143200E00061D22D14101430846E7E7DF
:1028D00001491820ABBEFEE7260002007047000049
:1028E00005B50E48002200F001F805BDABBE01E0C1
:1028F00000207047002A00D0106001207047069821
:102900000188074A914207D10230069007980121B9
:102910008907884307907047FEE700000001000028
:10292000ABBE00000348004703480449044A054B76
:1029300070470000050200006812002058030020C4
:102940006813002058000020F8B538480090384837
:10295000C16B01221143C1630025354CE06B354941
:102960000840E905C90B0843E0630026206BC00757
:10297000C00F02D000F062F8761C082EF6D30027B4
:102980003E462B48006BC007C00FFAD000F056F847
:10299000002000F05DF80446012000F059F82418EA
:1029A000022000F055F82418032000F051F82418F4
:1029B000042000F04DF82418052000F049F82418F0
:1029C000062000F045F82418072000F041F82018F0
:1029D000C010761C3F18B6B2082ED2D3F81000B241
:1029E00015490028088014DC13480022825E0099F3
:1029F0005242914214DA2902FF390139CA030C49C3
:102A0000D20BCB6B0B4C23401A43CA630099018055
:102A100006E06D1CADB20090E81FFF38FA389CD17B
:102A20000348C16B49084900C163F8BDFF070000B6
:102A300000000E40FF00FEFFFA0300200348016B78
:102A4000C908C900491C01637047000000000E401E
:102A500002498000085800B27047000000000E4094
:102A6000054901208A68000702438A600349C8605B
:102A70000020C860704700000002005000000050B5
:102A800002498A6882438A60704700000002005051
:102A900002498A6802438A607047000000020050C1
:102AA00010B5034840694003400F00F047F810BDDF
:102AB0000002005010B50C4A10694007400F10D0BA
:102AC000022809D0042809D0084891690907090F8C
:102AD000491CFEF77FFE10BD0548F6E700F00AF836
:102AE000F3E77D200002F0E700020050006CDC02FA
:102AF000808D5B000448006A0449C006800F48438B
:102B0000034940187047000000020050808D5B00B0
:102B100080C3C90110B5074840690007800F04D081
:102B2000022805D0FFF7C6FF10BDFFF7E3FF10BD79
:102B3000014810BD00020050006CDC02014610B5D7
:102B40000020012906D0032903D0042905D0FFF76E
:102B5000B1FF10BD7D20000210BD014810BD000076
:102B6000006CDC0270B5134B984201D1831402E073
:102B7000520801235B03104CA5681D43A5600F4C50
:102B8000E3600023E36001231B04194301604260FA
:102B900004460B48844205D1FFF78CFF6168491C4D
:102BA000490003E0FFF786FF6168491CFEF712FE4B
:102BB00070BD000000000340000200500000005003
:102BC000004003400249C8600020C8607047000010
:102BD000000000500348592101601621016088213E
:102BE000016070470001005010B51020FFF7EAFFA8
:102BF0001020FFF745FF10BD70B505460C461020AC
:102C0000FFF746FF1020FFF7DDFF044A5068000C75
:102C1000000420435060156070BD0000400001407A
:102C200070B506460025FFF73BFF7D21C900FEF782
:102C3000D1FD81B20920C006FFF7DEFF0548C1685B
:102C40008CB2AC4201D2761E01D02546F7E7FFF7E1
:102C5000CBFF70BD40000140F0B4040C8BB226469F
:102C600082B25E430D0C1046370C5843360480196F
:102C70000021794116466E43370C3604801979419C
:102C800026466E438919F0BC704730B47446641E02
:102C90002578641CAB4204D3635D5B00E31830BC51
:102CA00018471D46F8E700004900CA020243100019
:102CB00000D004204A0D01D001221043044A490DDE
:102CC000914201D102210843012800D1052070471B
:102CD000FF070000F7B596B0189B00219960D960F6
:102CE000179908914C00CF4964088C4206DC189A69
:102CF000179951601060002019B0F0BDCA49002733
:102D0000CA4DFF438C423BDAD32608997605002949
:102D1000C74A17992B4619DDFFF759FDAC4207D07A
:102D2000C44AC54BFFF753FD189A516010600AE082
:102D30003246C14BFFF74BFDC04AC14BFFF747FD81
:102D4000189A51601060012019B0F0BDFFF734FDF2
:102D5000AC4207D0B74AB84BFFF72EFD189A516026
:102D600010600AE03246B44BFFF726FDB34AB44B7D
:102D7000FFF722FD189A51601060384619B0F0BD77
:102D8000B0498C4217997CDC490049080746AE4A95
:102D9000AE4B0391FFF792F80022AD4BFFF70CFD0D
:102DA000FFF72AF80990FFF77EF80646A04A2B465F
:102DB0000791FFF783F83A46039BFFF713FD05469B
:102DC0000F469C4A9C4B30460799FFF777F8220D37
:102DD00001240B922A463B46FFF704FD189A032C68
:102DE0005160106039D0189840684000410D0B9830
:102DF000401A61016118113981422EDA954920018A
:102E0000794402950C90081803974368026830468D
:102E10000799FFF753F801910090039B029AFFF77F
:102E2000E1FC05460F46039B029AFFF7DBFC019B82
:102E3000009AFFF7CCFC01918749009079440C98E7
:102E40004018C368826830460799FFF737F8019B3E
:102E5000009AFFF7BCFC641CBCE7089800280DDA58
:102E60001899012208684968D2075140189A5160A0
:102E70001060099819B04042F0BD02E0099819B0FD
:102E8000F0BD09030122090B12050D90891817984E
:102E9000109140007149400D40184111C006C00E0C
:102EA00020221290101A139000200690079088009C
:102EB0006B4979444518062007AC143515902F68E6
:102EC0001298696887401398C1400F43384610999B
:102ED000FFF7C2FE0646119138460D99FFF7BCFE7A
:102EE00023688A191B189C46834201D2012600E000
:102EF000002620468038C36F9719DB198A4201D219
:102F0000012700E0002711997918002E02D0934282
:102F100002D903E0934201D2012200E00022891885
:102F200062462260C36781671598241F401E2D1FCB
:102F300015900028C3D10121029849074018800F3D
:102F40001190029805998000039D049C0B91FEF757
:102F5000AAFF06460F462846FEF7ADFF1D22D243C4
:102F6000FFF732FA0A900E912046FEF7A4FF3D22A9
:102F7000D243FFF729FA129009910B98FEF79BFFB5
:102F80005D22D243FFF720FA0D910890099B129A17
:102F9000FFF712FC0E9B0A9AFFF70EFC32463B46E7
:102FA000FFF70AFC00240D4632463B462046FFF759
:102FB0000EFC0E9B0A9AFFF70AFC099B129AFFF778
:102FC00006FC0D9B089AFFF70DFC264A264BFEF7E0
:102FD00075FF06460F46254A254B29462046FEF733
:102FE0006DFF32463B46FFF7E7FB06460F461522CC
:102FF00092061D4B29462046FEF760FF3B463246AF
:10300000FFF7DAFB179A002A05DA119A5242119259
:103010000122D2075140189A51601060119819B0DE
:10302000F0BD0000FB21E93F7CD90240FB21F93FC4
:10303000000040543163621A61B4D03D7370032EB6
:103040008A19A33BFB21394183C8C96D305FE43F36
:103050000000E03F04090000C80800000BFCFFFF6F
:1030600082080000182D4454FB21F93D3326A61197
:10307000460B113CF0B51FB44E00F92076088005D0
:1030800084B00F46864204DA0498FEF7B5FE0028A5
:1030900038D0049A3B4610461946FEF70FFF044607
:1030A00002462C480D460B460621784400F05CF899
:1030B00022462B46FEF702FF019100903946079BFE
:1030C000069A0498FEF7FAFE074602912046294622
:1030D000019B009AFEF7F2FE3A46029BFFF777FB50
:1030E000074600220091D24320462946FFF76CF99B
:1030F000194A96420ADA3A46009BFFF768FB00221B
:10310000164B23E00020154909B0F0BD144A964241
:1031100002DD0024134D03E001225205B51A0024FC
:1031200022462B46FFF753FB0646019122462B46CB
:1031300000200A49FFF74BFB0D4604463A4630464D
:10314000009B0199FFF743FB22462B46FFF74AFB02
:1031500009B0F0BD2A0600003333D33F0000F03F32
:103160000000E93F0000D23FF8B504464F1EC800FA
:103170000838211815461E46086849683A4606234D
:103180009A4310D02A463346FEF798FE3A46D200BC
:10319000083AA3181A687F1E5B68FFF70DFB06222A
:1031A0003B469343EED1022F23D0042F11D0062F9C
:1031B0002FD12A463346FEF781FEE36AA26AFFF763
:1031C000FBFA2A463346FEF779FE636A226AFFF766
:1031D000F3FA2A463346FEF771FEE369A269FFF768
:1031E000EBFA2A463346FEF769FE63692269FFF768
:1031F000E3FA2A463346FEF761FEE368A268FFF76A
:10320000DBFA2A463346FEF759FE63682268FFF769
:10321000D3FAF8BDF0B51FB4054648000C46F921B5
:103220004008890586B088420BDA28462146FFF718
:103230003BFD042801D100F063F8284621460BB07D
:10324000F0BD2A46234610461946FEF737FE0646CD
:103250000F462A462346FEF731FE0090254801918D
:1032600032463B4605217844FFF77EFF02901098D6
:103270000391002829D0204A204B01990098FEF79D
:103280001DFE0490059168460FC8FEF717FE002248
:1032900001910090D24309990898FFF795F8019B96
:1032A000009AFFF794FA32463B46FEF707FE099B69
:1032B000089AFFF78CFA059B049AFFF788FA2A46CA
:1032C0002346FFF78FFA0BB0F0BD0B463046394668
:1032D000029AFEF7F3FD084A084BFFF76DFA019BCF
:1032E000009AFEF7EBFD2A462346FFF765FA0BB07E
:1032F000F0BD000066050000495555555555C5BF40
:10330000034A10B500201107FFF75EF810BD00005A
:1033100001FDFFFF00B54A00254B520887B09A42D5
:1033200003DC0022134600922EE0224B9A420CD17D
:1033300000280CD10120FFF741F800221346104667
:103340001146FEF735FB07B000BD9A4204DB0122AF
:10335000FFF73AF807B000BD02AAFFF7BBFC8107F0
:10336000890F012000290CD0012911D0022915D084
:1033700002A80FC8FFF77EFE0122D207514007B016
:1033800000BD009002A80FC8FFF744FF07B000BDC2
:1033900002A80FC8FFF76EFE07B000BD009002A89C
:1033A0000FC8FFF737FF0122D207514007B000BD19
:1033B000FB21E93F0000F07F70B501250400ED0717
:1033C0004C4020D4441A01D2001B0919C60D4B00F1
:1033D000F2B2FF2A29D01B0E2CD000020C02D31A05
:1033E0002C43DC402843051910D2280A02D3401C84
:1033F0006D0611D0761EF6058019FF2A00DA70BD21
:10340000C00DC00570BD694000F0A4F8012005435F
:10341000C541521C761CE8E764089C40C901614024
:103420008900E7D10124A043E4E71B0E440200D049
:10343000034870BD002AFCD1C00FC00770BD00BF9B
:103440000000C07F01230200DB050A430DD4DA42ED
:1034500003D49A4207D488427047D84214D4D94240
:1034600012D48842704780427047DA4203D59A42AC
:10347000F9D5814270475B004200DA4204D24A002B
:10348000DA4201D28142704710B5024AFEF7CAFF04
:1034900010BD00BF0900120470B5420064414B002A
:1034A0005C41120E39D01B0E38D0FF2A3CD0FF2BC6
:1034B0003AD040024902400A490A060045184E43E4
:1034C000000A090AD2184843ED017F3A0104731A31
:1034D0004019190C4318990F04D001215B084907C2
:1034E0005B1A521CD80904D3401CF50301D19D0678
:1034F00007D0FF2A08D2D50506D0E407204340199B
:1035000070BD0125A843F4E7002A01DCE00770BD87
:103510002402FF202043C00570BD1B0EFF2A03D0EC
:10352000FF2B01D0E00770BDFF2645003606B542EF
:1035300006D84D00B54203D8D218FF2A00D0E7E7DD
:10354000004870BD0000C07F70B501250400ED0784
:103550004C4022D4441A02D26C40001B0919C60DFB
:103560004B00F2B2FF2A4BD01B0E50D000020C02CF
:10357000D31A2C43DC40A843051B05D5AD0019D355
:103580006D08761E521E37D0F605280A01D2801922
:1035900070BD70416D0603D070BD6940FFF712FF2A
:1035A0009C4009026140490001D0401E70BD0124C9
:1035B000A04370BD6D081DD001202B0C01D12D043E
:1035C00010302B0E01D12D0208302B0F01D12D010F
:1035D000001DAB0F01D1AD00801CEB0F01D16D00C0
:1035E000401C6D00361A121A680AF5054019012AA6
:1035F00002DB70BD002070BDC036300AC00770BD50
:103600001B0E440201D1FF2B00D1024870BD002ADD
:10361000F0D070BD0000C07F80807F7E7D7C7B7A93
:103620007978777676757473727171706F6E6E6D6E
:103630006C6C6B6A6A696868676666656464636314
:1036400062616160605F5F5E5E5D5D5C5C5B5B5A9A
:103650005A59595858575756565555555454535307
:1036600052525251515050504F4F4F4E4E4D4D4D62
:103670004C4C4C4B4B4B4A4A4A49494948484847AD
:1036800047474746464645454544444444434343EB
:1036900043424242424141418182838485868788F8
:1036A000898B8C8D8E8F919293959697999A9C9DEC
:1036B0009FA0A2A3A5A7A8AAACAEB0B2B3B5B7B954
:1036C000BCBEC0C2C5C7C9CCCED1D4D7D9DCDFE21D
:1036D000E6E9ECF0F3F7FAFE4C5555555555A53F84
:1036E0007751C1166CC156BF9015CB19A001FA3E97
:1036F000AD529C804F7E92BEC4B1B4BD9EEE213EC1
:10370000D43888BEE9FAA8BD00004054FB21F93F37
:103710003163621A61B4D03D0000601A61B4D03DDB
:103720007370032E8A19A33B0000002E8A19A33B55
:10373000C14920259A837B39000000000000000069
:103740006E83F9A22915444ED15727FCC0DD34F50C
:10375000999562DB4190433CAB6351FE61C5BBDE92
:103760003A6E24B7E0D24D42EA2E49061C92D109A6
:103770001CEB1DFE3EA729B1F53582E88444BB2E23
:1037800026709CE9417E5FB439D69139F439538370
:103790008B5F849C3B28F9BDFF97F81F0F9805DECF
:1037A0008B112FEF1F6D0A5ACF7E366DB709CB27CD
:1037B000663F464F2DEA5F9EC7BA27757BF1E5EB62
:1037C000F739073DEA92528AB15FFB6B085D8D1FA6
:1037D000A6F810111111813FD561C119A0012ABFAE
:1037E0007DFEB157E31DC73EEB9C2B8AE6E55ABE32
:1037F0007CD5CF5A3AD9E53D28380000000000209A
:1038000054000000480200007C38000058030020EB
:10381000B0000000480200002C390000080400201D
:10382000600F00006402000025290000FF2800004E
:10383000F5000000F5000000F5000000F5000000B4
:10384000F5000000F5000000930A0000F5000000FC
:10385000F5000000D7030000F5000000FB030000A6
:1038600041030000F5000000F5000000F500000035
:10387000F5000000F5000000F50000000000000069
:103880000000000000000000000000000100000037
:103890000000000000000000000000000000000028
:1038A0000000000000000000000000000000000018
:1038B00000000000000000006400000000000000A4
:1038C00000000000000000000000000000000000F8
:1038D00000B07E4600000000000000000000000074
:1038E00000000000000000000000000000000000D8
:1038F0006F12833A0000000000000000000000008A
:1039000000000000000000000000000000000000B7
:1039100000000000000000000000000000000000A7
:0C3920000000000000000000000000009B
:0400000500002925A9
:00000001FF
