:020000040000FA
:1000000058030020B53800007D0000008300000088
:1000100000000000000000000000000000000000E0
:100020000000000000000000000000008900000047
:1000300000000000000000008F000000950000009C
:100040009B000000A1000000A7000000AD00000020
:10005000B3000000B9000000BF000000C5000000B0
:10006000CB000000D1000000D7000000DD00000040
:10007000E3000000E9000000EF0000001E480068F7
:1000800000471E48006800471D48006800471D489B
:10009000006800471C48006800471C48006800478B
:1000A0001B48006800471B48006800471A48006862
:1000B00000471A4800680047194800680047194877
:1000C0000068004718480068004718480068004763
:1000D000174800680047174800680047164800683E
:1000E0000047164800680047154800680047154853
:1000F00000680047FEE70000140000200400002014
:10010000080000200C000020100000201800002033
:100110001C000020200000202400002028000020D7
:100120002C00002030000020340000203800002087
:100130003C00002040000020440000204800002037
:100140004C000020500000200000000000000000D3
:10015000000000000000000000000000000000009F
:10016000000000000000000000000000000000008F
:10017000000000000000000000000000000000007F
:10018000000000000000000000000000000000006F
:10019000000000000000000000000000000000005F
:1001A000000000000000000000000000000000004F
:1001B000000000000000000000000000000000003F
:1001C000000000000000000000000000000000002F
:1001D000000000000000000000000000000000001F
:1001E000000000000000000000000000000000000F
:1001F00000000000000000000000000000000000FF
:100200000502000000F002F800F050F80CA030C821
:10021000083824182D18A246671EAB4654465D4682
:10022000AC4201D100F042F87E460F3E0FCCB646FC
:100230000126334200D0FB1AA246AB46334318478F
:100240000447000034470000103A02D378C878C150
:10025000FAD8520701D330C830C101D504680C6008
:10026000704700000023002400250026103A01D327
:1002700078C1FBD8520700D330C100D50B6070475E
:1002800010B5662902D104F01BFA10BD002010BD84
:100290001FB5C046C04602F031FD04000020002119
:1002A00004F072F8E0601FBD10B510BD03F060FAF5
:1002B0001146FFF7EDFF00F05FF903F078FA03B4A1
:1002C000FFF7F2FF03BC03F0EDFA000010B50028C1
:1002D00019DAFE4A03071B0F083B9B089B00D25804
:1002E0008307DC0EFF23A3409A438B071B0E840772
:1002F000E40EA3401A43F54B0407240F083CA4085E
:10030000A4001A5118E0F24A03231B02D2188308F2
:100310009B00D2588307DC0EFF23A3409A438B0730
:100320001B0E8407E40EA3401A43E94B0324240266
:100330001B198408A4001A5110BD10B50121C9036E
:10034000E44800F087F9C01310BD10B501218903FE
:10035000E04800F07FF9801310BDDF480078704757
:1003600010B50221DB4800F079F9002805D000F033
:1003700022FB0221D74800F075F901210903D54875
:1003800000F06CF9002817D00120D3490870010350
:10039000D04800F067F901210903CE4800F05AF96E
:1003A000002809D00020CC4908708020CB49087073
:1003B0004101C84800F056F901214903C54800F041
:1003C0004DF9002816D001214903C24800F042F936
:1003D000C349088008460088002803D0012001F0A6
:1003E00011FB02E0002001F00DFB01214903B94897
:1003F00000F038F910BD00BFBA48806840084000DE
:10040000401CB849886000BF0120B7490870B74850
:100410000068401CB5490860704710B500BFB4487B
:10042000806840084000401CB149886000BF01F06E
:100430007AFA10BD10B500210B20FFF747FF00210D
:100440000820FFF743FF01210220FFF73FFF0321B0
:100450000520FFF73BFF01210720FFF737FF10BD05
:1004600010B503F07FFB00F009F90F2000F0FCF855
:1004700000BFA0480068482188439E49086000BF2B
:1004800000F059FB00BF012000059A49896801432B
:10049000984A916000BF00BF9749C8600021964A02
:1004A000D16000BF00BF00BF104680698021884333
:1004B0001146886100BF00BF0020C86100BF00BFB7
:1004C0000021D01DF930016000BF10BD10B51D2006
:1004D0008949096B0143884A116300BF8748114667
:1004E000496B0143516300BF8549864800F0B0F86D
:1004F000032000037749496802049143754A51601B
:1005000000BF8149104600F0A3F8012080037D4917
:10051000896801437B4A916000BF20206D4989684A
:1005200081436C4A916000BFC001012192698243FE
:10053000684B9A61002906D01A46D26903041A430F
:10054000644BDA6105E0634AD26903049A43614B64
:10055000DA6100BF012000035E49C96901435D4AB9
:10056000D16100BF08200121814042099200584B0F
:10057000D218116000BF10BD86B00127BF077D20D3
:10058000C0050490614CFFF76BFFFFF79FFF00F081
:1005900066F900F0B9F901F077F900F0FCFB00F022
:1005A0002AFD01F07BF900221146402001F0FDF9FF
:1005B000574B22463846049901F05DF800BF4A487F
:1005C00000780028FBD000204749087000F0F3F8BD
:1005D00000F0BAF80546394603F032FF06D100F0C4
:1005E000CFF80546049903F02BFF0ED000F0ACF8CD
:1005F000074600F0C5F8049000F017F90546444B93
:100600002A463846049901F036F800F00EF90546FE
:10061000214603F015FF18D000F007F9044600F05A
:1006200004F9019001F078FF05460E46204601F0DE
:1006300073FF02460B46019600950391029035A088
:1006400001F07EFA204600F07FFD00F0C0FDB6E725
:100650000160704702461069084070470246106A00
:1006600008407047016270472249896909090901F8
:100670000207120F11431F4A9161704710B500BF66
:1006800001201D49896808229143C20008231A40AD
:100690001143194A916000BF002011468968042265
:1006A0009143820004231A401143134A916000BF12
:1006B00000BFFFF7D9FF07200E49096981430143B5
:1006C0000C4A116100BF032011462DE01CED00E033
:1006D00000E100E0404000507E030020880300203D
:1006E00080030020000001408203002078030020E6
:1006F0004000014000020050000000501E070000B2
:100700000000541000400050000415003333333F04
:10071000B80B00006F6C64203D2025662C206E65B0
:1007200077203D2025660A00096A0143116200BF57
:10073000022011460968402291438143014A116019
:1007400000BF10BD0002005000B5D3480078801EE5
:10075000030003F07DFA0C0B0D130F111313131389
:1007600009130713CD4800BDCD48FCE7CD48FAE793
:10077000CD48F8E7CD48F6E7C848F4E7C748F2E7C0
:1007800000B5C5480078801E030003F061FA0C0B29
:100790000D120F101212121209120712002000BDC2
:1007A000C348FCE7C348FAE7C348F8E700BFC348BB
:1007B000F5E70020F3E710B5B7480078801E030086
:1007C00003F046FA0C13192B1F252B2B2B2B0D2B6B
:1007D000072B40221146104601F0E7F823E04022A3
:1007E0000021084601F0E1F81DE0002240211046FA
:1007F00001F0DBF817E000224021202001F0D5F8BD
:1008000011E000222021402001F0CFF80BE0062269
:100810001146402001F0C9F805E0002211464020B1
:1008200001F0C3F800BF00BF10BD10B5A4480078A8
:1008300001F0B6FF0446A34901F098FE10BD10B5C3
:10084000FFF77BFD8401FFF780FD40010443E0B228
:1008500010BD9D48006870478F480078704770B59C
:1008600003F0F0F80546994901F0AEF9002807D0E9
:1008700003F0E8F80546954901F0A6F9401E00E0AE
:10088000002084B222468421914803F033F90120EC
:100890008F490968052212049143820411438C4A4E
:1008A000116000BF00BF1146896810229143020108
:1008B00010231A401143864A916000BF0021104660
:1008C00000F0E7F8824800F0DCF802200121814ABC
:1008D000926982437F4B9A61002904D01A46D269FB
:1008E0000243DA6104E07B4AD2698243794BDA61E0
:1008F00000BF70BD10B504462146754800F0C9F828
:10090000734800F0BEF810BD70B503F09BF80546C3
:10091000714901F059F9002807D003F093F8054612
:100920006D4901F051F9401E00E0002084B22246DA
:1009300082216A4803F0DEF801200021C2008B000A
:10094000D218664B9A6000BF022019468968890850
:10095000890001431A46916000BF012110201268EE
:100960005F4B1A404B1E1B021A43C3001A435B4BDA
:100970001A6000BF70BD10B504462146574800F00C
:1009800088F8564800F07DF810BD70B504460D4655
:100990002146524800F07DF8504800F072F800BF40
:1009A00000BF4E480068C007C00F0028F8D100BF44
:1009B0004A48006970BD30B589B0002400216846FE
:1009C000818081823BE000BF00BF41480068C007D2
:1009D000C00F002805D002213E4800F04EF8002844
:1009E000F2D002213B4800F048F8002827D100BF90
:1009F00037480069610001AA505200BF37480069BA
:100A0000610005AA5052600001A9085C22490870E3
:100A1000600001A9085A0012294908706100515A62
:100A2000304A127811430846FFF764FF610001AABB
:100A3000505AFFF7A0FF082C01DA601CC4B2022153
:100A4000244800F01AF80028BDD0FFF7F8FE611E18
:100A5000490005AA515A234A127811430843054612
:100A6000FFF748FF611E490001AA505AFFF783FFB4
:100A700000201C49087009B030BD024610690840CA
:100A80007047016801221204914301221143016061
:100A90007047016270470000890300201F855B409A
:100AA000713D4A3F295CAF3FB81EE53F7B143E4095
:100AB000E948AE3E2D215F3E03780B3E5452A73DE0
:100AC0008A0300200000C8428C03002000127A0034
:100AD0000040034040400050A08601000000034059
:100AE00007FCFEFF8803002010B59A4A126C3023E1
:100AF0009A430301302423401A43964B1A641A4642
:100B0000126C920892008B079B0F1A43914B1A6448
:100B100010BD10B500BF8F48006BC007C00F002884
:100B200008D0002081008B4A515809B28A480160E0
:100B300000F0F5F810BD70B50024002502208749AB
:100B400049690C22914382000C231A401143834AC5
:100B5000516100BF2B2011468969814A114002046E
:100B60007F4BDB431A4011437C4A916100BF02F086
:100B700069FF044600BF02F095FF0646774880698A
:100B80000001000D411C304601F01EF8054670BD05
:100B900070B5044600250AE000BF6E48006BC00730
:100BA000C00F002803D000F0BAF8681C85B2A54237
:100BB000F2DB70BD10B500F0BBF805200002FFF7B6
:100BC000E7FF00BF00F0ABF86248006A02218843EB
:100BD000801C604908620220012181404209920084
:100BE000604BD218116000BF00BF10BDFEB502F00F
:100BF000FFFE00BF5748006A40084000401C5549AE
:100C0000086200BF00BF0846C06B03218905084386
:100C10005049C86300BF00210846FFF765FF642004
:100C200002F0C6FF03210846FFF75EFF00F089F8D7
:100C3000002110220B460120464CE46B8443044300
:100C4000444DEC632C46E46B0625AC435D00062660
:100C500035402C433F4DEC632C46E46B424D2C4019
:100C60001502414EF64335402C433A4DEC632C4679
:100C7000E46B1F252D06AC430D061F2636063540B6
:100C80002C43344DEC6300BF03202946096A0C2233
:100C9000914382000C231A4011432A46116200BF7F
:100CA00001201146096A02039143020303031A401B
:100CB00011432A46116200BF00200F210A460B464D
:100CC0000C460D46009101910E0136181702F719D6
:100CD000009E3603BE191F04F6192705F6192F06C4
:100CE000F719019E3607BE191A4F7E6200BF00F049
:100CF0001FF802F0F1FD00BF1C48008840001C49AD
:100D00000988081A00B21A4908800020085E1949AB
:100D1000C86000BF00F015F8FFF74CFFFEBD0D489E
:100D2000006B06218843012108430A490863704784
:100D30000848006A0121C902884340180549086231
:100D400070470448006A0121C902884301490862CA
:100D50007047000000000E40900300200002005089
:100D6000FFFF00F000E100E0FF00FEFF0E040020A6
:100D7000120400200080005000BF4B49886200BF71
:100D8000704700BF4849C86100BF704700BF46496F
:100D9000086100BF704770B5022404250320434951
:100DA000496902079143020703071A4011433F4A6A
:100DB000516100BF00BF3C488068042188433A4924
:100DC000886000BF00BF0846C06F40084000401C5C
:100DD000C86700BF00BF0846C06F02218843801C5F
:100DE0003149C86700BF00BF0846C06F042188436F
:100DF000001D2D49C86700BF00BF0846806810214C
:100E000088432949886000BF00BF084680682021C8
:100E100088432549886000BF601EC1B27F232A46EF
:100E200000F00AF80020FFF7B1FF0020FFF7A9FF4C
:100E30000020FFF7A1FF70BD70B500BF1A4CA46879
:100E40000825AC43C500082635402C43164DAC6040
:100E500000BF2C462468240A2402CDB22C43124D34
:100E60002C602C466468E408E40055076D0F2C43A1
:100E70000D4D6C602C46E468240C24049DB22C4378
:100E8000094DEC6000BF2C46646C64086400641C6F
:100E90006C6400BF00BF2C46A46864086400641C36
:100EA000AC6000BF70BD00000000044000020050B4
:100EB000F0B585B000242EE0204601F0F6F9054695
:100EC00003225207FE4B01F0F3F90022FD4B019182
:100ED000009000F067FF0391029000F025FF0746A5
:100EE000384601F019FB054603F0FCF90022F64BE9
:100EF0000191009001F0DCF90391029001F076F984
:100F000000B26100F14A505260001146085A610077
:100F1000EF4A5052641CFF2CCED905B0F0BDF0B59D
:100F200085B0002428E0204601F0BFF905460322E1
:100F30005207E34B01F0BCF90022E64B019100900F
:100F400000F030FF0391029000F0EEFE07463846B5
:100F500001F0E2FA054603F0C5F90022DE4B0191EB
:100F6000009001F0A5F90391029001F03FF900B261
:100F70006100DA4A5052641C012080028442D2D3BC
:100F800005B0F0BD002806D10021D54A1180D54A10
:100F90001160D54A1170012805D10021D04A118075
:100FA0000121D14A1170032805D1D049CC4A1180C2
:100FB0000321CD4A1170022805D1CC49C84A1180BD
:100FC0000221C94A1170042802D10421C64A1170B5
:100FD000704710B50020FFF7D9FE0020FFF7D1FEC3
:100FE0000020FFF7C9FE10BD10B5FFF7F2FF00208B
:100FF000FFF7C8FF10BD10B5FFF75AFFFFF78FFFCF
:101000000020BB4908705520BA490870AA20BA4987
:1010100008700020B949496907221202914302026F
:1010200007231B021A401143B44A516100BFB4495F
:101030003C200422B14B9B681343B04CA36000BF1B
:1010400000BFB04BDA600023AE4CE36000BFAE4A95
:101050005268120C12040243AB4B5A601A461160DC
:1010600000BF00BF104600680907884340181146BA
:101070000860052000F0A6FB00BF052000F0A2FBE1
:1010800000BFA148006801218907884340189E4994
:10109000086000BFFFF7A8FF10BD95480078401C0E
:1010A0009349087093480078401C92490870924810
:1010B0000078401C9049087070478D480078401EA9
:1010C0008B4908708B480078401E8A4908708A480E
:1010D0000078401E88490870704710B58449097827
:1010E00049007B4A515A403188B2FFF74FFE81498F
:1010F00009784900764A515A403188B2FFF741FEDB
:101100007D4909784900724A515A403188B2FFF747
:1011100033FE10BD7D490860704770B504467C48B9
:10112000046001687B4803F0DFF906460121890766
:1011300001F01CFA054601F0EFFA77490860232018
:1011400000027649086070BDF8B50546002410E03D
:1011500061005E4A505E01F01BFB0746294603F022
:10116000C3F9064601F0B2FA00B26100584A505283
:10117000641CFF2CECD9F8BD5B490870704710B5B2
:101180000020674908705649088066480068FFF7E4
:10119000DBFF65480068FFF7BDFF64480068FFF7A4
:1011A000BCFF0120FFF7EEFE10BD10B50020604926
:1011B0000870604908700420FFF7E4FE10BD10B508
:1011C0000320FFF7DFFE10BD47480078704770B579
:1011D00045480078002800D170BD434800780128B8
:1011E00012D13F48008854490988401800B23C4950
:1011F00008800020085E3D49884205DB08463849E2
:1012000008800220FFF7BEFE3748007802280BD086
:1012100035480078012807D033480078032803D0E8
:1012200031480078042849D1384801688920C00530
:1012300003F05AF906462B480168304603F054F98A
:10124000054601F069FA3D490860084600888005B6
:10125000800D08600846006840002049085A384957
:1012600008800020085E37490880374801681D481B
:10127000006803F09FF81B490860314A0021515E65
:10128000254A12685143314A1288234B1B685A433E
:1012900088182F4900F0A2FC2E4908600968104AFE
:1012A0000023D35E59430846104900F097FC2949B2
:1012B000086008460088284909884FE0B5E000002A
:1012C000FB2119400000704000005040240600201F
:1012D00024040020000090400088C340240A00201D
:1012E000B4030020B0030020C203002088130000D4
:1012F000960300209703002098030020000200506E
:10130000320000680000005000000140A0030020EF
:101310009C0300200000E044A4030020A803002058
:10132000D2030020C8030020C4030020CC03002007
:10133000C0030020C1030020B6030020F0030020FA
:10134000F4030020D6030020E0030020D403002093
:1013500010270000E4030020E8030020401A00B238
:10136000FA490880FA480068FA490860FA490020FA
:10137000085E002801DB014600E04142C82935DD56
:10138000F24A0021515E002901DB0A4600E04A4290
:10139000002A2BDDED4A0020105E002801DB02460A
:1013A00000E04242032A21DAEB480021415E002995
:1013B00005DAE6480088401E00B2E4490880E648A5
:1013C0000021415E002905DDE0480088401C00B294
:1013D000DE490880E04A0021515E5F225143084601
:1013E000642100F0FBFB00B2DB490880D7480021F4
:1013F000415E002909DD0024045F04E0FFF74DFE93
:10140000FFF76BFE641E002CF8D1D0480021415E2E
:1014100000290ADA0021415E4C4204E0FFF74DFE4C
:10142000FFF75BFE641E002CF8D1CC48007803283F
:1014300019D1CB480088CB490988401A00B2C84965
:10144000088008460021415E00290CDC0020C449C8
:101450000880C5480078002802D0FFF790FE02E01F
:101460000020FFF78FFDBD48007804287ED1BF48DB
:101470000078002836D10021BD48006803F08CF8C0
:1014800016D2BB480168BB48006802F093FFB94917
:101490000860B9480168B748006803F07DF81DD8B6
:1014A000B5480068B34908600120B049087015E0EC
:1014B000AF480168AF48006802F07CFFAD490860A2
:1014C000AD480168AB48006802F0E4FF06D8AA48BE
:1014D0000068A84908600120A4490870A548006870
:1014E000FFF71BFEA5480068FF210131884203D8A1
:1014F000A3480068884209D8A0480068032109026F
:1015000088427DD89E480068884279D99D48016804
:101510009D48006802F04EFF9B49086000219948F1
:10152000006803F039F80ED29848016896480068C0
:1015300003F032F815D895480068934908600120F7
:10154000934908700DE0914801688F48006802F0E7
:10155000A1FF06D88D4800688B49086001208C499E
:10156000087086480068FF21013100E07DE0884274
:1015700014D883480068884210D98921C905824857
:10158000006802F0B1FF05467D48006801F008F9E7
:101590000646294600F0EAFF7E4908607748006861
:1015A00003210902884214D875480068884210D97E
:1015B0008921C9057448006802F096FF0546704805
:1015C000006801F0EDF80646294600F0CFFF7149AA
:1015D00008606D4801688920C00502F085FF064655
:1015E0006C480168304602F07FFF054601F094F830
:1015F00063490860084600888005800D086000E0A7
:1016000028E00846006840006349085A634908809A
:1016100000228A5E624909684A4362490988604B30
:101620001B6859435018604900F0D8FA48490860CF
:1016300009684B4A0023D35E594308465B4900F0D2
:10164000CDFA434908600846006842490860002016
:101650004149088045480078012806D14C48007867
:10166000012802D10220FFF78DFC4548006843495C
:10167000086000BFB0E5F0B589B005460E461746D4
:101680001C46424805604A4807603B480660494896
:1016900004800120344908702146444800F09EFA35
:1016A00000B230490880204601F07AF807903148AE
:1016B00001683148006802F09BFF0690079900F02E
:1016C00055FF2B4908603048006800F025FF0022D4
:1016D000394B0191009000F0EBFD059104902046FC
:1016E00000F0E3FD002201239B070191009000F030
:1016F000DFFD03910290059B049A00F053FB0791D4
:10170000069000F011FB08901F4801681F48006810
:1017100002F06EFF0790089900F028FF1949086051
:1017200000211A48006802F08BFE07D10B480078B0
:10173000002801D0FFF743FD09B0F0BD074800784D
:1017400000283BD1FFF71BFDF6E70000EC0300206B
:10175000E4030020E8030020AC030020C2030020C3
:10176000B4030020B6030020D2030020C0030020F1
:10177000B80300209C030020CC030020DC030020E1
:10178000F0030020BC030020A0030020C4030020BD
:10179000C1030020B0030020240A0020F40300202D
:1017A000A4030020D40300201027000088130000A9
:1017B000C8030020D003002000408F40FFF7F5FC55
:1017C00000BFB9E7C206D20E012191404209920042
:1017D000014BD2181160704700E100E010B5FFF72F
:1017E00093F810BDB0B504462004070E2002C019BE
:1017F00087B22046FFF7BFF83004050E30024019CB
:1018000085B22846B0BD70B50024012420030443EE
:1018100000BF204C00250CE000BF00BF1E48006840
:10182000C007C00F0028F8D11A4C2046FFF7DAFF96
:101830006D1C642DF0DB70BD70B500240124E40341
:101840002046FFF7CFFF054600BF2046FFF7CAFF3F
:101850000546284670BD70B504460025012C02D10E
:1018600009252D0306E0022C02D11325ED0201E02B
:10187000002070BD2846FFF7B5FF06462846FFF753
:10188000B1FF06463046F4E710B5FFF7A7FFFFF7B4
:10189000BAFF10BDCA1700000000034010B50420B5
:1018A0004E494969072212049143020407231B048D
:1018B0001A401143494A516100BF4949AF20800095
:1018C0001022464B9B681343444CA36000BF00BFEB
:1018D000444BDA600023434CE36000BF424A526845
:1018E000120C12040243404B5A601A46116000BFAA
:1018F00000BF10460068012149078843401811467F
:101900000860072000F058F800BF072000F054F8E6
:1019100000BF3548006801218907884340183249D3
:10192000086000BF10BD10B530480088402802DBB9
:1019300000202E4908802D48008800280ED1012162
:1019400049022B4800F046F801218902284800F09E
:1019500041F80121C902264800F03CF823480088DC
:1019600024490978884204DB01214902204800F01B
:101970002DF81E48008820490978884204DB01219F
:1019800089021B4800F022F8184800881B49097892
:10199000884204DB0121C902154800F017F81348FA
:1019A0000088401C1149088010BD124B1870124B62
:1019B0001970124B1A707047C206D20E0121914065
:1019C000420992000E4BD2181160704782680A4398
:1019D0008260704782688A438260704700020050CC
:1019E000140000680000005040000140F603002091
:1019F00000400050F8030020F9030020FA03002003
:101A000000E100E010B50446012C05D13D4900205D
:101A1000085E3D49088074E03A490020085E3B4971
:101A200008800846008838490988401A00B23849B9
:101A30000880384909687D22D200514308460721B1
:101A4000C90100F0C1F834490880314A0021515ED3
:101A5000314A1288514308467D21C90000F0BEF882
:101A600000B22B4908800020085E002801DB0146F7
:101A700000E0414209B2294A118011460020085E67
:101A8000FF21AA3188423CDA10460021415EAF298D
:101A900037DD234800882349884232DB1C48002177
:101AA000415E002908DB17490020085E1E490880B6
:101AB00001201E49087007E012490020085E1C49F9
:101AC000088001201B49087018480078002818D0A9
:101AD00018480078002814D00020144908701549CF
:101AE0000870114A115E124A135EC818C10F091816
:101AF000491009B2104A118011460020085E0F49B2
:101B0000088010BDD6030020FC030020FE03002047
:101B1000000400209C0300200C040020020400208C
:101B2000B403002088130000040400200A040020ED
:101B3000060400200B04002008040020AC03002051
:101B40000FB4054910B503AA029801F041F810BC82
:101B500008BC04B01847000020040020F8B50E4669
:101B60000446002020622046E1688847002829D0EA
:101B7000252802D06268A16820E0E168204600279D
:101B8000884705001ED028464138192802D8012769
:101B9000FF0220353246204627602946FEF770FBBB
:101BA000002808D0012804D0F61DF608F6000836F3
:101BB000D9E7361DD7E762682846A1689047206AB2
:101BC000401CCFE7206AF8BD002203098B422CD3CA
:101BD000030A8B4211D300239C464EE003460B437D
:101BE0003CD4002243088B4231D303098B421CD3DF
:101BF000030A8B4201D394463FE0C3098B4201D3D1
:101C0000CB01C01A524183098B4201D38B01C01A08
:101C1000524143098B4201D34B01C01A524103097F
:101C20008B4201D30B01C01A5241C3088B4201D32E
:101C3000CB00C01A524183088B4201D38B00C01ADB
:101C4000524143088B4201D34B00C01A5241411A02
:101C500000D201465241104670475DE0CA0F00D0E5
:101C60004942031000D34042534000229C460309DE
:101C70008B422DD3030A8B4212D3FC22890112BA64
:101C8000030A8B420CD3890192118B4208D389013C
:101C900092118B4204D389013AD0921100E0890954
:101CA000C3098B4201D3CB01C01A524183098B4235
:101CB00001D38B01C01A524143098B4201D34B011E
:101CC000C01A524103098B4201D30B01C01A524181
:101CD000C3088B4201D3CB00C01A524183088B4208
:101CE00001D38B00C01A5241D9D243088B4201D391
:101CF0004B00C01A5241411A00D20146634652417C
:101D00005B10104601D34042002B00D5494270477A
:101D100063465B1000D3404201B50020C046C04678
:101D200002BD7047704770470246C80FC007814325
:101D30004B0030B54B405B009B0D20D01923DB06D8
:101D4000C91801231B05994220DB0324A40704259D
:101D50001346AB400BD3002B04D1EB0613409B0082
:101D6000E34204D401246407002312195941FF23DC
:101D70001B0599420BD2C9000143500F09E0CB0269
:101D800004D501430803024305D0054830BDFF21B7
:101D9000C905084330BD084607210905884330BD01
:101DA0000000C07FF0B51FB4F84F0E091D09BC46F6
:101DB0003E403D400C46B7435C408CB0002F7DD088
:101DC0006746AF43FBD0002D79D0002EFCD0E20F48
:101DD0003243521BFF24A40412190892420DCD0273
:101DE000C7020E981543420DD9021143C202600387
:101DF00005430143080C0195150CAC4605040B4640
:101E0000AB430A9565462D04AA430995E04D040AA3
:101E10007D446419803C257806466E43012476197A
:101E2000E405A61B7543ED0C490BAD1C694349192C
:101E3000A401611A0E0CB6463604B14369437646D6
:101E40006E43090C711889090591F90700D0A100AA
:101E5000049101997F08CC0727434C08059DE10BAD
:101E60004D432D0C29466646754302950D46454364
:101E70002E46029D7D1BB44100950D465D430194A5
:101E80002C0C2F040D465543AE462D0C3D430295B8
:101E900003947546049C2D04641B049406D2029C92
:101EA000039D641C002675410395029401AC70CC1F
:101EB000009F7D1BB4410904009501E03AE15EE119
:101EC000079101940599A4086143090C0C46444309
:101ED000650BE70464464C43A646640B3C430395FC
:101EE00002947446049DE4042C1B049406D2029CC4
:101EF000039D641C002675410395029401AC70CCCF
:101F0000009F7D1BB44101940C465C430095650F16
:101F1000E7000C465443A646640F3C4303950294E5
:101F20007446049DE4002C1B049406D2029C039D7D
:101F3000641C002675410395029401AC70CC009F8F
:101F40007D1BB441AE09AF06049DC900AD092F4306
:101F5000049DA406AD060495079D344369180791B6
:101F6000059DE10B4D432D0C2946664675430295B0
:101F70000D4645432E46029D7D1BB44100950D46FE
:101F80005D4301942C0C2F040D465543AE462D0C99
:101F90003D43029503947546049C2D04641B0494F0
:101FA00006D2029C039D641C002675410395029491
:101FB00001AC70CC009F7D1BB44101948C0506944C
:101FC000079C890A611800950791019C0599A4084E
:101FD0006143090C0D464543680BEF040D4664460A
:101FE00065436C0B3C43049FED047D1BAC4602D261
:101FF0000025641C6841009E019D371B85410846F1
:10200000584301950C46460FC5005443600F2843C2
:102010006546E4002C1B02D20025401C6E41019D48
:102020003F1AB5412846BD09800628438446A009C9
:10203000BF064E020699A40676180743079D0020A6
:1020400068410A99079019430020099B0090604657
:10205000FF1913434041E20F64003A43A44604468B
:10206000D71A8C41A04203D90120009020463A465D
:10207000C70F941840416246D20F22436446640061
:102080000494009CBE466400D71AA44604460297F6
:102090008C417746002F01D1A04204D96046401CF4
:1020A0008446029A2046C40FA64694184041049ADA
:1020B0000546D20F224364466400D31A8D4171460F
:1020C000002901D1A84202D928461A46641C1043AF
:1020D0000122002800D0164361020020079B04461D
:1020E00089195C410223002C02DB49181346644124
:1020F000089DCE0A2D145D194B056705E10A2C05D4
:102100000D1908993E43C9076940002B08D0934038
:1021100006D30022761C5141002B01D176087600AF
:102120001C4A002D43DB154241D0AA433FD0304624
:1021300011B0F0BD0E4607184E41174D7A42B54119
:102140001AD30E9A1D4696185D41134A7642AA414B
:1021500012D3012252054D00D5420AD15C00D4426F
:102160000AD04B4002D592021143E1E749004908E9
:10217000DEE7E10FC90718E000200849D8E7054865
:1021800001420DD10342F7D0F3E700000000FF0742
:10219000BC2800000000F07F0000E0FF0000F87F96
:1021A000114821460143C01241400020C0E70123ED
:1021B000089A9B069A4205DC032252078918C90F28
:1021C000C907B5E7052252078918074A1143D212F9
:1021D0005140ADE75940504010B54B404240594046
:1021E0005040FFF7DFFD10BDFFFFFF7F30B5034616
:1021F000CA02400D1043164D164C0A1502D020435A
:10220000002A06DBAA1A002A12DDD040FF2A0BDCC6
:1022100030BD5205520D01D140004008AA1A07D422
:10222000D0404042FF2A01DD002030BD0028FCDD07
:102230004A00002B01D0012000E0002010180122EC
:102240005205D042F0D8C817C043604030BD0000EE
:102250001E040000000000801F22030C02D10F2288
:10226000000402D0030E03D004E0002001467047B2
:102270000002083A030F01D10001121F830F01D1A0
:102280008000921E002801DB4000521E12055118EA
:102290004205C012411810467047C10FC90700D04F
:1022A0004042012292071143D6E701218907D3E773
:1022B000F0B5934C0D092646AC46AE430D465D4045
:1022C00087B0002E7ED01E092746B743FAD0674656
:1022D0002740ED0F3D43264075D024012142FBD01D
:1022E0007419FF25AD04641B0494CC02D9020123A8
:1022F0001B05C90A1943E40A1C430F01110F2401ED
:10230000030F1C43050116010F43A20B2D09900377
:102310008443A90B88038543BB0B98038743360985
:10232000BC46B00B8703BE430F46474303972F4677
:1023300077430296BE46029F4E19C71906967E4302
:102340000597039FF71B7646BE1B77463F01009714
:102350000196039FB60BF619B646019E009FB60480
:10236000BF1902D37646761CB64676467600002F15
:1023700001D001273E4367467D43AE46029F254676
:102380007D4300956D00AE1975466D00AF19654629
:102390005D19069E03956E437546751BAE4615196D
:1023A000059E02956E43009D5943761B75466D1A36
:1023B00050438646301A05900195F80606D07D09EF
:1023C000012001E07DE079E0054300E07D090E0A8F
:1023D000090600204D19464100967646310A370617
:1023E000009E7F1971418E4601998D0D8E027146B6
:1023F000F6194D41AE46059DA90DAF027546BE19B1
:1024000069415A4363465C43039D029B6B439B1A9D
:102410001D1BAB0EAD016D184341110B1205521976
:102420005941230A2406A5195341934200D2491C5D
:1024300001225202914203D315220226F64302E002
:1024400014220326F6432024A41AA1401F46A740C5
:10245000BC461F46D7400F432946D1406246114330
:10246000049A1214B2181305049EFB18F607734061
:10247000A54009D00124A54006D30024491C63418E
:10248000002D01D1490849001E4CA24203D2084642
:10249000194607B0F0BD012204999206914207DB6C
:1024A00005214907184A59181143D2125140F0E743
:1024B000032149075918C90FC907EAE70020E907AE
:1024C000E7E706180C464C4110487642A04114D369
:1024D00094181A465A410D48644290410DD3012088
:1024E00049004005814208D35900814205D3E90FD4
:1024F000074AC90700201143CBE700200549C8E778
:102500000000FF07FE070000FFFFFF7F0000E0FF65
:102510000000F07F0000F87F0121C9050123411868
:1025200042001B06D3185B0E0AD0C1100722D20648
:10253000891840075242D14201D55200891870478C
:10254000090208D50146002A03D0C10FC90700209F
:10255000704710467047420202D00020024970477F
:10256000072109050143F4E70000F87F70B5FF2457
:102570002404C609FF25264001352E43C209CB0994
:102580000546224023404D40002A6BD0002B69D0E5
:10259000A24267D0A34265D0002D00DA3246012462
:1025A000E4052143204309020002090AD21A000A65
:1025B0004B0C7F24E31A434C7C44E35C7D242404CD
:1025C000121914145B00A218884201D3521C00E0B7
:1025D000400049420C465C4324115C43DB01641516
:1025E000E318040A5C43C502200D0C4644436419F9
:1025F000250A5D432303EC0C0D46654300030019D7
:10260000EB184C42A34201D35B18401CD4052018A0
:10261000002B07D05B00C91804D3401C002901D14E
:10262000400840003F2189048A4209D3002A08DC7F
:102630001106090F04D0032149074018C00FC00735
:1026400070BD01224100120689187F225206914274
:10265000F6D205214907C84201D5901070BDFF2070
:10266000C00570BD002D00DA3246174EA24207D2D7
:10267000A34205D21802000E17D0E80FC00770BDA4
:10268000FF2443002406A34216D84900A14213D8D0
:10269000A34201D1A1420FD0A14201D1002101E00A
:1026A00041004908D005084370BD1002000E03D058
:1026B000FF200243D00570BD304670BD4840414008
:1026C000484053E7942100000000C07F10B5024647
:1026D0009E240002D115A307002902D01843002927
:1026E00004DB611A00290CDDC84010BD0906090E83
:1026F00001D140004008611A03D4C840404200287C
:10270000F3DDFF2150000906884201D9002010BDE9
:10271000D017C043584010BD01460002CA1504D06E
:102720000123DB071843002A09DB9E239A1A01D4F0
:10273000D0407047FF2248001206904201D9002085
:102740007047C817C04370471F22030C02D10F22E5
:1027500000041CD0030E01D10002083A030F01D17E
:102760000001121F830F01D18000921E002801DB9F
:102770004000521ED20551180212511819229040E1
:1027800004D3491C002801D1490849000846704774
:10279000C10FC90700D04042012292071143D3E77D
:1027A00001218907D0E710B500F0ACFA006810BD30
:1027B00010B5044600F0A6FA046010BD7047FFB5DE
:1027C0000C461E468FB003CA089009914F007D0D3C
:1027D00000D16D1E002108460020C0460321099A41
:1027E00089050840002A03DA820080184008084062
:1027F000800D01280A9002DD0020C0430A9008984D
:1028000007430DD0EF48F04928184843071418989B
:1028100000281DD07542291E1DDD0A9842421BE08A
:102820001898012802D00020302104E00020F24353
:1028300005E02154401CB042FBDB30460022189BCF
:10284000002121540F998B600A60486013B0F0BDDD
:10285000BD1B6D1CDFE70A9A002900DA69420BA84C
:1028600000F0EEFA0BAB07CB03AB07C3089909984E
:1028700000F04AFB6B4607C30146D4480918002DF7
:1028800000910ADDD14903980A9A4942401803A9E8
:102890000390684600F05DFD07E003990A9A081866
:1028A00003A90390684600F02AFD6B4607C30004A5
:1028B000000C03D00020C043410800E01046189AE5
:1028C000002A03D00022009215461EE0751E05D492
:1028D00000F01CFA303262556D1EF9D50122084312
:1028E000079602D000227F1C04E02078302801D116
:1028F00000227F1E002A069789D01EE0112D07DADC
:1029000000F004FA303262556D1C02460A43F5D1DC
:10291000084303D00098002819D00EE00021681E5B
:1029200005E0235C625C63542254401E491C8142D2
:10293000F7DBA81B401E07950690079A1899002000
:10294000A0540F98079B069A81600CC07EE7112661
:10295000002018905BE7D21DF0B50D460446D10863
:1029600093B0C90003C90C900D9101F07FF90246A4
:102970000D98C00F01D02D2007E02068810701D5F8
:102980002B2002E04007C00F4001032A0F9001D026
:10299000072A05DB03462946204600F00DFA0EE122
:1029A0002078800601D5E76900E006272846652DD6
:1029B00004D0662814D0672D69D12DE00020112F96
:1029C000009001DB112300E07B1C0CAA03A910A8D6
:1029D000FFF7F5FE1199002610987D1C0E9142E03C
:1029E00001203B460CAAC0070B900120009003A9D0
:1029F00010A8FFF7E4FE119D1298109900260028F8
:102A00000E9501D1781C0D18781B02D446427D1C0E
:102A1000761EE81B00903AE0012F00DA0127002023
:102A2000112F009001DD112300E03B460CAA03A901
:102A300010A8FFF7C4FE11993D46109800260E918C
:102A4000217809070BD40E99A94200DA0D4603A993
:102A5000012D04DD4A19203AD27F302A06D0B8422F
:102A600001DA011D04DA012100910FE06D1EEFE78C
:102A7000002802DC86192D1A03E0411CA94200DD62
:102A80000D46801B401C00900120C0070B90207851
:102A9000000705D40098A84202DB0020C043009044
:102AA00069460020C8720B98012102AF0337C9079D
:102AB000884225D0022010902B2011900B980028DE
:102AC0000BDA40420B902D20119006E00B9800F09D
:102AD0006FFC30317F1E0B9039701099481E002911
:102AE0001090F3DC0B980028F0D111987F1E3870FD
:102AF0002088000501D5452000E065207F1E387044
:102B000001A8C01BC01D0B900F98002800D0012009
:102B100041190098C01709180B980818A169081ADC
:102B2000401EA0612078C00602D42046C046C046A0
:102B30000F98002805D06268A1689047206A401C61
:102B400020622078C00625D52046C046C04621E038
:102B5000002E07DB0E98B04204DD03A86268805D9A
:102B6000A16802E06268A16830209047206A761C64
:102B7000401C20620098401E002800900AD100F0FE
:102B8000BDF8C06862680168405CA1689047206A2F
:102B9000401C206228466D1E0028D9DC07E06268D0
:102BA0003878A1687F1C9047206A401C20620B99EE
:102BB000481E00290B90F2DC2046C046C046022089
:102BC00044E6000001FCFFFF104D0000E1DFFFFFC5
:102BD000084B70B50D467B4400F0DBF804462846F0
:102BE0000020C043002802D00020C04370BD204612
:102BF00070BD0000FF16000070B506464800440D89
:102C0000114B0020002C0AD0634008D09A4206DA0B
:102C10006542AA4203DD12058019514170BDCD0FF6
:102C2000ED07002C05D0002B05D0002A01DB074959
:102C30000D43294670BD30460A03104302D00020E0
:102C4000034970BD304670BDFF0700000000F07FF3
:102C50000000F87F10B5FF231B0644009C421DD8DE
:102C60004C009C421AD80346124A0B4307D4401A20
:102C700002D3EFF3008010BDEFF3008010BD081AFF
:102C800006D2EFF3008001219043C907084302E018
:102C9000EFF30080904380F3008810BD0D231B04E8
:102CA0001A4204D01146002000F096FB10BD00F03F
:102CB00053FD10BD0000009005B50E48002200F045
:102CC00001F805BDABBE01E000207047002A00D02E
:102CD00010600120704706980188074A914207D189
:102CE00002300690079801218907884307907047B2
:102CF000FEE7000000010000ABBE00000048704786
:102D00005412002000487047341200200B4670B562
:102D1000024689078008084319469D08141AA941EC
:102D200025090807054308092C194841250A010609
:102D30000D43010A2C194141200C0D0428430D0CB0
:102D400000194D41002140194D41C0086907084351
:102D5000E908840F8D002543840024184D4124196F
:102D60006D41121BAB4107E00925ED432C115219AF
:102D700063410024401C61411C460A250026551B66
:102D8000B441F1D270BD000001694A1C02610878AB
:102D9000704700B58FB0029100210591054901935C
:102DA00079440391114604906846FEF7D7FE0FB0B0
:102DB00000BD0000E5FFFFFFF8B51F4604460123F4
:102DC0000068DB02032601461840072A05DB0028BD
:102DD00001D017A506E017A504E0002801D016A52C
:102DE00000E016A5102081432160A069C01E002FBD
:102DF000A06101D0401EA0612046C046C046002F01
:102E000009D038466268A1689047206A401C206259
:102E1000C01C206206E0206AFAE762682878A16890
:102E20006D1C9047761EF8D22046C046C046F8BDBD
:102E30004E414E006E616E00494E4600696E66005E
:102E4000F7B516468AB02F4878446C4603467C3363
:102E5000C06F5A689B680DC42A487844763003AC2A
:102E60000DC80DC43720C001081837211B30FEF7EC
:102E7000B5FE05460C46803D1B3C02D56442012050
:102E800000E00020002709900FE0E0070BD00C20A5
:102E90001C497843794432464C394118684600F061
:102EA0002EFA6B4607C364107F1C002CEDD1154F22
:102EB0007F442C3F15E0E80711D02001C0190EC84F
:102EC0000691089307920068F04201D19819089082
:102ED000324606A903A800F012FA03AB07C36D102F
:102EE000641C002DE7D1324669460998002803A8E2
:102EF00002D000F02EFA01E000F001FA0A9B07C3AD
:102F00000DB0F0BD641A0000034640000A4610B53B
:102F1000400D0BD00121C9070F24A40200191C0386
:102F200064082143540D2143D20207E0002101200F
:102F3000F2E7D40F490021435200401E0029F8DA7D
:102F4000DB0FDB07184310BDFFB50D46144685B0F7
:102F50004868516800F064FE00910190A868A1687B
:102F600000F05EFE02910390A868616800F058FED0
:102F7000029A12188242029201D2012000E000203F
:102F8000019A0B18D2180028019202D08A4202D965
:102F900003E08A4201D2012000E0002000990818D5
:102FA00000906868A16800F03BFE029A1218824205
:102FB000029201D2012000E00020019A0B18D218E1
:102FC0000028019202D08A4202D903E08A4201D24B
:102FD000012000E00020009908180090286821686E
:102FE00040004900400849084018EE49471814E0DD
:102FF00001994000C90F08430090019802994000D0
:10300000C90F08430190029803994000C90F084373
:103010000290039840007F1E039000980028E7DA92
:103020000898002801D0E04E00E00026B74228DAD8
:10303000F71BF806C00E15D0029B2021091A039A2F
:103040008B401A430392029A019BC2408B401A4361
:103050000292019A009BC2408B4000991A43019250
:10306000C14000917A110BD06B460320811A01D523
:10307000002101E0890059588700401ED951F5D53B
:10308000374603980299002800D001200143089890
:103090000291002808460CD0002800D00120019998
:1030A000019A490508430121D20AC902D2020192BC
:1030B00000E001210E9B0122D207012B02D0002B40
:1030C00003D013E0002807D116E0904204D89042C4
:1030D0000CD1019B0B4209D0019B5918019105D1DC
:1030E0000099491C009101D17F1C0092002803D057
:1030F000102108460020C04628682168019B009ADC
:103100004840C10F0598C90739430EC009B0F0BD4A
:10311000FFB587B0099A0898089953689268406883
:10312000896896460022039317469446089A1268C7
:103130005300099A5B081268520052089A1A9B4B76
:10314000D4180A9A002A01D0352200E040220692C3
:103150000022012315460492DB07059324E0002D8D
:1031600005D175460346039E4D1BB34109D37546F1
:103170006646039B491B049D9841059B7519AC4607
:103180005F4163463B4308D0059B049EDD077608FC
:103190002E435B080496059301E0521E641EC50F82
:1031A000ED0749184041521C069B9A42D7DB002D7F
:1031B00004D17546039A6B1A824101D203200CE0B8
:1031C000039A0B466B404240134303D0014303D0A4
:1031D000012002E0022000E0002061460191002170
:1031E000009702910A99002905D0614640020143E7
:1031F0006D4B019102E08007002302909C423ADA75
:103200001A1BD006C00E15D0029D2021019C091A60
:10321000C5408C402543029C8C4000D001242543AE
:10322000019C02953D46C4408D4039462C43C14027
:103230000194009154111DD06D46022100220229F3
:103240000CD10320001B07E0002804DB8600AE59E8
:10325000002E00D00122401C0328F5DB081B02D5FC
:1032600088002A5004E08000285810438A00A850A3
:10327000491EE3D51C460A98002802980CD0002865
:1032800000D001200199019A490508430121D20A81
:10329000C902D202019200E00121109B0122D20753
:1032A000012B02D0002B03D013E0002807D116E039
:1032B000904204D890420CD1019B0B4209D0019B53
:1032C0005918019105D10099491C009101D1641C44
:1032D0000092002803D0102108460020C04608981C
:1032E0000999019A0068096848400099C30F079836
:1032F000DB0723430360826041600BB0F0BD1FB564
:10330000002300920A46014601A8FFF71DFE01AB0B
:1033100007CB04B010BD1FB5012300920A46014639
:1033200001A8FFF711FE01AB0F2407CBA402C30FC6
:103330004000DB074008001B002900DB002049009B
:1033400000054908CC0A204349051843D20A114315
:10335000DFE71FB5002300920A46014601A8FFF7E8
:10336000D7FE01AB07CBD4E71FB5012300920A4675
:10337000014601A8FFF7CCFE01AB0F2407CBA40246
:10338000C30F4000DB074008001B002900DB0020C2
:10339000490000054908CC0A204349051843D20AD0
:1033A0001143B6E702C0FFFF013C0000FF3F0000F1
:1033B00001468008081A02091018020A1018020CA7
:1033C0001018C008820012185200891A01E0401C2F
:1033D0000A390A29FBD27047CA0211D54A03520F93
:1033E000002A04D0C803C043012188407047054A21
:1033F000EFF3008108010009104380F30088704753
:103400000020704700000030F0B50C46871A9C4140
:103410000D46861A9D4103D2C01BA141D2196341BA
:103420000D0D1F0DC74EEC1BAE435CD07F057F0D0D
:103430000026002F51D02D05AC46A943DD02012303
:10344000ED0A1B051D4320231B1B24D41746E74010
:10345000381871412F46E740CC199D402818314655
:1034600061410C0D27D161449A4013D50023401CC3
:10347000594152000ED14008400001224B00520534
:10348000D34207D305204007C14201D5AE4900E031
:10349000AE493046F0BD6B00002A00D001229A18D8
:1034A0001F23203C1B1B01D5002302E0E540281808
:1034B00071410C0DD7D0012424050919C407CD078B
:1034C00040084908E40F28436144002CD5D000246B
:1034D000401C61419A40D0D1CDE76A05520DD9D147
:1034E000C90FC907D5E79A4D4E00002801D0012425
:1034F00000E0002434195F00002A01D0012600E01A
:103500000026BE19934FAC420CD8AE420AD8B44242
:1035100006D001256D05EC42BCD010461946F0BD21
:103520009942FCD000203946F0BDF0B51FB40C46DE
:103530000F46811A9F412546861A9D4106D20125D4
:10354000ED076F40401ABC4152187B41210D1E0D02
:103550008D1BAC467B4D8D437ED075056D0D7CD0AB
:103560000D05AE46AC431B031B0B774D52429D41EC
:10357000202366469B1B14D31746F74038180026B5
:103580000090744160462F460741E41900989D4021
:103590002818664116D4714671189A4025D5012322
:1035A00020E093182A466A415200002B00D0521C9A
:1035B0001E23203E9B1B002B61DD3541EE17281892
:1035C0006641E8D5001876415B1C9A4000D3401C48
:1035D0004B05F3181524E34010D3002B52D071464D
:1035E0007118D30FC01802D3491C05B0F0BD0123D8
:1035F000DB079A42F9D140084000F6E70122520564
:10360000B21801D1002853D00123CC0ADB02994320
:10361000891E002A08D1020C03D0020C00041039C4
:1036200002E00246002020390023550B05D112028A
:103630000823550B01D152010D23550C01D1120164
:103640001B1DD50C01D192009B1C150D01D1520000
:103650005B1C2025EE1A01E02CE022E00546F54037
:1036600015439840CA1AE10769181305C918002ABA
:10367000BBDA032040070818C10FC9070FE07146E5
:103680006118B2E7F10740080843711071444A001D
:103690000CD001235B059A42A7D2C90FC9070020AD
:1036A000A3E74905490D26D1002001E00028F4D107
:1036B00000219AE7264D6600002801D0012100E094
:1036C000002171185F00002A01D0012600E00026C9
:1036D000BE19204FA94210D8AE420ED8B14208D030
:1036E00001256D05E94206D01946A8024140104661
:1036F0007BE79C4201D0214677E70020394674E7FA
:1037000030B40C465C4004D50124E407634030BC6F
:103710000BE730BC78E630B40C465C4004D501249D
:10372000E407634030BC6FE630BCFEE630B40124F1
:10373000E40761400D465D4001D430BC64E663405F
:1037400030BCF2E6FF0700000000F0FF0000F07F51
:103750000000E0FF0000F87F10B5024800F072F8AA
:1037600010BD00000000C07F0048704734120020E8
:103770007546FFF7F9FFAE46050069465346C00897
:10378000C000854618B020B500F096F860BC002750
:103790004908B6460026C0C5C0C5C0C5C0C5C0C51D
:1037A000C0C5C0C5C0C5403D49008D4670470446F0
:1037B000C046C0462046FCF782FD0000024670B5B8
:1037C0000A4392072AD11E4DEE0104C808C9541BB2
:1037D0009443344017D0D0B2D9B2401A21060143E5
:1037E00010D190B299B2401A210401430AD11002BB
:1037F0001902000A090A401A2102014302D1100EDF
:10380000190E401A70BD9A42DFD010BA19BA884218
:1038100001D9012070BD0020C04370BD02780B7833
:10382000401C491C002A09D09A4207D102780B7823
:10383000401C491C002A01D09A42EFD0D01A70BD1A
:103840000101010110B50C461107090F092904D027
:103850000A290AD008290CD104E011460820FFF7F4
:10386000BBFD06E0510606D501E0510601D5012059
:10387000C007214610BDD10607D501010909CC08B2
:103880004907000E0006044309E0410F20024907E2
:10389000000A0143200E00061D22D14101430846C3
:1038A000E7E7000001491820ABBEFEE72600020052
:1038B000704700000348004703480449044A054B89
:1038C00070470000050200009812002058030020F5
:1038D0009813002058000020F8B538480090384868
:1038E000C16B01221143C1630025354CE06B3549A2
:1038F0000840E905C90B0843E0630026206BC007B8
:10390000C00F02D000F062F8761C082EF6D3002714
:103910003E462B48006BC007C00FFAD000F056F8A7
:10392000002000F05DF80446012000F059F824184A
:10393000022000F055F82418032000F051F8241854
:10394000042000F04DF82418052000F049F8241850
:10395000062000F045F82418072000F041F8201850
:10396000C010761C3F18B6B2082ED2D3F81000B2A1
:1039700015490028088014DC13480022825E009953
:103980005242914214DA2902FF390139CA030C4923
:10399000D20BCB6B0B4C23401A43CA6300990180B6
:1039A00006E06D1CADB20090E81FFF38FA389CD1DC
:1039B0000348C16B49084900C163F8BDFF07000017
:1039C00000000E40FF00FEFF0E0400200348016BC4
:1039D000C908C900491C01637047000000000E407F
:1039E00002498000085800B27047000000000E40F5
:1039F000054901208A68000702438A600349C860BC
:103A00000020C86070470000000200500000005015
:103A100002498A6882438A607047000000020050B1
:103A200002498A6802438A60704700000002005021
:103A300010B5034840694003400F00F047F810BD3F
:103A40000002005010B50C4A10694007400F10D01A
:103A5000022809D0042809D0084891690907090FEC
:103A6000491CFEF7B1F810BD0548F6E700F00AF86A
:103A7000F3E77D200002F0E700020050006CDC025A
:103A8000808D5B000448006A0449C006800F4843EB
:103A9000034940187047000000020050808D5B0011
:103AA00080C3C90110B5074840690007800F04D0E2
:103AB000022805D0FFF7C6FF10BDFFF7E3FF10BDDA
:103AC000014810BD00020050006CDC02014610B538
:103AD0000020012906D0032903D0042905D0FFF7CF
:103AE000B1FF10BD7D20000210BD014810BD0000D7
:103AF000006CDC0270B5134B984201D1831402E0D4
:103B0000520801235B03104CA5681D43A5600F4CB0
:103B1000E3600023E36001231B041943016042605A
:103B200004460B48844205D1FFF78CFF6168491CAD
:103B3000490003E0FFF786FF6168491CFEF744F87F
:103B400070BD000000000340000200500000005063
:103B5000004003400249C8600020C8607047000070
:103B6000000000500348592101601621016088219E
:103B7000016070470001005010B51020FFF7EAFF08
:103B80001020FFF745FF10BD70B505460C4610200C
:103B9000FFF746FF1020FFF7DDFF044A5068000CD6
:103BA000000420435060156070BD000040000140DB
:103BB00070B506460025FFF73BFF7D21C900FEF7E3
:103BC00003F881B20920C006FFF7DEFF0548C1688F
:103BD0008CB2AC4201D2761E01D02546F7E7FFF742
:103BE000CBFF70BD4000014010B50C490A4B0A786C
:103BF00000249854521CD2B20A709C54521C102AB1
:103C000003D20A2801D0002805D10C7000220249F5
:103C10000420FFF757F810BD241200201C040020D8
:103C2000F8B5040C8BB2264682B25E431046584368
:103C30000D0C370C360400218019164679416E436D
:103C4000370C36048019264679416E438919F8BD30
:103C500030B47446641E2578641CAB4204D3635DA3
:103C60005B00E31830BC18471D46F8E74900CA025C
:103C70000243100000D004204A0D01D0012210435D
:103C8000044A490D914201D102210843012800D183
:103C900005207047FF070000F7B596B0189B00217C
:103CA0009960D960179908914C00CF4964088C42FB
:103CB00006DC189A179951601060002019B0F0BD09
:103CC000CA490027CA4DFF438C423BDAD3260899E4
:103CD00076050029C74A17992B4619DDFFF71BFD0A
:103CE000AC4207D0C44AC54BFFF715FD189A516086
:103CF00010600AE03246C14BFFF70DFDC04AC14BD0
:103D0000FFF709FD189A51601060012019B0F0BD4D
:103D1000FFF7F6FCAC4207D0B74AB84BFFF7F0FC10
:103D2000189A516010600AE03246B44BFFF7E8FC85
:103D3000B34AB44BFFF7E4FC189A51601060384660
:103D400019B0F0BDB0498C4217997CDC4900490894
:103D50000746AE4AAE4B0391FEF7AAFA0022AD4BDE
:103D6000FFF7CEFCFEF742FA0990FEF796FA0646F8
:103D7000A04A2B460791FEF79BFA3A46039BFFF7B2
:103D8000D5FC05460F469C4A9C4B30460799FEF7EA
:103D90008FFA220D01240B922A463B46FFF7C6FC00
:103DA000189A032C5160106039D018984068400070
:103DB000410D0B98401A61016118113981422EDAC8
:103DC00095492001794402950C900818039743689F
:103DD000026830460799FEF76BFA01910090039B49
:103DE000029AFFF7A3FC05460F46039B029AFFF7D2
:103DF0009DFC019B009AFFF78EFC01918749009082
:103E000079440C984018C368826830460799FEF7D9
:103E10004FFA019B009AFFF77EFC641CBCE70898F0
:103E200000280DDA1899012208684968D207514024
:103E3000189A51601060099819B04042F0BD02E034
:103E4000099819B0F0BD09030122090B12050D9064
:103E500089181798109140007149400D4018411180
:103E6000C006C00E20221290101A13900020069057
:103E7000079088006B4979444518062007AC143533
:103E800015902F681298696887401398C1400F43B6
:103E900038461099FFF7C4FE0646119138460D9931
:103EA000FFF7BEFE23688A191B189C46834201D285
:103EB000012600E0002620468038C36F9719DB19E1
:103EC0008A4201D2012700E0002711997918002EBB
:103ED00002D0934202D903E0934201D2012200E0D2
:103EE0000022891862462260C36781671598241FE3
:103EF000401E2D1F15900028C3D1012102984907AB
:103F00004018800F1190029805998000039D049C31
:103F10000B91FEF7C2F906460F462846FEF7C5F993
:103F20001D22D243FEF768FE0A900E912046FEF74E
:103F3000BCF93D22D243FEF75FFE129009910B9827
:103F4000FEF7B3F95D22D243FEF756FE0D910890BD
:103F5000099B129AFFF7D4FB0E9B0A9AFFF7D0FB3E
:103F600032463B46FFF7CCFB00240D4632463B462B
:103F70002046FFF7D0FB0E9B0A9AFFF7CCFB099B6C
:103F8000129AFFF7C8FB0D9B089AFFF7CFFB264A52
:103F9000264BFEF78DF906460F46254A254B294646
:103FA0002046FEF785F932463B46FFF7A9FB064659
:103FB0000F46152292061D4B29462046FEF778F93A
:103FC0003B463246FFF79CFB179A002A05DA119A06
:103FD000524211920122D2075140189A516010604A
:103FE000119819B0F0BD0000FB21E93F7CD90240D7
:103FF000FB21F93F000040543163621A61B4D03DA7
:104000007370032E8A19A33BFB21394183C8C96D04
:10401000305FE43F0000E03FF8090000BC09000009
:104020000BFCFFFF76090000182D4454FB21F93DDD
:104030003326A611460B113CF0B51FB44E00F920F3
:104040007608800584B00F46864204DA0498FEF7AD
:10405000CDF8002838D0049A3B4610461946FEF7A2
:1040600027F9044602462C480D460B4606217844A3
:1040700000F05CF822462B46FEF71AF901910090F9
:104080003946079B069A0498FEF712F907460291F3
:1040900020462946019B009AFEF70AF93A46029B00
:1040A000FFF739FB074600220091D24320462946FC
:1040B000FEF7A2FD194A96420ADA3A46009BFFF73C
:1040C0002AFB0022164B23E00020154909B0F0BD61
:1040D000144A964202DD0024134D03E001225205EA
:1040E000B51A002422462B46FFF715FB0646019120
:1040F00022462B4600200A49FFF70DFB0D460446D9
:104100003A463046009B0199FFF705FB22462B46B5
:10411000FFF70CFB09B0F0BD1E0700003333D33F9F
:104120000000F03F0000E93F0000D23FF8B5044630
:104130004F1EC8000838211815461E4608684968F1
:104140003A4606239A4310D02A463346FEF7B0F883
:104150003A46D200083AA3181A687F1E5B68FFF738
:10416000CFFA06223B469343EED1022F23D0042FF1
:1041700011D0062F2FD12A463346FEF799F8E36A6D
:10418000A26AFFF7BDFA2A463346FEF791F8636A42
:10419000226AFFF7B5FA2A463346FEF789F8E36943
:1041A000A269FFF7ADFA2A463346FEF781F8636944
:1041B0002269FFF7A5FA2A463346FEF779F8E36845
:1041C000A268FFF79DFA2A463346FEF771F8636846
:1041D0002268FFF795FAF8BDF0B51FB40546480010
:1041E0000C46F9214008890586B088420BDA28463A
:1041F0002146FFF73BFD042801D100F063F8284673
:1042000021460BB0F0BD2A46234610461946FEF75C
:104210004FF806460F462A462346FEF749F8009017
:104220002548019132463B4605217844FFF77EFF41
:10423000029010980391002829D0204A204B019920
:104240000098FEF735F80490059168460FC8FEF710
:104250002FF8002201910090D24309990898FEF7A7
:10426000CBFC019B009AFFF756FA32463B46FEF71D
:104270001FF8099B089AFFF74EFA059B049AFFF76F
:104280004AFA2A462346FFF751FA0BB0F0BD0B4617
:1042900030463946029AFEF70BF8084A084BFFF7FA
:1042A0002FFA019B009AFEF703F82A462346FFF7F0
:1042B00027FA0BB0F0BD00005A06000049555555CD
:1042C0005555C5BF034A10B500201107FEF794FCF1
:1042D00010BD000001FDFFFF10B5FFF785FC0020B9
:1042E00010BD000000B54A00254B520887B09A4225
:1042F00003DC0022134600922EE0224B9A420CD19E
:1043000000280CD10120FEF753FA00221346104674
:104310001146FDF747FD07B000BD9A4204DB0122BC
:10432000FEF76AFC07B000BD02AAFFF7B5FC8107E3
:10433000890F012000290CD0012911D0022915D0A4
:1043400002A80FC8FFF778FE0122D207514007B03C
:1043500000BD009002A80FC8FFF73EFF07B000BDE8
:1043600002A80FC8FFF768FE07B000BD009002A8C2
:104370000FC8FFF731FF0122D207514007B000BD3F
:10438000FB21E93F0000F07F10B500290AD0087832
:10439000002807D005487844FFF710FA002801D01C
:1043A000002010BD0248784410BD0000DE0500006A
:1043B000D605000070B501250400ED074C4020D45F
:1043C000441A01D2001B0919C60D4B00F2B2FF2A94
:1043D00029D01B0E2CD000020C02D31A2C43DC4037
:1043E0002843051910D2280A02D3401C6D0611D0AB
:1043F000761EF6058019FF2A00DA70BDC00DC005D3
:1044000070BD694000F0FAF801200543C541521C17
:10441000761CE8E764089C40C90161408900E7D147
:104420000124A043E4E71B0E440200D0034870BD02
:10443000002AFCD1C00FC00770BD00BF0000C07FC4
:1044400001230200DB050A430DD4DA4203D49A4269
:1044500007D488427047D84214D4D94212D4884233
:10446000704780427047DA4203D59A42F9D58142BB
:1044700070475B004200DA4204D24A00DA4201D2BD
:104480008142704710B5024AFEF7E4FB10BD00BF41
:104490000900120401230200DB050A430DD4DA42AD
:1044A00003D49A4207D488427047D84214D4D942E0
:1044B00012D48842704780427047DA4203D59A424C
:1044C000F9D5814270475B004200DA4204D24A00CB
:1044D000DA4201D28142704710B5024AFEF7BAFBB8
:1044E00010BD00BF0900160470B5420064414B00C6
:1044F0005C41120E39D01B0E38D0FF2A3CD0FF2B66
:104500003AD040024902400A490A060045184E4383
:10451000000A090AD2184843ED017F3A0104731AD0
:104520004019190C4318990F04D001215B08490761
:104530005B1A521CD80904D3401CF50301D19D0617
:1045400007D0FF2A08D2D50506D0E407204340193A
:1045500070BD0125A843F4E7002A01DCE00770BD27
:104560002402FF202043C00570BD1B0EFF2A03D08C
:10457000FF2B01D0E00770BDFF2645003606B5428F
:1045800006D84D00B54203D8D218FF2A00D0E7E77D
:10459000004870BD0000C07F01230A00DB05024314
:1045A0000DD4DA4203D49A4207D481427047D942EB
:1045B00014D4D84212D48142704789427047DA42FB
:1045C00003D59A42F9D5884270475B004A00DA4227
:1045D00004D24200DA4201D288427047484041404A
:1045E00010B5024A4840FEF735FB10BD090016041D
:1045F00070B501250400ED074C4022D4441A02D2C4
:104600006C40001B0919C60D4B00F2B2FF2A4BD0BB
:104610001B0E50D000020C02D31A2C43DC40A843DE
:10462000051B05D5AD0019D36D08761E521E37D077
:10463000F605280A01D2801970BD70416D0603D0BD
:1046400070BD6940FFF7BCFE9C4009026140490013
:1046500001D0401E70BD0124A04370BD6D081DD067
:1046600001202B0C01D12D0410302B0E01D12D0275
:1046700008302B0F01D12D01001DAB0F01D1AD0072
:10468000801CEB0F01D16D00401C6D00361A121A10
:10469000680AF5054019012A02DB70BD002070BDD3
:1046A000C036300AC00770BD1B0E440201D1FF2B7B
:1046B00000D1024870BD002AF0D070BD0000C07F5C
:1046C00003B402487844844603BC60478FE2FFFF8E
:1046D00080807F7E7D7C7B7A79787776767574733F
:1046E000727171706F6E6E6D6C6C6B6A6A696868FE
:1046F000676666656464636362616160605F5F5E94
:104700005E5D5D5C5C5B5B5A5A5959585857575609
:10471000565555555454535352525251515050506E
:104720004F4F4F4E4E4D4D4D4C4C4C4B4B4B4A4AC0
:104730004A49494948484847474747464646454504
:10474000454444444443434343424242424141413D
:104750008182838485868788898B8C8D8E8F9192C8
:1047600093959697999A9C9D9FA0A2A3A5A7A8AA66
:10477000ACAEB0B2B3B5B7B9BCBEC0C2C5C7C9CC88
:10478000CED1D4D7D9DCDFE2E6E9ECF0F3F7FAFEDC
:104790004C5555555555A53F7751C1166CC156BF5F
:1047A0009015CB19A001FA3EAD529C804F7E92BE6F
:1047B000C4B1B4BD9EEE213ED43888BEE9FAA8BD8E
:1047C00000004054FB21F93F3163621A61B4D03DCF
:1047D0000000601A61B4D03D7370032E8A19A33BA8
:1047E0000000002E8A19A33BC14920259A837B39FA
:1047F00000000000000000006E83F9A22915444E5D
:10480000D15727FCC0DD34F5999562DB4190433CDC
:10481000AB6351FE61C5BBDE3A6E24B7E0D24D42B8
:10482000EA2E49061C92D1091CEB1DFE3EA729B1B8
:10483000F53582E88444BB2E26709CE9417E5FB446
:1048400039D69139F43953838B5F849C3B28F9BD69
:10485000FF97F81F0F9805DE8B112FEF1F6D0A5A77
:10486000CF7E366DB709CB27663F464F2DEA5F9E58
:10487000C7BA27757BF1E5EBF739073DEA92528A13
:10488000B15FFB6B085D8D1FA6F810111111813F00
:10489000D561C119A0012ABF7DFEB157E31DC73EF6
:1048A000EB9C2B8AE6E55ABE7CD5CF5A3AD9E53D3A
:1048B00002400000000000A00000000005400000D1
:1048C000000000C8000000000C4000000000409CF8
:1048D00000000000194000000020BCBE00000000E5
:1048E00034400000BFC91B8E00000004B54000002A
:1048F000504BCFD06607E2CF010000006C410000B2
:104900003E8251AADFEEA73401000000D942000028
:10491000DCB5A0E23A301F97FFFFFFFFB44500006F
:10492000FD25A0C8E9A3C14FFFFFFFFFFF3F000027
:104930000000008000000000FF3F00000000008039
:10494000000000009049000000000020540000001A
:1049500048020000E449000058030020CC00000099
:1049600048020000B04A000024040020740F000038
:10497000640200001C00000043000000F8FFFFFF7D
:104980000C0000000E0000000F0000002E000000D0
:10499000B5380000D72C0000F5000000F50000003D
:1049A000F5000000F5000000F5000000F500000033
:1049B000130B0000F5000000F5000000F7030000F5
:1049C000F50000001B04000061030000F50000007A
:1049D000F5000000F5000000F5000000F500000003
:1049E000F5000000000000000000000000000000D2
:1049F00000000000010000000000000000000000B6
:104A000000000000000000000000000000000000A6
:104A10000000000000000000000000000000000096
:104A20006400000000000000000000000000000022
:104A300000000000000000000000000000B07E4602
:104A40000000000000000000000000000000000066
:104A50000000000000000000000000000000000056
:104A60000000000000000000000000006F12833A08
:104A70000000000000000000000000000000000036
:104A80000000000000000000000000000000000026
:104A90000000000000000000000000000000000016
:104AA0000000000000000000000000000000000006
:04000005000038B50A
:00000001FF
