:020000040000FA
:10000000580300206D1100007D00000083000000F7
:1000100000000000000000000000000000000000E0
:100020000000000000000000000000008900000047
:1000300000000000000000008F000000950000009C
:100040009B000000A1000000A7000000AD00000020
:10005000B3000000B9000000BF000000C5000000B0
:10006000CB000000D1000000D7000000DD00000040
:10007000E3000000E9000000EF0000001E480068F7
:1000800000471E48006800471D48006800471D489B
:10009000006800471C48006800471C48006800478B
:1000A0001B48006800471B48006800471A48006862
:1000B00000471A4800680047194800680047194877
:1000C0000068004718480068004718480068004763
:1000D000174800680047174800680047164800683E
:1000E0000047164800680047154800680047154853
:1000F00000680047FEE70000140000200400002014
:10010000080000200C000020100000201800002033
:100110001C000020200000202400002028000020D7
:100120002C00002030000020340000203800002087
:100130003C00002040000020440000204800002037
:100140004C000020500000200000000000000000D3
:10015000000000000000000000000000000000009F
:10016000000000000000000000000000000000008F
:10017000000000000000000000000000000000007F
:10018000000000000000000000000000000000006F
:10019000000000000000000000000000000000005F
:1001A000000000000000000000000000000000004F
:1001B000000000000000000000000000000000003F
:1001C000000000000000000000000000000000002F
:1001D000000000000000000000000000000000001F
:1001E000000000000000000000000000000000000F
:1001F00000000000000000000000000000000000FF
:100200000502000000F002F800F040F80CA030C831
:10021000083824182D18A246671EAB4654465D4682
:10022000AC4201D100F032F87E460F3E0FCCB6460C
:100230000126334200D0FB1AA246AB46334318478F
:100240007C120000AC120000103A02D378C878C1CA
:10025000FAD8520701D330C830C101D504680C6008
:10026000704700000023002400250026103A01D327
:1002700078C1FBD8520700D330C100D50B6070475E
:100280001FB5C046C0461FBD10B510BD00F01EFF13
:100290001146FFF7F5FF00F046F900F036FF03B412
:1002A000FFF7F2FF03BC00F037FF000010B5002895
:1002B00019DAC94A03071B0F083B9B089B00D25859
:1002C0008307DC0EFF23A3409A438B071B0E840792
:1002D000E40EA3401A43C04B0407240F083CA408B3
:1002E000A4001A5118E0BD4A03231B02D218830848
:1002F0009B00D2588307DC0EFF23A3409A438B0751
:100300001B0E8407E40EA3401A43B44B03242402BB
:100310001B198408A4001A5110BD10B5FF2101312A
:10032000AF4800F010F90012002801D1012010BDE3
:100330000020FCE710B58021A94800F004F9C011A5
:10034000002801D1012010BD0020FCE7A54800785D
:10035000704710B50221A44800F0F9F8002805D034
:1003600000F087FA0221A04800F0F5F80121090306
:100370009D4800F0ECF8002817D00120994908703A
:100380000103994800F0E7F801210903964800F0BD
:10039000DAF8002809D0002092490870802093499B
:1003A00008704101904800F0D6F810BD00BF904899
:1003B000806840084000401C8D49886000BF0120D3
:1003C0008C4908708C480068401C8B490860704755
:1003D00010B500BF8948806840084000401C87492C
:1003E000886000BF00F04FFD10BD10B500210B204C
:1003F000FFF75CFF00210820FFF758FF01210220D2
:10040000FFF754FF03210520FFF750FF01210720CC
:10041000FFF74CFF10BD10B501F000F800F0A7F891
:100420000F2000F09AF800BF754800684821884303
:100430007349086000BF00F0B4FA00BF0120000556
:100440006F49896801436E4A916000BF00BF6D49E2
:10045000C86000216B4AD16000BF00BF00BF1046DA
:100460008069802188431146886100BF00BF002059
:10047000C86100BF00BF0021D01DF930016000BF7E
:1004800010BD10B51D205F49096B01435D4A116322
:1004900000BF5D481146496B0143516300BF5B4992
:1004A0004F4800F04EF8032000034F49496802040A
:1004B00091434D4A516000BF15210904104600F0D8
:1004C00040F801208003464989680143444A91600D
:1004D00000BF80100121444A92698243424B9A61D5
:1004E000002906D01A46D26903041A433E4BDA614A
:1004F00005E03D4AD26903049A433B4BDA6100BFF1
:10050000012000033849C9690143374AD16100BF5E
:1005100008200121814042099200304BD21811601D
:1005200000BF10BD7047FFF776FFFFF7AAFF00F08E
:10053000F4F800F047F900F054FC00F053FB00BF62
:10054000FEE70160704702461069084070470246A6
:10055000106A084070470162704729498969090992
:1005600009010207120F1143254A9161704710B526
:1005700000BF01202349896808229143C200082353
:100580001A4011431F4A916000BF0020114689683C
:1005900004229143820004231A401143194A9160B6
:1005A00000BF00BFFFF7D9FF072015490969814344
:1005B0000143134A116100BF03201146096A014338
:1005C000116200BF02201146096840229143814315
:1005D0000B4A116000BF10BD1CED00E000E100E01F
:1005E000004000507E030020404000508403002063
:1005F000000001407F0300207803002040000140FC
:1006000000020050000000501E07000000005410BF
:1006100010B5FFF782FE8401FFF78CFE4001044312
:10062000E0B210BDBB4800687047BB480078704717
:1006300000B5B9480088801E030000F031FF0C0CA3
:100640000F1511131515151509150715002000BDF7
:10065000FD208005FBE77F20C005F8E7AF48F6E7FF
:10066000AF48F4E7AF48F2E78120C005EFE700B5F7
:10067000A9480088801E030000F012FF0C0B0D1229
:100680000F101212121209120712002000BDA64804
:10069000FCE7A648FAE7A648F8E700BFA548F5E753
:1006A00041200006F2E710B59B480088801E030039
:1006B00000F0F6FE0C13192B1F252B2B2B2B0D2BCB
:1006C000072B40221146104600F01FFC23E0402279
:1006D0000021084600F019FC1DE0002240211046D0
:1006E00000F013FC17E000224021202000F00DFC58
:1006F00011E000222021402000F007FC0BE0062240
:100700001146402000F001FC05E000221146402087
:1007100000F0FBFB00BF00BF10BD70B500F0EEFDA8
:100720000546854900F01EFC002807D000F0E6FDD4
:100730000546814900F016FC401E00E0002084B20E
:10074000224684217D4800F031FE01207B49096862
:1007500005221204914382041143784A116000BFBC
:1007600000BF1146896810229143020110231A40EC
:100770001143724A916000BF0021104600F0C8F892
:100780006E4800F0BDF8022001216D4A9269824353
:100790006B4B9A61002904D01A46D2690243DA6190
:1007A00004E0674AD2698243654BDA6100BF70BDDD
:1007B00010B504462146614800F0AAF85F4800F0F1
:1007C0009FF810BD70B500F099FD05465D4900F039
:1007D000C9FB002807D000F091FD0546594900F0FB
:1007E000C1FB401E00E0002084B222468221564810
:1007F00000F0DCFD01200021C2008B00D218524B1A
:100800009A6000BF0220194689688908890001435F
:100810001A46916000BF0121102012684B4B1A400C
:100820004B1E1B021A43C3001A43474B1A6000BFFA
:1008300070BD10B504462146434800F069F84248AF
:1008400000F05EF810BD70B504460D4621463E48E6
:1008500000F05EF83C4800F053F800BF00BF3A4893
:100860000068C007C00F0028F8D100BF36480069F3
:1008700070BD10B588B00024002168460180018257
:100880002BE000BF00BF2D480068C007C00F002844
:1008900005D002212A4800F02FF80028F2D00221CA
:1008A000274800F029F8002817D100BF2348006925
:1008B00061006A46505200BF23480069610004AAE3
:1008C000505260006946085C134908805920FFF7C0
:1008D0006FFF082C01DA601CC4B20221184800F036
:1008E0000BF80028CDD0A620FFF762FF00201849A2
:1008F000087008B010BD7047024610690840704784
:1009000001680122120491430122114301607047E2
:100910000162704788030020860300209A99D93F1E
:100920003333334000005040142E8842EC512E42A5
:100930000000DA41D7A3824100127A000040034050
:1009400040400050A08601000000034007FCFEFF6D
:100950008403002010B59A4A126C30239A43030195
:10096000302423401A43964B1A641A46126C92089C
:1009700092008B079B0F1A43914B1A6410BD10B560
:1009800000BF8F48006BC007C00F002808D00020B0
:1009900081008B4A515809B28A48016000F0F5F88D
:1009A00010BD70B5002400250220874949690C223A
:1009B000914382000C231A401143834A516100BFC6
:1009C0002B2011468969814A114002047F4BDB4389
:1009D0001A4011437C4A916100BF00F08FFC04462D
:1009E00000BF00F0BBFC0646774880690001000D9F
:1009F000411C304600F0B6FA054670BD70B504469D
:100A000000250AE000BF6E48006BC007C00F002839
:100A100003D000F0BAF8681C85B2A542F2DB70BDC5
:100A200010B500F0BBF805200002FFF7E7FF00BF9C
:100A300000F0ABF86248006A02218843801C6049DC
:100A4000086202200121814042099200604BD218C5
:100A5000116000BF00BF10BDFEB500F025FC00BF57
:100A60005748006A40084000401C5549086200BFD2
:100A700000BF0846C06B0321890508435049C8637D
:100A800000BF00210846FFF765FF642000F0ECFC82
:100A900003210846FFF75EFF00F089F800211022CD
:100AA0000B460120464CE46B84430443444DEC6305
:100AB0002C46E46B0625AC435D00062635402C43EE
:100AC0003F4DEC632C46E46B424D2C401502414EE9
:100AD000F64335402C433A4DEC632C46E46B1F251E
:100AE0002D06AC430D061F26360635402C43344DEB
:100AF000EC6300BF03202946096A0C22914382005F
:100B00000C231A4011432A46116200BF01201146EE
:100B1000096A02039143020303031A4011432A4660
:100B2000116200BF00200F210A460B460C460D46FD
:100B3000009101910E0136181702F719009E360335
:100B4000BE191F04F6192705F6192F06F719019E7D
:100B50003607BE191A4F7E6200BF00F01FF800F082
:100B600017FB00BF1C48008840001C490988081A70
:100B700000B21A4908800020085E1949C86000BF09
:100B800000F015F8FFF74CFFFEBD0D48006B062185
:100B90008843012108430A49086370470848006AEE
:100BA0000121C9028843401805490862704704487A
:100BB000006A0121C90288430149086270470000A8
:100BC00000000E408C03002000020050FFFF00F0E8
:100BD00000E100E0FF00FEFF960300209A030020E2
:100BE0000080005070478022121A91B24D4A9162E3
:100BF00000BF70478022121A91B24A4AD16100BFE9
:100C000070478022121A91B2464A116100BF7047A4
:100C100070B5042400250320434949690207914324
:100C2000020703071A4011433F4A516100BF00BF4A
:100C30003C488068042188433A49886000BF00BF6F
:100C40000846C06F40084000401CC86700BF00BF96
:100C50000846C06F02218843801C3249C86700BF24
:100C600000BF0846C06F04218843001D2D49C86796
:100C700000BF00BF0846806810218843294988606A
:100C800000BF00BF0846806820218843254988604E
:100C900000BF601EC1B27F232A46012000F00AF87F
:100CA0000020FFF7AEFF0020FFF7A4FF0020FFF7B2
:100CB0009AFF70BD70B500BF1A4CA4680825AC43FC
:100CC000C500082635402C43164DAC6000BF2C46AD
:100CD0002468240A2402CDB22C43124D2C602C46E9
:100CE0006468E408E40055076D0F2C430D4D6C60FB
:100CF0002C46E468240C24049DB22C43094DEC607E
:100D000000BF2C46646C64086400641C6C6400BF03
:100D100000BF2C46A46864086400641CAC6000BF7B
:100D200070BD0000000004400002005010B5FFF745
:100D300049FD10BDB0B504462004070E2002C019BD
:100D400087B22046FFF775FD3004050E30024019CA
:100D500085B22846B0BD70B5002500240A240120C4
:100D60000003044300BF224C0924240300BF0CE00D
:100D700000BF00BF1F480068C007C00F0028F8D19F
:100D80001B4C2046FFF7D6FF6D1C1B488542EFDB4E
:100D900070BD70B500240124E4032046FFF7CAFFAC
:100DA000054600BF2046FFF7C5FF0546284670BD33
:100DB00070B504460025012C02D109252D0306E05B
:100DC000022C02D11325ED0201E0002070BD28465F
:100DD000FFF7B0FF06462846FFF7ACFF0646304651
:100DE000F4E710B5FFF7A2FFFFF7B5FF10BD000055
:100DF000CA170000000003401027000010B50420AF
:100E00004E494969072212049143020407231B0437
:100E10001A401143494A516100BF4949AF2080003F
:100E20001022464B9B681343444CA36000BF00BF95
:100E3000444BDA600023434CE36000BF424A5268EF
:100E4000120C12040243404B5A601A46116000BF54
:100E500000BF104600680121490788434018114629
:100E60000860072000F058F800BF072000F054F891
:100E700000BF35480068012189078843401832497E
:100E8000086000BF10BD10B530480088402802DB64
:100E900000202E4908802D48008800280ED101210D
:100EA00049022B4800F046F801218902284800F049
:100EB00041F80121C902264800F03CF82348008887
:100EC00024490978884204DB01214902204800F0C6
:100ED0002DF81E48008820490978884204DB01214A
:100EE00089021B4800F022F8184800881B4909783D
:100EF000884204DB0121C902154800F017F81348A5
:100F00000088401C1149088010BD124B1870124B0C
:100F10001970124B1A707047C206D20E012191400F
:100F2000420992000E4BD2181160704782680A4342
:100F30008260704782688A43826070470002005076
:100F400014000068000000504000014090030020A1
:100F500000400050920300209303002094030020DF
:100F600000E100E0002203098B422CD3030A8B42EC
:100F700011D300239C464EE003460B433CD4002291
:100F800043088B4231D303098B421CD3030A8B42A3
:100F900001D394463FE0C3098B4201D3CB01C01A71
:100FA000524183098B4201D38B01C01A524143093C
:100FB0008B4201D34B01C01A524103098B4201D32A
:100FC0000B01C01A5241C3088B4201D3CB00C01A97
:100FD000524183088B4201D38B00C01A524143080F
:100FE0008B4201D34B00C01A5241411A00D2014634
:100FF0005241104670475DE0CA0F00D049420310CD
:1010000000D34042534000229C4603098B422DD31B
:10101000030A8B4212D3FC22890112BA030A8B42C3
:101020000CD3890192118B4208D3890192118B4212
:1010300004D389013AD0921100E08909C3098B4297
:1010400001D3CB01C01A524183098B4201D38B01DA
:10105000C01A524143098B4201D34B01C01A52417D
:1010600003098B4201D30B01C01A5241C3088B42C2
:1010700001D3CB00C01A524183088B4201D38B00AD
:10108000C01A5241D9D243088B4201D34B00C01A37
:101090005241411A00D20146634652415B1010464C
:1010A00001D34042002B00D54942704763465B1094
:1010B00000D3404201B50020C046C04602BD704783
:1010C0007047704700487047A40300207546FFF73B
:1010D000F9FFAE46050069465346C008C000854684
:1010E00018B020B500F044F860BC00274908B646A7
:1010F0000026C0C5C0C5C0C5C0C5C0C5C0C5C0C527
:10110000C0C5403D49008D4670470446C046C046B4
:101110002046FFF7C4F8000001491820ABBEFEE7E7
:10112000260002007047000005B50E48002200F0BE
:1011300001F805BDABBE01E000207047002A00D0D9
:1011400010600120704706980188074A914207D134
:10115000023006900798012189078843079070475D
:10116000FEE7000000010000ABBE0000034800479E
:1011700003480449044A054B70470000050200007B
:101180000804002058030020080500205800002013
:10119000F8B5384800903848C16B01221143C1634B
:1011A0000025354CE06B35490840E905C90B08437B
:1011B000E0630026206BC007C00F02D000F062F889
:1011C000761C082EF6D300273E462B48006BC0073E
:1011D000C00FFAD000F056F8002000F05DF8044689
:1011E000012000F059F82418022000F055F82418C6
:1011F000032000F051F82418042000F04DF82418C2
:10120000052000F049F82418062000F045F82418BD
:10121000072000F041F82018C010761C3F18B6B225
:10122000082ED2D3F81000B215490028088014DC2B
:1012300013480022825E00995242914214DA290238
:10124000FF390139CA030C49D20BCB6B0B4C23403D
:101250001A43CA630099018006E06D1CADB200908C
:10126000E81FFF38FA389CD10348C16B4908490090
:10127000C163F8BDFF07000000000E40FF00FEFF45
:10128000960300200348016BC908C900491C01638B
:101290007047000000000E4002498000085800B26C
:1012A0007047000000000E40054901208A680007D1
:1012B00002438A600349C8600020C860704700008C
:1012C000000200500000005002498A6882438A6090
:1012D000704700000002005002498A6802438A6099
:1012E000704700000002005010B5034840694003F9
:1012F000400F00F047F810BD0002005010B50C4A36
:1013000010694007400F10D0022809D0042809D0E6
:10131000084891690907090F491CFFF723FE10BD12
:101320000548F6E700F00AF8F3E77D200002F0E751
:1013300000020050006CDC02808D5B000448006AF3
:101340000449C006800F4843034940187047000015
:1013500000020050808D5B0080C3C90110B50748B2
:1013600040690007800F04D0022805D0FFF7C6FFB0
:1013700010BDFFF7E3FF10BD014810BD0002005093
:10138000006CDC02014610B50020012906D00329BB
:1013900003D0042905D0FFF7B1FF10BD7D20000266
:1013A00010BD014810BD0000006CDC0270B5134B8D
:1013B000984201D1831402E0520801235B03104CD0
:1013C000A5681D43A5600F4CE3600023E360012383
:1013D0001B0419430160426004460B48844205D156
:1013E000FFF78CFF6168491C490003E0FFF786FFA7
:1013F0006168491CFFF7B6FD70BD000000000340A6
:101400000002005000000050004003400249C86044
:101410000020C860704700000000005003485921B8
:1014200001601621016088210160704700010050B1
:1014300010B51020FFF7EAFF1020FFF745FF10BDA1
:1014400070B505460C461020FFF746FF1020FFF749
:10145000DDFF044A5068000C000420435060156012
:1014600070BD00004000014070B506460025FFF742
:101470003BFF7D21C900FFF775FD81B20920C00641
:10148000FFF7DEFF0548C1688CB2AC4201D2761E80
:1014900001D02546F7E7FFF7CBFF70BD40000140C4
:1014A00030B47446641E2578641CAB4204D3635D7B
:1014B0005B00E31830BC18471D46F8E7EC14000049
:1014C0000000002054000000480200004015000009
:1014D000580300204C000000480200008C1500005A
:1014E000A403002064010000640200006D110000EC
:1014F00047110000F5000000F5000000F5000000B5
:10150000F5000000F5000000F50000007F09000074
:10151000F5000000F5000000AD030000F50000003C
:10152000D103000053030000F5000000F5000000A7
:10153000F5000000F5000000F5000000F5000000D7
:10154000000000000000000000000000000000009B
:10155000010000000000000000000000000000008A
:10156000000000000000000000000000000000007B
:10157000000000000000000000000000000000006B
:0C1580000000000000000000000000005F
:040000050000116D79
:00000001FF
