:020000040000FA
:1000000058030020D11800007D000000830000008C
:1000100000000000000000000000000000000000E0
:100020000000000000000000000000008900000047
:1000300000000000000000008F000000950000009C
:100040009B000000A1000000A7000000AD00000020
:10005000B3000000B9000000BF000000C5000000B0
:10006000CB000000D1000000D7000000DD00000040
:10007000E3000000E9000000EF0000001E480068F7
:1000800000471E48006800471D48006800471D489B
:10009000006800471C48006800471C48006800478B
:1000A0001B48006800471B48006800471A48006862
:1000B00000471A4800680047194800680047194877
:1000C0000068004718480068004718480068004763
:1000D000174800680047174800680047164800683E
:1000E0000047164800680047154800680047154853
:1000F00000680047FEE70000140000200400002014
:10010000080000200C000020100000201800002033
:100110001C000020200000202400002028000020D7
:100120002C00002030000020340000203800002087
:100130003C00002040000020440000204800002037
:100140004C000020500000200000000000000000D3
:10015000000000000000000000000000000000009F
:10016000000000000000000000000000000000008F
:10017000000000000000000000000000000000007F
:10018000000000000000000000000000000000006F
:10019000000000000000000000000000000000005F
:1001A000000000000000000000000000000000004F
:1001B000000000000000000000000000000000003F
:1001C000000000000000000000000000000000002F
:1001D000000000000000000000000000000000001F
:1001E000000000000000000000000000000000000F
:1001F00000000000000000000000000000000000FF
:100200000502000000F002F800F048F80CA030C829
:10021000083824182D18A246671EAB4654465D4682
:10022000AC4201D100F03AF87E460F3E0FCCB64604
:100230000126334200D0FB1AA246AB46334318478F
:10024000401D0000701D0000103A02D378C878C12C
:10025000FAD8520701D330C830C101D504680C6008
:10026000704700000023002400250026103A01D327
:1002700078C1FBD8520700D330C100D50B6070475E
:1002800010B5642902D100F0CDFF10BD002010BDD3
:100290001FB5C046C0461FBD10B510BD01F0B7FA6E
:1002A0001146FFF7F5FF00F0F0F801F0CFFA03B4C4
:1002B000FFF7F2FF03BC01F085FA000070B50546B8
:1002C0000C46164602E00FCC0FC5103E102EFAD297
:1002D000082E02D303CC03C5083E042E07D301CC5D
:1002E00001C5361F03E021782970641C6D1C761E41
:1002F000F9D270BD10B5002819DA894A03071B0F1F
:10030000083B9B089B00D2588307DC0EFF23A340C9
:100310009A438B071B0E8407E40EA3401A43804BBD
:100320000407240F083CA408A4001A5118E07D4AD1
:1003300003231B02D21883089B00D2588307DC0ECC
:10034000FF23A3409A438B071B0E8407E40EA340B0
:100350001A43744B032424021B198408A4001A5165
:1003600010BD10B502207049096A0140002906D06D
:1003700000F07BFE02206C49086200BF00BF10BD88
:1003800070B5002400250220684949690C22914378
:1003900082000C231A401143644A516100BF4F2070
:1003A00011468969624A11400204614BDB431A40DD
:1003B00011435E4A916100BF01F052FB044600BF49
:1003C00001F07EFB0646594880690001000D411C82
:1003D000304600F09BFF054670BD10B501F0D0FB24
:1003E00000F063F800BF51480068482188434F4936
:1003F000086000BFFFF7C4FF00BF00214D48016047
:1004000000BF10BD10B500210B20FFF773FF0021C6
:100410000820FFF76FFF01210220FFF76BFF10BDDF
:1004200010B545484549096B0143444A116300BF73
:100430001E201146496B0143516300BF40494148AA
:1004400000F031F84049384800F02DF8082001212B
:10045000814042099200334BD218116000BF10BD99
:100460001FB5E1208002009008216846017100213B
:100470004171012181713548029035480390002275
:1004800002A9684601F0DAFB1FBDFFF7A6FFFFF7E0
:10049000B9FFFFF7C5FF00F034FD00F099FD00BF84
:1004A00000F03DFCFCE70160704700BF01202349DC
:1004B000896808229143C20008231A4011431F4A49
:1004C000916000BF00201146896804229143820098
:1004D00004231A401143194A916000BF00BF00BFB6
:1004E00012498969090909010143104A916100BF54
:1004F00007201146096981430143116100BF0320B0
:100500001146096A0143116200BF022011460968C1
:10051000402291438143054A116000BF70470000AB
:100520001CED00E000E100E04040005000020050FF
:10053000FFFF00F0000100501E3F000000000050CF
:10054000FFFFC0000040005000F0FF00000001402D
:100550000040034010B5F94A126C30239A4303015E
:10056000302423401A43F54B1A641A46126C920841
:1005700092008B079B0F1A43F04B1A6410BDF8B51D
:1005800006460F461446002C00DD04E03C22ECA198
:10059000EEA000F07DFEA74200DA04E03D22E8A1D3
:1005A000EFA000F075FE4820805DC019C5B2A542DD
:1005B00001DB281BC5B2E800311803C9F8BD30B50E
:1005C00003994824245C002C04D14C1EE5B2482435
:1005D000255405E04824245C641EE5B248242554D3
:1005E0004824245CE40004190CC430BD10B5014655
:1005F000002348225354002005E00023C4000C19B6
:1006000023606360401C0928F7DB10BD10B5DB4890
:10061000008800287ED000BFC848006BC007C00F0C
:100620000028F7D0002000F08DFCD549098849004A
:10063000D44A5052012000F085FCD1490988490074
:10064000D14A5052022000F07DFCCD490988490072
:10065000CE4A5052CA4800884000CA49085ECC4978
:100660000968884206DDC64800884000C549085E22
:10067000C7490860C24800884000C349085EC549B0
:100680000968884206DDBE4800884000BE49085E11
:10069000C0490860BA4800884000BC49085EBE49AD
:1006A0000968884206DDB64800884000B749085E00
:1006B000B9490860B24800884000B249085EB749AD
:1006C0000968884206DAAE4800884000AD49085EF5
:1006D000B2490860AA4800884000AB49085EB049AA
:1006E0000968884206DAA64800884000A649085EE4
:1006F000AB490860A24800884000A449085EA949A7
:100700000968884208DA9E48008840009F49085ED0
:10071000A44900E010E0086099480088401C98490E
:10072000088008460088AF218900884204DB002049
:10073000924908809249088000F0FBFB10BD70B51B
:10074000044600250AE000BF7C48006BC007C00FCC
:10075000002803D000F0EDFB681C85B2A542F2DB57
:1007600070BDFEB501F052F900BF7448006A400840
:100770004000401C7149086200BF00BF0846C06BC2
:100780000321890508436D49C86300BF002108465D
:10079000FFF7E0FE642001F019FA03210846FFF795
:1007A000D9FE00F0DEFB00210A460B460120634C17
:1007B000E46B84430443614DEC632C46E46B0625F3
:1007C000AC435D00062635402C435C4DEC632C4663
:1007D000E46B754D2C401502734EF64335402C43A7
:1007E000564DEC632C46E46B1F252D06AC430D06DD
:1007F0001F26360635402C43504DEC6300BF0320C6
:100800002946096A0C22914382000C231A401143A5
:100810002A46116200BF01201146096A0203914372
:10082000020303031A4011432A46116200BF00204D
:10083000012102220F2633463446354600960196A2
:100840000E0136181702F719009E3603BE191F0451
:10085000F6192705F6192F06F719019E3607BE1956
:10086000364F7E6200BF00F073FB01F043F800BF1B
:100870004E48008840004E490988081A00B24C4989
:1008800008800020085E4B49C86000BF00F069FB8B
:10089000FEBD10B500F05CFB05200002FFF74FFF26
:1008A00000BF00F046FB2548006A02218843801CF7
:1008B00022490862022001218140420992003E4BF8
:1008C000D218116000BF00BF00202D490880012010
:1008D0002A49088010BDFFB585B00C46154600209A
:1008E000049000210390354E0898281A02900020A9
:1008F00000901922D2431BE000217E230DE09818BE
:1009000047000598C05F5F00E75FC71B0298381A71
:1009100004900498404341185B1C29488342EEDB55
:100920008E4204DD0E460392009840180090521C3F
:100930001A2AE1DB039800B209B0F0BD00000E40B6
:100940004469724465746563742E630066696C74EF
:1009500065725F6C656E677468203E203000000031
:10096000706F736974696F6E203C2066696C746582
:10097000725F6C656E677468000000006A03002097
:1009800068030020C40300203C090020B40E0020AE
:1009900070030020740300207803002080030020EF
:1009A0008403002088030020FF00FEFFAE03002028
:1009B000B20300200080005000E100E0FFFFFF7F55
:1009C000A2020000FFB584B00C461546002003903B
:1009D00000260290FE480190E81A00901921C943B0
:1009E0001AE000261A220EE0501887000498C05919
:1009F0009700E759C71B0098381A00150390039811
:100A000040438619521CF3488242EDDB0198B04204
:100A100001DD01960291491C1A29E2DB029800B21D
:100A200008B0F0BDF3B5FFB096B03822EA4972A81D
:100A3000FFF744FC3822E849383164A8FFF73EFC50
:100A40003822E549703156A8FFF738FC3822E249D0
:100A5000A83148A8FFF732FC3822DF49E0313AA834
:100A6000FFF72CFC3822DD492CA8FFF727FC0020DB
:100A70002090219000221E921F921C921D92002114
:100A80001A911B91D648008801280ED172A82B908C
:100A900064A82A905020D3490860FA20D2490860FF
:100AA000072027902890299036E0CD48008802281A
:100AB0000FD156A82B9048A82A909620C9490860C3
:100AC000C4487C38C849086007202790289029909E
:100AD00022E0C348008803280FD13AA82B902CA805
:100AE0002A90FA20BF490860AF208000BE49086004
:100AF00007202790289029900EE072A82B9064A8D8
:100B00002A90FF208000B74908603C20B649086061
:100B10000720279028902990B14800880821084094
:100B2000002808D0B148AF490860AF4908600020EC
:100B30007FB018B0F0BD06A8FFF758FD0026DEE034
:100B400000242546002022902390269044E02698F9
:100B5000301A1FD52698C1002A9840180CC80020CA
:100B60009599085EC1178693879284918590104667
:100B70001946849B859A00F0C1FA9D4B002281930F
:100B80008092829183901A46809B00F0B7FA0419F4
:100B90004D411EE02698C1002A9840180CC826989E
:100BA000301A41009598405EC1178E938F928C91B8
:100BB0008D90104619468C9B8D9A00F09FFA8C4AB6
:100BC0000023889389928A918B9000F097FA0419F8
:100BD0004D412698401C2690289926988842B6DBDD
:100BE0000120259025E02598301A07D50023229F63
:100BF0002398FA1858412292239017E02598401E16
:100C0000C1B206A8299AFFF7BAFC259AD3002B9AFD
:100C1000D3180CCB909391929291939000F06EFA2E
:100C2000229B239AC0185141239122902598401C61
:100C30002590279925988842D5DB2B9806C80392E2
:100C400002912A4623992298201A8A410192009003
:100C500001A90EC900F06AFA664A002305910490C2
:100C600000F064FA01B27200969881522B9806C87F
:100C7000284603920291239A2299611A9041009189
:100C80000190084601A90EC900F050FA05910490A0
:100C9000299800900B4606A8049AFFF790FC20A81C
:100CA0000DC82399C01A8A4103DA23992298219109
:100CB00020901F991E98001BA94101DA1F951E94D0
:100CC00071009698415ECB171C9A1D98511A984155
:100CD00005DA71009698405EC1171D911C90710055
:100CE0009698425ED3171B991A98101A8B4105DA11
:100CF00071009698405EC1171B911A90761CAF2028
:100D00008000864200DA1BE71C991A98081A0FE740
:100D10000146002901DA484270470846FCE7F8B569
:100D20000024002500263448008800284ED133498D
:100D30003348FFF777FE3349086033480368334888
:100D4000334902682E48FFF7C6FD074600F0F9FB5D
:100D50000446304803682D482F4902682848FFF7A9
:100D6000BAFD074600F0EDFB05462A480368264811
:100D7000294902682648FFF7AEFD074600F0E1FB6F
:100D80000646264800688000254908582549096814
:100D9000081A244908601B4800682049096889002E
:100DA0001F4A50501D4800688000114608581D49D0
:100DB000096840181B4908601B48006880001B49EF
:100DC00008581B490968081A194933E098E00000DF
:100DD000FFFFFF7FA2020000301E0000481F00003E
:100DE000580300206003002064030020FF7F000000
:100DF00000E1F505809698006A0300203814002071
:100E0000C40300205C030020840300208003002032
:100E10003C09002088030020B40E00209403002029
:100E2000A00300209803002090030020B0190020A8
:100E30009C03002008604F4800684F4909688900FA
:100E40004E4A50504C4800688000114608584C49A2
:100E5000096840184A4908604A480068401C4949E6
:100E6000086008460068022801DB0020086042484C
:100E70000068401C40490860084600680A2801DBF9
:100E8000002008603E4800683F49096888420EDD3E
:100E900080203E49896881433C4A916000BF3C48BC
:100EA0000088012149030843394908800DE080206A
:100EB000364989680143354A916000BF344800884B
:100EC0000121090308403249088032480068401C6B
:100ED000304908603048018830A000F05FF90120F7
:100EE0003149088031483249086032490860324946
:100EF0000860400C31490860314908603149086098
:100F0000F8BD10B50020304908804880FFF729FC63
:100F1000FFF7BFFC25482649086026490860264996
:100F20000860400C2549086025490860254908608B
:100F300010BD2648006B0621884301210843234940
:100F40000863704701468800204A105800B2704775
:100F50001E48006A0121C902884340181B490862E3
:100F600070471A48006A0121C9028843174908627C
:100F7000704700005C03002090030020B01900209F
:100F80009C03002094030020640300204040005094
:100F90005A0300208C030020580300206166203D86
:100FA0002025640A000000006A0300200080FFFF83
:100FB00070030020740300207803002080030020C9
:100FC0008403002088030020C403002000000E409A
:100FD00010B500F045FD002803D000F041FD401E93
:100FE00000E0002084B2224682213F4800F090FDBC
:100FF00001203D49096805221204914382041143EE
:10100000394A116000BF00BF114689681022914320
:10101000020110231A401143334A916000BF00219E
:10102000104600F05FF8304800F054F8022001212B
:101030002E4A926982432D4B9A61002904D01A46A8
:10104000D2690243DA6104E0284AD2698243274B1D
:10105000DA6100BF10BD10B504462146224800F0F9
:1010600041F8214800F036F810BD10B5002422E008
:1010700000BF00BF1C480068C007C00F002805D093
:1010800002211A4800F022F80028F2D00221174865
:1010900000F01CF800280ED100BF134800690001C1
:1010A000000C1349088013480088FFF7D4FF082C70
:1010B00001DA601CC4B202210C4800F007F80028D5
:1010C000D6D00D480068FFF7C6FF10BD0246106974
:1010D0000840704701680122120491430122114324
:1010E000016070470162704700400340404000507B
:1010F000580300205A0300205C030020434351435F
:1011000030B55C18010C130C0D4692B25D4380B2F1
:1011100051432C19054655430A0C09044D196241E7
:101120005843010C00044019514130BD70B50025F1
:101130002C46AD1A9C4112DA00252C462D1A8C4102
:1011400002DA00F009FA70BD002440428C412146C9
:1011500000F002FA002440428C41214619E00025AB
:101160002C462D1A8C410ADA002452429C41234617
:1011700000F0F2F9002440428C41214670BD002469
:1011800052429C414042234600248C41214600F0BB
:10119000E3F9002452429C41234670BD0FB4054937
:1011A00010B503AA029800F0B1FA10BC08BC04B054
:1011B00018470000C0030020F8B50E460446002082
:1011C00020622046E1688847002829D0252802D0DF
:1011D0006268A16820E0E168204600278847050092
:1011E0001ED028464138192802D80127FF02203591
:1011F0003246204627602946FFF742F8002808D0EB
:10120000012804D0F61DF608F6000836D9E7361D89
:10121000D7E762682846A1689047206A401CCFE75C
:10122000206AF8BDF7B5002575291068009914A645
:1012300011D0C046C046002802DA404211A608E09C
:10124000009909688A0701D50FA602E0490704D56D
:101250000EA6012501E0C046C046009F00242437A9
:1012600004E000F079FA30313955641C0028F8D1D7
:101270002B4632462146009800F0EFF9FEBD0000F3
:10128000000000002D0000002B00000020000000E6
:101290000EB5044615460E4612A000F053FA20463D
:1012A00000F050FA15A000F04DFA304600F04AFA6E
:1012B00014A000F047FA6C460020E0720A20A072E9
:1012C0000A3407E00A21284600F02EF8303105469E
:1012D000641E2170002DF5DC204600F033FA00F08A
:1012E00029FA00002A2A2A20617373657274696FD3
:1012F0006E206661696C65643A2000002C20666986
:101300006C6520002C206C696E65200000220309AA
:101310008B4273D3030A8B4258D3030B8B423CD3CB
:10132000030C8B4221D312E003460B437FD40022EF
:1013300043088B4274D303098B425FD3030A8B4269
:1013400044D3030B8B4228D3030C8B420DD3FF22D3
:10135000090212BA030C8B4202D31212090265D0A1
:10136000030B8B4219D300E0090AC30B8B4201D354
:10137000CB03C01A5241830B8B4201D38B03C01A9B
:101380005241430B8B4201D34B03C01A5241030B12
:101390008B4201D30B03C01A5241C30A8B4201D3C3
:1013A000CB02C01A5241830A8B4201D38B02C01A6E
:1013B0005241430A8B4201D34B02C01A5241030AE5
:1013C0008B4201D30B02C01A5241CDD2C3098B42CA
:1013D00001D3CB01C01A524183098B4201D38B0147
:1013E000C01A524143098B4201D34B01C01A5241EA
:1013F00003098B4201D30B01C01A5241C3088B422F
:1014000001D3CB00C01A524183088B4201D38B0019
:10141000C01A524143088B4201D34B00C01A5241BB
:10142000411A00D201465241104670475DE0CA0F92
:1014300000D04942031000D34042534000229C4652
:1014400003098B422DD3030A8B4212D3FC2289015C
:1014500012BA030A8B420CD3890192118B4208D332
:10146000890192118B4204D389013AD0921100E094
:101470008909C3098B4201D3CB01C01A52418309A8
:101480008B4201D38B01C01A524143098B4201D3D5
:101490004B01C01A524103098B4201D30B01C01A00
:1014A0005241C3088B4201D3CB00C01A524183087A
:1014B0008B4201D38B00C01A5241D9D243088B42D0
:1014C00001D34B00C01A5241411A00D20146634673
:1014D00052415B10104601D34042002B00D54942D7
:1014E000704763465B1000D3404201B50020C04600
:1014F000C04602BD7047704770471F22030C02D1DF
:101500000F2200041CD0030E01D10002083A030F81
:1015100001D10001121F830F01D18000921E00280B
:1015200001DB4000521ED205511802125118192237
:10153000904004D3491C002801D1490849000846BD
:101540007047C10FC90700D04042012292071143E2
:10155000D3E701218907D0E7FEB5054610460C46C2
:10156000184373D0AE468C460020AD1A01469C410C
:1015700067D36646002701243D46B61A9D4102D333
:1015800013463A462124654676462F04360C3E43E0
:101590002D0CB61A9D4104D3150C1B042B431204C9
:1015A0001034654676462F06360A3E432D0AB61A93
:1015B0009D4104D3150E1B022B43120208346546CD
:1015C00076462F0736093E432D09B61A9D4104D3AE
:1015D000150F1B012B431201241D65467646AF07EC
:1015E000B6083E43AD08B61A9D4104D3950F9B0043
:1015F0002B439200A41C65467646EF0776083E43CF
:101600006D08B61A9D411AD392185B41641C16E00E
:101610000018764665464941B71A9D4101910090F0
:1016200009D36046B11A98418E46844600980199C4
:101630000025401C6941DD0752082A435B08641EEF
:10164000E6D57246634603B0F0BDFFE700200146D1
:10165000C046C0462A462346F5E7FFB504460D4678
:1016600081B0243000902168880604D51022E069FA
:101670009143216000E00120A84201DD471B00E00A
:1016800000270498A1697A191018081AA061207817
:10169000C00602D42046C046C046002608E0039893
:1016A0006268A168805D9047206A401C761C2062B9
:1016B00004988642F3DB2078C0060AD52046C0464F
:1016C000C04606E06268A16830209047206A401C4E
:1016D000206238467F1E0028F4DC07E0009862682C
:1016E000A168405D9047206A401C206228466D1E1C
:1016F0000028F3DC2046C046C0462078000602D50C
:10170000022005B0F0BD0120FBE70000084B70B5DA
:101710000D467B4400F061F8044628460020C04393
:10172000002802D00020C04370BD204670BD0000DC
:101730000F070000002000F063F8FEF7ADFD012068
:1017400000F040F810B5044602E0641C00F066FBAF
:1017500020780028F9D110BD01468008081A020936
:101760001018020A1018020C1018C0088200121873
:101770005200891A01E0401C0A390A29FBD270473D
:1017800005B50E48002200F001F805BDABBE01E032
:1017900000207047002A00D0106001207047069892
:1017A0000188074A914207D102300690079801212B
:1017B0008907884307907047FEE70000000100009A
:1017C000ABBE000001491820ABBEFEE726000200B8
:1017D00001694A1C02610878704700B58FB0029118
:1017E0000021059105490193794403911146049024
:1017F0006846FFF7E1FC0FB000BD0000E5FFFFFF0A
:1018000010B500F02FF800F027F810BD70477546AE
:1018100000F040F8AE46050069465346C008C000D7
:10182000854618B020B500F055F860BC002749087F
:10183000B6460026C0C5C0C5C0C5C0C5C0C5C0C568
:10184000C0C5C0C5403D49008D4670470446C046EE
:10185000C0462046FEF72BFD10B5002801D0FFF74B
:10186000B1FF10BD10B5002102A000F017F8012053
:1018700010BD0000534947414252543A2041626E24
:101880006F726D616C207465726D696E6174696FE1
:101890006E000000004870474C1A002070B50546E5
:1018A0000C460A2000E06D1C00F0B8FA002D06D0AE
:1018B00028780028F7D102E0641C00F0AFFA002C71
:1018C00002D020780028F7D10A2000F0A7FA70BDD6
:1018D0000348004703480449044A054B7047000089
:1018E00005020000B01A002058030020B01B0020A1
:1018F00058000020F8B5384800903848C16B0122E4
:101900001143C1630025354CE06B35490840E905BA
:10191000C90B0843E0630026206BC007C00F02D04C
:1019200000F062F8761C082EF6D300273E462B48BE
:10193000006BC007C00FFAD000F056F8002000F08E
:101940005DF80446012000F059F82418022000F048
:1019500055F82418032000F051F82418042000F052
:101960004DF82418052000F049F82418062000F04E
:1019700045F82418072000F041F82018C010761C04
:101980003F18B6B2082ED2D3F81000B2154900287D
:10199000088014DC13480022825E00995242914272
:1019A00014DA2902FF390139CA030C49D20BCB6B77
:1019B0000B4C23401A43CA630099018006E06D1C5A
:1019C000ADB20090E81FFF38FA389CD10348C16BD4
:1019D00049084900C163F8BDFF07000000000E4040
:1019E000FF00FEFFAE0300200348016BC908C900D9
:1019F000491C01637047000000000E40024980004E
:101A0000085800B27047000000000E400549012050
:101A10008A68000702438A600349C8600020C860E2
:101A200070470000000200500000005002498A6820
:101A300082438A60704700000002005002498A68B1
:101A400002438A60704700000002005010B503484E
:101A500040694003400F00F047F810BD00020050FD
:101A600010B50C4A10694007400F10D0022809D069
:101A7000042809D0084891690907090F491CFFF794
:101A800045FC10BD0548F6E700F00AF8F3E77D20B5
:101A90000002F0E700020050006CDC02808D5B0069
:101AA0000448006A0449C006800F484303494018AF
:101AB0007047000000020050808D5B0080C3C901A8
:101AC00010B5074840690007800F04D0022805D0F0
:101AD000FFF7C6FF10BDFFF7E3FF10BD014810BDC3
:101AE00000020050006CDC02014610B50020012904
:101AF00006D0032903D0042905D0FFF7B1FF10BD9C
:101B00007D20000210BD014810BD0000006CDC0209
:101B100070B5134B984201D1831402E0520801239F
:101B20005B03104CA5681D43A5600F4CE3600023C8
:101B3000E36001231B0419430160426004460B4823
:101B4000844205D1FFF78CFF6168491C490003E01E
:101B5000FFF786FF6168491CFFF7D8FB70BD0000E6
:101B6000000003400002005000000050004003400D
:101B70000249C8600020C8607047000000000050A3
:101B800003485921016016210160882101607047D6
:101B90000001005010B51020FFF7EAFF1020FFF7FA
:101BA00045FF10BD70B505460C461020FFF746FFF7
:101BB0001020FFF7DDFF044A5068000C00042043AA
:101BC0005060156070BD00004000014070B50646D1
:101BD0000025FFF73BFF7D21C900FFF797FB81B28E
:101BE0000920C006FFF7DEFF0548C1688CB2AC4291
:101BF00001D2761E01D02546F7E7FFF7CBFF70BD77
:101C00004000014010B50C490A4B0A780024985452
:101C1000521CD2B20A709C54521C102A03D20A28B9
:101C200001D0002805D10C70002202490420FFF7E2
:101C3000ADFD10BD3C1A0020BC030020F8B50446E1
:101C400003684B2000250F684E68C000834233D3E1
:101C500060792179844602282ED86048A27987428B
:101C600005D05F48874202D05E48874224D15E4853
:101C7000052903600171634643718271C76006D014
:101C8000062908D007290AD008290CD00EE05748A9
:101C90001F2181800AE055483F21818006E053489A
:101CA0007F21818002E05148FF218180FFF7D8FE2B
:101CB00000904F48864201D00120F8BD4A48066294
:101CC0006079002829D02079A1794218921C4749CF
:101CD000401C8A70C87021680098FFF717FB032129
:101CE000FFF714FB43490246884201D90125420807
:101CF0003A4B414941489F4217D193B28F68042221
:101D000017438F60C2600021C1603D494A68120CD0
:101D100012041A434A600D602FE02279A07911184D
:101D20003248491C8170C270D5E72D4B9F4215D1B6
:101D3000314997B201238968082211432E4A9160E4
:101D40000821C1600021C1602E490B602E494A68FC
:101D5000120C12043A434A600D600EE093B28F6891
:101D6000102217438F60C2600021C16027494A6872
:101D7000120C12041A434A600D60426B08218A4318
:101D80004263234802680F239B019A43FF320132CA
:101D9000026082698A438261C2690A43C2618168C2
:101DA0001022114381601B4DD001286021680098EA
:101DB000814203D8FFF7AAFA401E00E0002082B259
:101DC00015493046FFF7A4FEB06880088000401C2B
:101DD000B060FF20013028600020F8BD0000014005
:101DE0002000014040000140D8190020A803002035
:101DF00000400340FFFF00000002005000000050C0
:101E0000000001403400014020000140400001403A
:101E10004040005000E100E0040C100010B5FFF756
:101E2000F1FE10BD10B5FFF7EDFE002010BD000063
:101E300000E1F50500000000F8A713E8FFFFFFFF31
:101E400058933D310000000080686DC3FFFFFFFF25
:101E5000C06FD72F00000000D8196BE9FFFFFFFF0C
:101E6000F484770500000000B907040000000000BA
:101E70005400F6FFFFFFFFFF345F09000000000081
:101E80000000000000000000CCA0F6FFFFFFFFFFF5
:101E9000ACFF09000000000047F8FBFFFFFFFFFF59
:101EA00000E1F5050000000038EE21EFFFFFFFFF25
:101EB000C07D8221000000005817C1D9FFFFFFFF3D
:101EC000A0ED0F2100000000C89594EFFFFFFFFF79
:101ED000C887B905000000001BCB0100000000000E
:101EE0007FA9FCFFFFFFFFFFD839030000000000BF
:101EF000000000000000000028C6FCFFFFFFFFFFFD
:101F00008156030000000000E534FEFFFFFFFFFFE5
:101F100000E1F505000000004CD56A050000000056
:101F20005899FC11000000004870560A000000009B
:101F3000B0FD5E110000000074B40905000000004F
:101F4000B0DD580500000000AA5A0E000000000095
:101F500045EC070000000000D53708000000000035
:101F600000000000000000002BC8F7FFFFFFFFFF8C
:101F7000BB13F8FFFFFFFFFF56A5F1FFFFFFFFFFB9
:101F8000B01F0000000000205400000048020000C4
:101F900004200000580300206C00000048020000EC
:101FA00070200000C4030020EC1700006402000051
:101FB000D11800009F170000F5000000F500000098
:101FC000F5000000F5000000F5000000F50000003D
:101FD0000D060000F5000000F5000000F50000000F
:101FE000F5000000F500000063030000F5000000AC
:101FF000F5000000F5000000F5000000F50000000D
:10200000F5000000000000000000000000000000DB
:1020100000000000000000000000000000000000C0
:1020200000000000000000000000000000000000B0
:1020300000000000000000000000000000000000A0
:102040000000000000000000000000000000000090
:102050000000000000FF0000000000000000000081
:102060000000000000000000000000000000000070
:04000005000018D10E
:00000001FF
