:020000040000FA
:1000000058030020951500007D00000083000000CB
:1000100000000000000000000000000000000000E0
:100020000000000000000000000000008900000047
:1000300000000000000000008F000000950000009C
:100040009B000000A1000000A7000000AD00000020
:10005000B3000000B9000000BF000000C5000000B0
:10006000CB000000D1000000D7000000DD00000040
:10007000E3000000E9000000EF0000001E480068F7
:1000800000471E48006800471D48006800471D489B
:10009000006800471C48006800471C48006800478B
:1000A0001B48006800471B48006800471A48006862
:1000B00000471A4800680047194800680047194877
:1000C0000068004718480068004718480068004763
:1000D000174800680047174800680047164800683E
:1000E0000047164800680047154800680047154853
:1000F00000680047FEE70000140000200400002014
:10010000080000200C000020100000201800002033
:100110001C000020200000202400002028000020D7
:100120002C00002030000020340000203800002087
:100130003C00002040000020440000204800002037
:100140004C000020500000200000000000000000D3
:10015000000000000000000000000000000000009F
:10016000000000000000000000000000000000008F
:10017000000000000000000000000000000000007F
:10018000000000000000000000000000000000006F
:10019000000000000000000000000000000000005F
:1001A000000000000000000000000000000000004F
:1001B000000000000000000000000000000000003F
:1001C000000000000000000000000000000000002F
:1001D000000000000000000000000000000000001F
:1001E000000000000000000000000000000000000F
:1001F00000000000000000000000000000000000FF
:100200000502000000F002F800F040F80CA030C831
:10021000083824182D18A246671EAB4654465D4682
:10022000AC4201D100F032F87E460F3E0FCCB6460C
:100230000126334200D0FB1AA246AB46334318478F
:10024000F8190000281A0000103A02D378C878C1C3
:10025000FAD8520701D330C830C101D504680C6008
:10026000704700000023002400250026103A01D327
:1002700078C1FBD8520700D330C100D50B6070475E
:100280001FB5C046C0461FBD10B510BD01F021F915
:100290001146FFF7F5FF00F0F0F801F039F903B46B
:1002A000FFF7F2FF03BC01F0E5F8000070B505466A
:1002B0000C46164602E00FCC0FC5103E102EFAD2A7
:1002C000082E02D303CC03C5083E042E07D301CC6D
:1002D00001C5361F03E021782970641C6D1C761E51
:1002E000F9D270BD10B5002819DA894A03071B0F2F
:1002F000083B9B089B00D2588307DC0EFF23A340DA
:100300009A438B071B0E8407E40EA3401A43804BCD
:100310000407240F083CA408A4001A5118E07D4AE1
:1003200003231B02D21883089B00D2588307DC0EDC
:10033000FF23A3409A438B071B0E8407E40EA340C0
:100340001A43744B032424021B198408A4001A5175
:1003500010BD10B502207049096A0140002906D07D
:1003600000F033FE02206C49086200BF00BF10BDE0
:1003700070B5002400250220684949690C22914388
:1003800082000C231A401143644A516100BF4F2080
:1003900011468969624A11400204614BDB431A40ED
:1003A00011435E4A916100BF01F0BCF9044600BFF1
:1003B00001F0E8F90646594880690001000D411C2A
:1003C000304600F0CDFE054670BD10B501F03AFA9A
:1003D00000F063F800BF51480068482188434F4946
:1003E000086000BFFFF7C4FF00BF00214D48016057
:1003F00000BF10BD10B500210B20FFF773FF0021D7
:100400000820FFF76FFF01210220FFF76BFF10BDEF
:1004100010B545484549096B0143444A116300BF83
:100420001E201146496B0143516300BF40494148BA
:1004300000F031F84049384800F02DF8082001213B
:10044000814042099200334BD218116000BF10BDA9
:100450001FB5E1208002009008216846017100214B
:100460004171012181713548029035480390002285
:1004700002A9684601F044FA1FBDFFF7A6FFFFF787
:10048000B9FFFFF7C5FF00F0FDFC00F051FD00BF14
:1004900000F049FCFCE70160704700BF01202349E0
:1004A000896808229143C20008231A4011431F4A59
:1004B000916000BF002011468968042291438200A8
:1004C00004231A401143194A916000BF00BF00BFC6
:1004D00012498969090909010143104A916100BF64
:1004E00007201146096981430143116100BF0320C0
:1004F0001146096A0143116200BF022011460968D2
:10050000402291438143054A116000BF70470000BB
:100510001CED00E000E100E040400050000200500F
:10052000FFFF00F0000100501E3F000000000050DF
:10053000FFFFC0000040005000F0FF00000001403D
:100540000040034010B5F94A126C30239A4303016E
:10055000302423401A43F54B1A641A46126C920851
:1005600092008B079B0F1A43F04B1A6410BDF8B52D
:1005700006460F461446002C00DD04E03C22ECA1A8
:10058000EEA000F0AFFDA74200DA04E03D22E8A1B2
:10059000EFA000F0A7FD4820805DC019C5B2A542BC
:1005A00001DB281BC5B2E800311803C9F8BD30B51E
:1005B00003994824245C002C04D14C1EE5B2482445
:1005C000255405E04824245C641EE5B248242554E3
:1005D0004824245CE40004190CC430BD10B5014665
:1005E000002348225354002005E00023C4000C19C6
:1005F00023606360401C0928F7DB10BD10B5DB48A1
:10060000008800287ED000BFC848006BC007C00F1C
:100610000028F7D0002000F056FCD5490988490091
:10062000D44A5052012000F04EFCD14909884900BB
:10063000D14A5052022000F046FCCD4909884900B9
:10064000CE4A5052CA4800884000CA49085ECC4988
:100650000968884206DDC64800884000C549085E32
:10066000C7490860C24800884000C349085EC549C0
:100670000968884206DDBE4800884000BE49085E21
:10068000C0490860BA4800884000BC49085EBE49BD
:100690000968884206DDB64800884000B749085E10
:1006A000B9490860B24800884000B249085EB749BD
:1006B0000968884206DAAE4800884000AD49085E05
:1006C000B2490860AA4800884000AB49085EB049BA
:1006D0000968884206DAA64800884000A649085EF4
:1006E000AB490860A24800884000A449085EA949B7
:1006F0000968884208DA9E48008840009F49085EE1
:10070000A44900E010E0086099480088401C98491E
:10071000088008460088AF218900884204DB002059
:10072000924908809249088000F0C4FB10BD70B562
:10073000044600250AE000BF7C48006BC007C00FDC
:10074000002803D000F0B6FB681C85B2A542F2DB9E
:1007500070BDFEB500F0BCFF00BF7448006A4008E1
:100760004000401C7149086200BF00BF0846C06BD2
:100770000321890508436D49C86300BF002108466D
:10078000FFF7E0FE642001F083F803210846FFF73D
:10079000D9FE00F0A7FB00210A460B460120634C5E
:1007A000E46B84430443614DEC632C46E46B062503
:1007B000AC435D00062635402C435C4DEC632C4673
:1007C000E46B754D2C401502734EF64335402C43B7
:1007D000564DEC632C46E46B1F252D06AC430D06ED
:1007E0001F26360635402C43504DEC6300BF0320D6
:1007F0002946096A0C22914382000C231A401143B6
:100800002A46116200BF01201146096A0203914382
:10081000020303031A4011432A46116200BF00205D
:10082000012102220F2633463446354600960196B2
:100830000E0136181702F719009E3603BE191F0461
:10084000F6192705F6192F06F719019E3607BE1966
:10085000364F7E6200BF00F03CFB00F0ADFE00BFF3
:100860004E48008840004E490988081A00B24C4999
:1008700008800020085E4B49C86000BF00F032FBD2
:10088000FEBD10B500F025FB05200002FFF74FFF6D
:1008900000BF00F00FFB2548006A02218843801C3E
:1008A00022490862022001218140420992003E4B08
:1008B000D218116000BF00BF00202D490880012020
:1008C0002A49088010BDFFB585B00C4615460020AA
:1008D000049000210390354E0898281A02900020B9
:1008E00000901922D2431BE000217E230DE09818CE
:1008F00047000598C05F5F00E75FC71B0298381A82
:1009000004900498404341185B1C29488342EEDB65
:100910008E4204DD0E460392009840180090521C4F
:100920001A2AE1DB039800B209B0F0BD00000E40C6
:100930004469724465746563742E630066696C74FF
:1009400065725F6C656E677468203E203000000041
:10095000706F736974696F6E203C2066696C746592
:10096000725F6C656E677468000000006A030020A7
:1009700068030020BC03002034090020AC0E0020D6
:1009800070030020740300207803002080030020FF
:100990008403002088030020FF00FEFFAA0300203C
:1009A000AE0300200080005000E100E0FFFFFF7F69
:1009B000A2020000FFB584B00C461546002003904B
:1009C00000260290FE480190E81A00901921C943C0
:1009D0001AE000261A220EE0501887000498C05929
:1009E0009700E759C71B0098381A00150390039821
:1009F00040438619521CF3488242EDDB0198B04215
:100A000001DD01960291491C1A29E2DB029800B22D
:100A100008B0F0BDF3B5FFB096B03822EA4972A82D
:100A2000FFF744FC3822E849383164A8FFF73EFC60
:100A30003822E549703156A8FFF738FC3822E249E0
:100A4000A83148A8FFF732FC3822DF49E0313AA844
:100A5000FFF72CFC3822DD492CA8FFF727FC0020EB
:100A60002090219000221E921F921C921D92002124
:100A70001A911B91D6480088FF21013188420FD17D
:100A800072A82B9064A82A905020D2490860312087
:100A90000001D149086007202790289029903BE069
:100AA000CB4800880121490288420FD156A82B90DB
:100AB00048A82A909620C749086003200002C6492A
:100AC0000860072027902890299025E0C0480088DA
:100AD0000321090288420FD13AA82B902CA82A9012
:100AE000FA20BC49086033200001BB490860072098
:100AF0002790289029900FE072A82B9064A82A9044
:100B0000FF208000B349086031200001B24908602D
:100B10000720279028902990AD4800880121C9031B
:100B20000840002808D0481EAA490860AA49086061
:100B300000207FB018B0F0BD06A8FFF74FFD0026DB
:100B4000E1E000242546002022902390269046E0F4
:100B50002698301A1FD52698C1002A9840180CC82C
:100B600000209599085EC11786938792849185909D
:100B700010461946849B859A00F064FA974B002230
:100B800081938092829183901A46809B00F05AFA5A
:100B900004194D4120E02698C1002A9840180CC83D
:100BA0002698301A41009598405EC1178E938F9217
:100BB0008C918D90104619468C9B8D9A00F042FACC
:100BC000864B0022899388928A918B901A46889B43
:100BD00000F038FA04194D412698401C26902899B7
:100BE00026988842B4DB0120259025E02598301A0C
:100BF00007D5002323992298C018594123912290A8
:100C000017E02598401EC1B206A8299AFFF7AFFC4D
:100C1000259AD3002B9AD3180CCB90939192929152
:100C2000939000F00FFA239B229A80185941239148
:100C300022902598401C2590279925988842D5DB3D
:100C40002B9806C8284603920291239A2299611A8A
:100C5000904100910190084601A90EC900F00AFADE
:100C60005F4A00230591049000F004FA02B2730079
:100C70009698C2522B9905C9039202902A4622994E
:100C80002398611A824101920091084601A90EC978
:100C900000F0F0F905910490299800900B4606A801
:100CA000049AFFF784FC209B21A807C8591A904199
:100CB00003DA23992298219120901F991E98001BF6
:100CC000A94101DA1F951E9471009698425ED317D0
:100CD0001C991D98891A984105DA71009698405E12
:100CE000C1171D911C9071009698415ECB171B9AFD
:100CF0001A98081A934105DA71009698405EC11758
:100D00001B911A90761CAF208000864200DA18E70B
:100D10001A991C98401A0CE70146002901DA48424A
:100D200070470846FCE7F8B5002500260027002498
:100D30002C480088002867D12B492C48FFF76AFE11
:100D400004462B48006880002A4908582A49096847
:100D5000081A2949086026480068800025490C5077
:100D60002348006880000858234909684018224930
:100D70000860224800688000214908582149096814
:100D8000081A204908601D48006880001C490C5062
:100D90001A480068800008581A490968401819491B
:100DA000086013480068401C114908600846006844
:100DB000022801DB0020086010480068401C24E085
:100DC000FFFFFF7FA2020000E81A0000001C0000E5
:100DD00058030020600300206403002000E1F505B3
:100DE000809698006A03002024140020BC03002091
:100DF000940300209C03002098030020900300200F
:100E00009C1900205C0300203BE03A49086008463A
:100E100000680A2801DB002008603748006837496D
:100E20000968884214DD3448008834490988401A2A
:100E3000334908800A213248008800F09FF9304980
:100E4000088008460088FF2805DDFF20088002E0B2
:100E500000202B4908802B480068401C2949086065
:100E60000120294908802948294908602949086042
:100E700029490860400C2949086029490860294926
:100E80000860F8BD10B50020274908804880FFF7AA
:100E900060FCFFF7F6FC1D481D4908601D4908600D
:100EA0001D490860400C1D4908601D4908601D4926
:100EB000086010BD1D48006B0621884301210843CE
:100EC0001A490863704701468800184A105800B252
:100ED00070471648006A0121C90288434018134927
:100EE000086270471148006A0121C90288430F490E
:100EF00008627047900300205C0300206403002018
:100F00005A0300208C0300206A0300200080FFFFAA
:100F10007003002074030020780300208003002069
:100F20008403002088030020BC03002000000E4042
:100F300010B500F0F7FB002803D000F0F3FB401ED3
:100F400000E0002084B2224682213A4800F042FCB0
:100F50000120384909680522120491438204114393
:100F6000344A116000BF00BF1146896810229143C6
:100F7000020110231A4011432E4A916000BF002144
:100F8000104600F054F82B4800F049F802200121E7
:100F9000294A92698243284B9A61002904D01A4653
:100FA000D2690243DA6104E0234AD2698243224BC8
:100FB000DA6100BF10BD10B5044621461D4800F09F
:100FC00036F81C4800F02BF810BD10B518E000BF33
:100FD00000BF18480068C007C00F002805D00221D4
:100FE000154800F018F80028F2D00221124800F04D
:100FF00012F8002804D100BF0E4800690F4908808C
:1010000002210D4800F007F80028E0D00C480088C5
:10101000FFF7D1FF10BD0246106908407047016814
:1010200001221204914301221143016070470162C1
:10103000704700000040034040400050580300202B
:101040005A0300204343514330B55C18010C130C84
:101050000D4692B25D4380B251432C19054655436B
:101060000A0C09044D1962415843010C000440194F
:10107000514130BD70B500252C46AD1A9C4112DAA5
:1010800000252C462D1A8C4102DA00F060F970BD63
:10109000002440428C41214600F059F9002440428E
:1010A0008C41214619E000252C462D1A8C410ADA84
:1010B000002452429C41234600F049F9002440425A
:1010C0008C41214670BD002452429C41404223463F
:1010D00000248C41214600F03AF9002452429C4100
:1010E000234670BD0EB5044615460E4612A000F00C
:1010F000B7F9204600F0B4F915A000F0B1F9304678
:1011000000F0AEF914A000F0ABF96C460020E072DC
:101110000A20A0720A3407E00A21284600F02EF8BF
:1011200030310546641E2170002DF5DC204600F0AC
:1011300097F900F08DF900002A2A2A20617373655F
:101140007274696F6E206661696C65643A20000094
:101150002C2066696C6520002C206C696E6520006F
:10116000002203098B4273D3030A8B4258D3030B2B
:101170008B423CD3030C8B4221D312E003460B433A
:101180007FD4002243088B4274D303098B425FD380
:10119000030A8B4244D3030B8B4228D3030C8B42AC
:1011A0000DD3FF22090212BA030C8B4202D3121292
:1011B000090265D0030B8B4219D300E0090AC30B67
:1011C0008B4201D3CB03C01A5241830B8B4201D314
:1011D0008B03C01A5241430B8B4201D34B03C01AFD
:1011E0005241030B8B4201D30B03C01A5241C30A75
:1011F0008B4201D3CB02C01A5241830A8B4201D3E6
:101200008B02C01A5241430A8B4201D34B02C01ACF
:101210005241030A8B4201D30B02C01A5241CDD274
:10122000C3098B4201D3CB01C01A524183098B42BF
:1012300001D38B01C01A524143098B4201D34B01A8
:10124000C01A524103098B4201D30B01C01A52410B
:10125000C3088B4201D3CB00C01A524183088B4292
:1012600001D38B00C01A524143088B4201D34B007B
:10127000C01A5241411A00D20146524110467047ED
:101280005DE0CA0F00D04942031000D340425340F2
:1012900000229C4603098B422DD3030A8B4212D3B2
:1012A000FC22890112BA030A8B420CD389019211E4
:1012B0008B4208D3890192118B4204D389013AD021
:1012C000921100E08909C3098B4201D3CB01C01AF6
:1012D000524183098B4201D38B01C01A5241430909
:1012E0008B4201D34B01C01A524103098B4201D3F7
:1012F0000B01C01A5241C3088B4201D3CB00C01A64
:10130000524183088B4201D38B00C01A5241D9D27B
:1013100043088B4201D34B00C01A5241411A00D2FC
:101320000146634652415B10104601D34042002BF8
:1013300000D54942704763465B1000D3404201B577
:101340000020C046C04602BD704770477047FEB5DA
:10135000054610460C46184373D0AE468C46002016
:10136000AD1A01469C4167D36646002701243D46DD
:10137000B61A9D4102D313463A4621246546764665
:101380002F04360C3E432D0CB61A9D4104D3150C88
:101390001B042B4312041034654676462F06360A8A
:1013A0003E432D0AB61A9D4104D3150E1B022B4352
:1013B00012020834654676462F0736093E432D094A
:1013C000B61A9D4104D3150F1B012B431201241D96
:1013D00065467646AF07B6083E43AD08B61A9D414E
:1013E00004D3950F9B002B439200A41C65467646C0
:1013F000EF0776083E436D08B61A9D411AD392183E
:101400005B41641C16E00018764665464941B71AF0
:101410009D410191009009D36046B11A98418E46D2
:101420008446009801990025401C6941DD07520857
:101430002A435B08641EE6D57246634603B0F0BDDE
:10144000FFE700200146C046C0462A462346F5E78E
:10145000002000F015F8FEF717FF012000F00AF851
:1014600010B5044602E0641C00F03AFB2078002826
:10147000F9D110BD01491820ABBEFEE726000200DD
:1014800010B500F051F800F049F810BD05B50E4850
:10149000002200F001F805BDABBE01E0002070475E
:1014A000002A00D010600120704706980188074A82
:1014B000914207D10230069007980121890788439D
:1014C00007907047FEE7000000010000ABBE00007F
:1014D0007047754600F040F8AE4605006946534631
:1014E000C008C000854618B020B500F055F860BCB3
:1014F00000274908B6460026C0C5C0C5C0C5C0C53E
:10150000C0C5C0C5C0C5C0C5403D49008D46704777
:101510000446C046C0462046FEF7C1FE10B500286E
:1015200001D0FFF7A7FF10BD10B5002102A000F009
:1015300017F8012010BD0000534947414252543A68
:101540002041626E6F726D616C207465726D696EA0
:101550006174696F6E00000000487047381A0020FF
:1015600070B505460C460A2000E06D1C00F0B8FA84
:10157000002D06D028780028F7D102E0641C00F086
:10158000AFFA002C02D020780028F7D10A2000F012
:10159000A7FA70BD0348004703480449044A054BB5
:1015A0007047000005020000981A00205803002030
:1015B000981B002058000020F8B5384800903848A3
:1015C000C16B01221143C1630025354CE06B3549E5
:1015D0000840E905C90B0843E0630026206BC007FB
:1015E000C00F02D000F062F8761C082EF6D3002758
:1015F0003E462B48006BC007C00FFAD000F056F8EB
:10160000002000F05DF80446012000F059F824188D
:10161000022000F055F82418032000F051F8241897
:10162000042000F04DF82418052000F049F8241893
:10163000062000F045F82418072000F041F8201893
:10164000C010761C3F18B6B2082ED2D3F81000B2E4
:1016500015490028088014DC13480022825E009996
:101660005242914214DA2902FF390139CA030C4966
:10167000D20BCB6B0B4C23401A43CA6300990180F9
:1016800006E06D1CADB20090E81FFF38FA389CD11F
:101690000348C16B49084900C163F8BDFF0700005A
:1016A00000000E40FF00FEFFAA0300200348016B6C
:1016B000C908C900491C01637047000000000E40C2
:1016C00002498000085800B27047000000000E4038
:1016D000054901208A68000702438A600349C860FF
:1016E0000020C86070470000000200500000005059
:1016F00002498A6882438A607047000000020050F5
:1017000002498A6802438A60704700000002005064
:1017100010B5034840694003400F00F047F810BD82
:101720000002005010B50C4A10694007400F10D05D
:10173000022809D0042809D0084891690907090F2F
:10174000491CFFF70DFD10BD0548F6E700F00AF84B
:10175000F3E77D200002F0E700020050006CDC029D
:10176000808D5B000448006A0449C006800F48432E
:10177000034940187047000000020050808D5B0054
:1017800080C3C90110B5074840690007800F04D025
:10179000022805D0FFF7C6FF10BDFFF7E3FF10BD1D
:1017A000014810BD00020050006CDC02014610B57B
:1017B0000020012906D0032903D0042905D0FFF712
:1017C000B1FF10BD7D20000210BD014810BD00001A
:1017D000006CDC0270B5134B984201D1831402E017
:1017E000520801235B03104CA5681D43A5600F4CF4
:1017F000E3600023E36001231B041943016042609E
:1018000004460B48844205D1FFF78CFF6168491CF0
:10181000490003E0FFF786FF6168491CFFF7A0FC61
:1018200070BD0000000003400002005000000050A6
:10183000004003400249C8600020C86070470000B3
:1018400000000050034859210160162101608821E1
:10185000016070470001005010B51020FFF7EAFF4B
:101860001020FFF745FF10BD70B505460C4610204F
:10187000FFF746FF1020FFF7DDFF044A5068000C19
:10188000000420435060156070BD0000400001401E
:1018900070B506460025FFF73BFF7D21C900FFF725
:1018A0005FFC81B20920C006FFF7DEFF0548C16872
:1018B0008CB2AC4201D2761E01D02546F7E7FFF785
:1018C000CBFF70BD4000014010B50C490A4B0A78AF
:1018D00000249854521CD2B20A709C54521C102AF4
:1018E00003D20A2801D0002805D10C700022024939
:1018F0000420FFF7D1FD10BD281A0020B8030020F6
:10190000F8B5044603684B2000250F684E68C000F8
:10191000834233D360792179844602282ED86048E7
:10192000A279874205D05F48874202D05E4887424D
:1019300024D15E48052903600171634643718271B9
:10194000C76006D0062908D007290AD008290CD07C
:101950000EE057481F2181800AE055483F218180D1
:1019600006E053487F21818002E05148FF218180B9
:10197000FFF7D8FE00904F48864201D00120F8BD05
:101980004A4806626079002829D02079A179421856
:10199000921C4749401C8A70C87021680098FFF764
:1019A000DFFB0321FFF7DCFB43490246884201D9F4
:1019B000012542083A4B414941489F4217D193B211
:1019C0008F68042217438F60C2600021C1603D49C7
:1019D0004A68120C12041A434A600D602FE0227903
:1019E000A07911183248491C8170C270D5E72D4B7F
:1019F0009F4215D1314997B20123896808221143CA
:101A00002E4A91600821C1600021C1602E490B60FF
:101A10002E494A68120C12043A434A600D600EE0E7
:101A200093B28F68102217438F60C2600021C1609B
:101A300027494A68120C12041A434A600D60426B2F
:101A400008218A434263234802680F239B019A437B
:101A5000FF320132026082698A438261C2690A43AD
:101A6000C26181681022114381601B4DD001286042
:101A700021680098814203D8FFF772FB401E00E006
:101A8000002082B215493046FFF7A4FEB0688008F6
:101A90008000401CB060FF20013028600020F8BDAD
:101AA000000001402000014040000140C419002016
:101AB000A403002000400340FFFF0000000200508C
:101AC00000000050000001403400014020000140AF
:101AD000400001404040005000E100E0040C1000D4
:101AE00010B5FFF7F1FE10BD00E1F50500000000A4
:101AF000F8A713E8FFFFFFFF58933D3100000000F7
:101B000080686DC3FFFFFFFFC06FD72F000000008C
:101B1000D8196BE9FFFFFFFFF48477050000000090
:101B2000B9070400000000005400F6FFFFFFFFFFAC
:101B3000345F090000000000000000000000000009
:101B4000CCA0F6FFFFFFFFFFACFF09000000000084
:101B500047F8FBFFFFFFFFFF00E1F5050000000075
:101B600038EE21EFFFFFFFFFC07D82210000000063
:101B70005817C1D9FFFFFFFFA0ED0F2100000000A3
:101B8000C89594EFFFFFFFFFC887B905000000006C
:101B90001BCB0100000000007FA9FCFFFFFFFFFF3F
:101BA000D839030000000000000000000000000021
:101BB00028C6FCFFFFFFFFFF815603000000000066
:101BC000E534FEFFFFFFFFFF00E1F5050000000028
:101BD0004CD56A05000000005899FC110000000077
:101BE0004870560A00000000B0FD5E1100000000C1
:101BF00074B4090500000000B0DD580500000000C5
:101C0000AA5A0E000000000045EC0700000000008A
:101C1000D5370800000000000000000000000000B0
:101C20002BC8F7FFFFFFFFFFBB13F8FFFFFFFFFF0E
:101C300056A5F1FFFFFFFFFF681C00000000002019
:101C40005400000048020000BC1C000058030020A3
:101C50006400000048020000201D0000BC030020BA
:101C6000DC1700006402000095150000AB140000B2
:101C7000F5000000F5000000F5000000F500000090
:101C8000F5000000F5000000FD050000F500000073
:101C9000F5000000F5000000F5000000F500000070
:101CA00053030000F5000000F5000000F5000000FF
:101CB000F5000000F5000000F50000000000000045
:101CC0000000000000000000000000000000000014
:101CD0000000000000000000000000000000000004
:101CE00000000000000000000000000000000000F4
:101CF00000000000000000000000000000000000E4
:101D0000000000000000000000FF000000000000D4
:101D100000000000000000000000000000000000C3
:04000005000015954D
:00000001FF
