:020000040000FA
:1000000058030020F11900007D000000830000006B
:1000100000000000000000000000000000000000E0
:100020000000000000000000000000008900000047
:1000300000000000000000008F000000950000009C
:100040009B000000A1000000A7000000AD00000020
:10005000B3000000B9000000BF000000C5000000B0
:10006000CB000000D1000000D7000000DD00000040
:10007000E3000000E9000000EF0000001E480068F7
:1000800000471E48006800471D48006800471D489B
:10009000006800471C48006800471C48006800478B
:1000A0001B48006800471B48006800471A48006862
:1000B00000471A4800680047194800680047194877
:1000C0000068004718480068004718480068004763
:1000D000174800680047174800680047164800683E
:1000E0000047164800680047154800680047154853
:1000F00000680047FEE70000140000200400002014
:10010000080000200C000020100000201800002033
:100110001C000020200000202400002028000020D7
:100120002C00002030000020340000203800002087
:100130003C00002040000020440000204800002037
:100140004C000020500000200000000000000000D3
:10015000000000000000000000000000000000009F
:10016000000000000000000000000000000000008F
:10017000000000000000000000000000000000007F
:10018000000000000000000000000000000000006F
:10019000000000000000000000000000000000005F
:1001A000000000000000000000000000000000004F
:1001B000000000000000000000000000000000003F
:1001C000000000000000000000000000000000002F
:1001D000000000000000000000000000000000001F
:1001E000000000000000000000000000000000000F
:1001F00000000000000000000000000000000000FF
:100200000502000000F002F800F048F80CA030C829
:10021000083824182D18A246671EAB4654465D4682
:10022000AC4201D100F03AF87E460F3E0FCCB64604
:100230000126334200D0FB1AA246AB46334318478F
:10024000F01E0000201F0000103A02D378C878C1C9
:10025000FAD8520701D330C830C101D504680C6008
:10026000704700000023002400250026103A01D327
:1002700078C1FBD8520700D330C100D50B6070475E
:1002800010B5642902D101F077F810BD002010BD2F
:100290001FB5C046C0461FBD10B510BD01F047FBDD
:1002A0001146FFF7F5FF00F00EF901F05FFB03B414
:1002B000FFF7F2FF03BC01F015FB000070B5054627
:1002C0000C46164602E00FCC0FC5103E102EFAD297
:1002D000082E02D303CC03C5083E042E07D301CC5D
:1002E00001C5361F03E021782970641C6D1C761E41
:1002F000F9D270BD10B5002819DA984A03071B0F10
:10030000083B9B089B00D2588307DC0EFF23A340C9
:100310009A438B071B0E8407E40EA3401A438F4BAE
:100320000407240F083CA408A4001A5118E08C4AC2
:1003300003231B02D21883089B00D2588307DC0ECC
:10034000FF23A3409A438B071B0E8407E40EA340B0
:100350001A43834B032424021B198408A4001A5156
:1003600010BD10B502207F49096A0140002906D05E
:1003700000F0FDFE02207B49086200BF00BF10BDF7
:10038000FEB5002500240220774949690C229143DB
:1003900082000C231A401143734A516100BF734E0F
:1003A0007D20800102904F2011468969704A1140DA
:1003B00002046F4BDB431A4011436B4A916100BF4B
:1003C00001F0DCFB054600BF01F008FC074666486B
:1003D00080690001000D411C384601F057F80446C1
:1003E0001921204601F052F80321019001F04EF846
:1003F000074601950090224631465E48029B00F078
:1004000077FF6808A04205D25B4800F0EBFF5BA0D5
:1004100000F0E8FFFEBD10B501F040FC00F063F80D
:1004200000BF51480068482188434F49086000BF19
:10043000FFF7A6FF00BF00215848016000BF10BDB4
:1004400010B500210B20FFF755FF00210820FFF712
:1004500051FF01210220FFF74DFF10BD10B550489C
:100460005049096B01434F4A116300BF1E201146DA
:10047000496B0143516300BF4B494C4800F031F8D0
:100480004B49384800F02DF80820012181404209ED
:100490009200334BD218116000BF10BD1FB5E12090
:1004A00080020090082168460171002141710121FC
:1004B00081714048029040480390002202A968469A
:1004C00001F04AFC1FBDFFF7A6FFFFF7B9FFFFF7DA
:1004D000C5FF00F09EFD00F0FDFD00BF00F05CFCDC
:1004E000FCE70160704700BF01202E49896808229F
:1004F0009143C20008231A4011432A4A916000BF69
:1005000000201146896804229143820004231A4086
:100510001143244A916000BF00BF00BF124989699E
:10052000090909010143104A916100BF07201146E2
:10053000096981430143116100BF03201146096A23
:100540000143116200BF0220114609684022914315
:100550008143054A116000BF704700001CED00E0B8
:1005600000E100E04040005000020050C0270900B8
:10057000FFFF00F0E4200000A02000004368656356
:100580006B20616463436C6F636B496E69742829E7
:1005900020696E204D61696E2E630A0000010050D3
:1005A0001E3F000000000050FFFFC0000040005050
:1005B00000F0FF00000001400040034010B5F94A80
:1005C000126C30239A430301302423401A43F54B25
:1005D0001A641A46126C920892008B079B0F1A43FA
:1005E000F04B1A6410BDF8B506460F461446002CB1
:1005F00000DD04E03D22ECA1EEA000F009FFA742DF
:1006000000DA04E03E22E8A1EFA000F001FF48205C
:10061000805DC019C5B2A54201DB281BC5B2E80048
:10062000311803C9F8BD30B503994824245C002C67
:1006300004D14C1EE5B24824255405E04824245C2E
:10064000641EE5B2482425544824245CE4000419BF
:100650000CC430BD10B5014600234822535400207D
:1006600005E00023C4000C1923606360401C0928C6
:10067000F7DB10BD10B5DB48008800287ED000BF36
:10068000C848006BC007C00F0028F7D0002000F05A
:10069000E1FCD54909884900D44A5052012000F0B4
:1006A000D9FCD14909884900D14A5052022000F0B2
:1006B000D1FCCD4909884900CE4A5052CA48008829
:1006C0004000CA49085ECC490968884206DDC64830
:1006D00000884000C549085EC7490860C2480088D4
:1006E0004000C349085EC5490968884206DDBE4826
:1006F00000884000BE49085EC0490860BA480088CA
:100700004000BC49085EBE490968884206DDB6481B
:1007100000884000B749085EB9490860B2480088BF
:100720004000B249085EB7490968884206DAAE4817
:1007300000884000AD49085EB2490860AA480088B8
:100740004000AB49085EB0490968884206DAA6480D
:1007500000884000A649085EAB490860A2480088AE
:100760004000A449085EA9490968884208DA9E4801
:10077000008840009F49085EA44900E00FE008603F
:1007800099480088401C9849088008460088A0497C
:10079000884204DB0020934908809349088000F0D8
:1007A00050FC10BD70B5044600250AE000BF7D482E
:1007B000006BC007C00F002803D000F042FC681C8B
:1007C00085B2A542F2DB70BDFEB501F0ADF900BF08
:1007D0007448006A40084000401C7249086200BF2B
:1007E00000BF0846C06B0321890508436D49C863F3
:1007F00000BF00210846FFF7E1FE642001F074FA13
:1008000003210846FFF7DAFE00F033FC00210A4618
:100810000B460120634CE46B84430443614DEC635D
:100820002C46E46B0625AC435D00062635402C4380
:100830005C4DEC632C46E46B764D2C401502754EF6
:10084000F64335402C43574DEC632C46E46B1F2593
:100850002D06AC430D061F26360635402C43514D60
:10086000EC6300BF03202946096A0C2291438200F1
:100870000C231A4011432A46116200BF0120114681
:10088000096A02039143020303031A4011432A46F3
:10089000116200BF0020012102220F263346344698
:1008A0003546009601960E0136181702F719009E7C
:1008B0003603BE191F04F6192705F6192F06F71976
:1008C000019E3607BE19374F7E6200BF00F0C8FB9D
:1008D00001F09EF800BF5048008840004F49098849
:1008E000081A00B24D4908800020085E4C49C860D3
:1008F00000BF00F0BEFBFEBD10B500F0B1FB05204F
:100900000002FFF74FFF00BF00F09BFB2548006A85
:1009100002218843801C2349086202200121814072
:10092000420992003F4BD218116000BF00BF002067
:100930002D49088001202B49088010BDFFB585B0E6
:100940000C4615460020049000210390364E08986E
:10095000281A0290002000900C22D2431CE00021B3
:1009600071230DE0981847000598C05F5F00E75FAE
:10097000C71B0298381A04900498404341185B1C26
:1009800023480D388342EDDB8E4204DD0E46039290
:10099000009840180090521C0D2AE0DB039800B22A
:1009A00009B0F0BD00000E4044697244657465638F
:1009B000742E630066696C7465725F6C656E677433
:1009C00068203E2030000000706F736974696F6E9C
:1009D000203C2066696C7465725F6C656E67746834
:1009E000000000007203002070030020C8030020F4
:1009F000A4090020800F0020780300207C03002041
:100A000080030020880300208C0300209003002036
:100A1000EE020000FF00FEFFB4030020B803002038
:100A20000080005000E100E0FFFFFF7FFFB584B0D1
:100A30000C4615460020039000260290FE480190C7
:100A4000E81A00900C21C9431AE000260D220EE09E
:100A5000501887000498C0599700E759C71B0098A1
:100A6000381A00150390039840438619521CF34826
:100A70008242EDDB0198B04201DD01960291491CF2
:100A80000D29E2DB029800B208B0F0BDF3B5FFB06B
:100A900096B03822EA4972A8FFF710FC3822E849DC
:100AA000383164A8FFF70AFC3822E549703156A8AE
:100AB000FFF704FC3822E249A83148A8FFF7FEFB03
:100AC0003822DF49E0313AA8FFF7F8FB3822DD4948
:100AD0002CA8FFF7F3FB00202090219000221E920B
:100AE0001F921C921D9200211A911B91D6480088DA
:100AF0000007000F01280FD172A82B9064A82A903C
:100B00005020D249086071204001D1490860072077
:100B100027902890299039E0CB4800880007000FE3
:100B200002280FD156A82B9048A82A909620C74992
:100B3000086057204001C649086007202790289088
:100B4000299023E0C04800880007000F03280ED139
:100B50003AA82B902CA82A90FA20BC490860BD48DE
:100B6000BB49086007202790289029900EE072A8C2
:100B70002B9064A82A90FF208000B44908600020D0
:100B8000B34908600720279028902990AE48008834
:100B900080210840002808D0AF48AC490860AC4923
:100BA000086000207FB018B0F0BD06A8FFF752FD26
:100BB0000026E1E000242546002022902390269084
:100BC00044E02698301A1FD52698C1002A9840186C
:100BD0000CC800209599085EC1178693879284916E
:100BE000859010461946849B859A00F031FB9B4BFB
:100BF000002281938092829183901A46809B00F01C
:100C000027FB04194D411EE02698C1002A98401880
:100C10000CC82698301A41009598405EC1178E93F3
:100C20008F928C918D90104619468C9B8D9A00F076
:100C30000FFB8A4A0023889389928A918B9000F057
:100C400007FB04194D412698401C269028992698A8
:100C50008842B6DB0120259028E02598301A07D578
:100C60000023229F2398FA185841229223901AE0D9
:100C70002598401EC1B206A8299AFFF7B4FC259A10
:100C8000D3002B9AD2181368526891939092929144
:100C900093901A46909B00F0DBFA239B229A8018CF
:100CA0005941239122902598401C259027992598F9
:100CB0008842D2DB2B9806C8039202912946239AD8
:100CC0002298201A914101910090039B029A00F012
:100CD000D7FA634A00230591049000F0D1FA02B2DA
:100CE00073009698C2522B9905C929460392029027
:100CF000239A2298201A914101910090039B029A15
:100D000000F0BEFA05910490299800900B4606A8C1
:100D1000049AFFF788FC219F239A20992298081AA9
:100D2000974103DA23992298219120901E991F98C8
:100D3000091BA84101DA1F951E9472009698805EE7
:100D4000C3171C9A1D99101A994105DA71009698DB
:100D5000405EC1171D911C9071009698415ECB17A3
:100D60001B9A1A98081A934105DA71009698405E0A
:100D7000C1171B911A90761C30480D30864200DA5C
:100D800018E71A991C98401A0CE70146002901DA65
:100D9000484270470846FCE710B5002431480088F7
:100DA000002875D130493148FFF770FE04463048BD
:100DB00003683048304902683048FFF7BFFD3049CA
:100DC0000880304803682B48284902682B48FFF701
:100DD000B5FD2D4908802B48036825482349026842
:100DE0002548FFF7ABFD2949088025490020085E0A
:100DF0000421C94388427DDB21480021415E052949
:100E000078DC21490020085E0421C943884279DB4F
:100E10001D480021415E042974DC1C490020085E45
:100E20000221C94388426DDB18480021415E072931
:100E300068DC0120C0022CE0FFFFFF7FE102000020
:100E4000501F0000682000005803002068030020A5
:100E50006C030020F0140000FF7F000000E1F505A6
:100E600080969800720300205C150020800F0020FF
:100E70008C03002088030020A4090020C803002060
:100E80006003002090030020620300206403002020
:100E9000BEE07C49896801437A4A916000BF7A4884
:100EA000006880007949085879490968081A784922
:100EB000086075480068800074490C5072480068EA
:100EC00080000858724909684018714908607148E3
:100ED000006880007049085870490968081A6F490D
:100EE00008606C48006880006B490C5069480068D5
:100EF000800000E006E00858684909684018674922
:100F000008603BE00120C0025E49896881435D4A78
:100F1000916000BF5C48006880005C4908585C49EB
:100F20000968081A5A490860002057490968890069
:100F3000564A505054480068800011460858544999
:100F400009684018524908605248006880005249B8
:100F5000085852490968081A5049086000204D494C
:100F6000096889004C4A50504A4800688000114680
:100F700008584A49096840184849086042480068CA
:100F8000401C4149086008460068022801DB002037
:100F9000086040480068401C3E49086008460068F8
:100FA0001E2801DB002008603C4800683C490968B5
:100FB000884214DD3948008839490988401A39497E
:100FC00008800A213748008800F06EFA3549088009
:100FD00008460088FF2805DDFF20088002E0002089
:100FE0003049088030480068401C2F4908600120C3
:100FF0002E4908802E482F4908602F4908602F4944
:101000000860400C2E4908602E4908602E4908608F
:1010100010BD10B500202D4908804880FFF7D4FB93
:10102000FFF76AFC224823490860234908602349E6
:101030000860400C22490860224908602249086083
:1010400010BD2348006B0621884301210843204935
:1010500008637047014688001D4A105800B2704767
:101060001B48006A0121C9028843401818490862D8
:1010700070471748006A0121C90288431449086271
:1010800070470000404000509C030020A403002053
:10109000A003002098030020381B00205C030020E0
:1010A0006C0300205A0300209403002072030020E8
:1010B0000080FFFF780300207C03002080030020D5
:1010C000880300208C03002090030020C803002028
:1010D00000000E4010B500F051FD002803D000F0D4
:1010E0004DFD401E00E0002084B22246822150487F
:1010F00000F09CFD01204E4909680522120491432D
:10110000820411434A4A116000BF00BF114689683A
:1011100010229143020110231A401143444A916066
:1011200000BF0021104600F080F8414800F075F83B
:10113000022001213F4A926982433E4B9A61002975
:1011400004D01A46D2690243DA6104E0394AD2690E
:101150008243384BDA6100BF10BD10B5044621460A
:10116000334800F062F8324800F057F810BD10B56F
:1011700024E000BF00BF2E480068C007C00F002851
:1011800005D002212B4800F044F80028F2D00221BB
:10119000284800F03EF8002810D100BF244800691C
:1011A0002549088008460088002802D10A200880C6
:1011B00004E021480088C0B21F49088002211D4870
:1011C00000F027F80028D4D01C480078002814D05C
:1011D0001B480088C006440C1A480088C006800DD1
:1011E000044319480088C006C00E04432046FFF798
:1011F000B4FF0020114908700AE01449096801226F
:10120000D20311430846FFF7A8FF01200B490870DD
:1012100010BD02461069084070470168012212049F
:101220009143012211430160704701627047000041
:10123000004003404040005058030020AC03002011
:101240006003002062030020640300205C03002090
:101250004343514330B55C18010C130C0D4692B258
:101260005D4380B251432C19054655430A0C0904CD
:101270004D1962415843010C00044019514130BDE1
:1012800070B500252C46AD1A9C4112DA00252C467B
:101290002D1A8C4102DA00F0F0F970BD00244042B2
:1012A0008C41214600F0E9F9002440428C4121465E
:1012B00019E000252C462D1A8C410ADA00245242EE
:1012C0009C41234600F0D9F9002440428C4121463C
:1012D00070BD002452429C414042234600248C4170
:1012E000214600F0CAF9002452429C41234670BDB9
:1012F0000FB4054910B503AA029800F097FA10BC84
:1013000008BC04B018470000C4030020F8B50E461E
:101310000446002020622046E1688847002829D042
:10132000252802D06268A16820E0E16820460027F5
:10133000884705001ED028464138192802D80127C1
:10134000FF0220353246204627602946FEF798FFE7
:10135000002808D0012804D0F61DF608F60008364B
:10136000D9E7361DD7E762682846A1689047206A0A
:10137000401CCFE7206AF8BDF7B500257529106835
:10138000009914A611D0C046C046002802DA404297
:1013900011A608E0009909688A0701D50FA602E0A6
:1013A000490704D50EA6012501E0C046C046009FAE
:1013B0000024243704E000F05FFA30313955641C12
:1013C0000028F8D12B4632462146009800F0D6F985
:1013D000FEBD0000000000002D0000002B000000FA
:1013E0002000000010B5044603E000F0A9FD401CF9
:1013F00008D020780549641C0028F6D10A2000F0A6
:101400009FFD10BD0020C04310BD0000C40300209C
:101410000EB5044615460E4612A000F023FA2046EB
:1014200000F020FA15A000F01DFA304600F01AFA7C
:1014300014A000F017FA6C460020E0720A20A07297
:101440000A3407E00A21284600F02EF8303105461C
:10145000641E2170002DF5DC204600F003FA00F038
:10146000F9F900002A2A2A20617373657274696F82
:101470006E206661696C65643A2000002C20666904
:101480006C6520002C206C696E6520000022030929
:101490008B4273D3030A8B4258D3030B8B423CD34A
:1014A000030C8B4221D312E003460B437FD400226E
:1014B00043088B4274D303098B425FD3030A8B42E8
:1014C00044D3030B8B4228D3030C8B420DD3FF2252
:1014D000090212BA030C8B4202D31212090265D020
:1014E000030B8B4219D300E0090AC30B8B4201D3D3
:1014F000CB03C01A5241830B8B4201D38B03C01A1A
:101500005241430B8B4201D34B03C01A5241030B90
:101510008B4201D30B03C01A5241C30A8B4201D341
:10152000CB02C01A5241830A8B4201D38B02C01AEC
:101530005241430A8B4201D34B02C01A5241030A63
:101540008B4201D30B02C01A5241CDD2C3098B4248
:1015500001D3CB01C01A524183098B4201D38B01C5
:10156000C01A524143098B4201D34B01C01A524168
:1015700003098B4201D30B01C01A5241C3088B42AD
:1015800001D3CB00C01A524183088B4201D38B0098
:10159000C01A524143088B4201D34B00C01A52413A
:1015A000411A00D201465241104670475DE0CA0F11
:1015B00000D04942031000D34042534000229C46D1
:1015C00003098B422DD3030A8B4212D3FC228901DB
:1015D00012BA030A8B420CD3890192118B4208D3B1
:1015E000890192118B4204D389013AD0921100E013
:1015F0008909C3098B4201D3CB01C01A5241830927
:101600008B4201D38B01C01A524143098B4201D353
:101610004B01C01A524103098B4201D30B01C01A7E
:101620005241C3088B4201D3CB00C01A52418308F8
:101630008B4201D38B00C01A5241D9D243088B424E
:1016400001D34B00C01A5241411A00D201466346F1
:1016500052415B10104601D34042002B00D5494255
:10166000704763465B1000D3404201B50020C0467E
:10167000C04602BD704770477047FEB5054610462C
:101680000C46184373D0AE468C460020AD1A014676
:101690009C4167D36646002701243D46B61A9D410A
:1016A00002D313463A462124654676462F04360C6B
:1016B0003E432D0CB61A9D4104D3150C1B042B433D
:1016C00012041034654676462F06360A3E432D0A2C
:1016D000B61A9D4104D3150E1B022B431202083487
:1016E000654676462F0736093E432D09B61A9D41B9
:1016F00004D3150F1B012B431201241D65467646AA
:10170000AF07B6083E43AD08B61A9D4104D3950F06
:101710009B002B439200A41C65467646EF07760893
:101720003E436D08B61A9D411AD392185B41641C62
:1017300016E00018764665464941B71A9D41019169
:10174000009009D36046B11A98418E4684460098AD
:1017500001990025401C6941DD0752082A435B08B6
:10176000641EE6D57246634603B0F0BDFFE7002075
:101770000146C046C0462A462346F5E7FFB5044663
:101780000D4681B0243000902168880604D51022CF
:10179000E0699143216000E00120A84201DD471B80
:1017A00000E000270498A1697A191018081AA061AE
:1017B0002078C00602D42046C046C046002608E075
:1017C00003986268A168805D9047206A401C761C7F
:1017D000206204988642F3DB2078C0060AD52046B2
:1017E000C046C04606E06268A16830209047206A83
:1017F000401C206238467F1E0028F4DC07E0009879
:101800006268A168405D9047206A401C20622846BB
:101810006D1E0028F3DC2046C046C0462078000636
:1018200002D5022005B0F0BD0120FBE7084B70B5E2
:101830000D467B4400F061F8044628460020C04372
:10184000002802D00020C04370BD204670BD0000BB
:101850000B070000002000F063F8FEF71DFD0120DB
:1018600000F040F810B5044602E0641C00F064FB90
:1018700020780028F9D110BD01468008081A020915
:101880001018020A1018020C1018C0088200121852
:101890005200891A01E0401C0A390A29FBD270471C
:1018A00005B50E48002200F001F805BDABBE01E011
:1018B00000207047002A00D0106001207047069871
:1018C0000188074A914207D102300690079801210A
:1018D0008907884307907047FEE700000001000079
:1018E000ABBE000001491820ABBEFEE72600020097
:1018F00001694A1C02610878704700B58FB00291F7
:101900000021059105490193794403911146049002
:101910006846FFF7FBFC0FB000BD0000E5FFFFFFCE
:1019200010B500F02FF800F027F810BD704775468D
:1019300000F040F8AE46050069465346C008C000B6
:10194000854618B020B500F055F860BC002749085E
:10195000B6460026C0C5C0C5C0C5C0C5C0C5C0C547
:10196000C0C5C0C5403D49008D4670470446C046CD
:10197000C0462046FEF79BFC10B5002801D0FFF7BB
:10198000B1FF10BD10B5002102A000F017F8012032
:1019900010BD0000534947414252543A2041626E03
:1019A0006F726D616C207465726D696E6174696FC0
:1019B0006E00000000487047241C002070B50546EA
:1019C0000C460A2000E06D1C00F0B6FA002D06D08F
:1019D00028780028F7D102E0641C00F0ADFA002C52
:1019E00002D020780028F7D10A2000F0A5FA70BDB7
:1019F0000348004703480449024A044B704700006B
:101A000005020000881C0020580300205800002018
:101A1000F8B5384800903848C16B01221143C163C2
:101A20000025354CE06B35490840E905C90B0843F2
:101A3000E0630026206BC007C00F02D000F062F800
:101A4000761C082EF6D300273E462B48006BC007B5
:101A5000C00FFAD000F056F8002000F05DF8044600
:101A6000012000F059F82418022000F055F824183D
:101A7000032000F051F82418042000F04DF8241839
:101A8000052000F049F82418062000F045F8241835
:101A9000072000F041F82018C010761C3F18B6B29D
:101AA000082ED2D3F81000B215490028088014DCA3
:101AB00013480022825E00995242914214DA2902B0
:101AC000FF390139CA030C49D20BCB6B0B4C2340B5
:101AD0001A43CA630099018006E06D1CADB2009004
:101AE000E81FFF38FA389CD10348C16B4908490008
:101AF000C163F8BDFF07000000000E40FF00FEFFBD
:101B0000B40300200348016BC908C900491C0163E4
:101B10007047000000000E4002498000085800B2E3
:101B20007047000000000E40054901208A68000748
:101B300002438A600349C8600020C8607047000003
:101B4000000200500000005002498A6882438A6007
:101B5000704700000002005002498A6802438A6010
:101B6000704700000002005010B503484069400370
:101B7000400F00F047F810BD0002005010B50C4AAD
:101B800010694007400F10D0022809D0042809D05E
:101B9000084891690907090F491CFFF777FC10BD38
:101BA0000548F6E700F00AF8F3E77D200002F0E7C9
:101BB00000020050006CDC02808D5B000448006A6B
:101BC0000449C006800F484303494018704700008D
:101BD00000020050808D5B0080C3C90110B507482A
:101BE00040690007800F04D0022805D0FFF7C6FF28
:101BF00010BDFFF7E3FF10BD014810BD000200500B
:101C0000006CDC02014610B50020012906D0032932
:101C100003D0042905D0FFF7B1FF10BD7D200002DD
:101C200010BD014810BD0000006CDC0270B5134B04
:101C3000984201D1831402E0520801235B03104C47
:101C4000A5681D43A5600F4CE3600023E3600123FA
:101C50001B0419430160426004460B48844205D1CD
:101C6000FFF78CFF6168491C490003E0FFF786FF1E
:101C70006168491CFFF70AFC70BD000000000340CA
:101C80000002005000000050004003400249C860BC
:101C90000020C86070470000000000500348592130
:101CA0000160162101608821016070470001005029
:101CB00010B51020FFF7EAFF1020FFF745FF10BD19
:101CC00070B505460C461020FFF746FF1020FFF7C1
:101CD000DDFF044A5068000C00042043506015608A
:101CE00070BD00004000014070B506460025FFF7BA
:101CF0003BFF7D21C900FFF7C9FB81B20920C00667
:101D0000FFF7DEFF0548C1688CB2AC4201D2761EF7
:101D100001D02546F7E7FFF7CBFF70BD400001403B
:101D200010B50C490A4B0A7800249854521CD2B2C0
:101D30000A709C54521C102A03D20A2801D0002891
:101D400005D10C70002202490420FFF7AFFD10BD41
:101D5000141C0020C2030020F8B5044603684B2081
:101D600000250F684E68C000834233D36079217923
:101D7000844602282ED86048A279874205D05F4861
:101D8000874202D05E48874224D15E48052903601D
:101D90000171634643718271C76006D0062908D07D
:101DA00007290AD008290CD00EE057481F2181804E
:101DB0000AE055483F21818006E053487F21818019
:101DC00002E05148FF218180FFF7D8FE00904F4884
:101DD000864201D00120F8BD4A4806626079002899
:101DE00029D02079A1794218921C4749401C8A7059
:101DF000C87021680098FFF749FB0321FFF746FBF5
:101E000043490246884201D9012542083A4B4149DB
:101E100041489F4217D193B28F68042217438F60C5
:101E2000C2600021C1603D494A68120C12041A4385
:101E30004A600D602FE02279A07911183248491CC0
:101E40008170C270D5E72D4B9F4215D1314997B2B1
:101E500001238968082211432E4A91600821C1603C
:101E60000021C1602E490B602E494A68120C1204F1
:101E70003A434A600D600EE093B28F681022174318
:101E80008F60C2600021C16027494A68120C1204A9
:101E90001A434A600D60426B08218A43426323481B
:101EA00002680F239B019A43FF320132026082696C
:101EB0008A438261C2690A43C26181681022114368
:101EC00081601B4DD001286021680098814203D8B1
:101ED000FFF7DCFA401E00E0002082B215493046D0
:101EE000FFF7A4FEB06880088000401CB060FF20AF
:101EF000013028600020F8BD0000014020000140B2
:101F000040000140B01B0020AE0300200040034011
:101F1000FFFF0000000200500000005000000140E0
:101F2000340001402000014040000140404000508A
:101F300000E100E0040C100010B5FFF7F1FE10BD49
:101F400010B5FFF7EDFE002010BD000000000000FE
:101F500000E1F50500000000F8A713E8FFFFFFFF10
:101F600058933D310000000080686DC3FFFFFFFF04
:101F7000C06FD72F00000000D8196BE9FFFFFFFFEB
:101F8000F484770500000000B90704000000000099
:101F90005400F6FFFFFFFFFF345F09000000000060
:101FA0000000000000000000CCA0F6FFFFFFFFFFD4
:101FB000ACFF09000000000047F8FBFFFFFFFFFF38
:101FC00000E1F5050000000038EE21EFFFFFFFFF04
:101FD000C07D8221000000005817C1D9FFFFFFFF1C
:101FE000A0ED0F2100000000C89594EFFFFFFFFF58
:101FF000C887B905000000001BCB010000000000ED
:102000007FA9FCFFFFFFFFFFD8390300000000009D
:10201000000000000000000028C6FCFFFFFFFFFFDB
:102020008156030000000000E534FEFFFFFFFFFFC4
:1020300000E1F505000000004CD56A050000000035
:102040005899FC11000000004870560A000000007A
:10205000B0FD5E110000000074B40905000000002E
:10206000B0DD580500000000AA5A0E000000000074
:1020700045EC070000000000D53708000000000014
:1020800000000000000000002BC8F7FFFFFFFFFF6B
:10209000BB13F8FFFFFFFFFF56A5F1FFFFFFFFFF98
:1020A000414443436C6B20697320677265617465BA
:1020B00072207468616E2068616C662074686520A7
:1020C0006672657175656E6379206F6620746865E8
:1020D0002048434C4B2E2054686174277320626162
:1020E000642E0A006164635F636C6B5F66207368D3
:1020F0006F756C642062652025642C20697320252F
:1021000064202E2073616D706C655F662073686F4C
:10211000756C642062652025642C20697320256419
:102120002E2068636C6B2069732025640A00000010
:102130006021000000000020540000004802000060
:10214000B421000058030020700000004802000085
:1021500024220000C8030020C01800006402000010
:10216000F1190000BF180000F5000000F5000000A4
:10217000F5000000F5000000F5000000F50000008B
:1021800075060000F5000000F5000000F5000000F5
:10219000F5000000F500000063030000F5000000FA
:1021A000F5000000F5000000F5000000F50000005B
:1021B000F50000000000000000000000000000002A
:1021C000000000000000000000000000000000000F
:1021D00000000000000000000000000000000000FF
:1021E00000000000000000000000000000000000EF
:1021F00000000000000000000000000000000000DF
:102200000000000000000000000000FF00000000CF
:1022100000000000000000000000000000000000BE
:0422200000000000BA
:04000005000019F1ED
:00000001FF
