:020000040000FA
:1000000058030020091900007D0000008300000053
:1000100000000000000000000000000000000000E0
:100020000000000000000000000000008900000047
:1000300000000000000000008F000000950000009C
:100040009B000000A1000000A7000000AD00000020
:10005000B3000000B9000000BF000000C5000000B0
:10006000CB000000D1000000D7000000DD00000040
:10007000E3000000E9000000EF0000001E480068F7
:1000800000471E48006800471D48006800471D489B
:10009000006800471C48006800471C48006800478B
:1000A0001B48006800471B48006800471A48006862
:1000B00000471A4800680047194800680047194877
:1000C0000068004718480068004718480068004763
:1000D000174800680047174800680047164800683E
:1000E0000047164800680047154800680047154853
:1000F00000680047FEE70000140000200400002014
:10010000080000200C000020100000201800002033
:100110001C000020200000202400002028000020D7
:100120002C00002030000020340000203800002087
:100130003C00002040000020440000204800002037
:100140004C000020500000200000000000000000D3
:10015000000000000000000000000000000000009F
:10016000000000000000000000000000000000008F
:10017000000000000000000000000000000000007F
:10018000000000000000000000000000000000006F
:10019000000000000000000000000000000000005F
:1001A000000000000000000000000000000000004F
:1001B000000000000000000000000000000000003F
:1001C000000000000000000000000000000000002F
:1001D000000000000000000000000000000000001F
:1001E000000000000000000000000000000000000F
:1001F00000000000000000000000000000000000FF
:100200000502000000F002F800F048F80CA030C829
:10021000083824182D18A246671EAB4654465D4682
:10022000AC4201D100F03AF87E460F3E0FCCB64604
:100230000126334200D0FB1AA246AB46334318478F
:10024000781D0000A81D0000103A02D378C878C1BC
:10025000FAD8520701D330C830C101D504680C6008
:10026000704700000023002400250026103A01D327
:1002700078C1FBD8520700D330C100D50B6070475E
:1002800010B5642902D101F019F810BD002010BD8D
:100290001FB5C046C0461FBD10B510BD01F0D3FA52
:1002A0001146FFF7F5FF00F0F0F801F0EBFA03B4A8
:1002B000FFF7F2FF03BC01F0A1FA000070B505469C
:1002C0000C46164602E00FCC0FC5103E102EFAD297
:1002D000082E02D303CC03C5083E042E07D301CC5D
:1002E00001C5361F03E021782970641C6D1C761E41
:1002F000F9D270BD10B5002819DA884A03071B0F20
:10030000083B9B089B00D2588307DC0EFF23A340C9
:100310009A438B071B0E8407E40EA3401A437F4BBE
:100320000407240F083CA408A4001A5118E07C4AD2
:1003300003231B02D21883089B00D2588307DC0ECC
:10034000FF23A3409A438B071B0E8407E40EA340B0
:100350001A43734B032424021B198408A4001A5166
:1003600010BD10B502206F49096A0140002906D06E
:1003700000F0C7FE02206B49086200BF00BF10BD3D
:1003800070B5002400250220674949690C22914379
:1003900082000C231A401143634A516100BF4F2071
:1003A00011468969614A11400204604BDB431A40DF
:1003B00011435D4A916100BF01F06EFB044600BF2E
:1003C00001F09AFB0646584880690001000D411C67
:1003D000304600F0E7FF054670BD10B501F0ECFBBC
:1003E00000F061F800BF50480068482188434E493A
:1003F000086000BFFFF7C4FF00BF00214C48016048
:1004000000BF10BD10B500210B20FFF773FF0021C6
:100410000820FFF76FFF01210220FFF76BFF10BDDF
:1004200010B544484449096B0143434A116300BF76
:100430001E201146496B0143516300BF3F494048AC
:1004400000F02FF83F49374800F02BF80820012131
:10045000814042099200324BD218116000BF10BD9A
:100460001FB5E1208002009008216846017100213B
:100470004171012181713448029034480390002277
:1004800002A9684601F0F6FB1FBDFFF7A6FFFFF7C4
:10049000B9FFFFF7C5FF00F073FD00BF00F040FC9F
:1004A000FCE70160704700BF0120234989680822EA
:1004B0009143C20008231A4011431F4A916000BFB4
:1004C00000201146896804229143820004231A40C7
:1004D0001143194A916000BF00BF00BF12498969EA
:1004E000090909010143104A916100BF0720114623
:1004F000096981430143116100BF03201146096A64
:100500000143116200BF0220114609684022914355
:100510008143054A116000BF704700001CED00E0F8
:1005200000E100E04040005000020050FFFF00F0FA
:10053000000100501E3F000000000050FFFFC000FF
:100540000040005000F0FF00000001400040034068
:1005500010B5F94A126C30239A430301302423402A
:100560001A43F54B1A641A46126C920892008B07D4
:100570009B0F1A43F04B1A6410BDF8B506460F46A0
:100580001446002C00DD04E03C22ECA1EEA000F0BB
:10059000CBFEA74200DA04E03D22E8A1EFA000F084
:1005A000C3FE4820805DC019C5B2A54201DB281BEF
:1005B000C5B2E800311803C9F8BD30B50399482425
:1005C000245C002C04D14C1EE5B24824255405E0DF
:1005D0004824245C641EE5B2482425544824245C45
:1005E000E40004190CC430BD10B5014600234822B4
:1005F0005354002005E00023C4000C1923606360FD
:10060000401C0928F7DB10BD10B5DB480088002826
:100610007ED000BFC848006BC007C00F0028F7D0CD
:10062000002000F0CEFCD54909884900D44A505238
:10063000012000F0C6FCD14909884900D14A505236
:10064000022000F0BEFCCD4909884900CE4A505234
:10065000CA4800884000CA49085ECC4909688842F7
:1006600006DDC64800884000C549085EC7490860E5
:10067000C24800884000C349085EC54909688842ED
:1006800006DDBE4800884000BE49085EC0490860DB
:10069000BA4800884000BC49085EBE4909688842E3
:1006A00006DDB64800884000B749085EB9490860D1
:1006B000B24800884000B249085EB74909688842DC
:1006C00006DAAE4800884000AD49085EB2490860CD
:1006D000AA4800884000AB49085EB04909688842D2
:1006E00006DAA64800884000A649085EAB490860C3
:1006F000A24800884000A449085EA94909688842C8
:1007000008DA9E48008840009F49085EA44900E03E
:1007100010E0086099480088401C98490880084605
:100720000088AF218900884204DB002092490880BC
:100730009249088000F03CFC10BD70B504460025CD
:100740000AE000BF7C48006BC007C00F002803D040
:1007500000F02EFC681C85B2A542F2DB70BDFEB530
:1007600001F070F900BF7448006A40084000401C66
:100770007149086200BF00BF0846C06B03218905AC
:1007800008436D49C86300BF00210846FFF7E0FE3B
:10079000642001F037FA03210846FFF7D9FE00F084
:1007A0001FFC00210A460B460120634CE46B844386
:1007B0000443614DEC632C46E46B0625AC435D00BD
:1007C000062635402C435C4DEC632C46E46B754D9E
:1007D0002C401502734EF64335402C43564DEC63C6
:1007E0002C46E46B1F252D06AC430D061F2636064E
:1007F00035402C43504DEC6300BF03202946096A65
:100800000C22914382000C231A4011432A461162A4
:1008100000BF01201146096A02039143020303034A
:100820001A4011432A46116200BF00200121022212
:100830000F26334634463546009601960E0136188B
:100840001702F719009E3603BE191F04F619270573
:10085000F6192F06F719019E3607BE19364F7E622C
:1008600000BF00F0B4FB01F061F800BF4E48008803
:1008700040004E490988081A00B24C4908800020FF
:10088000085E4B49C86000BF00F0AAFBFEBD10B572
:1008900000F09DFB05200002FFF74FFF00BF00F0B6
:1008A00087FB2548006A02218843801C2249086290
:1008B000022001218140420992003E4BD218116072
:1008C00000BF00BF00202D49088001202A49088070
:1008D00010BDFFB585B00C461546002004900021E0
:1008E0000390354E0898281A0290002000900C22A0
:1008F000D2431BE0002171230DE0981847000598B2
:10090000C05F5F00E75FC71B0298381A0490049825
:10091000404341185B1C29488342EEDB8E4204DDD4
:100920000E460392009840180090521C0D2AE1DBFD
:10093000039800B209B0F0BD00000E404469724453
:1009400065746563742E630066696C7465725F6CB0
:10095000656E677468203E2030000000706F736918
:1009600074696F6E203C2066696C7465725F6C659B
:100970006E677468000000006A03002068030020AE
:10098000C003002038090020B00E002070030020B2
:1009900074030020780300208003002084030020DB
:1009A00088030020FF00FEFFAA030020AE03002002
:1009B0000080005000E100E0FFFFFF7FAF02000079
:1009C000FFB584B00C461546002003900026029027
:1009D000FE480190E81A00900C21C9431AE0002655
:1009E0000D220EE0501887000498C0599700E7596F
:1009F000C71B0098381A00150390039840438619C6
:100A0000521CF3488242EDDB0198B04201DD0196B1
:100A10000291491C0D29E2DB029800B208B0F0BD3A
:100A2000F3B5FFB096B0032180913822E94972A84E
:100A3000FFF744FC3822E749383164A8FFF73EFC51
:100A40003822E449703156A8FFF738FC3822E149D2
:100A5000A83148A8FFF732FC3822DE49E0313AA835
:100A6000FFF72CFC3822DC492CA8FFF727FC0022DA
:100A7000209221921E921F921C921D921A921B92FA
:100A8000809801280FD172A82B9064A92A91502038
:100A9000D249086071204001D149086007202790A1
:100AA0002890299037E080980007000F02280FD186
:100AB00056A82B9048A82A909620C849086057202D
:100AC0004001C7490860072027902890299022E01C
:100AD00080980007000F03280ED13AA82B902CA86D
:100AE0002A90FA20BD490860BE48BD490860072029
:100AF0002790289029900EE072A82B9064A82A9045
:100B0000FF208000B54908600020B5490860072033
:100B1000279028902990802180980840002808D0AC
:100B2000B148AE490860AE49086000207FB018B0F7
:100B3000F0BD06A8FFF758FD0026E1E00024254699
:100B4000002022902390269046E02698301A1FD548
:100B50002698C1002A9840180CC800209599085E74
:100B6000C117879388928591869010461946859B78
:100B7000869A00F00FFB9D4B002282938192839115
:100B800084901A46819B00F005FB04194D4120E03A
:100B90002698C1002A9840180CC82698301A41009F
:100BA0009598405EC1178F9390928D918E901046CC
:100BB00019468D9B8E9A00F0EDFA8C4B00228A9399
:100BC00089928B918C901A46899B00F0E3FA041964
:100BD0004D412698401C2690289926988842B4DBDF
:100BE0000120259025E02598301A07D50023229F63
:100BF0002398FA1858412292239017E02598401E16
:100C0000C1B206A8299AFFF7B8FC259AD3002B9AFF
:100C1000D3180CCB919392929391949000F0BAFADE
:100C2000239B229A80185941239122902598401C99
:100C30002590279925988842D5DB2B9806C80392E2
:100C400002912A4623992298201A8A410192009003
:100C500001A90EC900F0B6FA654A00230591049077
:100C600000F0B0FA01B27200969881522B9806C833
:100C7000039202912946229A2398A21A8141009256
:100C80000191039B029A009800F09CFA0591049050
:100C9000299800900B4606A8049AFFF78EFC219B2A
:100CA000239A20992298081A934103DA23992298CB
:100CB000219120901E991F98091BA84101DA1F95C8
:100CC0001E9472009698805EC3171D9A1C99081A8C
:100CD0009A4105DA71009698405EC1171D911C90EB
:100CE00071009698415ECB171A9A1B98891A834116
:100CF00005DA71009698405EC1171B911A90761C18
:100D0000AF208000864200DA18E71C991A98081A6A
:100D10000CE70146002901DA484270470846FCE723
:100D2000FEB5002400250026002732480088002850
:100D300078D131493148FFF773FE074630480368E0
:100D40003048314902682D48FFF7C3FD04462F485B
:100D500003682C482E4902682848FFF7BAFD05466B
:100D60002A48036826482A4902682748FFF7B1FD48
:100D70000646022C73DC0020C04384426FDB022D48
:100D80006DDC85426BDB012E69DC864267DB01206E
:100D9000C0022049896801431E4A916000BF1E4875
:100DA000006880001D4908581D490968081A1C4937
:100DB000086019480068800018490F5016480068FC
:100DC000800008581649096840182CE0FFFFFF7F93
:100DD000AF020000681E0000801F000060030020BA
:100DE00064030020F0140000FF7F000000E1F5051F
:100DF000809698006A03002028140020C003002079
:100E0000840300208003002038090020880300208C
:100E1000B00E002040400050940300209C030020AE
:100E200098030020ABE072490860724800688000B7
:100E30007149085871490968081A704908606D4875
:100E4000006880006C490F506A48006880000858AC
:100E50006A4909684018694908603CE0FFE70120D9
:100E6000C002674989688143654A916000BF65484F
:100E700000688000644908585D490968081A5C499F
:100E8000086000205F49096889005F4A50505D484A
:100E900000688000114608585549096840185449AF
:100EA000086054480068800053490858534909684D
:100EB000081A5249086000204E49096889004E4AC4
:100EC00050504C4800688000114608584B4909684A
:100ED00040184A4908604B480068401C494908606E
:100EE00008460068022801DB0020086041480068CD
:100EF000401C40490860084600681E2801DB0020AD
:100F000008603E48006841490968884214DD3B4852
:100F100000883E490988401A3D4908800A213C481A
:100F2000008800F04DFA3A49088008460088FF28FA
:100F300005DDFF20088002E00020354908803548A3
:100F40000068401C334908602C48006833462A4634
:100F500021460097019030A000F06CF9012038493B
:100F600008803848384908603849086038490860BE
:100F7000400C384908603849086038490860FEBDAF
:100F800010B50020364908804880FFF7E8FBFFF7DE
:100F90007EFC2C482C4908602C4908602C490860CC
:100FA000400C2C4908602C4908602C49086010BD91
:100FB0002C48006B06218843012108432949086316
:100FC000704701468800274A105800B270472548EC
:100FD000006A0121C902884340182249086270470B
:100FE0002048006A0121C90288431E4908627047EF
:100FF0009803002090030020A01900205C0300202B
:1010000040400050940300209C0300206403002013
:101010005A0300208C03002041423A2025642C20F2
:1010200041433A2025642C2042433A2025642C2059
:10103000616D702025642C206176652025640A008E
:101040006A0300200080FFFF70030020740300206B
:101050007803002080030020840300208803002000
:10106000C003002000000E4010B500F015FD002860
:1010700003D000F011FD401E00E0002084B22246A3
:101080008221404800F060FD01203E4909680522A8
:1010900012049143820411433A4A116000BF00BF19
:1010A0001146896810229143020110231A4011430E
:1010B000344A916000BF0021104600F060F83148CA
:1010C00000F055F8022001212F4A926982432E4BED
:1010D0009A61002904D01A46D2690243DA6104E019
:1010E000294AD2698243284BDA6100BF10BD10B58E
:1010F00004462146234800F042F8224800F037F821
:1011000010BD10B524E000BF00BF1E480068C00736
:10111000C00F002805D002211B4800F024F8002849
:10112000F2D00221184800F01EF8002810D100BFAC
:10113000144800691549088008460088002802D133
:101140000A20088004E011480088C0B20F490880D6
:1011500002210D4800F007F80028D4D00C48008880
:10116000FFF7C5FF10BD02461069084070470168CF
:101170000122120491430122114301607047016270
:1011800070470000004003404040005058030020DA
:101190005A0300204343514330B55C18010C130C33
:1011A0000D4692B25D4380B251432C19054655431A
:1011B0000A0C09044D1962415843010C00044019FE
:1011C000514130BD70B500252C46AD1A9C4112DA54
:1011D00000252C462D1A8C4102DA00F0DAF970BD98
:1011E000002440428C41214600F0D3F900244042C3
:1011F0008C41214619E000252C462D1A8C410ADA33
:10120000002452429C41234600F0C3F9002440428E
:101210008C41214670BD002452429C4140422346ED
:1012200000248C41214600F0B4F9002452429C4134
:10123000234670BD0FB4054910B503AA029800F00B
:1012400081FA10BC08BC04B018470000BC030020A1
:10125000F8B50E460446002020622046E168884723
:10126000002829D0252802D06268A16820E0E16822
:1012700020460027884705001ED0284641381928F7
:1012800002D80127FF022035324620462760294632
:10129000FEF7F6FF002808D0012804D0F61DF60856
:1012A000F6000836D9E7361DD7E762682846A168F8
:1012B0009047206A401CCFE7206AF8BDF7B50025AB
:1012C00075291068009914A611D0C046C0460028A0
:1012D00002DA404211A608E0009909688A0701D5A0
:1012E0000FA602E0490704D50EA6012501E0C0467D
:1012F000C046009F0024243704E000F049FA303152
:101300003955641C0028F8D12B46324621460098F6
:1013100000F0C0F9FEBD0000000000002D0000003C
:101320002B000000200000000EB5044615460E46B6
:1013300012A000F023FA204600F020FA15A000F0D9
:101340001DFA304600F01AFA14A000F017FA6C46A5
:101350000020E0720A20A0720A3407E00A21284621
:1013600000F02EF830310546641E2170002DF5DCAA
:10137000204600F003FA00F0F9F900002A2A2A209A
:10138000617373657274696F6E206661696C656400
:101390003A2000002C2066696C6520002C206C69C6
:1013A0006E652000002203098B4273D3030A8B422F
:1013B00058D3030B8B423CD3030C8B4221D312E056
:1013C00003460B437FD4002243088B4274D30309A6
:1013D0008B425FD3030A8B4244D3030B8B4228D347
:1013E000030C8B420DD3FF22090212BA030C8B426D
:1013F00002D31212090265D0030B8B4219D300E00D
:10140000090AC30B8B4201D3CB03C01A5241830B91
:101410008B4201D38B03C01A5241430B8B4201D341
:101420004B03C01A5241030B8B4201D30B03C01A6A
:101430005241C30A8B4201D3CB02C01A5241830AE4
:101440008B4201D38B02C01A5241430A8B4201D313
:101450004B02C01A5241030A8B4201D30B02C01A3D
:101460005241CDD2C3098B4201D3CB01C01A5241A4
:1014700083098B4201D38B01C01A524143098B422D
:1014800001D34B01C01A524103098B4201D30B0116
:10149000C01A5241C3088B4201D3CB00C01A52413B
:1014A00083088B4201D38B00C01A524143088B4200
:1014B00001D34B00C01A5241411A00D20146524199
:1014C000104670475DE0CA0F00D04942031000D3B8
:1014D0004042534000229C4603098B422DD3030A0D
:1014E0008B4212D3FC22890112BA030A8B420CD31D
:1014F000890192118B4208D3890192118B4204D346
:1015000089013AD0921100E08909C3098B4201D3C5
:10151000CB01C01A524183098B4201D38B01C01AFF
:10152000524143098B4201D34B01C01A5241030976
:101530008B4201D30B01C01A5241C3088B4201D325
:10154000CB00C01A524183088B4201D38B00C01AD2
:101550005241D9D243088B4201D34B00C01A5241A9
:10156000411A00D20146634652415B10104601D336
:101570004042002B00D54942704763465B1000D3C0
:10158000404201B50020C046C04602BD70477047CA
:101590007047FEB5054610460C46184373D0AE465C
:1015A0008C460020AD1A01469C4167D36646002751
:1015B00001243D46B61A9D4102D313463A462124E2
:1015C000654676462F04360C3E432D0CB61A9D41D7
:1015D00004D3150C1B042B431204103465467646C5
:1015E0002F06360A3E432D0AB61A9D4104D3150E26
:1015F0001B022B4312020834654676462F07360934
:101600003E432D09B61A9D4104D3150F1B012B43F0
:101610001201241D65467646AF07B6083E43AD0865
:10162000B61A9D4104D3950F9B002B439200A41C36
:1016300065467646EF0776083E436D08B61A9D412B
:101640001AD392185B41641C16E000187646654672
:101650004941B71A9D410191009009D36046B11AE2
:1016600098418E468446009801990025401C6941A6
:10167000DD0752082A435B08641EE6D572466346BE
:1016800003B0F0BDFFE700200146C046C0462A4631
:101690002346F5E7FFB504460D4681B0243000909F
:1016A0002168880604D51022E0699143216000E09A
:1016B0000120A84201DD471B00E000270498A16932
:1016C0007A191018081AA0612078C00602D42046A2
:1016D000C046C046002608E003986268A168805DA5
:1016E0009047206A401C761C206204988642F3DBF7
:1016F0002078C0060AD52046C046C04606E062688B
:10170000A16830209047206A401C206238467F1E26
:101710000028F4DC07E000986268A168405D90470B
:10172000206A401C206228466D1E0028F3DC2046FB
:10173000C046C0462078000602D5022005B0F0BDA4
:101740000120FBE7084B70B50D467B4400F061F8C3
:10175000044628460020C043002802D00020C04391
:1017600070BD204670BD00000F070000002000F093
:1017700063F8FEF791FD012000F040F810B5044633
:1017800002E0641C00F066FB20780028F9D110BD4F
:1017900001468008081A02091018020A1018020CE3
:1017A0001018C008820012185200891A01E0401C6B
:1017B0000A390A29FBD2704705B50E48002200F00D
:1017C00001F805BDABBE01E000207047002A00D043
:1017D00010600120704706980188074A914207D19E
:1017E00002300690079801218907884307907047C7
:1017F000FEE7000000010000ABBE00000149182018
:10180000ABBEFEE72600020001694A1C02610878AF
:10181000704700B58FB002910021059105490193F1
:1018200079440391114604906846FFF711FD0FB00B
:1018300000BD0000E5FFFFFF10B500F02FF800F03D
:1018400027F810BD7047754600F040F8AE46050019
:1018500069465346C008C000854618B020B500F060
:1018600055F860BC00274908B6460026C0C5C0C56B
:10187000C0C5C0C5C0C5C0C5C0C5C0C5403D490084
:101880008D4670470446C046C0462046FEF70FFD11
:1018900010B5002801D0FFF7B1FF10BD10B5002131
:1018A00002A000F017F8012010BD00005349474185
:1018B0004252543A2041626E6F726D616C207465C1
:1018C000726D696E6174696F6E0000000048704748
:1018D0008C1A002070B505460C460A2000E06D1CED
:1018E00000F0B8FA002D06D028780028F7D102E0E1
:1018F000641C00F0AFFA002C02D020780028F7D149
:101900000A2000F0A7FA70BD0348004703480449C5
:10191000044A054B7047000005020000F01A002041
:1019200058030020F01B002058000020F8B538486C
:1019300000903848C16B01221143C1630025354C2A
:10194000E06B35490840E905C90B0843E063002610
:10195000206BC007C00F02D000F062F8761C082E82
:10196000F6D300273E462B48006BC007C00FFAD0C5
:1019700000F056F8002000F05DF80446012000F069
:1019800059F82418022000F055F82418032000F01C
:1019900051F82418042000F04DF82418052000F018
:1019A00049F82418062000F045F82418072000F014
:1019B00041F82018C010761C3F18B6B2082ED2D3BA
:1019C000F81000B215490028088014DC13480022E2
:1019D000825E00995242914214DA2902FF3901399C
:1019E000CA030C49D20BCB6B0B4C23401A43CA637E
:1019F0000099018006E06D1CADB20090E81FFF3831
:101A0000FA389CD10348C16B49084900C163F8BD4D
:101A1000FF07000000000E40FF00FEFFAA030020A9
:101A20000348016BC908C900491C016370470000E5
:101A300000000E4002498000085800B270470000C4
:101A400000000E40054901208A68000702438A60B1
:101A50000349C8600020C8607047000000020050C1
:101A60000000005002498A6882438A607047000083
:101A70000002005002498A6802438A6070470000F1
:101A80000002005010B5034840694003400F00F0C9
:101A900047F810BD0002005010B50C4A106940070D
:101AA000400F10D0022809D0042809D008489169B5
:101AB0000907090F491CFFF775FC10BD0548F6E73B
:101AC00000F00AF8F3E77D200002F0E70002005082
:101AD000006CDC02808D5B000448006A0449C0068B
:101AE000800F48430349401870470000000200502F
:101AF000808D5B0080C3C90110B5074840690007AD
:101B0000800F04D0022805D0FFF7C6FF10BDFFF7F5
:101B1000E3FF10BD014810BD00020050006CDC0264
:101B2000014610B50020012906D0032903D004295D
:101B300005D0FFF7B1FF10BD7D20000210BD0148A8
:101B400010BD0000006CDC0270B5134B984201D14F
:101B5000831402E0520801235B03104CA5681D4367
:101B6000A5600F4CE3600023E36001231B041943CD
:101B70000160426004460B48844205D1FFF78CFFA8
:101B80006168491C490003E0FFF786FF6168491C52
:101B9000FFF708FC70BD0000000003400002005089
:101BA00000000050004003400249C8600020C860A7
:101BB00070470000000000500348592101601621C1
:101BC00001608821016070470001005010B51020AD
:101BD000FFF7EAFF1020FFF745FF10BD70B505467F
:101BE0000C461020FFF746FF1020FFF7DDFF044AE8
:101BF0005068000C000420435060156070BD000068
:101C00004000014070B506460025FFF73BFF7D21EF
:101C1000C900FFF7C7FB81B20920C006FFF7DEFF4E
:101C20000548C1688CB2AC4201D2761E01D025466F
:101C3000F7E7FFF7CBFF70BD4000014010B50C493E
:101C40000A4B0A7800249854521CD2B20A709C5451
:101C5000521C102A03D20A2801D0002805D10C708A
:101C6000002202490420FFF7ADFD10BD7C1A0020C0
:101C7000B8030020F8B5044603684B2000250F6820
:101C80004E68C000834233D36079217984460228AC
:101C90002ED86048A279874205D05F48874202D09B
:101CA0005E48874224D15E4805290360017163467E
:101CB00043718271C76006D0062908D007290AD06F
:101CC00008290CD00EE057481F2181800AE05548B2
:101CD0003F21818006E053487F21818002E0514806
:101CE000FF218180FFF7D8FE00904F48864201D047
:101CF0000120F8BD4A4806626079002829D0207981
:101D0000A1794218921C4749401C8A70C87021680A
:101D10000098FFF747FB0321FFF744FB43490246C6
:101D2000884201D9012542083A4B414941489F4226
:101D300017D193B28F68042217438F60C2600021CD
:101D4000C1603D494A68120C12041A434A600D6092
:101D50002FE02279A07911183248491C8170C27095
:101D6000D5E72D4B9F4215D1314997B201238968A0
:101D7000082211432E4A91600821C1600021C160F0
:101D80002E490B602E494A68120C12043A434A60ED
:101D90000D600EE093B28F68102217438F60C2600F
:101DA0000021C16027494A68120C12041A434A6094
:101DB0000D60426B08218A434263234802680F2367
:101DC0009B019A43FF320132026082698A43826139
:101DD000C2690A43C26181681022114381601B4DB0
:101DE000D001286021680098814203D8FFF7DAFA11
:101DF000401E00E0002082B215493046FFF7A4FEE5
:101E0000B06880088000401CB060FF20013028606E
:101E10000020F8BD000001402000014040000140CA
:101E2000181A0020A403002000400340FFFF000018
:101E3000000200500000005000000140340001404A
:101E400020000140400001404040005000E100E01F
:101E5000040C100010B5FFF7F1FE10BD10B5FFF730
:101E6000EDFE002010BD000000E1F50500000000BF
:101E7000F8A713E8FFFFFFFF58933D310000000073
:101E800080686DC3FFFFFFFFC06FD72F0000000009
:101E9000D8196BE9FFFFFFFFF4847705000000000D
:101EA000B9070400000000005400F6FFFFFFFFFF29
:101EB000345F090000000000000000000000000086
:101EC000CCA0F6FFFFFFFFFFACFF09000000000001
:101ED00047F8FBFFFFFFFFFF00E1F50500000000F2
:101EE00038EE21EFFFFFFFFFC07D822100000000E0
:101EF0005817C1D9FFFFFFFFA0ED0F210000000020
:101F0000C89594EFFFFFFFFFC887B90500000000E8
:101F10001BCB0100000000007FA9FCFFFFFFFFFFBB
:101F2000D83903000000000000000000000000009D
:101F300028C6FCFFFFFFFFFF8156030000000000E2
:101F4000E534FEFFFFFFFFFF00E1F50500000000A4
:101F50004CD56A05000000005899FC1100000000F3
:101F60004870560A00000000B0FD5E11000000003D
:101F700074B4090500000000B0DD58050000000041
:101F8000AA5A0E000000000045EC07000000000007
:101F9000D53708000000000000000000000000002D
:101FA0002BC8F7FFFFFFFFFFBB13F8FFFFFFFFFF8B
:101FB00056A5F1FFFFFFFFFFE81F00000000002013
:101FC00054000000480200003C200000580300209C
:101FD0006800000048020000A4200000C0030020A8
:101FE000301800006402000009190000D717000033
:101FF000F5000000F5000000F5000000F50000000D
:10200000F5000000F500000009060000F5000000E2
:10201000F5000000F5000000F5000000F5000000EC
:1020200063030000F5000000F5000000F50000006B
:10203000F5000000F5000000F500000000000000C1
:102040000000000000000000000000000000000090
:102050000000000000000000000000000000000080
:102060000000000000000000000000000000000070
:102070000000000000000000000000000000000060
:10208000000000000000000000FF00000000000051
:102090000000000000000000000000000000000040
:0420A000000000003C
:0400000500001909D5
:00000001FF
